{
  "contractName": "ERC223WithFallback",
  "abi": [
    {
      "constant": true,
      "inputs": [],
      "name": "originator",
      "outputs": [
        {
          "name": "",
          "type": "address"
        }
      ],
      "payable": false,
      "stateMutability": "view",
      "type": "function"
    },
    {
      "constant": true,
      "inputs": [],
      "name": "tokenReceived",
      "outputs": [
        {
          "name": "",
          "type": "uint256"
        }
      ],
      "payable": false,
      "stateMutability": "view",
      "type": "function"
    },
    {
      "inputs": [
        {
          "name": "tokenContract_",
          "type": "address"
        }
      ],
      "payable": false,
      "stateMutability": "nonpayable",
      "type": "constructor"
    },
    {
      "constant": false,
      "inputs": [
        {
          "name": "from",
          "type": "address"
        },
        {
          "name": "value",
          "type": "uint256"
        },
        {
          "name": "",
          "type": "bytes"
        }
      ],
      "name": "tokenFallback",
      "outputs": [],
      "payable": false,
      "stateMutability": "nonpayable",
      "type": "function"
    },
    {
      "constant": false,
      "inputs": [],
      "name": "requestRefund",
      "outputs": [],
      "payable": false,
      "stateMutability": "nonpayable",
      "type": "function"
    }
  ],
  "bytecode": "0x6080604052600060025534801561001557600080fd5b506040516020806102dd833981016040525160008054600160a060020a03909216600160a060020a0319909216919091179055610286806100576000396000f3006080604052600436106100615763ffffffff7c01000000000000000000000000000000000000000000000000000000006000350416633c815d9e8114610066578063c0ee0b8a14610097578063d5cef13314610102578063eae19df414610117575b600080fd5b34801561007257600080fd5b5061007b61013e565b60408051600160a060020a039092168252519081900360200190f35b3480156100a357600080fd5b50604080516020600460443581810135601f8101849004840285018401909552848452610100948235600160a060020a031694602480359536959460649492019190819084018382808284375094975061014d9650505050505050565b005b34801561010e57600080fd5b5061010061019e565b34801561012357600080fd5b5061012c610254565b60408051918252519081900360200190f35b600154600160a060020a031681565b600054600160a060020a0316331461016457600080fd5b506001805473ffffffffffffffffffffffffffffffffffffffff1916600160a060020a039390931692909217909155600280549091019055565b600154600160a060020a031633146101b557600080fd5b6002546000106101c457600080fd5b60008054600154600254604080517fa9059cbb000000000000000000000000000000000000000000000000000000008152600160a060020a039384166004820152602481019290925251919092169263a9059cbb926044808201939182900301818387803b15801561023557600080fd5b505af1158015610249573d6000803e3d6000fd5b505060006002555050565b600254815600a165627a7a72305820fa6be68209b087a469094024528e2f10b53932512c6b9dfc9ebfd39875f7dca60029",
  "source": "pragma solidity ^0.4.11;\n\nimport '../abstracts/ERC223Interface.sol';\n\ncontract ERC223NoFallback {\n}\n\ncontract ERC223WithFallback {\n    ERC223Interface tokenContract;\n    address public originator;\n    uint public tokenReceived = 0;\n\n    constructor(address tokenContract_) public {\n        tokenContract = ERC223Interface(tokenContract_);\n    }\n\n    function tokenFallback(address from, uint value, bytes /*_data*/) public {\n        require(msg.sender == address(tokenContract));\n        originator = from;\n        tokenReceived += value;\n    }\n\n    function requestRefund() public {\n        require(msg.sender == originator);\n        require(tokenReceived > 0);\n        tokenContract.transfer(originator, tokenReceived);\n        tokenReceived = 0;\n    }\n}\n",
  "sourcePath": "/srv/work/projects/noia-network/noia-governance/contracts/test/ERC223TestContracts.sol",
  "compiler": {
    "name": "solc",
    "version": "0.4.24+commit.e67f0147.Emscripten.clang"
  },
  "schemaVersion": "2.0.0",
  "updatedAt": "2018-07-26T12:36:39.705Z"
}