{
  "contractName": "NoiaContractsFactoryV1",
  "abi": [
    {
      "constant": true,
      "inputs": [],
      "name": "marketplace",
      "outputs": [
        {
          "name": "",
          "type": "address"
        }
      ],
      "payable": false,
      "stateMutability": "view",
      "type": "function"
    },
    {
      "inputs": [
        {
          "name": "marketplace",
          "type": "address"
        }
      ],
      "payable": false,
      "stateMutability": "nonpayable",
      "type": "constructor"
    },
    {
      "anonymous": false,
      "inputs": [
        {
          "indexed": false,
          "name": "businessAddress",
          "type": "address"
        }
      ],
      "name": "NoiaBusinessCreatedV1",
      "type": "event"
    },
    {
      "anonymous": false,
      "inputs": [
        {
          "indexed": false,
          "name": "nodeAddress",
          "type": "address"
        }
      ],
      "name": "NoiaNodeCreatedV1",
      "type": "event"
    },
    {
      "anonymous": false,
      "inputs": [
        {
          "indexed": false,
          "name": "certAddress",
          "type": "address"
        }
      ],
      "name": "NoiaCertificateCreatedV1",
      "type": "event"
    },
    {
      "anonymous": false,
      "inputs": [
        {
          "indexed": false,
          "name": "jobPostAddress",
          "type": "address"
        }
      ],
      "name": "NoiaJobPostCreatedV1",
      "type": "event"
    },
    {
      "constant": false,
      "inputs": [],
      "name": "createBusiness",
      "outputs": [],
      "payable": false,
      "stateMutability": "nonpayable",
      "type": "function"
    },
    {
      "constant": false,
      "inputs": [
        {
          "name": "infoType",
          "type": "bytes32"
        },
        {
          "name": "infoData",
          "type": "bytes"
        }
      ],
      "name": "createNode",
      "outputs": [],
      "payable": false,
      "stateMutability": "nonpayable",
      "type": "function"
    },
    {
      "constant": false,
      "inputs": [
        {
          "name": "certificateName",
          "type": "bytes32"
        },
        {
          "name": "issuer",
          "type": "address"
        },
        {
          "name": "recipient",
          "type": "address"
        }
      ],
      "name": "createCertificate",
      "outputs": [],
      "payable": false,
      "stateMutability": "nonpayable",
      "type": "function"
    },
    {
      "constant": false,
      "inputs": [
        {
          "name": "employer",
          "type": "address"
        },
        {
          "name": "infoType",
          "type": "bytes32"
        },
        {
          "name": "infoData",
          "type": "bytes"
        }
      ],
      "name": "createJobPost",
      "outputs": [],
      "payable": false,
      "stateMutability": "nonpayable",
      "type": "function"
    }
  ],
  "bytecode": "0x6060604052341561000f57600080fd5b6040516020806150bf8339810160405280805190602001909190505080806000806101000a81548173ffffffffffffffffffffffffffffffffffffffff021916908373ffffffffffffffffffffffffffffffffffffffff16021790555050506150428061007d6000396000f30060606040526004361061006d576000357c0100000000000000000000000000000000000000000000000000000000900463ffffffff1680637389dd5f146100725780638d85618a146100dc578063abc8c7af146100f1578063cb36aee614610146578063fce5f4b6146101cf575b600080fd5b341561007d57600080fd5b6100da60048080356000191690602001909190803590602001908201803590602001908080601f01602080910402602001604051908101604052809392919081815260200183838082843782019150505050505091905050610234565b005b34156100e757600080fd5b6100ef610560565b005b34156100fc57600080fd5b61010461080d565b604051808273ffffffffffffffffffffffffffffffffffffffff1673ffffffffffffffffffffffffffffffffffffffff16815260200191505060405180910390f35b341561015157600080fd5b6101cd600480803573ffffffffffffffffffffffffffffffffffffffff169060200190919080356000191690602001909190803590602001908201803590602001908080601f01602080910402602001604051908101604052809392919081815260200183838082843782019150505050505091905050610832565b005b34156101da57600080fd5b61023260048080356000191690602001909190803573ffffffffffffffffffffffffffffffffffffffff1690602001909190803573ffffffffffffffffffffffffffffffffffffffff16906020019091905050610ce9565b005b60003083836102416112bd565b808473ffffffffffffffffffffffffffffffffffffffff1673ffffffffffffffffffffffffffffffffffffffff168152602001836000191660001916815260200180602001828103825283818151815260200191508051906020019080838360005b838110156102be5780820151818401526020810190506102a3565b50505050905090810190601f1680156102eb5780820380516001836020036101000a031916815260200191505b50945050505050604051809103906000f080151561030857600080fd5b90508073ffffffffffffffffffffffffffffffffffffffff1663a6f9dae1336040518263ffffffff167c0100000000000000000000000000000000000000000000000000000000028152600401808273ffffffffffffffffffffffffffffffffffffffff1673ffffffffffffffffffffffffffffffffffffffff168152602001915050600060405180830381600087803b15156103a457600080fd5b5af115156103b157600080fd5b5050506000809054906101000a900473ffffffffffffffffffffffffffffffffffffffff1673ffffffffffffffffffffffffffffffffffffffff1663d9b5c4a56040518163ffffffff167c0100000000000000000000000000000000000000000000000000000000028152600401602060405180830381600087803b151561043857600080fd5b5af1151561044557600080fd5b5050506040518051905073ffffffffffffffffffffffffffffffffffffffff1663f15ae568826040518263ffffffff167c0100000000000000000000000000000000000000000000000000000000028152600401808273ffffffffffffffffffffffffffffffffffffffff1673ffffffffffffffffffffffffffffffffffffffff168152602001915050600060405180830381600087803b15156104e857600080fd5b5af115156104f557600080fd5b5050507f7201a6c6f7b62368f61168125f64da6da1bb91d6ded899707e8b27741309aa1f81604051808273ffffffffffffffffffffffffffffffffffffffff1673ffffffffffffffffffffffffffffffffffffffff16815260200191505060405180910390a1505050565b60003061056b6112ce565b808273ffffffffffffffffffffffffffffffffffffffff1673ffffffffffffffffffffffffffffffffffffffff168152602001915050604051809103906000f08015156105b757600080fd5b90508073ffffffffffffffffffffffffffffffffffffffff1663a6f9dae1336040518263ffffffff167c0100000000000000000000000000000000000000000000000000000000028152600401808273ffffffffffffffffffffffffffffffffffffffff1673ffffffffffffffffffffffffffffffffffffffff168152602001915050600060405180830381600087803b151561065357600080fd5b5af1151561066057600080fd5b5050506000809054906101000a900473ffffffffffffffffffffffffffffffffffffffff1673ffffffffffffffffffffffffffffffffffffffff16633dfc32f66040518163ffffffff167c0100000000000000000000000000000000000000000000000000000000028152600401602060405180830381600087803b15156106e757600080fd5b5af115156106f457600080fd5b5050506040518051905073ffffffffffffffffffffffffffffffffffffffff1663f15ae568826040518263ffffffff167c0100000000000000000000000000000000000000000000000000000000028152600401808273ffffffffffffffffffffffffffffffffffffffff1673ffffffffffffffffffffffffffffffffffffffff168152602001915050600060405180830381600087803b151561079757600080fd5b5af115156107a457600080fd5b5050507ff191f0f605bc0c587b08ae89ac813aab383537c15ba23a9273b81adbbfbbf16b81604051808273ffffffffffffffffffffffffffffffffffffffff1673ffffffffffffffffffffffffffffffffffffffff16815260200191505060405180910390a150565b6000809054906101000a900473ffffffffffffffffffffffffffffffffffffffff1681565b60008060009054906101000a900473ffffffffffffffffffffffffffffffffffffffff1673ffffffffffffffffffffffffffffffffffffffff16633dfc32f66040518163ffffffff167c0100000000000000000000000000000000000000000000000000000000028152600401602060405180830381600087803b15156108b857600080fd5b5af115156108c557600080fd5b5050506040518051905073ffffffffffffffffffffffffffffffffffffffff1663a25047a2856040518263ffffffff167c0100000000000000000000000000000000000000000000000000000000028152600401808273ffffffffffffffffffffffffffffffffffffffff1673ffffffffffffffffffffffffffffffffffffffff168152602001915050602060405180830381600087803b151561096857600080fd5b5af1151561097557600080fd5b50505060405180519050151561098a57600080fd5b308484846109966112df565b808573ffffffffffffffffffffffffffffffffffffffff1673ffffffffffffffffffffffffffffffffffffffff1681526020018473ffffffffffffffffffffffffffffffffffffffff1673ffffffffffffffffffffffffffffffffffffffff168152602001836000191660001916815260200180602001828103825283818151815260200191508051906020019080838360005b83811015610a45578082015181840152602081019050610a2a565b50505050905090810190601f168015610a725780820380516001836020036101000a031916815260200191505b5095505050505050604051809103906000f0801515610a9057600080fd5b90508073ffffffffffffffffffffffffffffffffffffffff1663a6f9dae1336040518263ffffffff167c0100000000000000000000000000000000000000000000000000000000028152600401808273ffffffffffffffffffffffffffffffffffffffff1673ffffffffffffffffffffffffffffffffffffffff168152602001915050600060405180830381600087803b1515610b2c57600080fd5b5af11515610b3957600080fd5b5050506000809054906101000a900473ffffffffffffffffffffffffffffffffffffffff1673ffffffffffffffffffffffffffffffffffffffff1663e4f7dd636040518163ffffffff167c0100000000000000000000000000000000000000000000000000000000028152600401602060405180830381600087803b1515610bc057600080fd5b5af11515610bcd57600080fd5b5050506040518051905073ffffffffffffffffffffffffffffffffffffffff1663f15ae568826040518263ffffffff167c0100000000000000000000000000000000000000000000000000000000028152600401808273ffffffffffffffffffffffffffffffffffffffff1673ffffffffffffffffffffffffffffffffffffffff168152602001915050600060405180830381600087803b1515610c7057600080fd5b5af11515610c7d57600080fd5b5050507f87483442f9df61141b89e9268cee3477231a2fc786adb21f9bef908f26bbf99081604051808273ffffffffffffffffffffffffffffffffffffffff1673ffffffffffffffffffffffffffffffffffffffff16815260200191505060405180910390a150505050565b60008060009054906101000a900473ffffffffffffffffffffffffffffffffffffffff1673ffffffffffffffffffffffffffffffffffffffff16633dfc32f66040518163ffffffff167c0100000000000000000000000000000000000000000000000000000000028152600401602060405180830381600087803b1515610d6f57600080fd5b5af11515610d7c57600080fd5b5050506040518051905073ffffffffffffffffffffffffffffffffffffffff1663a25047a2846040518263ffffffff167c0100000000000000000000000000000000000000000000000000000000028152600401808273ffffffffffffffffffffffffffffffffffffffff1673ffffffffffffffffffffffffffffffffffffffff168152602001915050602060405180830381600087803b1515610e1f57600080fd5b5af11515610e2c57600080fd5b505050604051805190501515610e4157600080fd5b6000809054906101000a900473ffffffffffffffffffffffffffffffffffffffff1673ffffffffffffffffffffffffffffffffffffffff1663d9b5c4a56040518163ffffffff167c0100000000000000000000000000000000000000000000000000000000028152600401602060405180830381600087803b1515610ec557600080fd5b5af11515610ed257600080fd5b5050506040518051905073ffffffffffffffffffffffffffffffffffffffff1663a25047a2836040518263ffffffff167c0100000000000000000000000000000000000000000000000000000000028152600401808273ffffffffffffffffffffffffffffffffffffffff1673ffffffffffffffffffffffffffffffffffffffff168152602001915050602060405180830381600087803b1515610f7557600080fd5b5af11515610f8257600080fd5b505050604051805190501515610f9757600080fd5b30848484610fa36112f0565b808573ffffffffffffffffffffffffffffffffffffffff1673ffffffffffffffffffffffffffffffffffffffff16815260200184600019166000191681526020018373ffffffffffffffffffffffffffffffffffffffff1673ffffffffffffffffffffffffffffffffffffffff1681526020018273ffffffffffffffffffffffffffffffffffffffff1673ffffffffffffffffffffffffffffffffffffffff168152602001945050505050604051809103906000f080151561106457600080fd5b90508073ffffffffffffffffffffffffffffffffffffffff1663a6f9dae1336040518263ffffffff167c0100000000000000000000000000000000000000000000000000000000028152600401808273ffffffffffffffffffffffffffffffffffffffff1673ffffffffffffffffffffffffffffffffffffffff168152602001915050600060405180830381600087803b151561110057600080fd5b5af1151561110d57600080fd5b5050506000809054906101000a900473ffffffffffffffffffffffffffffffffffffffff1673ffffffffffffffffffffffffffffffffffffffff1663ba9bb76d6040518163ffffffff167c0100000000000000000000000000000000000000000000000000000000028152600401602060405180830381600087803b151561119457600080fd5b5af115156111a157600080fd5b5050506040518051905073ffffffffffffffffffffffffffffffffffffffff1663f15ae568826040518263ffffffff167c0100000000000000000000000000000000000000000000000000000000028152600401808273ffffffffffffffffffffffffffffffffffffffff1673ffffffffffffffffffffffffffffffffffffffff168152602001915050600060405180830381600087803b151561124457600080fd5b5af1151561125157600080fd5b5050507fc3c5727858fb83aea970bde367824702915388f25c0bb9f7210f0c831dfc6ce081604051808273ffffffffffffffffffffffffffffffffffffffff1673ffffffffffffffffffffffffffffffffffffffff16815260200191505060405180910390a150505050565b604051610d46806200130283390190565b60405161072f806200204883390190565b6040516116f2806200277783390190565b6040516111ae8062003e698339019056006060604052341561000f57600080fd5b604051610d46380380610d468339810160405280805190602001909190805190602001909190805182019190505082806001336000806101000a81548173ffffffffffffffffffffffffffffffffffffffff021916908373ffffffffffffffffffffffffffffffffffffffff16021790555080600160146101000a81548161ffff021916908361ffff16021790555081600160006101000a81548173ffffffffffffffffffffffffffffffffffffffff021916908373ffffffffffffffffffffffffffffffffffffffff16021790555050508073ffffffffffffffffffffffffffffffffffffffff163373ffffffffffffffffffffffffffffffffffffffff1614151561011b57600080fd5b508160048160001916905550806005908051906020019061013d929190610146565b505050506101eb565b828054600181600116156101000203166002900490600052602060002090601f016020900481019282601f1061018757805160ff19168380011785556101b5565b828001600101855582156101b5579182015b828111156101b4578251825591602001919060010190610199565b5b5090506101c291906101c6565b5090565b6101e891905b808211156101e45760008160009055506001016101cc565b5090565b90565b610b4c806101fa6000396000f3006060604052600436106100ba576000357c0100000000000000000000000000000000000000000000000000000000900463ffffffff1680631f5ddb4f146100bf578063256b4e21146101295780632e5b5a131461016257806354fd4d50146101f0578063699af622146102215780638da5cb5b1461028b578063a6f9dae1146102e0578063afb74f4814610319578063b2017b0e1461034a578063b34b464814610383578063c45a0155146103ac578063ed12679c14610401575b600080fd5b34156100ca57600080fd5b6100d261043a565b6040518080602001828103825283818151815260200191508051906020019060200280838360005b838110156101155780820151818401526020810190506100fa565b505050509050019250505060405180910390f35b341561013457600080fd5b610160600480803573ffffffffffffffffffffffffffffffffffffffff1690602001909190505061053a565b005b341561016d57600080fd5b61017561068c565b6040518080602001828103825283818151815260200191508051906020019080838360005b838110156101b557808201518184015260208101905061019a565b50505050905090810190601f1680156101e25780820380516001836020036101000a031916815260200191505b509250505060405180910390f35b34156101fb57600080fd5b61020361072a565b604051808261ffff1661ffff16815260200191505060405180910390f35b341561022c57600080fd5b61028960048080356000191690602001909190803590602001908201803590602001908080601f0160208091040260200160405190810160405280939291908181526020018383808284378201915050505050509190505061073e565b005b341561029657600080fd5b61029e610764565b604051808273ffffffffffffffffffffffffffffffffffffffff1673ffffffffffffffffffffffffffffffffffffffff16815260200191505060405180910390f35b34156102eb57600080fd5b610317600480803573ffffffffffffffffffffffffffffffffffffffff16906020019091905050610789565b005b341561032457600080fd5b61032c610827565b60405180826000191660001916815260200191505060405180910390f35b341561035557600080fd5b610381600480803573ffffffffffffffffffffffffffffffffffffffff1690602001909190505061082d565b005b341561038e57600080fd5b61039661091d565b6040518082815260200191505060405180910390f35b34156103b757600080fd5b6103bf610923565b604051808273ffffffffffffffffffffffffffffffffffffffff1673ffffffffffffffffffffffffffffffffffffffff16815260200191505060405180910390f35b341561040c57600080fd5b610438600480803573ffffffffffffffffffffffffffffffffffffffff16906020019091905050610949565b005b610442610a3b565b61044a610a3b565b600080600060035460405180591061045f5750595b9080825280602002602001820160405250935060009250600091505b6002805490508210156105305760028281548110151561049757fe5b906000526020600020900160009054906101000a900473ffffffffffffffffffffffffffffffffffffffff1690506104ce81610a28565b15610525578084848060010195508151811015156104e857fe5b9060200190602002019073ffffffffffffffffffffffffffffffffffffffff16908173ffffffffffffffffffffffffffffffffffffffff16815250505b81600101915061047b565b8394505050505090565b808073ffffffffffffffffffffffffffffffffffffffff163373ffffffffffffffffffffffffffffffffffffffff1614151561057557600080fd5b61057e81610a28565b151561058957600080fd5b60018173ffffffffffffffffffffffffffffffffffffffff166354fd4d506040518163ffffffff167c0100000000000000000000000000000000000000000000000000000000028152600401602060405180830381600087803b15156105ee57600080fd5b5af115156105fb57600080fd5b5050506040518051905061ffff1614151561061557600080fd5b600280548060010182816106299190610a4f565b9160005260206000209001600084909190916101000a81548173ffffffffffffffffffffffffffffffffffffffff021916908373ffffffffffffffffffffffffffffffffffffffff16021790555050600360008154600101919050819055505050565b60058054600181600116156101000203166002900480601f0160208091040260200160405190810160405280929190818152602001828054600181600116156101000203166002900480156107225780601f106106f757610100808354040283529160200191610722565b820191906000526020600020905b81548152906001019060200180831161070557829003601f168201915b505050505081565b600160149054906101000a900461ffff1681565b8160048160001916905550806005908051906020019061075f929190610a7b565b505050565b6000809054906101000a900473ffffffffffffffffffffffffffffffffffffffff1681565b6000809054906101000a900473ffffffffffffffffffffffffffffffffffffffff1673ffffffffffffffffffffffffffffffffffffffff163373ffffffffffffffffffffffffffffffffffffffff161415156107e457600080fd5b806000806101000a81548173ffffffffffffffffffffffffffffffffffffffff021916908373ffffffffffffffffffffffffffffffffffffffff16021790555050565b60045481565b808073ffffffffffffffffffffffffffffffffffffffff163373ffffffffffffffffffffffffffffffffffffffff1614151561086857600080fd5b61087181610a28565b151561087c57600080fd5b60018173ffffffffffffffffffffffffffffffffffffffff166354fd4d506040518163ffffffff167c0100000000000000000000000000000000000000000000000000000000028152600401602060405180830381600087803b15156108e157600080fd5b5af115156108ee57600080fd5b5050506040518051905061ffff1614151561090857600080fd5b60036000815460019003919050819055505050565b60035481565b600160009054906101000a900473ffffffffffffffffffffffffffffffffffffffff1681565b808073ffffffffffffffffffffffffffffffffffffffff163373ffffffffffffffffffffffffffffffffffffffff1614151561098457600080fd5b61098d81610a28565b151561099857600080fd5b60018173ffffffffffffffffffffffffffffffffffffffff166354fd4d506040518163ffffffff167c0100000000000000000000000000000000000000000000000000000000028152600401602060405180830381600087803b15156109fd57600080fd5b5af11515610a0a57600080fd5b5050506040518051905061ffff16141515610a2457600080fd5b5050565b600080823b905060008111915050919050565b602060405190810160405280600081525090565b815481835581811511610a7657818360005260206000209182019101610a759190610afb565b5b505050565b828054600181600116156101000203166002900490600052602060002090601f016020900481019282601f10610abc57805160ff1916838001178555610aea565b82800160010185558215610aea579182015b82811115610ae9578251825591602001919060010190610ace565b5b509050610af79190610afb565b5090565b610b1d91905b80821115610b19576000816000905550600101610b01565b5090565b905600a165627a7a723058209a896d38aea4cc0a615021a20c5f33220295f055d91a603b0995ac01467de93500296060604052341561000f57600080fd5b60405160208061072f8339810160405280805190602001909190505080806001336000806101000a81548173ffffffffffffffffffffffffffffffffffffffff021916908373ffffffffffffffffffffffffffffffffffffffff16021790555080600160146101000a81548161ffff021916908361ffff16021790555081600160006101000a81548173ffffffffffffffffffffffffffffffffffffffff021916908373ffffffffffffffffffffffffffffffffffffffff16021790555050508073ffffffffffffffffffffffffffffffffffffffff163373ffffffffffffffffffffffffffffffffffffffff1614151561010957600080fd5b50506106158061011a6000396000f30060606040526004361061006d576000357c0100000000000000000000000000000000000000000000000000000000900463ffffffff1680632781e0161461007257806354fd4d50146100ab5780638da5cb5b146100dc578063a6f9dae114610131578063c45a01551461016a575b600080fd5b341561007d57600080fd5b6100a9600480803573ffffffffffffffffffffffffffffffffffffffff169060200190919050506101bf565b005b34156100b657600080fd5b6100be6104ec565b604051808261ffff1661ffff16815260200191505060405180910390f35b34156100e757600080fd5b6100ef610500565b604051808273ffffffffffffffffffffffffffffffffffffffff1673ffffffffffffffffffffffffffffffffffffffff16815260200191505060405180910390f35b341561013c57600080fd5b610168600480803573ffffffffffffffffffffffffffffffffffffffff16906020019091905050610525565b005b341561017557600080fd5b61017d6105c3565b604051808273ffffffffffffffffffffffffffffffffffffffff1673ffffffffffffffffffffffffffffffffffffffff16815260200191505060405180910390f35b6000809054906101000a900473ffffffffffffffffffffffffffffffffffffffff1673ffffffffffffffffffffffffffffffffffffffff163373ffffffffffffffffffffffffffffffffffffffff1614151561021a57600080fd5b600160009054906101000a900473ffffffffffffffffffffffffffffffffffffffff1673ffffffffffffffffffffffffffffffffffffffff1663abc8c7af6040518163ffffffff167c0100000000000000000000000000000000000000000000000000000000028152600401602060405180830381600087803b151561029f57600080fd5b5af115156102ac57600080fd5b5050506040518051905073ffffffffffffffffffffffffffffffffffffffff1663ba9bb76d6040518163ffffffff167c0100000000000000000000000000000000000000000000000000000000028152600401602060405180830381600087803b151561031857600080fd5b5af1151561032557600080fd5b5050506040518051905073ffffffffffffffffffffffffffffffffffffffff1663a25047a2826040518263ffffffff167c0100000000000000000000000000000000000000000000000000000000028152600401808273ffffffffffffffffffffffffffffffffffffffff1673ffffffffffffffffffffffffffffffffffffffff168152602001915050602060405180830381600087803b15156103c857600080fd5b5af115156103d557600080fd5b5050506040518051905015156103ea57600080fd5b60018173ffffffffffffffffffffffffffffffffffffffff166354fd4d506040518163ffffffff167c0100000000000000000000000000000000000000000000000000000000028152600401602060405180830381600087803b151561044f57600080fd5b5af1151561045c57600080fd5b5050506040518051905061ffff1614151561047657600080fd5b8073ffffffffffffffffffffffffffffffffffffffff16632ca151226040518163ffffffff167c0100000000000000000000000000000000000000000000000000000000028152600401600060405180830381600087803b15156104d957600080fd5b5af115156104e657600080fd5b50505050565b600160149054906101000a900461ffff1681565b6000809054906101000a900473ffffffffffffffffffffffffffffffffffffffff1681565b6000809054906101000a900473ffffffffffffffffffffffffffffffffffffffff1673ffffffffffffffffffffffffffffffffffffffff163373ffffffffffffffffffffffffffffffffffffffff1614151561058057600080fd5b806000806101000a81548173ffffffffffffffffffffffffffffffffffffffff021916908373ffffffffffffffffffffffffffffffffffffffff16021790555050565b600160009054906101000a900473ffffffffffffffffffffffffffffffffffffffff16815600a165627a7a72305820937832ab533cf0b72488f3b4c01d109f3324cacc43285ece82f781441c3ad3e700296060604052341561000f57600080fd5b6040516116f23803806116f28339810160405280805190602001909190805190602001909190805190602001909190805182019190505083806001336000806101000a81548173ffffffffffffffffffffffffffffffffffffffff021916908373ffffffffffffffffffffffffffffffffffffffff16021790555080600160146101000a81548161ffff021916908361ffff16021790555081600160006101000a81548173ffffffffffffffffffffffffffffffffffffffff021916908373ffffffffffffffffffffffffffffffffffffffff16021790555050508073ffffffffffffffffffffffffffffffffffffffff163373ffffffffffffffffffffffffffffffffffffffff1614151561012457600080fd5b5082600260006101000a81548173ffffffffffffffffffffffffffffffffffffffff021916908373ffffffffffffffffffffffffffffffffffffffff16021790555081600381600019169055508060049080519060200190610187929190610191565b5050505050610236565b828054600181600116156101000203166002900490600052602060002090601f016020900481019282601f106101d257805160ff1916838001178555610200565b82800160010185558215610200579182015b828111156101ff5782518255916020019190600101906101e4565b5b50905061020d9190610211565b5090565b61023391905b8082111561022f576000816000905550600101610217565b5090565b90565b6114ad806102456000396000f3006060604052600436106100a4576000357c0100000000000000000000000000000000000000000000000000000000900463ffffffff1680632e5b5a13146100a957806354fd4d5014610137578063691f9f22146101685780638da5cb5b146101dd578063a6f9dae114610232578063ae200e791461026b578063afb74f48146102c0578063c45a0155146102f1578063e2d73ccd14610346578063f88df7301461037f575b600080fd5b34156100b457600080fd5b6100bc6103b8565b6040518080602001828103825283818151815260200191508051906020019080838360005b838110156100fc5780820151818401526020810190506100e1565b50505050905090810190601f1680156101295780820380516001836020036101000a031916815260200191505b509250505060405180910390f35b341561014257600080fd5b61014a610456565b604051808261ffff1661ffff16815260200191505060405180910390f35b341561017357600080fd5b61019f600480803573ffffffffffffffffffffffffffffffffffffffff1690602001909190505061046a565b6040518082600260200280838360005b838110156101ca5780820151818401526020810190506101af565b5050505090500191505060405180910390f35b34156101e857600080fd5b6101f06105c3565b604051808273ffffffffffffffffffffffffffffffffffffffff1673ffffffffffffffffffffffffffffffffffffffff16815260200191505060405180910390f35b341561023d57600080fd5b610269600480803573ffffffffffffffffffffffffffffffffffffffff169060200190919050506105e8565b005b341561027657600080fd5b61027e610686565b604051808273ffffffffffffffffffffffffffffffffffffffff1673ffffffffffffffffffffffffffffffffffffffff16815260200191505060405180910390f35b34156102cb57600080fd5b6102d36106ac565b60405180826000191660001916815260200191505060405180910390f35b34156102fc57600080fd5b6103046106b2565b604051808273ffffffffffffffffffffffffffffffffffffffff1673ffffffffffffffffffffffffffffffffffffffff16815260200191505060405180910390f35b341561035157600080fd5b61037d600480803573ffffffffffffffffffffffffffffffffffffffff169060200190919050506106d8565b005b341561038a57600080fd5b6103b6600480803573ffffffffffffffffffffffffffffffffffffffff169060200190919050506109c9565b005b60048054600181600116156101000203166002900480601f01602080910402602001604051908101604052809291908181526020018280546001816001161561010002031660029004801561044e5780601f106104235761010080835404028352916020019161044e565b820191906000526020600020905b81548152906001019060200180831161043157829003601f168201915b505050505081565b600160149054906101000a900461ffff1681565b610472610bc7565b600560008373ffffffffffffffffffffffffffffffffffffffff1673ffffffffffffffffffffffffffffffffffffffff16815260200190815260200160002060009054906101000a900473ffffffffffffffffffffffffffffffffffffffff168160006002811015156104e157fe5b602002019073ffffffffffffffffffffffffffffffffffffffff16908173ffffffffffffffffffffffffffffffffffffffff1681525050600560008373ffffffffffffffffffffffffffffffffffffffff1673ffffffffffffffffffffffffffffffffffffffff16815260200190815260200160002060009054906101000a900473ffffffffffffffffffffffffffffffffffffffff1681600160028110151561058757fe5b602002019073ffffffffffffffffffffffffffffffffffffffff16908173ffffffffffffffffffffffffffffffffffffffff1681525050919050565b6000809054906101000a900473ffffffffffffffffffffffffffffffffffffffff1681565b6000809054906101000a900473ffffffffffffffffffffffffffffffffffffffff1673ffffffffffffffffffffffffffffffffffffffff163373ffffffffffffffffffffffffffffffffffffffff1614151561064357600080fd5b806000806101000a81548173ffffffffffffffffffffffffffffffffffffffff021916908373ffffffffffffffffffffffffffffffffffffffff16021790555050565b600260009054906101000a900473ffffffffffffffffffffffffffffffffffffffff1681565b60035481565b600160009054906101000a900473ffffffffffffffffffffffffffffffffffffffff1681565b600080600260009054906101000a900473ffffffffffffffffffffffffffffffffffffffff1673ffffffffffffffffffffffffffffffffffffffff163373ffffffffffffffffffffffffffffffffffffffff1614156108595760009150308284610740610c04565b808473ffffffffffffffffffffffffffffffffffffffff1673ffffffffffffffffffffffffffffffffffffffff16815260200183600181111561077f57fe5b60ff1681526020018273ffffffffffffffffffffffffffffffffffffffff1673ffffffffffffffffffffffffffffffffffffffff1681526020019350505050604051809103906000f08015156107d457600080fd5b905080600560008573ffffffffffffffffffffffffffffffffffffffff1673ffffffffffffffffffffffffffffffffffffffff16815260200190815260200160002060006101000a81548173ffffffffffffffffffffffffffffffffffffffff021916908373ffffffffffffffffffffffffffffffffffffffff1602179055506109c4565b8273ffffffffffffffffffffffffffffffffffffffff163373ffffffffffffffffffffffffffffffffffffffff1614156109b5576001915030828461089c610c04565b808473ffffffffffffffffffffffffffffffffffffffff1673ffffffffffffffffffffffffffffffffffffffff1681526020018360018111156108db57fe5b60ff1681526020018273ffffffffffffffffffffffffffffffffffffffff1673ffffffffffffffffffffffffffffffffffffffff1681526020019350505050604051809103906000f080151561093057600080fd5b905080600660008573ffffffffffffffffffffffffffffffffffffffff1673ffffffffffffffffffffffffffffffffffffffff16815260200190815260200160002060006101000a81548173ffffffffffffffffffffffffffffffffffffffff021916908373ffffffffffffffffffffffffffffffffffffffff1602179055506109c3565b600015156109c257600080fd5b5b5b505050565b6000600260009054906101000a900473ffffffffffffffffffffffffffffffffffffffff1673ffffffffffffffffffffffffffffffffffffffff163373ffffffffffffffffffffffffffffffffffffffff161415610a8857600560008373ffffffffffffffffffffffffffffffffffffffff1673ffffffffffffffffffffffffffffffffffffffff16815260200190815260200160002060009054906101000a900473ffffffffffffffffffffffffffffffffffffffff169050610b32565b8173ffffffffffffffffffffffffffffffffffffffff163373ffffffffffffffffffffffffffffffffffffffff161415610b2357600660008373ffffffffffffffffffffffffffffffffffffffff1673ffffffffffffffffffffffffffffffffffffffff16815260200190815260200160002060009054906101000a900473ffffffffffffffffffffffffffffffffffffffff169050610b31565b60001515610b3057600080fd5b5b5b8173ffffffffffffffffffffffffffffffffffffffff163073ffffffffffffffffffffffffffffffffffffffff167f92fadbadb77c63cf091995b5e09c2bf4f49fd55484b9faa61b6d6701baff848083604051808273ffffffffffffffffffffffffffffffffffffffff1673ffffffffffffffffffffffffffffffffffffffff16815260200191505060405180910390a35050565b60408051908101604052806002905b600073ffffffffffffffffffffffffffffffffffffffff16815260200190600190039081610bd65790505090565b60405161086d80610c1583390190560060606040526000600560006101000a81548160ff0219169083151502179055506000600560016101000a81548160ff0219169083151502179055506000600655341561004a57600080fd5b60405160608061086d833981016040528080519060200190919080519060200190919080519060200190919050508273ffffffffffffffffffffffffffffffffffffffff163373ffffffffffffffffffffffffffffffffffffffff161415156100b257600080fd5b826000806101000a81548173ffffffffffffffffffffffffffffffffffffffff021916908373ffffffffffffffffffffffffffffffffffffffff16021790555081600060146101000a81548160ff0219169083600181111561011057fe5b021790555080600160006101000a81548173ffffffffffffffffffffffffffffffffffffffff021916908373ffffffffffffffffffffffffffffffffffffffff160217905550505050610705806101686000396000f3006060604052600436106100a4576000357c0100000000000000000000000000000000000000000000000000000000900463ffffffff16806336f152a3146100a95780633c206412146100be5780637c654303146100d357806394566d2514610100578063b146e12914610155578063c0ee0b8a14610182578063cbd88f4814610207578063e66a6b221461025c578063eae19df414610289578063f26ef65f146102b2575b600080fd5b34156100b457600080fd5b6100bc6102df565b005b34156100c957600080fd5b6100d16103d0565b005b34156100de57600080fd5b6100e6610449565b604051808215151515815260200191505060405180910390f35b341561010b57600080fd5b610113610458565b604051808273ffffffffffffffffffffffffffffffffffffffff1673ffffffffffffffffffffffffffffffffffffffff16815260200191505060405180910390f35b341561016057600080fd5b61016861047d565b604051808215151515815260200191505060405180910390f35b341561018d57600080fd5b610205600480803573ffffffffffffffffffffffffffffffffffffffff1690602001909190803590602001909190803590602001908201803590602001908080601f01602080910402602001604051908101604052809392919081815260200183838082843782019150505050505091905050610490565b005b341561021257600080fd5b61021a61066b565b604051808273ffffffffffffffffffffffffffffffffffffffff1673ffffffffffffffffffffffffffffffffffffffff16815260200191505060405180910390f35b341561026757600080fd5b61026f610691565b604051808215151515815260200191505060405180910390f35b341561029457600080fd5b61029c6106c0565b6040518082815260200191505060405180910390f35b34156102bd57600080fd5b6102c56106c6565b604051808215151515815260200191505060405180910390f35b3373ffffffffffffffffffffffffffffffffffffffff166000809054906101000a900473ffffffffffffffffffffffffffffffffffffffff1673ffffffffffffffffffffffffffffffffffffffff1663ae200e796040518163ffffffff167c0100000000000000000000000000000000000000000000000000000000028152600401602060405180830381600087803b151561037a57600080fd5b5af1151561038757600080fd5b5050506040518051905073ffffffffffffffffffffffffffffffffffffffff161415156103b357600080fd5b6001600560006101000a81548160ff021916908315150217905550565b3373ffffffffffffffffffffffffffffffffffffffff16600160009054906101000a900473ffffffffffffffffffffffffffffffffffffffff1673ffffffffffffffffffffffffffffffffffffffff1614151561042c57600080fd5b6001600560016101000a81548160ff021916908315150217905550565b60006003546006541015905090565b6000809054906101000a900473ffffffffffffffffffffffffffffffffffffffff1681565b600560009054906101000a900460ff1681565b6000809054906101000a900473ffffffffffffffffffffffffffffffffffffffff1673ffffffffffffffffffffffffffffffffffffffff1663c45a01556040518163ffffffff167c0100000000000000000000000000000000000000000000000000000000028152600401602060405180830381600087803b151561051457600080fd5b5af1151561052157600080fd5b5050506040518051905073ffffffffffffffffffffffffffffffffffffffff1663abc8c7af6040518163ffffffff167c0100000000000000000000000000000000000000000000000000000000028152600401602060405180830381600087803b151561058d57600080fd5b5af1151561059a57600080fd5b5050506040518051905073ffffffffffffffffffffffffffffffffffffffff166355a373d66040518163ffffffff167c0100000000000000000000000000000000000000000000000000000000028152600401602060405180830381600087803b151561060657600080fd5b5af1151561061357600080fd5b5050506040518051905073ffffffffffffffffffffffffffffffffffffffff163373ffffffffffffffffffffffffffffffffffffffff1614151561065657600080fd5b81600660008282540192505081905550505050565b600160009054906101000a900473ffffffffffffffffffffffffffffffffffffffff1681565b6000600560009054906101000a900460ff1680156106bb5750600560019054906101000a900460ff165b905090565b60065481565b600560019054906101000a900460ff16815600a165627a7a723058202ff950d49d27fca65921fbd4823e1866247166037bb7ecb2bb611726b5eecd8d0029a165627a7a7230582080678145fe2ce9e6379be75165245559f922e463b90a28716f4a0a3d3801656300296060604052341561000f57600080fd5b6040516080806111ae8339810160405280805190602001909190805190602001909190805190602001909190805190602001909190505083806001336000806101000a81548173ffffffffffffffffffffffffffffffffffffffff021916908373ffffffffffffffffffffffffffffffffffffffff16021790555080600160146101000a81548161ffff021916908361ffff16021790555081600160006101000a81548173ffffffffffffffffffffffffffffffffffffffff021916908373ffffffffffffffffffffffffffffffffffffffff16021790555050508073ffffffffffffffffffffffffffffffffffffffff163373ffffffffffffffffffffffffffffffffffffffff1614151561012457600080fd5b50826004816000191690555081600260006101000a81548173ffffffffffffffffffffffffffffffffffffffff021916908373ffffffffffffffffffffffffffffffffffffffff16021790555080600360006101000a81548173ffffffffffffffffffffffffffffffffffffffff021916908373ffffffffffffffffffffffffffffffffffffffff16021790555050505050610fe9806101c56000396000f3006060604052600436106100e6576000357c0100000000000000000000000000000000000000000000000000000000900463ffffffff1680631d143848146100eb578063212788f914610140578063232a6b9d146101aa5780632ca15122146101d757806354fd4d50146101ec5780635f1ff5491461021d57806366d003ac1461024a5780638da5cb5b1461029f578063948e1968146102f4578063a6809c5314610325578063a6f9dae114610356578063b6549f751461038f578063c45a0155146103a4578063cf937141146103f9578063d383f64614610426578063dc984dd41461043b575b600080fd5b34156100f657600080fd5b6100fe6104c9565b604051808273ffffffffffffffffffffffffffffffffffffffff1673ffffffffffffffffffffffffffffffffffffffff16815260200191505060405180910390f35b341561014b57600080fd5b6101a860048080356000191690602001909190803590602001908201803590602001908080601f016020809104026020016040519081016040528093929190818152602001838380828437820191505050505050919050506104ef565b005b34156101b557600080fd5b6101bd61072e565b604051808215151515815260200191505060405180910390f35b34156101e257600080fd5b6101ea610741565b005b34156101f757600080fd5b6101ff610896565b604051808261ffff1661ffff16815260200191505060405180910390f35b341561022857600080fd5b6102306108aa565b604051808215151515815260200191505060405180910390f35b341561025557600080fd5b61025d6108bd565b604051808273ffffffffffffffffffffffffffffffffffffffff1673ffffffffffffffffffffffffffffffffffffffff16815260200191505060405180910390f35b34156102aa57600080fd5b6102b26108e3565b604051808273ffffffffffffffffffffffffffffffffffffffff1673ffffffffffffffffffffffffffffffffffffffff16815260200191505060405180910390f35b34156102ff57600080fd5b610307610908565b60405180826000191660001916815260200191505060405180910390f35b341561033057600080fd5b61033861090e565b60405180826000191660001916815260200191505060405180910390f35b341561036157600080fd5b61038d600480803573ffffffffffffffffffffffffffffffffffffffff16906020019091905050610914565b005b341561039a57600080fd5b6103a26109b2565b005b34156103af57600080fd5b6103b7610c05565b604051808273ffffffffffffffffffffffffffffffffffffffff1673ffffffffffffffffffffffffffffffffffffffff16815260200191505060405180910390f35b341561040457600080fd5b61040c610c2b565b604051808215151515815260200191505060405180910390f35b341561043157600080fd5b610439610c5a565b005b341561044657600080fd5b61044e610e7a565b6040518080602001828103825283818151815260200191508051906020019080838360005b8381101561048e578082015181840152602081019050610473565b50505050905090810190601f1680156104bb5780820380516001836020036101000a031916815260200191505b509250505060405180910390f35b600260009054906101000a900473ffffffffffffffffffffffffffffffffffffffff1681565b6000809054906101000a900473ffffffffffffffffffffffffffffffffffffffff1673ffffffffffffffffffffffffffffffffffffffff163373ffffffffffffffffffffffffffffffffffffffff1614151561054a57600080fd5b8160058160001916905550806006908051906020019061056b929190610f18565b50600360159054906101000a900460ff161561072a57600360009054906101000a900473ffffffffffffffffffffffffffffffffffffffff1673ffffffffffffffffffffffffffffffffffffffff1663ed12679c306040518263ffffffff167c0100000000000000000000000000000000000000000000000000000000028152600401808273ffffffffffffffffffffffffffffffffffffffff1673ffffffffffffffffffffffffffffffffffffffff168152602001915050600060405180830381600087803b151561063d57600080fd5b5af1151561064a57600080fd5b505050600360009054906101000a900473ffffffffffffffffffffffffffffffffffffffff1673ffffffffffffffffffffffffffffffffffffffff16600260009054906101000a900473ffffffffffffffffffffffffffffffffffffffff1673ffffffffffffffffffffffffffffffffffffffff16600454600019167f020eb707875fabe09e43d7e9fbfd8ad6badf4db780b02e5d9dfd0137a4998d8330604051808273ffffffffffffffffffffffffffffffffffffffff1673ffffffffffffffffffffffffffffffffffffffff16815260200191505060405180910390a45b5050565b600360149054906101000a900460ff1681565b600260009054906101000a900473ffffffffffffffffffffffffffffffffffffffff1673ffffffffffffffffffffffffffffffffffffffff163373ffffffffffffffffffffffffffffffffffffffff1614151561079d57600080fd5b6001600360146101000a81548160ff021916908315150217905550600360009054906101000a900473ffffffffffffffffffffffffffffffffffffffff1673ffffffffffffffffffffffffffffffffffffffff16600260009054906101000a900473ffffffffffffffffffffffffffffffffffffffff1673ffffffffffffffffffffffffffffffffffffffff16600454600019167feb66f58799ba88cba0ed9ed8f9225778b2f486e1aadd3ea4d221be124b95c16130604051808273ffffffffffffffffffffffffffffffffffffffff1673ffffffffffffffffffffffffffffffffffffffff16815260200191505060405180910390a4565b600160149054906101000a900461ffff1681565b600360159054906101000a900460ff1681565b600360009054906101000a900473ffffffffffffffffffffffffffffffffffffffff1681565b6000809054906101000a900473ffffffffffffffffffffffffffffffffffffffff1681565b60045481565b60055481565b6000809054906101000a900473ffffffffffffffffffffffffffffffffffffffff1673ffffffffffffffffffffffffffffffffffffffff163373ffffffffffffffffffffffffffffffffffffffff1614151561096f57600080fd5b806000806101000a81548173ffffffffffffffffffffffffffffffffffffffff021916908373ffffffffffffffffffffffffffffffffffffffff16021790555050565b6000809054906101000a900473ffffffffffffffffffffffffffffffffffffffff1673ffffffffffffffffffffffffffffffffffffffff163373ffffffffffffffffffffffffffffffffffffffff16141515610a0d57600080fd5b600360159054906101000a900460ff1615610bcb57600360009054906101000a900473ffffffffffffffffffffffffffffffffffffffff1673ffffffffffffffffffffffffffffffffffffffff1663b2017b0e306040518263ffffffff167c0100000000000000000000000000000000000000000000000000000000028152600401808273ffffffffffffffffffffffffffffffffffffffff1673ffffffffffffffffffffffffffffffffffffffff168152602001915050600060405180830381600087803b1515610ade57600080fd5b5af11515610aeb57600080fd5b505050600360009054906101000a900473ffffffffffffffffffffffffffffffffffffffff1673ffffffffffffffffffffffffffffffffffffffff16600260009054906101000a900473ffffffffffffffffffffffffffffffffffffffff1673ffffffffffffffffffffffffffffffffffffffff16600454600019167f932a757ae8910660400e5295842e79edd393efa17703e52dffdc85c3932bfdbd30604051808273ffffffffffffffffffffffffffffffffffffffff1673ffffffffffffffffffffffffffffffffffffffff16815260200191505060405180910390a45b6000809054906101000a900473ffffffffffffffffffffffffffffffffffffffff1673ffffffffffffffffffffffffffffffffffffffff16ff5b600160009054906101000a900473ffffffffffffffffffffffffffffffffffffffff1681565b6000600360149054906101000a900460ff168015610c555750600360159054906101000a900460ff165b905090565b6000809054906101000a900473ffffffffffffffffffffffffffffffffffffffff1673ffffffffffffffffffffffffffffffffffffffff163373ffffffffffffffffffffffffffffffffffffffff16141515610cb557600080fd5b6001600360156101000a81548160ff021916908315150217905550600360009054906101000a900473ffffffffffffffffffffffffffffffffffffffff1673ffffffffffffffffffffffffffffffffffffffff1663256b4e21306040518263ffffffff167c0100000000000000000000000000000000000000000000000000000000028152600401808273ffffffffffffffffffffffffffffffffffffffff1673ffffffffffffffffffffffffffffffffffffffff168152602001915050600060405180830381600087803b1515610d8c57600080fd5b5af11515610d9957600080fd5b505050600360009054906101000a900473ffffffffffffffffffffffffffffffffffffffff1673ffffffffffffffffffffffffffffffffffffffff16600260009054906101000a900473ffffffffffffffffffffffffffffffffffffffff1673ffffffffffffffffffffffffffffffffffffffff16600454600019167f5d46e800c06cf76d6a9e81eb0720ce8e14a9ac64a898ec41fa83cd06864da70930604051808273ffffffffffffffffffffffffffffffffffffffff1673ffffffffffffffffffffffffffffffffffffffff16815260200191505060405180910390a4565b60068054600181600116156101000203166002900480601f016020809104026020016040519081016040528092919081815260200182805460018160011615610100020316600290048015610f105780601f10610ee557610100808354040283529160200191610f10565b820191906000526020600020905b815481529060010190602001808311610ef357829003601f168201915b505050505081565b828054600181600116156101000203166002900490600052602060002090601f016020900481019282601f10610f5957805160ff1916838001178555610f87565b82800160010185558215610f87579182015b82811115610f86578251825591602001919060010190610f6b565b5b509050610f949190610f98565b5090565b610fba91905b80821115610fb6576000816000905550600101610f9e565b5090565b905600a165627a7a723058206caf3941003eb2474f016a98db70e61b473185706535fc7552a48fac9b1dd6ca0029a165627a7a7230582092c40ead94c0f9dbb3ee55a4055701227e8333b82cc758172c26ed328c7aa4e40029",
  "source": "pragma solidity ^0.4.11;\n\nimport '../gov/NoiaBaseContractsFactory.sol';\nimport './NoiaBusinessV1.sol';\nimport './NoiaNodeV1.sol';\nimport './NoiaCertificateV1.sol';\nimport './NoiaJobPostV1.sol';\n\ncontract NoiaContractsFactoryV1 is NoiaBaseContractsFactory {\n    function NoiaContractsFactoryV1(NoiaMarketplace marketplace)\n        NoiaBaseContractsFactory(marketplace) public {\n    }\n\n    function createBusiness() public {\n        NoiaBusinessV1 business = new NoiaBusinessV1(this);\n        business.changeOwner(msg.sender);\n        marketplace.businessRegistry().addEntry(business);\n        emit NoiaBusinessCreatedV1(address(business));\n    }\n    event NoiaBusinessCreatedV1(address businessAddress);\n\n    function createNode(bytes32 infoType, bytes infoData) public {\n        NoiaNodeV1 node = new NoiaNodeV1(this, infoType, infoData);\n        node.changeOwner(msg.sender);\n        marketplace.nodeRegistry().addEntry(node);\n        emit NoiaNodeCreatedV1(address(node));\n    }\n\n    event NoiaNodeCreatedV1(address nodeAddress);\n\n    function createCertificate(bytes32 certificateName, NoiaBusinessV1 issuer, NoiaNodeV1 recipient) public {\n        require(marketplace.businessRegistry().hasEntry(issuer));\n        require(marketplace.nodeRegistry().hasEntry(recipient));\n        NoiaCertificateV1 cert = new NoiaCertificateV1(this, certificateName, issuer, recipient);\n        cert.changeOwner(msg.sender);\n        marketplace.certificatesRegistry().addEntry(cert);\n        emit NoiaCertificateCreatedV1(address(cert));\n    }\n    event NoiaCertificateCreatedV1(address certAddress);\n\n    function createJobPost(NoiaBusinessV1 employer, bytes32 infoType, bytes infoData) public {\n        require(marketplace.businessRegistry().hasEntry(employer));\n        NoiaJobPostV1 jobPost = new NoiaJobPostV1(this, employer, infoType, infoData);\n        jobPost.changeOwner(msg.sender);\n        marketplace.jobPostRegistry().addEntry(jobPost);\n        emit NoiaJobPostCreatedV1(address(jobPost));\n    }\n    event NoiaJobPostCreatedV1(address jobPostAddress);\n}\n",
  "sourcePath": "/home/hellwolf/Projects/noia/noia-governance/contracts/noia/v1/NoiaContractsFactoryV1.sol",
  "compiler": {
    "name": "solc",
    "version": "0.4.21+commit.dfe3193c.Emscripten.clang"
  },
  "schemaVersion": "2.0.0",
  "updatedAt": "2018-05-08T22:11:48.690Z"
}