{
  "contractName": "NoiaWorkContractV1",
  "abi": [
    {
      "constant": true,
      "inputs": [],
      "name": "jobPost",
      "outputs": [
        {
          "name": "",
          "type": "address"
        }
      ],
      "payable": false,
      "stateMutability": "view",
      "type": "function"
    },
    {
      "constant": true,
      "inputs": [],
      "name": "signedByEmployer",
      "outputs": [
        {
          "name": "",
          "type": "bool"
        }
      ],
      "payable": false,
      "stateMutability": "view",
      "type": "function"
    },
    {
      "constant": true,
      "inputs": [],
      "name": "workerAddress",
      "outputs": [
        {
          "name": "",
          "type": "address"
        }
      ],
      "payable": false,
      "stateMutability": "view",
      "type": "function"
    },
    {
      "constant": true,
      "inputs": [],
      "name": "tokenReceived",
      "outputs": [
        {
          "name": "",
          "type": "uint256"
        }
      ],
      "payable": false,
      "stateMutability": "view",
      "type": "function"
    },
    {
      "constant": true,
      "inputs": [],
      "name": "signedByWorker",
      "outputs": [
        {
          "name": "",
          "type": "bool"
        }
      ],
      "payable": false,
      "stateMutability": "view",
      "type": "function"
    },
    {
      "inputs": [
        {
          "name": "jobPost_",
          "type": "address"
        },
        {
          "name": "initiator_",
          "type": "uint8"
        },
        {
          "name": "workerAddress_",
          "type": "address"
        }
      ],
      "payable": false,
      "stateMutability": "nonpayable",
      "type": "constructor"
    },
    {
      "constant": false,
      "inputs": [],
      "name": "signByEmployer",
      "outputs": [],
      "payable": false,
      "stateMutability": "nonpayable",
      "type": "function"
    },
    {
      "constant": false,
      "inputs": [],
      "name": "signByWorker",
      "outputs": [],
      "payable": false,
      "stateMutability": "nonpayable",
      "type": "function"
    },
    {
      "constant": true,
      "inputs": [],
      "name": "isSigned",
      "outputs": [
        {
          "name": "",
          "type": "bool"
        }
      ],
      "payable": false,
      "stateMutability": "view",
      "type": "function"
    },
    {
      "constant": true,
      "inputs": [],
      "name": "isFunded",
      "outputs": [
        {
          "name": "",
          "type": "bool"
        }
      ],
      "payable": false,
      "stateMutability": "view",
      "type": "function"
    },
    {
      "constant": false,
      "inputs": [
        {
          "name": "",
          "type": "address"
        },
        {
          "name": "value",
          "type": "uint256"
        },
        {
          "name": "",
          "type": "bytes"
        }
      ],
      "name": "tokenFallback",
      "outputs": [],
      "payable": false,
      "stateMutability": "nonpayable",
      "type": "function"
    }
  ],
  "bytecode": "0x60806040526000600560006101000a81548160ff0219169083151502179055506000600560016101000a81548160ff021916908315150217905550600060065534801561004b57600080fd5b5060405160608061088d8339810180604052810190808051906020019092919080519060200190929190805190602001909291905050508273ffffffffffffffffffffffffffffffffffffffff163373ffffffffffffffffffffffffffffffffffffffff161415156100bc57600080fd5b826000806101000a81548173ffffffffffffffffffffffffffffffffffffffff021916908373ffffffffffffffffffffffffffffffffffffffff16021790555081600060146101000a81548160ff0219169083600181111561011a57fe5b021790555080600160006101000a81548173ffffffffffffffffffffffffffffffffffffffff021916908373ffffffffffffffffffffffffffffffffffffffff16021790555050505061071b806101726000396000f3006080604052600436106100a4576000357c0100000000000000000000000000000000000000000000000000000000900463ffffffff16806336f152a3146100a95780633c206412146100c05780637c654303146100d757806394566d2514610106578063b146e1291461015d578063c0ee0b8a1461018c578063cbd88f481461021f578063e66a6b2214610276578063eae19df4146102a5578063f26ef65f146102d0575b600080fd5b3480156100b557600080fd5b506100be6102ff565b005b3480156100cc57600080fd5b506100d5610415565b005b3480156100e357600080fd5b506100ec61048e565b604051808215151515815260200191505060405180910390f35b34801561011257600080fd5b5061011b61049d565b604051808273ffffffffffffffffffffffffffffffffffffffff1673ffffffffffffffffffffffffffffffffffffffff16815260200191505060405180910390f35b34801561016957600080fd5b506101726104c2565b604051808215151515815260200191505060405180910390f35b34801561019857600080fd5b5061021d600480360381019080803573ffffffffffffffffffffffffffffffffffffffff16906020019092919080359060200190929190803590602001908201803590602001908080601f01602080910402602001604051908101604052809392919081815260200183838082843782019150505050505091929192905050506104d5565b005b34801561022b57600080fd5b50610234610681565b604051808273ffffffffffffffffffffffffffffffffffffffff1673ffffffffffffffffffffffffffffffffffffffff16815260200191505060405180910390f35b34801561028257600080fd5b5061028b6106a7565b604051808215151515815260200191505060405180910390f35b3480156102b157600080fd5b506102ba6106d6565b6040518082815260200191505060405180910390f35b3480156102dc57600080fd5b506102e56106dc565b604051808215151515815260200191505060405180910390f35b3373ffffffffffffffffffffffffffffffffffffffff166000809054906101000a900473ffffffffffffffffffffffffffffffffffffffff1673ffffffffffffffffffffffffffffffffffffffff1663ae200e796040518163ffffffff167c0100000000000000000000000000000000000000000000000000000000028152600401602060405180830381600087803b15801561039b57600080fd5b505af11580156103af573d6000803e3d6000fd5b505050506040513d60208110156103c557600080fd5b810190808051906020019092919050505073ffffffffffffffffffffffffffffffffffffffff161415156103f857600080fd5b6001600560006101000a81548160ff021916908315150217905550565b3373ffffffffffffffffffffffffffffffffffffffff16600160009054906101000a900473ffffffffffffffffffffffffffffffffffffffff1673ffffffffffffffffffffffffffffffffffffffff1614151561047157600080fd5b6001600560016101000a81548160ff021916908315150217905550565b60006003546006541015905090565b6000809054906101000a900473ffffffffffffffffffffffffffffffffffffffff1681565b600560009054906101000a900460ff1681565b6000809054906101000a900473ffffffffffffffffffffffffffffffffffffffff1673ffffffffffffffffffffffffffffffffffffffff1663abc8c7af6040518163ffffffff167c0100000000000000000000000000000000000000000000000000000000028152600401602060405180830381600087803b15801561055a57600080fd5b505af115801561056e573d6000803e3d6000fd5b505050506040513d602081101561058457600080fd5b810190808051906020019092919050505073ffffffffffffffffffffffffffffffffffffffff166355a373d66040518163ffffffff167c0100000000000000000000000000000000000000000000000000000000028152600401602060405180830381600087803b1580156105f857600080fd5b505af115801561060c573d6000803e3d6000fd5b505050506040513d602081101561062257600080fd5b810190808051906020019092919050505073ffffffffffffffffffffffffffffffffffffffff163373ffffffffffffffffffffffffffffffffffffffff1614151561066c57600080fd5b81600660008282540192505081905550505050565b600160009054906101000a900473ffffffffffffffffffffffffffffffffffffffff1681565b6000600560009054906101000a900460ff1680156106d15750600560019054906101000a900460ff165b905090565b60065481565b600560019054906101000a900460ff16815600a165627a7a72305820c3353f866a4c0a31b5ea8057b3444cb13bea0bd024f7202e0b4475274662149b0029",
  "source": "pragma solidity ^0.4.11;\n\nimport '../../abstracts/ERC223Interface.sol';\nimport './NoiaJobPostV1.sol';\n\ncontract NoiaWorkContractV1 {\n    enum Initiator { Employer, Worker  }\n\n    NoiaJobPostV1 public jobPost;\n    Initiator initiator;\n    address public workerAddress;\n\n    // contract conditionss\n    uint upfrontFee;\n    uint totalTokenWorth;\n    uint forcedReleaseInNumBlocks;\n\n    // contract status\n    bool public signedByEmployer = false;\n    bool public signedByWorker = false;\n    uint public tokenReceived = 0;\n\n    function NoiaWorkContractV1(\n        NoiaJobPostV1 jobPost_,\n        Initiator initiator_,\n        address workerAddress_) public {\n        // can be created by a job post only\n        require(msg.sender == address(jobPost_));\n        jobPost = jobPost_;\n        initiator = initiator_;\n        workerAddress = workerAddress_;\n    }\n\n    function signByEmployer() public {\n        require(address(jobPost.employer()) == msg.sender);\n        signedByEmployer = true;\n    }\n\n    function signByWorker() public {\n        require(workerAddress == msg.sender);\n        signedByWorker = true;\n    }\n\n    function isSigned() public view returns (bool) {\n        return signedByEmployer && signedByWorker;\n    }\n\n    function isFunded() public view returns (bool) {\n        return tokenReceived >= totalTokenWorth;\n    }\n\n    function tokenFallback(address /*from*/, uint value, bytes /*_data*/) public {\n        // token `from` anyone is welcome :)\n        require(msg.sender == address(jobPost.marketplace().tokenContract()));\n        tokenReceived += value;\n    }\n}\n",
  "sourcePath": "/srv/work/projects/noia-network/noia-governance/contracts/noia/v1/NoiaWorkContractV1.sol",
  "compiler": {
    "name": "solc",
    "version": "0.4.24+commit.e67f0147.Emscripten.clang"
  },
  "schemaVersion": "2.0.1",
  "updatedAt": "2018-07-23T09:56:08.956Z"
}