{
  "contractName": "NoiaCertificateV1",
  "abi": [
    {
      "constant": true,
      "inputs": [],
      "name": "issuer",
      "outputs": [
        {
          "name": "",
          "type": "address"
        }
      ],
      "payable": false,
      "stateMutability": "view",
      "type": "function"
    },
    {
      "constant": true,
      "inputs": [],
      "name": "signed",
      "outputs": [
        {
          "name": "",
          "type": "bool"
        }
      ],
      "payable": false,
      "stateMutability": "view",
      "type": "function"
    },
    {
      "constant": true,
      "inputs": [],
      "name": "version",
      "outputs": [
        {
          "name": "",
          "type": "uint16"
        }
      ],
      "payable": false,
      "stateMutability": "view",
      "type": "function"
    },
    {
      "constant": true,
      "inputs": [],
      "name": "issued",
      "outputs": [
        {
          "name": "",
          "type": "bool"
        }
      ],
      "payable": false,
      "stateMutability": "view",
      "type": "function"
    },
    {
      "constant": true,
      "inputs": [],
      "name": "recipient",
      "outputs": [
        {
          "name": "",
          "type": "address"
        }
      ],
      "payable": false,
      "stateMutability": "view",
      "type": "function"
    },
    {
      "constant": true,
      "inputs": [],
      "name": "owner",
      "outputs": [
        {
          "name": "",
          "type": "address"
        }
      ],
      "payable": false,
      "stateMutability": "view",
      "type": "function"
    },
    {
      "constant": true,
      "inputs": [],
      "name": "certificateName",
      "outputs": [
        {
          "name": "",
          "type": "bytes32"
        }
      ],
      "payable": false,
      "stateMutability": "view",
      "type": "function"
    },
    {
      "constant": true,
      "inputs": [],
      "name": "payloadType",
      "outputs": [
        {
          "name": "",
          "type": "bytes32"
        }
      ],
      "payable": false,
      "stateMutability": "view",
      "type": "function"
    },
    {
      "constant": false,
      "inputs": [
        {
          "name": "_newOwner",
          "type": "address"
        }
      ],
      "name": "changeOwner",
      "outputs": [],
      "payable": false,
      "stateMutability": "nonpayable",
      "type": "function"
    },
    {
      "constant": true,
      "inputs": [],
      "name": "marketplace",
      "outputs": [
        {
          "name": "",
          "type": "address"
        }
      ],
      "payable": false,
      "stateMutability": "view",
      "type": "function"
    },
    {
      "constant": true,
      "inputs": [],
      "name": "factory",
      "outputs": [
        {
          "name": "",
          "type": "address"
        }
      ],
      "payable": false,
      "stateMutability": "view",
      "type": "function"
    },
    {
      "constant": true,
      "inputs": [],
      "name": "payloadData",
      "outputs": [
        {
          "name": "",
          "type": "bytes"
        }
      ],
      "payable": false,
      "stateMutability": "view",
      "type": "function"
    },
    {
      "inputs": [
        {
          "name": "factory",
          "type": "address"
        },
        {
          "name": "marketplace",
          "type": "address"
        },
        {
          "name": "certificateName_",
          "type": "bytes32"
        },
        {
          "name": "issuer_",
          "type": "address"
        },
        {
          "name": "recipient_",
          "type": "address"
        }
      ],
      "payable": false,
      "stateMutability": "nonpayable",
      "type": "constructor"
    },
    {
      "anonymous": false,
      "inputs": [
        {
          "indexed": true,
          "name": "certificateName",
          "type": "bytes32"
        },
        {
          "indexed": true,
          "name": "issuer",
          "type": "address"
        },
        {
          "indexed": true,
          "name": "recipient",
          "type": "address"
        },
        {
          "indexed": false,
          "name": "certificate",
          "type": "address"
        }
      ],
      "name": "NoiaCertificateSignedV1",
      "type": "event"
    },
    {
      "anonymous": false,
      "inputs": [
        {
          "indexed": true,
          "name": "certificateName",
          "type": "bytes32"
        },
        {
          "indexed": true,
          "name": "issuer",
          "type": "address"
        },
        {
          "indexed": true,
          "name": "recipient",
          "type": "address"
        },
        {
          "indexed": false,
          "name": "certificate",
          "type": "address"
        }
      ],
      "name": "NoiaCertificateIssuedV1",
      "type": "event"
    },
    {
      "anonymous": false,
      "inputs": [
        {
          "indexed": true,
          "name": "certificateName",
          "type": "bytes32"
        },
        {
          "indexed": true,
          "name": "issuer",
          "type": "address"
        },
        {
          "indexed": true,
          "name": "recipient",
          "type": "address"
        },
        {
          "indexed": false,
          "name": "certificate",
          "type": "address"
        }
      ],
      "name": "NoiaCertificateUpdatedV1",
      "type": "event"
    },
    {
      "anonymous": false,
      "inputs": [
        {
          "indexed": true,
          "name": "certificateName",
          "type": "bytes32"
        },
        {
          "indexed": true,
          "name": "issuer",
          "type": "address"
        },
        {
          "indexed": true,
          "name": "recipient",
          "type": "address"
        },
        {
          "indexed": false,
          "name": "certificate",
          "type": "address"
        }
      ],
      "name": "NoiaCertificateRevokedV1",
      "type": "event"
    },
    {
      "constant": true,
      "inputs": [],
      "name": "isInEffect",
      "outputs": [
        {
          "name": "",
          "type": "bool"
        }
      ],
      "payable": false,
      "stateMutability": "view",
      "type": "function"
    },
    {
      "constant": false,
      "inputs": [],
      "name": "sign",
      "outputs": [],
      "payable": false,
      "stateMutability": "nonpayable",
      "type": "function"
    },
    {
      "constant": false,
      "inputs": [],
      "name": "issue",
      "outputs": [],
      "payable": false,
      "stateMutability": "nonpayable",
      "type": "function"
    },
    {
      "constant": false,
      "inputs": [
        {
          "name": "payloadType_",
          "type": "bytes32"
        },
        {
          "name": "payloadData_",
          "type": "bytes"
        }
      ],
      "name": "update",
      "outputs": [],
      "payable": false,
      "stateMutability": "nonpayable",
      "type": "function"
    },
    {
      "constant": false,
      "inputs": [],
      "name": "revoke",
      "outputs": [],
      "payable": false,
      "stateMutability": "nonpayable",
      "type": "function"
    }
  ],
  "bytecode": "0x608060405234801561001057600080fd5b5060405160a080610c928339810160409081528151602083015191830151606084015160809094015160008054600160a060020a03191633908117909155929491928590859082908290600190600160a060020a038416146100f857604080517f08c379a0000000000000000000000000000000000000000000000000000000008152602060048201526024808201527f4f6e6c79206120466163746f72792063616e20637265617465206120636f6e7460448201527f7261637400000000000000000000000000000000000000000000000000000000606482015290519081900360840190fd5b6002805460018054600160a060020a03968716600160a060020a03199182161790915593851661ffff909316740100000000000000000000000000000000000000000260a060020a61ffff021990911617831691909117905560059690965560038054958216958716959095179094555050600480549190921692169190911790555050610b078061018b6000396000f3006080604052600436106100f05763ffffffff7c01000000000000000000000000000000000000000000000000000000006000350416631d14384881146100f5578063212788f914610126578063232a6b9d146101865780632ca15122146101af57806354fd4d50146101c45780635f1ff549146101f057806366d003ac146102055780638da5cb5b1461021a578063948e19681461022f578063a6809c5314610256578063a6f9dae11461026b578063abc8c7af1461028c578063b6549f75146102a1578063c45a0155146102b6578063cf937141146102cb578063d383f646146102e0578063dc984dd4146102f5575b600080fd5b34801561010157600080fd5b5061010a61037f565b60408051600160a060020a039092168252519081900360200190f35b34801561013257600080fd5b5060408051602060046024803582810135601f810185900485028601850190965285855261018495833595369560449491939091019190819084018382808284375094975061038e9650505050505050565b005b34801561019257600080fd5b5061019b6104db565b604080519115158252519081900360200190f35b3480156101bb57600080fd5b506101846104fc565b3480156101d057600080fd5b506101d96105e1565b6040805161ffff9092168252519081900360200190f35b3480156101fc57600080fd5b5061019b610603565b34801561021157600080fd5b5061010a610613565b34801561022657600080fd5b5061010a610622565b34801561023b57600080fd5b50610244610631565b60408051918252519081900360200190f35b34801561026257600080fd5b50610244610637565b34801561027757600080fd5b50610184600160a060020a036004351661063d565b34801561029857600080fd5b5061010a6106bc565b3480156102ad57600080fd5b506101846106cb565b3480156102c257600080fd5b5061010a610809565b3480156102d757600080fd5b5061019b610818565b3480156102ec57600080fd5b50610184610854565b34801561030157600080fd5b5061030a610995565b6040805160208082528351818301528351919283929083019185019080838360005b8381101561034457818101518382015260200161032c565b50505050905090810190601f1680156103715780820380516001836020036101000a031916815260200191505b509250505060405180910390f35b600354600160a060020a031681565b600054600160a060020a031633146103de576040805160e560020a62461bcd0281526020600482015260166024820152600080516020610abc833981519152604482015290519081900360640190fd5b600682905580516103f6906007906020840190610a23565b5060045460a860020a900460ff16156104d75760048054604080517fed12679c000000000000000000000000000000000000000000000000000000008152309381019390935251600160a060020a039091169163ed12679c91602480830192600092919082900301818387803b15801561046f57600080fd5b505af1158015610483573d6000803e3d6000fd5b5050600454600354600554604080513081529051600160a060020a039485169650929093169350917f020eb707875fabe09e43d7e9fbfd8ad6badf4db780b02e5d9dfd0137a4998d83919081900360200190a45b5050565b60045474010000000000000000000000000000000000000000900460ff1681565b600354600160a060020a0316331461055e576040805160e560020a62461bcd02815260206004820181905260248201527f5369676e6572206973206e6f7420636572746966696361746520697373756572604482015290519081900360640190fd5b6004805474ff00000000000000000000000000000000000000001916740100000000000000000000000000000000000000001790819055600354600554604080513081529051600160a060020a039485169493909316927feb66f58799ba88cba0ed9ed8f9225778b2f486e1aadd3ea4d221be124b95c1619181900360200190a4565b60025474010000000000000000000000000000000000000000900461ffff1681565b60045460a860020a900460ff1681565b600454600160a060020a031681565b600054600160a060020a031681565b60055481565b60065481565b600054600160a060020a0316331461068d576040805160e560020a62461bcd0281526020600482015260166024820152600080516020610abc833981519152604482015290519081900360640190fd5b6000805473ffffffffffffffffffffffffffffffffffffffff1916600160a060020a0392909216919091179055565b600254600160a060020a031681565b600054600160a060020a0316331461071b576040805160e560020a62461bcd0281526020600482015260166024820152600080516020610abc833981519152604482015290519081900360640190fd5b60045460a860020a900460ff16156107fb5760048054604080517fb2017b0e000000000000000000000000000000000000000000000000000000008152309381019390935251600160a060020a039091169163b2017b0e91602480830192600092919082900301818387803b15801561079357600080fd5b505af11580156107a7573d6000803e3d6000fd5b5050600454600354600554604080513081529051600160a060020a039485169650929093169350917f932a757ae8910660400e5295842e79edd393efa17703e52dffdc85c3932bfdbd919081900360200190a45b600054600160a060020a0316ff5b600154600160a060020a031681565b60045460009074010000000000000000000000000000000000000000900460ff16801561084e575060045460a860020a900460ff165b90505b90565b600054600160a060020a031633146108a4576040805160e560020a62461bcd0281526020600482015260166024820152600080516020610abc833981519152604482015290519081900360640190fd5b6004805475ff000000000000000000000000000000000000000000191660a860020a17808255604080517f256b4e21000000000000000000000000000000000000000000000000000000008152309381019390935251600160a060020a039091169163256b4e2191602480830192600092919082900301818387803b15801561092c57600080fd5b505af1158015610940573d6000803e3d6000fd5b5050600454600354600554604080513081529051600160a060020a039485169650929093169350917f5d46e800c06cf76d6a9e81eb0720ce8e14a9ac64a898ec41fa83cd06864da709919081900360200190a4565b6007805460408051602060026001851615610100026000190190941693909304601f81018490048402820184019092528181529291830182828015610a1b5780601f106109f057610100808354040283529160200191610a1b565b820191906000526020600020905b8154815290600101906020018083116109fe57829003601f168201915b505050505081565b828054600181600116156101000203166002900490600052602060002090601f016020900481019282601f10610a6457805160ff1916838001178555610a91565b82800160010185558215610a91579182015b82811115610a91578251825591602001919060010190610a76565b50610a9d929150610aa1565b5090565b61085191905b80821115610a9d5760008155600101610aa7560053656e646572206973206e6f7420616e206f776e657200000000000000000000a165627a7a723058202a8290110d9d917f56d24c39c5cf2182a946db7324f49dd6fd1354c7e147d1860029",
  "source": "pragma solidity ^0.4.11;\n\nimport \"./NoiaBaseContractV1.sol\";\nimport \"./NoiaNodeV1.sol\";\nimport \"./NoiaBusinessV1.sol\";\n\ncontract NoiaCertificateV1 is NoiaBaseContractV1 {\n\n    NoiaBusinessV1 public issuer;\n    NoiaNodeV1 public recipient;\n    bool public signed;\n    bool public issued;\n\n    bytes32 public certificateName;\n    bytes32 public payloadType;\n    bytes public payloadData;\n\n    constructor(\n                address factory,\n                NoiaMarketplace marketplace,\n                bytes32 certificateName_,\n                NoiaBusinessV1 issuer_,\n                NoiaNodeV1 recipient_)\n        NoiaBaseContractV1(factory, marketplace) public {\n        // the factory has guranteed that issuer and recipient are regulated contracts\n        certificateName = certificateName_;\n        issuer = issuer_;\n        recipient = recipient_;\n    }\n\n    function isInEffect() public view returns (bool) {\n        return signed && issued;\n    }\n\n    function sign() public {\n        require(msg.sender == address(issuer), \"Signer is not certificate issuer\");\n        signed = true;\n        emit NoiaCertificateSignedV1(certificateName, issuer, recipient, this);\n    }\n\n    function issue() public onlyOwner {\n        issued = true;\n        recipient.acceptIssuedCertificate(this);\n        emit NoiaCertificateIssuedV1(certificateName, issuer, recipient, this);\n    }\n\n    function update(bytes32 payloadType_, bytes payloadData_) public onlyOwner {\n        payloadType = payloadType_;\n        payloadData = payloadData_;\n\n        if (issued) {\n            recipient.acceptCertificateUpdate(this);\n            emit NoiaCertificateUpdatedV1(certificateName, issuer, recipient, this);\n        }\n    }\n\n    function revoke() public onlyOwner {\n        if (issued) {\n            recipient.receiveCertificateRevokeNotice(this);\n            emit NoiaCertificateRevokedV1(certificateName, issuer, recipient, this);\n        }\n        // we give back ether to the owner\n        selfdestruct(owner);\n\n    }\n\n    event NoiaCertificateSignedV1(bytes32 indexed certificateName, address indexed issuer, address indexed recipient, address certificate);\n\n    event NoiaCertificateIssuedV1(bytes32 indexed certificateName, address indexed issuer, address indexed recipient, address certificate);\n\n    event NoiaCertificateUpdatedV1(bytes32 indexed certificateName, address indexed issuer, address indexed recipient, address certificate);\n\n    event NoiaCertificateRevokedV1(bytes32 indexed certificateName, address indexed issuer, address indexed recipient, address certificate);\n}\n",
  "sourcePath": "/srv/work/projects/noia-network/noia-governance/contracts/noia/v1/NoiaCertificateV1.sol",
  "compiler": {
    "name": "solc",
    "version": "0.4.24+commit.e67f0147.Emscripten.clang"
  },
  "schemaVersion": "2.0.0",
  "updatedAt": "2018-09-17T14:55:18.728Z"
}