{
  "contractName": "NoiaNodeV1",
  "abi": [
    {
      "constant": true,
      "inputs": [],
      "name": "infoData",
      "outputs": [
        {
          "name": "",
          "type": "bytes"
        }
      ],
      "payable": false,
      "stateMutability": "view",
      "type": "function"
    },
    {
      "constant": true,
      "inputs": [],
      "name": "version",
      "outputs": [
        {
          "name": "",
          "type": "uint16"
        }
      ],
      "payable": false,
      "stateMutability": "view",
      "type": "function"
    },
    {
      "constant": true,
      "inputs": [],
      "name": "owner",
      "outputs": [
        {
          "name": "",
          "type": "address"
        }
      ],
      "payable": false,
      "stateMutability": "view",
      "type": "function"
    },
    {
      "constant": false,
      "inputs": [
        {
          "name": "_newOwner",
          "type": "address"
        }
      ],
      "name": "changeOwner",
      "outputs": [],
      "payable": false,
      "stateMutability": "nonpayable",
      "type": "function"
    },
    {
      "constant": true,
      "inputs": [],
      "name": "marketplace",
      "outputs": [
        {
          "name": "",
          "type": "address"
        }
      ],
      "payable": false,
      "stateMutability": "view",
      "type": "function"
    },
    {
      "constant": true,
      "inputs": [],
      "name": "infoType",
      "outputs": [
        {
          "name": "",
          "type": "bytes32"
        }
      ],
      "payable": false,
      "stateMutability": "view",
      "type": "function"
    },
    {
      "constant": true,
      "inputs": [],
      "name": "certificatesCount",
      "outputs": [
        {
          "name": "",
          "type": "uint256"
        }
      ],
      "payable": false,
      "stateMutability": "view",
      "type": "function"
    },
    {
      "constant": true,
      "inputs": [],
      "name": "factory",
      "outputs": [
        {
          "name": "",
          "type": "address"
        }
      ],
      "payable": false,
      "stateMutability": "view",
      "type": "function"
    },
    {
      "inputs": [
        {
          "name": "factory",
          "type": "address"
        },
        {
          "name": "marketplace",
          "type": "address"
        },
        {
          "name": "infoType_",
          "type": "bytes32"
        },
        {
          "name": "infoData_",
          "type": "bytes"
        }
      ],
      "payable": false,
      "stateMutability": "nonpayable",
      "type": "constructor"
    },
    {
      "constant": false,
      "inputs": [
        {
          "name": "infoType_",
          "type": "bytes32"
        },
        {
          "name": "infoData_",
          "type": "bytes"
        }
      ],
      "name": "setInfo",
      "outputs": [],
      "payable": false,
      "stateMutability": "nonpayable",
      "type": "function"
    },
    {
      "constant": false,
      "inputs": [
        {
          "name": "certificateAddress",
          "type": "address"
        }
      ],
      "name": "acceptIssuedCertificate",
      "outputs": [],
      "payable": false,
      "stateMutability": "nonpayable",
      "type": "function"
    },
    {
      "constant": true,
      "inputs": [
        {
          "name": "certificateAddress",
          "type": "address"
        }
      ],
      "name": "acceptCertificateUpdate",
      "outputs": [],
      "payable": false,
      "stateMutability": "view",
      "type": "function"
    },
    {
      "constant": false,
      "inputs": [
        {
          "name": "certificateAddress",
          "type": "address"
        }
      ],
      "name": "receiveCertificateRevokeNotice",
      "outputs": [],
      "payable": false,
      "stateMutability": "nonpayable",
      "type": "function"
    },
    {
      "constant": true,
      "inputs": [],
      "name": "getCertificates",
      "outputs": [
        {
          "name": "",
          "type": "address[]"
        }
      ],
      "payable": false,
      "stateMutability": "view",
      "type": "function"
    }
  ],
  "bytecode": "0x608060405234801561001057600080fd5b50604051610edd380380610edd8339810160409081528151602083015191830151606084015160008054600160a060020a03191633908117909155929491929101908490849082908290600190600160a060020a038416146100f857604080517f08c379a0000000000000000000000000000000000000000000000000000000008152602060048201526024808201527f4f6e6c79206120466163746f72792063616e20637265617465206120636f6e7460448201527f7261637400000000000000000000000000000000000000000000000000000000606482015290519081900360840190fd5b6002805460018054600160a060020a03968716600160a060020a0319918216179091559390941661ffff909216740100000000000000000000000000000000000000000260a060020a61ffff0219909416939093179190911617905550506005829055805161016e906006906020840190610178565b5050505050610213565b828054600181600116156101000203166002900490600052602060002090601f016020900481019282601f106101b957805160ff19168380011785556101e6565b828001600101855582156101e6579182015b828111156101e65782518255916020019190600101906101cb565b506101f29291506101f6565b5090565b61021091905b808211156101f257600081556001016101fc565b90565b610cbb806102226000396000f3006080604052600436106100ab5763ffffffff60e060020a6000350416631f5ddb4f81146100b0578063256b4e21146101155780632e5b5a131461013857806354fd4d50146101c2578063699af622146101ee5780638da5cb5b1461024c578063a6f9dae11461027d578063abc8c7af1461029e578063afb74f48146102b3578063b2017b0e146102da578063b34b4648146102fb578063c45a015514610310578063ed12679c14610325575b600080fd5b3480156100bc57600080fd5b506100c5610346565b60408051602080825283518183015283519192839290830191858101910280838360005b838110156101015781810151838201526020016100e9565b505050509050019250505060405180910390f35b34801561012157600080fd5b50610136600160a060020a0360043516610403565b005b34801561014457600080fd5b5061014d61063f565b6040805160208082528351818301528351919283929083019185019080838360005b8381101561018757818101518382015260200161016f565b50505050905090810190601f1680156101b45780820380516001836020036101000a031916815260200191505b509250505060405180910390f35b3480156101ce57600080fd5b506101d76106cd565b6040805161ffff9092168252519081900360200190f35b3480156101fa57600080fd5b5060408051602060046024803582810135601f81018590048502860185019096528585526101369583359536956044949193909101919081908401838280828437509497506106ef9650505050505050565b34801561025857600080fd5b5061026161076e565b60408051600160a060020a039092168252519081900360200190f35b34801561028957600080fd5b50610136600160a060020a036004351661077d565b3480156102aa57600080fd5b5061026161080e565b3480156102bf57600080fd5b506102c861081d565b60408051918252519081900360200190f35b3480156102e657600080fd5b50610136600160a060020a0360043516610823565b34801561030757600080fd5b506102c8610a02565b34801561031c57600080fd5b50610261610a08565b34801561033157600080fd5b50610136600160a060020a0360043516610a17565b606080600080600060045460405190808252806020026020018201604052801561037a578160200160208202803883390190505b50935060009250600091505b6003548210156103fa57600380548390811061039e57fe5b600091825260209091200154600160a060020a031690506103be81610bec565b156103ef5783516001840193829186919081106103d757fe5b600160a060020a039092166020928302909101909101525b816001019150610386565b50919392505050565b8033600160a060020a0382161461048a576040805160e560020a62461bcd02815260206004820152602f60248201527f4f6e6c7920612063657274696669636174652063616e2063616c6c202766726f60448201527f6d43657274696669636174655631270000000000000000000000000000000000606482015290519081900360840190fd5b61049381610bec565b151561050f576040805160e560020a62461bcd02815260206004820152602c60248201527f4f6e6c79206120636f6e74726163742063616e2063616c6c202766726f6d436560448201527f7274696669636174655631270000000000000000000000000000000000000000606482015290519081900360840190fd5b80600160a060020a03166354fd4d506040518163ffffffff1660e060020a028152600401602060405180830381600087803b15801561054d57600080fd5b505af1158015610561573d6000803e3d6000fd5b505050506040513d602081101561057757600080fd5b505161ffff166001146105d4576040805160e560020a62461bcd02815260206004820152601c60248201527f436f6e7472616374206d75737420686176652076657273696f6e203100000000604482015290519081900360640190fd5b5060038054600180820183556000929092527fc2575a0e9e593c00f959f8c92f12db2869c3395a3b0502d05e2516446f71f85b01805473ffffffffffffffffffffffffffffffffffffffff1916600160a060020a039390931692909217909155600480549091019055565b6006805460408051602060026001851615610100026000190190941693909304601f810184900484028201840190925281815292918301828280156106c55780601f1061069a576101008083540402835291602001916106c5565b820191906000526020600020905b8154815290600101906020018083116106a857829003601f168201915b505050505081565b60025474010000000000000000000000000000000000000000900461ffff1681565b600054600160a060020a03163314610751576040805160e560020a62461bcd02815260206004820152601660248201527f53656e646572206973206e6f7420616e206f776e657200000000000000000000604482015290519081900360640190fd5b60058290558051610769906006906020840190610bf4565b505050565b600054600160a060020a031681565b600054600160a060020a031633146107df576040805160e560020a62461bcd02815260206004820152601660248201527f53656e646572206973206e6f7420616e206f776e657200000000000000000000604482015290519081900360640190fd5b6000805473ffffffffffffffffffffffffffffffffffffffff1916600160a060020a0392909216919091179055565b600254600160a060020a031681565b60055481565b8033600160a060020a038216146108aa576040805160e560020a62461bcd02815260206004820152602f60248201527f4f6e6c7920612063657274696669636174652063616e2063616c6c202766726f60448201527f6d43657274696669636174655631270000000000000000000000000000000000606482015290519081900360840190fd5b6108b381610bec565b151561092f576040805160e560020a62461bcd02815260206004820152602c60248201527f4f6e6c79206120636f6e74726163742063616e2063616c6c202766726f6d436560448201527f7274696669636174655631270000000000000000000000000000000000000000606482015290519081900360840190fd5b80600160a060020a03166354fd4d506040518163ffffffff1660e060020a028152600401602060405180830381600087803b15801561096d57600080fd5b505af1158015610981573d6000803e3d6000fd5b505050506040513d602081101561099757600080fd5b505161ffff166001146109f4576040805160e560020a62461bcd02815260206004820152601c60248201527f436f6e7472616374206d75737420686176652076657273696f6e203100000000604482015290519081900360640190fd5b505060048054600019019055565b60045481565b600154600160a060020a031681565b8033600160a060020a03821614610a9e576040805160e560020a62461bcd02815260206004820152602f60248201527f4f6e6c7920612063657274696669636174652063616e2063616c6c202766726f60448201527f6d43657274696669636174655631270000000000000000000000000000000000606482015290519081900360840190fd5b610aa781610bec565b1515610b23576040805160e560020a62461bcd02815260206004820152602c60248201527f4f6e6c79206120636f6e74726163742063616e2063616c6c202766726f6d436560448201527f7274696669636174655631270000000000000000000000000000000000000000606482015290519081900360840190fd5b80600160a060020a03166354fd4d506040518163ffffffff1660e060020a028152600401602060405180830381600087803b158015610b6157600080fd5b505af1158015610b75573d6000803e3d6000fd5b505050506040513d6020811015610b8b57600080fd5b505161ffff16600114610be8576040805160e560020a62461bcd02815260206004820152601c60248201527f436f6e7472616374206d75737420686176652076657273696f6e203100000000604482015290519081900360640190fd5b5050565b6000903b1190565b828054600181600116156101000203166002900490600052602060002090601f016020900481019282601f10610c3557805160ff1916838001178555610c62565b82800160010185558215610c62579182015b82811115610c62578251825591602001919060010190610c47565b50610c6e929150610c72565b5090565b610c8c91905b80821115610c6e5760008155600101610c78565b905600a165627a7a72305820cc6e322845f266fff997aeac1c7f482d114c21b08a7494f1adc157ed557316b80029",
  "source": "pragma solidity ^0.4.11;\n\nimport \"./NoiaBaseContractV1.sol\";\nimport \"./NoiaCertificateV1.sol\";\n\n/**\n * Standard Noia Node Contract V1 (Draft)\n *\n */\ncontract NoiaNodeV1 is NoiaBaseContractV1 {\n    address[] certificates;\n    uint public certificatesCount;\n\n    bytes32 public infoType;\n    bytes public infoData;\n\n    constructor(address factory, NoiaMarketplace marketplace, bytes32 infoType_, bytes infoData_)\n        NoiaBaseContractV1(factory, marketplace) public {\n        infoType = infoType_;\n        infoData = infoData_;\n    }\n\n    //\n    // Node Info\n    //\n    function setInfo(bytes32 infoType_, bytes infoData_) public onlyOwner {\n        infoType = infoType_;\n        infoData = infoData_;\n    }\n\n    //\n    // Certificate Callback Functions\n    //\n    modifier fromCertificateV1(address certificateAddress) {\n        require (msg.sender == certificateAddress, \"Only a certificate can call 'fromCertificateV1'\");\n        require(isContract(certificateAddress), \"Only a contract can call 'fromCertificateV1'\");\n        require(NoiaBaseContract(certificateAddress).version() == 1, \"Contract must have version 1\");\n        _;\n    }\n\n    function acceptIssuedCertificate(address certificateAddress) public fromCertificateV1(certificateAddress) {\n        certificates.push(certificateAddress);\n        ++certificatesCount;\n    }\n\n    function acceptCertificateUpdate(address certificateAddress) public view fromCertificateV1(certificateAddress) {\n        // ignoring the data update callback\n    }\n\n    function receiveCertificateRevokeNotice(address certificateAddress) public fromCertificateV1(certificateAddress) {\n        --certificatesCount;\n    }\n\n    //\n    // Certificate Listing Functions\n    //\n    function getCertificates() public view returns (address[]) {\n        address[] memory certs = new address[](certificatesCount);\n        uint n = 0;\n        for (uint i = 0; i < certificates.length; ++i) {\n            address cert = certificates[i];\n            if (isContract(cert)) certs[n++] = cert;\n        }\n        // if (n < certificatesCount) { // shouldn't happen, but some business forgot to call sendCertificateRevokeNotice }\n        return certs;\n    }\n\n    // TODO defrag\n\n    //\n    // misc\n    // TODO, link misc library\n    //\n    function isContract(address addr) private view returns (bool) {\n        uint size;\n        assembly { size := extcodesize(addr) }\n        return size > 0;\n    }\n}\n",
  "sourcePath": "/srv/work/projects/noia-network/noia-governance/contracts/noia/v1/NoiaNodeV1.sol",
  "compiler": {
    "name": "solc",
    "version": "0.4.24+commit.e67f0147.Emscripten.clang"
  },
  "schemaVersion": "2.0.1",
  "updatedAt": "2018-09-26T12:07:32.868Z"
}