{
  "contractName": "NOIATestToken",
  "abi": [
    {
      "constant": true,
      "inputs": [],
      "name": "totalSupply",
      "outputs": [
        {
          "name": "",
          "type": "uint256"
        }
      ],
      "payable": false,
      "stateMutability": "view",
      "type": "function"
    },
    {
      "anonymous": false,
      "inputs": [
        {
          "indexed": true,
          "name": "from",
          "type": "address"
        },
        {
          "indexed": true,
          "name": "to",
          "type": "address"
        },
        {
          "indexed": false,
          "name": "value",
          "type": "uint256"
        },
        {
          "indexed": false,
          "name": "data",
          "type": "bytes"
        }
      ],
      "name": "Transfer",
      "type": "event"
    },
    {
      "anonymous": false,
      "inputs": [
        {
          "indexed": true,
          "name": "from",
          "type": "address"
        },
        {
          "indexed": true,
          "name": "to",
          "type": "address"
        },
        {
          "indexed": false,
          "name": "value",
          "type": "uint256"
        }
      ],
      "name": "Transfer",
      "type": "event"
    },
    {
      "constant": true,
      "inputs": [],
      "name": "name",
      "outputs": [
        {
          "name": "",
          "type": "string"
        }
      ],
      "payable": false,
      "stateMutability": "view",
      "type": "function"
    },
    {
      "constant": true,
      "inputs": [],
      "name": "symbol",
      "outputs": [
        {
          "name": "",
          "type": "string"
        }
      ],
      "payable": false,
      "stateMutability": "view",
      "type": "function"
    },
    {
      "constant": true,
      "inputs": [],
      "name": "decimals",
      "outputs": [
        {
          "name": "",
          "type": "uint256"
        }
      ],
      "payable": false,
      "stateMutability": "view",
      "type": "function"
    },
    {
      "constant": false,
      "inputs": [
        {
          "name": "_to",
          "type": "address"
        },
        {
          "name": "_value",
          "type": "uint256"
        }
      ],
      "name": "transfer",
      "outputs": [],
      "payable": false,
      "stateMutability": "nonpayable",
      "type": "function"
    },
    {
      "constant": false,
      "inputs": [
        {
          "name": "_to",
          "type": "address"
        },
        {
          "name": "_value",
          "type": "uint256"
        },
        {
          "name": "_data",
          "type": "bytes"
        }
      ],
      "name": "transfer",
      "outputs": [],
      "payable": false,
      "stateMutability": "nonpayable",
      "type": "function"
    },
    {
      "constant": true,
      "inputs": [
        {
          "name": "_owner",
          "type": "address"
        }
      ],
      "name": "balanceOf",
      "outputs": [
        {
          "name": "balance",
          "type": "uint256"
        }
      ],
      "payable": false,
      "stateMutability": "view",
      "type": "function"
    },
    {
      "constant": false,
      "inputs": [
        {
          "name": "beneficiary",
          "type": "address"
        },
        {
          "name": "amount",
          "type": "uint256"
        }
      ],
      "name": "createTokens",
      "outputs": [],
      "payable": false,
      "stateMutability": "nonpayable",
      "type": "function"
    }
  ],
  "bytecode": "0x608060405234801561001057600080fd5b506106b3806100206000396000f30060806040526004361061008d5763ffffffff7c010000000000000000000000000000000000000000000000000000000060003504166306fdde03811461009257806318160ddd1461011c578063313ce5671461014357806370a082311461015857806395d89b4114610179578063a69e894e1461018e578063a9059cbb146101b4578063be45fd62146101d8575b600080fd5b34801561009e57600080fd5b506100a7610241565b6040805160208082528351818301528351919283929083019185019080838360005b838110156100e15781810151838201526020016100c9565b50505050905090810190601f16801561010e5780820380516001836020036101000a031916815260200191505b509250505060405180910390f35b34801561012857600080fd5b50610131610278565b60408051918252519081900360200190f35b34801561014f57600080fd5b5061013161027e565b34801561016457600080fd5b50610131600160a060020a0360043516610283565b34801561018557600080fd5b506100a761029e565b34801561019a57600080fd5b506101b2600160a060020a03600435166024356102d5565b005b3480156101c057600080fd5b506101b2600160a060020a03600435166024356103e2565b3480156101e457600080fd5b50604080516020600460443581810135601f81018490048402850184019095528484526101b2948235600160a060020a03169460248035953695946064949201919081908401838280828437509497506103f49650505050505050565b60408051808201909152600f81527f4e4f4941205465737420546f6b656e0000000000000000000000000000000000602082015290565b60005481565b600090565b600160a060020a031660009081526001602052604090205490565b60408051808201909152600981527f4e4f49415f544553540000000000000000000000000000000000000000000000602082015290565b600160a060020a03821660008181526001602090815260408083208054860190558254850183558051858152905160609493927fddf252ad1be2c89b69c2b068fc378daa952ba7f163c4a11628f55a4df523b3ef928290030190a382600160a060020a031660007fe19260aff97b920c7df27010903aeb9c8d2be5d310a2c67824cf3f15396e4c1684846040518083815260200180602001828103825283818151815260200191508051906020019080838360005b838110156103a257818101518382015260200161038a565b50505050905090810190601f1680156103cf5780820380516001836020036101000a031916815260200191505b50935050505060405180910390a3505050565b60606103ef8383836103f4565b505050565b33600090815260016020526040812054610414908463ffffffff61065716565b3360009081526001602052604080822092909255600160a060020a03861681522054610446908463ffffffff61066916565b600160a060020a0385166000908152600160205260409020556104688461067f565b1561055c57506040517fc0ee0b8a0000000000000000000000000000000000000000000000000000000081523360048201818152602483018590526060604484019081528451606485015284518794600160a060020a0386169463c0ee0b8a9490938993899360840190602085019080838360005b838110156104f55781810151838201526020016104dd565b50505050905090810190601f1680156105225780820380516001836020036101000a031916815260200191505b50945050505050600060405180830381600087803b15801561054357600080fd5b505af1158015610557573d6000803e3d6000fd5b505050505b604080518481529051600160a060020a0386169133917fddf252ad1be2c89b69c2b068fc378daa952ba7f163c4a11628f55a4df523b3ef9181900360200190a383600160a060020a031633600160a060020a03167fe19260aff97b920c7df27010903aeb9c8d2be5d310a2c67824cf3f15396e4c1685856040518083815260200180602001828103825283818151815260200191508051906020019080838360005b838110156106165781810151838201526020016105fe565b50505050905090810190601f1680156106435780820380516001836020036101000a031916815260200191505b50935050505060405180910390a350505050565b60008282111561066357fe5b50900390565b60008282018381101561067857fe5b9392505050565b6000903b11905600a165627a7a72305820623b3d9e16b729c5a810ff97525c24a36cd826930b2233b894958c17a229ec4f0029",
  "source": "pragma solidity ^0.4.11;\n\nimport \"../abstracts/ERC223Interface.sol\";\nimport \"../abstracts/ERC223ReceivingContract.sol\";\nimport \"../lib/SafeMath.sol\";\n\ncontract NOIATestToken is ERC223Interface {\n    using SafeMath for uint;\n\n    mapping(address => uint) balances; // List of user balances.\n\n    function name() constant public returns (string) { return \"NOIA Test Token\"; }\n    function symbol() constant public returns (string) { return \"NOIA_TEST\"; }\n    function decimals() constant public returns (uint) { return 0; }\n\n    /**\n    * @dev Transfer the specified amount of tokens to the specified address.\n    *      Invokes the `tokenFallback` function if the recipient is a contract.\n    *      The token transfer fails if the recipient is a contract\n    *      but does not implement the `tokenFallback` function\n    *      or the fallback function to receive funds.\n    *\n    * @param _to    Receiver address.\n    * @param _value Amount of tokens that will be transferred.\n    * @param _data  Transaction metadata.\n    */\n    function transfer(address _to, uint _value, bytes _data) public {\n        balances[msg.sender] = balances[msg.sender].sub(_value);\n        balances[_to] = balances[_to].add(_value);\n        if (isContract(_to)) {\n            ERC223ReceivingContract receiver = ERC223ReceivingContract(_to);\n            receiver.tokenFallback(msg.sender, _value, _data);\n        }\n        emit Transfer(msg.sender, _to, _value);\n        emit Transfer(msg.sender, _to, _value, _data);\n    }\n\n    /**\n    * @dev Transfer the specified amount of tokens to the specified address.\n    *      This function works the same with the previous one\n    *      but doesn't contain `_data` param.\n    *      Added due to backwards compatibility reasons.\n    *\n    * @param _to    Receiver address.\n    * @param _value Amount of tokens that will be transferred.\n    */\n    function transfer(address _to, uint _value) public {\n        bytes memory empty;\n        transfer(_to, _value, empty);\n    }\n\n    /**\n    * @dev Returns balance of the `_owner`.\n    *\n    * @param _owner   The address whose balance will be returned.\n    * @return balance Balance of the `_owner`.\n    */\n    function balanceOf(address _owner) constant public returns (uint balance) {\n        return balances[_owner];\n    }\n\n    // create test tokens\n    function createTokens(address beneficiary, uint amount) public {\n        bytes memory empty;\n        balances[beneficiary] += amount;               // Give the creator all initial tokens\n        totalSupply += amount;                        // Update total supply\n        emit Transfer(0, beneficiary, amount);\n        emit Transfer(0, beneficiary, amount, empty);\n    }\n\n    function isContract(address _to) private view returns (bool) {\n        uint codeLength;\n        assembly {\n            // Retrieve the size of the code on target address, this needs assembly .\n            codeLength := extcodesize(_to)\n        }\n        return codeLength > 0;\n    }\n}\n",
  "sourcePath": "/srv/work/projects/noia-network/noia-governance/contracts/test/NOIATestToken.sol",
  "compiler": {
    "name": "solc",
    "version": "0.4.24+commit.e67f0147.Emscripten.clang"
  },
  "schemaVersion": "2.0.0",
  "updatedAt": "2018-07-26T12:36:39.786Z"
}