{
  "contractName": "NoiaCertificateV1",
  "abi": [
    {
      "constant": true,
      "inputs": [],
      "name": "issuer",
      "outputs": [
        {
          "name": "",
          "type": "address"
        }
      ],
      "payable": false,
      "stateMutability": "view",
      "type": "function"
    },
    {
      "constant": true,
      "inputs": [],
      "name": "signed",
      "outputs": [
        {
          "name": "",
          "type": "bool"
        }
      ],
      "payable": false,
      "stateMutability": "view",
      "type": "function"
    },
    {
      "constant": true,
      "inputs": [],
      "name": "version",
      "outputs": [
        {
          "name": "",
          "type": "uint16"
        }
      ],
      "payable": false,
      "stateMutability": "view",
      "type": "function"
    },
    {
      "constant": true,
      "inputs": [],
      "name": "issued",
      "outputs": [
        {
          "name": "",
          "type": "bool"
        }
      ],
      "payable": false,
      "stateMutability": "view",
      "type": "function"
    },
    {
      "constant": true,
      "inputs": [],
      "name": "recipient",
      "outputs": [
        {
          "name": "",
          "type": "address"
        }
      ],
      "payable": false,
      "stateMutability": "view",
      "type": "function"
    },
    {
      "constant": true,
      "inputs": [],
      "name": "owner",
      "outputs": [
        {
          "name": "",
          "type": "address"
        }
      ],
      "payable": false,
      "stateMutability": "view",
      "type": "function"
    },
    {
      "constant": true,
      "inputs": [],
      "name": "certificateName",
      "outputs": [
        {
          "name": "",
          "type": "bytes32"
        }
      ],
      "payable": false,
      "stateMutability": "view",
      "type": "function"
    },
    {
      "constant": true,
      "inputs": [],
      "name": "payloadType",
      "outputs": [
        {
          "name": "",
          "type": "bytes32"
        }
      ],
      "payable": false,
      "stateMutability": "view",
      "type": "function"
    },
    {
      "constant": false,
      "inputs": [
        {
          "name": "_newOwner",
          "type": "address"
        }
      ],
      "name": "changeOwner",
      "outputs": [],
      "payable": false,
      "stateMutability": "nonpayable",
      "type": "function"
    },
    {
      "constant": true,
      "inputs": [],
      "name": "factory",
      "outputs": [
        {
          "name": "",
          "type": "address"
        }
      ],
      "payable": false,
      "stateMutability": "view",
      "type": "function"
    },
    {
      "constant": true,
      "inputs": [],
      "name": "payloadData",
      "outputs": [
        {
          "name": "",
          "type": "bytes"
        }
      ],
      "payable": false,
      "stateMutability": "view",
      "type": "function"
    },
    {
      "inputs": [
        {
          "name": "factory",
          "type": "address"
        },
        {
          "name": "certificateName_",
          "type": "bytes32"
        },
        {
          "name": "issuer_",
          "type": "address"
        },
        {
          "name": "recipient_",
          "type": "address"
        }
      ],
      "payable": false,
      "stateMutability": "nonpayable",
      "type": "constructor"
    },
    {
      "anonymous": false,
      "inputs": [
        {
          "indexed": true,
          "name": "certificateName",
          "type": "bytes32"
        },
        {
          "indexed": true,
          "name": "issuer",
          "type": "address"
        },
        {
          "indexed": true,
          "name": "recipient",
          "type": "address"
        },
        {
          "indexed": false,
          "name": "certificate",
          "type": "address"
        }
      ],
      "name": "NoiaCertificateSignedV1",
      "type": "event"
    },
    {
      "anonymous": false,
      "inputs": [
        {
          "indexed": true,
          "name": "certificateName",
          "type": "bytes32"
        },
        {
          "indexed": true,
          "name": "issuer",
          "type": "address"
        },
        {
          "indexed": true,
          "name": "recipient",
          "type": "address"
        },
        {
          "indexed": false,
          "name": "certificate",
          "type": "address"
        }
      ],
      "name": "NoiaCertificateIssuedV1",
      "type": "event"
    },
    {
      "anonymous": false,
      "inputs": [
        {
          "indexed": true,
          "name": "certificateName",
          "type": "bytes32"
        },
        {
          "indexed": true,
          "name": "issuer",
          "type": "address"
        },
        {
          "indexed": true,
          "name": "recipient",
          "type": "address"
        },
        {
          "indexed": false,
          "name": "certificate",
          "type": "address"
        }
      ],
      "name": "NoiaCertificateUpdatedV1",
      "type": "event"
    },
    {
      "anonymous": false,
      "inputs": [
        {
          "indexed": true,
          "name": "certificateName",
          "type": "bytes32"
        },
        {
          "indexed": true,
          "name": "issuer",
          "type": "address"
        },
        {
          "indexed": true,
          "name": "recipient",
          "type": "address"
        },
        {
          "indexed": false,
          "name": "certificate",
          "type": "address"
        }
      ],
      "name": "NoiaCertificateRevokedV1",
      "type": "event"
    },
    {
      "constant": true,
      "inputs": [],
      "name": "isInEffect",
      "outputs": [
        {
          "name": "",
          "type": "bool"
        }
      ],
      "payable": false,
      "stateMutability": "view",
      "type": "function"
    },
    {
      "constant": false,
      "inputs": [],
      "name": "sign",
      "outputs": [],
      "payable": false,
      "stateMutability": "nonpayable",
      "type": "function"
    },
    {
      "constant": false,
      "inputs": [],
      "name": "issue",
      "outputs": [],
      "payable": false,
      "stateMutability": "nonpayable",
      "type": "function"
    },
    {
      "constant": false,
      "inputs": [
        {
          "name": "payloadType_",
          "type": "bytes32"
        },
        {
          "name": "payloadData_",
          "type": "bytes"
        }
      ],
      "name": "update",
      "outputs": [],
      "payable": false,
      "stateMutability": "nonpayable",
      "type": "function"
    },
    {
      "constant": false,
      "inputs": [],
      "name": "revoke",
      "outputs": [],
      "payable": false,
      "stateMutability": "nonpayable",
      "type": "function"
    }
  ],
  "bytecode": "0x6060604052341561000f57600080fd5b6040516080806111ae8339810160405280805190602001909190805190602001909190805190602001909190805190602001909190505083806001336000806101000a81548173ffffffffffffffffffffffffffffffffffffffff021916908373ffffffffffffffffffffffffffffffffffffffff16021790555080600160146101000a81548161ffff021916908361ffff16021790555081600160006101000a81548173ffffffffffffffffffffffffffffffffffffffff021916908373ffffffffffffffffffffffffffffffffffffffff16021790555050508073ffffffffffffffffffffffffffffffffffffffff163373ffffffffffffffffffffffffffffffffffffffff1614151561012457600080fd5b50826004816000191690555081600260006101000a81548173ffffffffffffffffffffffffffffffffffffffff021916908373ffffffffffffffffffffffffffffffffffffffff16021790555080600360006101000a81548173ffffffffffffffffffffffffffffffffffffffff021916908373ffffffffffffffffffffffffffffffffffffffff16021790555050505050610fe9806101c56000396000f3006060604052600436106100e6576000357c0100000000000000000000000000000000000000000000000000000000900463ffffffff1680631d143848146100eb578063212788f914610140578063232a6b9d146101aa5780632ca15122146101d757806354fd4d50146101ec5780635f1ff5491461021d57806366d003ac1461024a5780638da5cb5b1461029f578063948e1968146102f4578063a6809c5314610325578063a6f9dae114610356578063b6549f751461038f578063c45a0155146103a4578063cf937141146103f9578063d383f64614610426578063dc984dd41461043b575b600080fd5b34156100f657600080fd5b6100fe6104c9565b604051808273ffffffffffffffffffffffffffffffffffffffff1673ffffffffffffffffffffffffffffffffffffffff16815260200191505060405180910390f35b341561014b57600080fd5b6101a860048080356000191690602001909190803590602001908201803590602001908080601f016020809104026020016040519081016040528093929190818152602001838380828437820191505050505050919050506104ef565b005b34156101b557600080fd5b6101bd61072e565b604051808215151515815260200191505060405180910390f35b34156101e257600080fd5b6101ea610741565b005b34156101f757600080fd5b6101ff610896565b604051808261ffff1661ffff16815260200191505060405180910390f35b341561022857600080fd5b6102306108aa565b604051808215151515815260200191505060405180910390f35b341561025557600080fd5b61025d6108bd565b604051808273ffffffffffffffffffffffffffffffffffffffff1673ffffffffffffffffffffffffffffffffffffffff16815260200191505060405180910390f35b34156102aa57600080fd5b6102b26108e3565b604051808273ffffffffffffffffffffffffffffffffffffffff1673ffffffffffffffffffffffffffffffffffffffff16815260200191505060405180910390f35b34156102ff57600080fd5b610307610908565b60405180826000191660001916815260200191505060405180910390f35b341561033057600080fd5b61033861090e565b60405180826000191660001916815260200191505060405180910390f35b341561036157600080fd5b61038d600480803573ffffffffffffffffffffffffffffffffffffffff16906020019091905050610914565b005b341561039a57600080fd5b6103a26109b2565b005b34156103af57600080fd5b6103b7610c05565b604051808273ffffffffffffffffffffffffffffffffffffffff1673ffffffffffffffffffffffffffffffffffffffff16815260200191505060405180910390f35b341561040457600080fd5b61040c610c2b565b604051808215151515815260200191505060405180910390f35b341561043157600080fd5b610439610c5a565b005b341561044657600080fd5b61044e610e7a565b6040518080602001828103825283818151815260200191508051906020019080838360005b8381101561048e578082015181840152602081019050610473565b50505050905090810190601f1680156104bb5780820380516001836020036101000a031916815260200191505b509250505060405180910390f35b600260009054906101000a900473ffffffffffffffffffffffffffffffffffffffff1681565b6000809054906101000a900473ffffffffffffffffffffffffffffffffffffffff1673ffffffffffffffffffffffffffffffffffffffff163373ffffffffffffffffffffffffffffffffffffffff1614151561054a57600080fd5b8160058160001916905550806006908051906020019061056b929190610f18565b50600360159054906101000a900460ff161561072a57600360009054906101000a900473ffffffffffffffffffffffffffffffffffffffff1673ffffffffffffffffffffffffffffffffffffffff1663ed12679c306040518263ffffffff167c0100000000000000000000000000000000000000000000000000000000028152600401808273ffffffffffffffffffffffffffffffffffffffff1673ffffffffffffffffffffffffffffffffffffffff168152602001915050600060405180830381600087803b151561063d57600080fd5b5af1151561064a57600080fd5b505050600360009054906101000a900473ffffffffffffffffffffffffffffffffffffffff1673ffffffffffffffffffffffffffffffffffffffff16600260009054906101000a900473ffffffffffffffffffffffffffffffffffffffff1673ffffffffffffffffffffffffffffffffffffffff16600454600019167f020eb707875fabe09e43d7e9fbfd8ad6badf4db780b02e5d9dfd0137a4998d8330604051808273ffffffffffffffffffffffffffffffffffffffff1673ffffffffffffffffffffffffffffffffffffffff16815260200191505060405180910390a45b5050565b600360149054906101000a900460ff1681565b600260009054906101000a900473ffffffffffffffffffffffffffffffffffffffff1673ffffffffffffffffffffffffffffffffffffffff163373ffffffffffffffffffffffffffffffffffffffff1614151561079d57600080fd5b6001600360146101000a81548160ff021916908315150217905550600360009054906101000a900473ffffffffffffffffffffffffffffffffffffffff1673ffffffffffffffffffffffffffffffffffffffff16600260009054906101000a900473ffffffffffffffffffffffffffffffffffffffff1673ffffffffffffffffffffffffffffffffffffffff16600454600019167feb66f58799ba88cba0ed9ed8f9225778b2f486e1aadd3ea4d221be124b95c16130604051808273ffffffffffffffffffffffffffffffffffffffff1673ffffffffffffffffffffffffffffffffffffffff16815260200191505060405180910390a4565b600160149054906101000a900461ffff1681565b600360159054906101000a900460ff1681565b600360009054906101000a900473ffffffffffffffffffffffffffffffffffffffff1681565b6000809054906101000a900473ffffffffffffffffffffffffffffffffffffffff1681565b60045481565b60055481565b6000809054906101000a900473ffffffffffffffffffffffffffffffffffffffff1673ffffffffffffffffffffffffffffffffffffffff163373ffffffffffffffffffffffffffffffffffffffff1614151561096f57600080fd5b806000806101000a81548173ffffffffffffffffffffffffffffffffffffffff021916908373ffffffffffffffffffffffffffffffffffffffff16021790555050565b6000809054906101000a900473ffffffffffffffffffffffffffffffffffffffff1673ffffffffffffffffffffffffffffffffffffffff163373ffffffffffffffffffffffffffffffffffffffff16141515610a0d57600080fd5b600360159054906101000a900460ff1615610bcb57600360009054906101000a900473ffffffffffffffffffffffffffffffffffffffff1673ffffffffffffffffffffffffffffffffffffffff1663b2017b0e306040518263ffffffff167c0100000000000000000000000000000000000000000000000000000000028152600401808273ffffffffffffffffffffffffffffffffffffffff1673ffffffffffffffffffffffffffffffffffffffff168152602001915050600060405180830381600087803b1515610ade57600080fd5b5af11515610aeb57600080fd5b505050600360009054906101000a900473ffffffffffffffffffffffffffffffffffffffff1673ffffffffffffffffffffffffffffffffffffffff16600260009054906101000a900473ffffffffffffffffffffffffffffffffffffffff1673ffffffffffffffffffffffffffffffffffffffff16600454600019167f932a757ae8910660400e5295842e79edd393efa17703e52dffdc85c3932bfdbd30604051808273ffffffffffffffffffffffffffffffffffffffff1673ffffffffffffffffffffffffffffffffffffffff16815260200191505060405180910390a45b6000809054906101000a900473ffffffffffffffffffffffffffffffffffffffff1673ffffffffffffffffffffffffffffffffffffffff16ff5b600160009054906101000a900473ffffffffffffffffffffffffffffffffffffffff1681565b6000600360149054906101000a900460ff168015610c555750600360159054906101000a900460ff165b905090565b6000809054906101000a900473ffffffffffffffffffffffffffffffffffffffff1673ffffffffffffffffffffffffffffffffffffffff163373ffffffffffffffffffffffffffffffffffffffff16141515610cb557600080fd5b6001600360156101000a81548160ff021916908315150217905550600360009054906101000a900473ffffffffffffffffffffffffffffffffffffffff1673ffffffffffffffffffffffffffffffffffffffff1663256b4e21306040518263ffffffff167c0100000000000000000000000000000000000000000000000000000000028152600401808273ffffffffffffffffffffffffffffffffffffffff1673ffffffffffffffffffffffffffffffffffffffff168152602001915050600060405180830381600087803b1515610d8c57600080fd5b5af11515610d9957600080fd5b505050600360009054906101000a900473ffffffffffffffffffffffffffffffffffffffff1673ffffffffffffffffffffffffffffffffffffffff16600260009054906101000a900473ffffffffffffffffffffffffffffffffffffffff1673ffffffffffffffffffffffffffffffffffffffff16600454600019167f5d46e800c06cf76d6a9e81eb0720ce8e14a9ac64a898ec41fa83cd06864da70930604051808273ffffffffffffffffffffffffffffffffffffffff1673ffffffffffffffffffffffffffffffffffffffff16815260200191505060405180910390a4565b60068054600181600116156101000203166002900480601f016020809104026020016040519081016040528092919081815260200182805460018160011615610100020316600290048015610f105780601f10610ee557610100808354040283529160200191610f10565b820191906000526020600020905b815481529060010190602001808311610ef357829003601f168201915b505050505081565b828054600181600116156101000203166002900490600052602060002090601f016020900481019282601f10610f5957805160ff1916838001178555610f87565b82800160010185558215610f87579182015b82811115610f86578251825591602001919060010190610f6b565b5b509050610f949190610f98565b5090565b610fba91905b80821115610fb6576000816000905550600101610f9e565b5090565b905600a165627a7a7230582012961ec17c511c3330343c5374bc1d3e5e5e163d2cc58b6b361a99c67fd167880029",
  "source": "pragma solidity ^0.4.11;\n\nimport './NoiaBaseContractV1.sol';\nimport './NoiaNodeV1.sol';\nimport './NoiaBusinessV1.sol';\n\ncontract NoiaCertificateV1\n    is NoiaBaseContractV1 {\n\n    NoiaBusinessV1 public issuer;\n    NoiaNodeV1 public recipient;\n    bool public signed;\n    bool public issued;\n\n    bytes32 public certificateName;\n    bytes32 public payloadType;\n    bytes public payloadData;\n\n    function NoiaCertificateV1(\n        address factory,\n        bytes32 certificateName_,\n        NoiaBusinessV1 issuer_,\n        NoiaNodeV1 recipient_)\n        NoiaBaseContractV1(factory) public {\n        // the factory has guranteed that issuer and recipient are regulated contracts\n        certificateName = certificateName_;\n        issuer = issuer_;\n        recipient = recipient_;\n    }\n\n    function isInEffect() public view returns (bool) {\n        return signed && issued;\n    }\n\n    function sign() public {\n        require(msg.sender == address(issuer));\n        signed = true;\n        emit NoiaCertificateSignedV1(certificateName, issuer, recipient, this);\n    }\n\n    function issue() onlyOwner public {\n        issued = true;\n        recipient.acceptIssuedCertificate(this);\n        emit NoiaCertificateIssuedV1(certificateName, issuer, recipient, this);\n    }\n\n    function update(bytes32 payloadType_, bytes payloadData_) onlyOwner public {\n        payloadType = payloadType_;\n        payloadData = payloadData_;\n\n        if (issued) {\n            recipient.acceptCertificateUpdate(this);\n            emit NoiaCertificateUpdatedV1(certificateName, issuer, recipient, this);\n        }\n    }\n\n    function revoke() onlyOwner public {\n        if (issued) {\n            recipient.receiveCertificateRevokeNotice(this);\n            emit NoiaCertificateRevokedV1(certificateName, issuer, recipient, this);\n        }\n        // we give back ether to the owner\n        selfdestruct(owner);\n\n    }\n\n    event NoiaCertificateSignedV1(\n        bytes32 indexed certificateName,\n        address indexed issuer,\n        address indexed recipient,\n        address certificate);\n\n    event NoiaCertificateIssuedV1(\n        bytes32 indexed certificateName,\n        address indexed issuer,\n        address indexed recipient,\n        address certificate);\n\n    event NoiaCertificateUpdatedV1(\n        bytes32 indexed certificateName,\n        address indexed issuer,\n        address indexed recipient,\n        address certificate);\n\n    event NoiaCertificateRevokedV1(\n        bytes32 indexed certificateName,\n        address indexed issuer,\n        address indexed recipient,\n        address certificate);\n}\n",
  "sourcePath": "/home/hellwolf/Projects/noia/noia-governance/contracts/noia/v1/NoiaCertificateV1.sol",
  "compiler": {
    "name": "solc",
    "version": "0.4.21+commit.dfe3193c.Emscripten.clang"
  },
  "schemaVersion": "2.0.0",
  "updatedAt": "2018-04-19T20:11:49.518Z"
}