{
  "contractName": "NoiaContractsFactoryV1",
  "abi": [
    {
      "inputs": [
        {
          "name": "marketplace_",
          "type": "address"
        }
      ],
      "payable": false,
      "stateMutability": "nonpayable",
      "type": "constructor"
    },
    {
      "anonymous": false,
      "inputs": [
        {
          "indexed": false,
          "name": "businessAddress",
          "type": "address"
        }
      ],
      "name": "NoiaBusinessCreatedV1",
      "type": "event"
    },
    {
      "anonymous": false,
      "inputs": [
        {
          "indexed": false,
          "name": "nodeAddress",
          "type": "address"
        }
      ],
      "name": "NoiaNodeCreatedV1",
      "type": "event"
    },
    {
      "constant": false,
      "inputs": [],
      "name": "createBusiness",
      "outputs": [],
      "payable": false,
      "stateMutability": "nonpayable",
      "type": "function"
    },
    {
      "constant": false,
      "inputs": [],
      "name": "createNode",
      "outputs": [],
      "payable": false,
      "stateMutability": "nonpayable",
      "type": "function"
    }
  ],
  "bytecode": "0x6060604052341561000f57600080fd5b604051602080611fc583398101604052808051906020019091905050806000806101000a81548173ffffffffffffffffffffffffffffffffffffffff021916908373ffffffffffffffffffffffffffffffffffffffff16021790555050611f4a8061007b6000396000f30060606040526004361061004c576000357c0100000000000000000000000000000000000000000000000000000000900463ffffffff1680631c3917b8146100515780638d85618a14610066575b600080fd5b341561005c57600080fd5b61006461007b565b005b341561007157600080fd5b6100796102f1565b005b6000610085610567565b604051809103906000f080151561009b57600080fd5b90508073ffffffffffffffffffffffffffffffffffffffff1663a6f9dae1336040518263ffffffff167c0100000000000000000000000000000000000000000000000000000000028152600401808273ffffffffffffffffffffffffffffffffffffffff1673ffffffffffffffffffffffffffffffffffffffff168152602001915050600060405180830381600087803b151561013757600080fd5b5af1151561014457600080fd5b5050506000809054906101000a900473ffffffffffffffffffffffffffffffffffffffff1673ffffffffffffffffffffffffffffffffffffffff1663d9b5c4a56040518163ffffffff167c0100000000000000000000000000000000000000000000000000000000028152600401602060405180830381600087803b15156101cb57600080fd5b5af115156101d857600080fd5b5050506040518051905073ffffffffffffffffffffffffffffffffffffffff1663f15ae568826040518263ffffffff167c0100000000000000000000000000000000000000000000000000000000028152600401808273ffffffffffffffffffffffffffffffffffffffff1673ffffffffffffffffffffffffffffffffffffffff168152602001915050600060405180830381600087803b151561027b57600080fd5b5af1151561028857600080fd5b5050507f7201a6c6f7b62368f61168125f64da6da1bb91d6ded899707e8b27741309aa1f81604051808273ffffffffffffffffffffffffffffffffffffffff1673ffffffffffffffffffffffffffffffffffffffff16815260200191505060405180910390a150565b60006102fb610577565b604051809103906000f080151561031157600080fd5b90508073ffffffffffffffffffffffffffffffffffffffff1663a6f9dae1336040518263ffffffff167c0100000000000000000000000000000000000000000000000000000000028152600401808273ffffffffffffffffffffffffffffffffffffffff1673ffffffffffffffffffffffffffffffffffffffff168152602001915050600060405180830381600087803b15156103ad57600080fd5b5af115156103ba57600080fd5b5050506000809054906101000a900473ffffffffffffffffffffffffffffffffffffffff1673ffffffffffffffffffffffffffffffffffffffff16633dfc32f66040518163ffffffff167c0100000000000000000000000000000000000000000000000000000000028152600401602060405180830381600087803b151561044157600080fd5b5af1151561044e57600080fd5b5050506040518051905073ffffffffffffffffffffffffffffffffffffffff1663f15ae568826040518263ffffffff167c0100000000000000000000000000000000000000000000000000000000028152600401808273ffffffffffffffffffffffffffffffffffffffff1673ffffffffffffffffffffffffffffffffffffffff168152602001915050600060405180830381600087803b15156104f157600080fd5b5af115156104fe57600080fd5b5050507ff191f0f605bc0c587b08ae89ac813aab383537c15ba23a9273b81adbbfbbf16b81604051808273ffffffffffffffffffffffffffffffffffffffff1673ffffffffffffffffffffffffffffffffffffffff16815260200191505060405180910390a150565b6040516109f18061058883390190565b604051610fa680610f798339019056006060604052600133600160006101000a81548173ffffffffffffffffffffffffffffffffffffffff021916908373ffffffffffffffffffffffffffffffffffffffff16021790556000806101000a81548173ffffffffffffffffffffffffffffffffffffffff021916908373ffffffffffffffffffffffffffffffffffffffff16021790555080600160146101000a81548161ffff021916908361ffff1602179055505061093f806100b26000396000f300606060405260043610610099576000357c0100000000000000000000000000000000000000000000000000000000900463ffffffff16806302d05d3f1461009e5780631f5ddb4f146100f357806354fd4d501461015d5780638da5cb5b1461018e578063a6f9dae1146101e3578063b2017b0e1461021c578063b34b464814610255578063cb86cb521461027e578063ed12679c146102b7575b600080fd5b34156100a957600080fd5b6100b16102f0565b604051808273ffffffffffffffffffffffffffffffffffffffff1673ffffffffffffffffffffffffffffffffffffffff16815260200191505060405180910390f35b34156100fe57600080fd5b610106610315565b6040518080602001828103825283818151815260200191508051906020019060200280838360005b8381101561014957808201518184015260208101905061012e565b505050509050019250505060405180910390f35b341561016857600080fd5b610170610415565b604051808261ffff1661ffff16815260200191505060405180910390f35b341561019957600080fd5b6101a1610429565b604051808273ffffffffffffffffffffffffffffffffffffffff1673ffffffffffffffffffffffffffffffffffffffff16815260200191505060405180910390f35b34156101ee57600080fd5b61021a600480803573ffffffffffffffffffffffffffffffffffffffff1690602001909190505061044f565b005b341561022757600080fd5b610253600480803573ffffffffffffffffffffffffffffffffffffffff169060200190919050506104ef565b005b341561026057600080fd5b6102686105df565b6040518082815260200191505060405180910390f35b341561028957600080fd5b6102b5600480803573ffffffffffffffffffffffffffffffffffffffff169060200190919050506105e5565b005b34156102c257600080fd5b6102ee600480803573ffffffffffffffffffffffffffffffffffffffff169060200190919050506107bc565b005b6000809054906101000a900473ffffffffffffffffffffffffffffffffffffffff1681565b61031d6108ae565b6103256108ae565b600080600060035460405180591061033a5750595b9080825280602002602001820160405250935060009250600091505b60028054905082101561040b5760028281548110151561037257fe5b906000526020600020900160009054906101000a900473ffffffffffffffffffffffffffffffffffffffff1690506103a98161089b565b15610400578084848060010195508151811015156103c357fe5b9060200190602002019073ffffffffffffffffffffffffffffffffffffffff16908173ffffffffffffffffffffffffffffffffffffffff16815250505b816001019150610356565b8394505050505090565b600160149054906101000a900461ffff1681565b600160009054906101000a900473ffffffffffffffffffffffffffffffffffffffff1681565b600160009054906101000a900473ffffffffffffffffffffffffffffffffffffffff1673ffffffffffffffffffffffffffffffffffffffff163373ffffffffffffffffffffffffffffffffffffffff161415156104ab57600080fd5b80600160006101000a81548173ffffffffffffffffffffffffffffffffffffffff021916908373ffffffffffffffffffffffffffffffffffffffff16021790555050565b808073ffffffffffffffffffffffffffffffffffffffff163373ffffffffffffffffffffffffffffffffffffffff1614151561052a57600080fd5b6105338161089b565b151561053e57600080fd5b60018173ffffffffffffffffffffffffffffffffffffffff166354fd4d506040518163ffffffff167c0100000000000000000000000000000000000000000000000000000000028152600401602060405180830381600087803b15156105a357600080fd5b5af115156105b057600080fd5b5050506040518051905061ffff161415156105ca57600080fd5b60036000815460019003919050819055505050565b60035481565b808073ffffffffffffffffffffffffffffffffffffffff163373ffffffffffffffffffffffffffffffffffffffff1614151561062057600080fd5b6106298161089b565b151561063457600080fd5b60018173ffffffffffffffffffffffffffffffffffffffff166354fd4d506040518163ffffffff167c0100000000000000000000000000000000000000000000000000000000028152600401602060405180830381600087803b151561069957600080fd5b5af115156106a657600080fd5b5050506040518051905061ffff161415156106c057600080fd5b8173ffffffffffffffffffffffffffffffffffffffff1663e501bc7f6040518163ffffffff167c0100000000000000000000000000000000000000000000000000000000028152600401602060405180830381600087803b151561072357600080fd5b5af1151561073057600080fd5b50505060405180519050151561074557600080fd5b6002805480600101828161075991906108c2565b9160005260206000209001600084909190916101000a81548173ffffffffffffffffffffffffffffffffffffffff021916908373ffffffffffffffffffffffffffffffffffffffff16021790555050600360008154600101919050819055505050565b808073ffffffffffffffffffffffffffffffffffffffff163373ffffffffffffffffffffffffffffffffffffffff161415156107f757600080fd5b6108008161089b565b151561080b57600080fd5b60018173ffffffffffffffffffffffffffffffffffffffff166354fd4d506040518163ffffffff167c0100000000000000000000000000000000000000000000000000000000028152600401602060405180830381600087803b151561087057600080fd5b5af1151561087d57600080fd5b5050506040518051905061ffff1614151561089757600080fd5b5050565b600080823b905060008111915050919050565b602060405190810160405280600081525090565b8154818355818115116108e9578183600052602060002091820191016108e891906108ee565b5b505050565b61091091905b8082111561090c5760008160009055506001016108f4565b5090565b905600a165627a7a72305820f6d17272846a491c8e431584672f0bf3fd2cef038d9647d35cbbb8823c478b6b00296060604052600133600160006101000a81548173ffffffffffffffffffffffffffffffffffffffff021916908373ffffffffffffffffffffffffffffffffffffffff16021790556000806101000a81548173ffffffffffffffffffffffffffffffffffffffff021916908373ffffffffffffffffffffffffffffffffffffffff16021790555080600160146101000a81548161ffff021916908361ffff16021790555050610ef4806100b26000396000f30060606040526004361061008e576000357c0100000000000000000000000000000000000000000000000000000000900463ffffffff16806302d05d3f146100935780632781e016146100e857806354fd4d50146101215780635bfb2370146101525780635f5cf8011461018b5780635f893bfa146102145780638da5cb5b1461024d578063a6f9dae1146102a2575b600080fd5b341561009e57600080fd5b6100a66102db565b604051808273ffffffffffffffffffffffffffffffffffffffff1673ffffffffffffffffffffffffffffffffffffffff16815260200191505060405180910390f35b34156100f357600080fd5b61011f600480803573ffffffffffffffffffffffffffffffffffffffff16906020019091905050610300565b005b341561012c57600080fd5b6101346105f7565b604051808261ffff1661ffff16815260200191505060405180910390f35b341561015d57600080fd5b610189600480803573ffffffffffffffffffffffffffffffffffffffff1690602001909190505061060b565b005b341561019657600080fd5b610212600480803573ffffffffffffffffffffffffffffffffffffffff169060200190919080356000191690602001909190803590602001908201803590602001908080601f0160208091040260200160405190810160405280939291908181526020018383808284378201915050505050509190505061077f565b005b341561021f57600080fd5b61024b600480803573ffffffffffffffffffffffffffffffffffffffff16906020019091905050610af8565b005b341561025857600080fd5b610260610def565b604051808273ffffffffffffffffffffffffffffffffffffffff1673ffffffffffffffffffffffffffffffffffffffff16815260200191505060405180910390f35b34156102ad57600080fd5b6102d9600480803573ffffffffffffffffffffffffffffffffffffffff16906020019091905050610e15565b005b6000809054906101000a900473ffffffffffffffffffffffffffffffffffffffff1681565b8061030a81610eb5565b151561031557600080fd5b60018173ffffffffffffffffffffffffffffffffffffffff166354fd4d506040518163ffffffff167c0100000000000000000000000000000000000000000000000000000000028152600401602060405180830381600087803b151561037a57600080fd5b5af1151561038757600080fd5b5050506040518051905061ffff161415156103a157600080fd5b600160009054906101000a900473ffffffffffffffffffffffffffffffffffffffff1673ffffffffffffffffffffffffffffffffffffffff163373ffffffffffffffffffffffffffffffffffffffff161415156103fd57600080fd5b8173ffffffffffffffffffffffffffffffffffffffff16632ca151226040518163ffffffff167c0100000000000000000000000000000000000000000000000000000000028152600401600060405180830381600087803b151561046057600080fd5b5af1151561046d57600080fd5b5050508173ffffffffffffffffffffffffffffffffffffffff166366d003ac6040518163ffffffff167c0100000000000000000000000000000000000000000000000000000000028152600401602060405180830381600087803b15156104d357600080fd5b5af115156104e057600080fd5b5050506040518051905073ffffffffffffffffffffffffffffffffffffffff168273ffffffffffffffffffffffffffffffffffffffff16631d1438486040518163ffffffff167c0100000000000000000000000000000000000000000000000000000000028152600401602060405180830381600087803b151561056357600080fd5b5af1151561057057600080fd5b5050506040518051905073ffffffffffffffffffffffffffffffffffffffff167f55bce1bcabc08a1a080c97efadeadf8116df766d74d772cfd0e8161073b31a5e84604051808273ffffffffffffffffffffffffffffffffffffffff1673ffffffffffffffffffffffffffffffffffffffff16815260200191505060405180910390a35050565b600160149054906101000a900461ffff1681565b8061061581610eb5565b151561062057600080fd5b60018173ffffffffffffffffffffffffffffffffffffffff166354fd4d506040518163ffffffff167c0100000000000000000000000000000000000000000000000000000000028152600401602060405180830381600087803b151561068557600080fd5b5af1151561069257600080fd5b5050506040518051905061ffff161415156106ac57600080fd5b600160009054906101000a900473ffffffffffffffffffffffffffffffffffffffff1673ffffffffffffffffffffffffffffffffffffffff163373ffffffffffffffffffffffffffffffffffffffff1614151561070857600080fd5b8173ffffffffffffffffffffffffffffffffffffffff1663bf8fcfbe6040518163ffffffff167c0100000000000000000000000000000000000000000000000000000000028152600401600060405180830381600087803b151561076b57600080fd5b5af1151561077857600080fd5b5050505050565b8261078981610eb5565b151561079457600080fd5b60018173ffffffffffffffffffffffffffffffffffffffff166354fd4d506040518163ffffffff167c0100000000000000000000000000000000000000000000000000000000028152600401602060405180830381600087803b15156107f957600080fd5b5af1151561080657600080fd5b5050506040518051905061ffff1614151561082057600080fd5b600160009054906101000a900473ffffffffffffffffffffffffffffffffffffffff1673ffffffffffffffffffffffffffffffffffffffff163373ffffffffffffffffffffffffffffffffffffffff1614151561087c57600080fd5b8373ffffffffffffffffffffffffffffffffffffffff1663212788f984846040518363ffffffff167c010000000000000000000000000000000000000000000000000000000002815260040180836000191660001916815260200180602001828103825283818151815260200191508051906020019080838360005b838110156109135780820151818401526020810190506108f8565b50505050905090810190601f1680156109405780820380516001836020036101000a031916815260200191505b509350505050600060405180830381600087803b151561095f57600080fd5b5af1151561096c57600080fd5b5050508373ffffffffffffffffffffffffffffffffffffffff166366d003ac6040518163ffffffff167c0100000000000000000000000000000000000000000000000000000000028152600401602060405180830381600087803b15156109d257600080fd5b5af115156109df57600080fd5b5050506040518051905073ffffffffffffffffffffffffffffffffffffffff168473ffffffffffffffffffffffffffffffffffffffff16631d1438486040518163ffffffff167c0100000000000000000000000000000000000000000000000000000000028152600401602060405180830381600087803b1515610a6257600080fd5b5af11515610a6f57600080fd5b5050506040518051905073ffffffffffffffffffffffffffffffffffffffff167f35d200684fe8162a67c412b6bb2725481d7f90e83c9a6cb59fb4ce71b0bf585e86604051808273ffffffffffffffffffffffffffffffffffffffff1673ffffffffffffffffffffffffffffffffffffffff16815260200191505060405180910390a350505050565b80610b0281610eb5565b1515610b0d57600080fd5b60018173ffffffffffffffffffffffffffffffffffffffff166354fd4d506040518163ffffffff167c0100000000000000000000000000000000000000000000000000000000028152600401602060405180830381600087803b1515610b7257600080fd5b5af11515610b7f57600080fd5b5050506040518051905061ffff16141515610b9957600080fd5b600160009054906101000a900473ffffffffffffffffffffffffffffffffffffffff1673ffffffffffffffffffffffffffffffffffffffff163373ffffffffffffffffffffffffffffffffffffffff16141515610bf557600080fd5b8173ffffffffffffffffffffffffffffffffffffffff1663b6549f756040518163ffffffff167c0100000000000000000000000000000000000000000000000000000000028152600401600060405180830381600087803b1515610c5857600080fd5b5af11515610c6557600080fd5b5050508173ffffffffffffffffffffffffffffffffffffffff166366d003ac6040518163ffffffff167c0100000000000000000000000000000000000000000000000000000000028152600401602060405180830381600087803b1515610ccb57600080fd5b5af11515610cd857600080fd5b5050506040518051905073ffffffffffffffffffffffffffffffffffffffff168273ffffffffffffffffffffffffffffffffffffffff16631d1438486040518163ffffffff167c0100000000000000000000000000000000000000000000000000000000028152600401602060405180830381600087803b1515610d5b57600080fd5b5af11515610d6857600080fd5b5050506040518051905073ffffffffffffffffffffffffffffffffffffffff167fc03a186f7ae51763ee7cf0cb3aa2d05e8d557075233806eaa96db96a96fedbd084604051808273ffffffffffffffffffffffffffffffffffffffff1673ffffffffffffffffffffffffffffffffffffffff16815260200191505060405180910390a35050565b600160009054906101000a900473ffffffffffffffffffffffffffffffffffffffff1681565b600160009054906101000a900473ffffffffffffffffffffffffffffffffffffffff1673ffffffffffffffffffffffffffffffffffffffff163373ffffffffffffffffffffffffffffffffffffffff16141515610e7157600080fd5b80600160006101000a81548173ffffffffffffffffffffffffffffffffffffffff021916908373ffffffffffffffffffffffffffffffffffffffff16021790555050565b600080823b9050600081119150509190505600a165627a7a72305820587a022e338864413f28ea1f0b73b0e79a05034cd27ed5a02d81157acffdb5bc0029a165627a7a723058203689f82f5bdbd680a8c62099b00bd2a60f6612330098452264ac756c54703f570029",
  "source": "pragma solidity ^0.4.11;\n\nimport '../gov/NoiaMarketplace.sol';\nimport './NoiaBusinessV1.sol';\nimport './NoiaNodeV1.sol';\n\ncontract NoiaContractsFactoryV1 {\n    NoiaMarketplace marketplace;\n\n    function NoiaContractsFactoryV1(NoiaMarketplace marketplace_) public {\n        marketplace = marketplace_;\n    }\n\n    function createBusiness() public {\n        NoiaBusinessV1 business = new NoiaBusinessV1();\n        business.changeOwner(msg.sender);\n        marketplace.businessRegistry().addEntry(business);\n        emit NoiaBusinessCreatedV1(address(business));\n    }\n\n    event NoiaBusinessCreatedV1(address businessAddress);\n\n    function createNode() public {\n        NoiaNodeV1 node = new NoiaNodeV1();\n        node.changeOwner(msg.sender);\n        marketplace.nodeRegistry().addEntry(node);\n        emit NoiaNodeCreatedV1(address(node));\n    }\n\n    event NoiaNodeCreatedV1(address nodeAddress);\n}\n",
  "sourcePath": "/home/hellwolf/Projects/noia/noia-governance/contracts/noia/v1/NoiaContractsFactoryV1.sol",
  "compiler": {
    "name": "solc",
    "version": "0.4.21+commit.dfe3193c.Emscripten.clang"
  },
  "schemaVersion": "2.0.0",
  "updatedAt": "2018-04-18T01:25:36.171Z"
}