{
  "contractName": "NoiaWorkContractV1",
  "abi": [
    {
      "constant": true,
      "inputs": [],
      "name": "jobPost",
      "outputs": [
        {
          "name": "",
          "type": "address"
        }
      ],
      "payable": false,
      "stateMutability": "view",
      "type": "function"
    },
    {
      "constant": true,
      "inputs": [],
      "name": "signedByEmployer",
      "outputs": [
        {
          "name": "",
          "type": "bool"
        }
      ],
      "payable": false,
      "stateMutability": "view",
      "type": "function"
    },
    {
      "constant": true,
      "inputs": [],
      "name": "workerAddress",
      "outputs": [
        {
          "name": "",
          "type": "address"
        }
      ],
      "payable": false,
      "stateMutability": "view",
      "type": "function"
    },
    {
      "constant": true,
      "inputs": [],
      "name": "tokenReceived",
      "outputs": [
        {
          "name": "",
          "type": "uint256"
        }
      ],
      "payable": false,
      "stateMutability": "view",
      "type": "function"
    },
    {
      "constant": true,
      "inputs": [],
      "name": "signedByWorker",
      "outputs": [
        {
          "name": "",
          "type": "bool"
        }
      ],
      "payable": false,
      "stateMutability": "view",
      "type": "function"
    },
    {
      "inputs": [
        {
          "name": "jobPost_",
          "type": "address"
        },
        {
          "name": "initiator_",
          "type": "uint8"
        },
        {
          "name": "workerAddress_",
          "type": "address"
        }
      ],
      "payable": false,
      "stateMutability": "nonpayable",
      "type": "constructor"
    },
    {
      "constant": false,
      "inputs": [],
      "name": "signByEmployer",
      "outputs": [],
      "payable": false,
      "stateMutability": "nonpayable",
      "type": "function"
    },
    {
      "constant": false,
      "inputs": [],
      "name": "signByWorker",
      "outputs": [],
      "payable": false,
      "stateMutability": "nonpayable",
      "type": "function"
    },
    {
      "constant": true,
      "inputs": [],
      "name": "isSigned",
      "outputs": [
        {
          "name": "",
          "type": "bool"
        }
      ],
      "payable": false,
      "stateMutability": "view",
      "type": "function"
    },
    {
      "constant": true,
      "inputs": [],
      "name": "isFunded",
      "outputs": [
        {
          "name": "",
          "type": "bool"
        }
      ],
      "payable": false,
      "stateMutability": "view",
      "type": "function"
    },
    {
      "constant": false,
      "inputs": [
        {
          "name": "",
          "type": "address"
        },
        {
          "name": "value",
          "type": "uint256"
        },
        {
          "name": "",
          "type": "bytes"
        }
      ],
      "name": "tokenFallback",
      "outputs": [],
      "payable": false,
      "stateMutability": "nonpayable",
      "type": "function"
    }
  ],
  "bytecode": "0x60806040526005805461ffff19169055600060065534801561002057600080fd5b5060405160608061077c83398101604090815281516020830151919092015133600160a060020a038416146100dc57604080517f08c379a000000000000000000000000000000000000000000000000000000000815260206004820152602b60248201527f4f6e6c792061206a6f6220706f73742063616e206372656174652061206e657760448201527f20776f726b206f72646572000000000000000000000000000000000000000000606482015290519081900360840190fd5b60008054600160a060020a031916600160a060020a0385161780825583919060a060020a60ff0219167401000000000000000000000000000000000000000083600181111561012757fe5b021790555060018054600160a060020a03909216600160a060020a0319909216919091179055505061061e8061015e6000396000f30060806040526004361061008a5763ffffffff60e060020a60003504166336f152a3811461008f5780633c206412146100a65780637c654303146100bb57806394566d25146100e4578063b146e12914610115578063c0ee0b8a1461012a578063cbd88f4814610193578063e66a6b22146101a8578063eae19df4146101bd578063f26ef65f146101e4575b600080fd5b34801561009b57600080fd5b506100a46101f9565b005b3480156100b257600080fd5b506100a461032b565b3480156100c757600080fd5b506100d06103db565b604080519115158252519081900360200190f35b3480156100f057600080fd5b506100f96103e6565b60408051600160a060020a039092168252519081900360200190f35b34801561012157600080fd5b506100d06103f5565b34801561013657600080fd5b50604080516020600460443581810135601f81018490048402850184019095528484526100a4948235600160a060020a03169460248035953695946064949201919081908401838280828437509497506103fe9650505050505050565b34801561019f57600080fd5b506100f96105ae565b3480156101b457600080fd5b506100d06105bd565b3480156101c957600080fd5b506101d26105de565b60408051918252519081900360200190f35b3480156101f057600080fd5b506100d06105e4565b33600160a060020a03166000809054906101000a9004600160a060020a0316600160a060020a031663ae200e796040518163ffffffff1660e060020a028152600401602060405180830381600087803b15801561025557600080fd5b505af1158015610269573d6000803e3d6000fd5b505050506040513d602081101561027f57600080fd5b5051600160a060020a03161461031c57604080517f08c379a000000000000000000000000000000000000000000000000000000000815260206004820152602a60248201527f4f6e6c7920616e20656d706c6f7965722063616e2063616c6c20277369676e4260448201527f79456d706c6f7965722700000000000000000000000000000000000000000000606482015290519081900360840190fd5b6005805460ff19166001179055565b600154600160a060020a031633146103ca57604080517f08c379a000000000000000000000000000000000000000000000000000000000815260206004820152602560248201527f4f6e6c79206120776f726b65722063616e2063616c6c20277369676e4279576f60448201527f726b657227000000000000000000000000000000000000000000000000000000606482015290519081900360840190fd5b6005805461ff001916610100179055565b600354600654101590565b600054600160a060020a031681565b60055460ff1681565b6000809054906101000a9004600160a060020a0316600160a060020a031663abc8c7af6040518163ffffffff1660e060020a028152600401602060405180830381600087803b15801561045057600080fd5b505af1158015610464573d6000803e3d6000fd5b505050506040513d602081101561047a57600080fd5b5051604080517f55a373d60000000000000000000000000000000000000000000000000000000081529051600160a060020a03909216916355a373d6916004808201926020929091908290030181600087803b1580156104d957600080fd5b505af11580156104ed573d6000803e3d6000fd5b505050506040513d602081101561050357600080fd5b5051600160a060020a031633146105a157604080517f08c379a000000000000000000000000000000000000000000000000000000000815260206004820152602f60248201527f4f6e6c79206f757220746f6b656e20636f6e74726163742063616e2066756e6460448201527f206f757220776f726b206f726465720000000000000000000000000000000000606482015290519081900360840190fd5b5060068054909101905550565b600154600160a060020a031681565b60055460009060ff1680156105d95750600554610100900460ff165b905090565b60065481565b600554610100900460ff16815600a165627a7a72305820edb49b3a6be2a1be5a9bd7fe534a1b0259f4cc096caebdec3c18e79dd9c8b1bb0029",
  "source": "pragma solidity ^0.4.11;\n\nimport \"../../abstracts/ERC223Interface.sol\";\nimport \"./NoiaJobPostV1.sol\";\n\ncontract NoiaWorkContractV1 {\n    enum Initiator { Employer, Worker  }\n\n    NoiaJobPostV1 public jobPost;\n    Initiator initiator;\n    address public workerAddress;\n\n    // contract conditionss\n    uint upfrontFee;\n    uint totalTokenWorth;\n    uint forcedReleaseInNumBlocks;\n\n    // contract status\n    bool public signedByEmployer = false;\n    bool public signedByWorker = false;\n    uint public tokenReceived = 0;\n\n    constructor(\n        NoiaJobPostV1 jobPost_,\n        Initiator initiator_,\n        address workerAddress_) public {\n        // can be created by a job post only\n        require(msg.sender == address(jobPost_), \"Only a job post can create a new work order\");\n        jobPost = jobPost_;\n        initiator = initiator_;\n        workerAddress = workerAddress_;\n    }\n\n    function signByEmployer() public {\n        require(address(jobPost.employer()) == msg.sender, \"Only an employer can call 'signByEmployer'\");\n        signedByEmployer = true;\n    }\n\n    function signByWorker() public {\n        require(workerAddress == msg.sender, \"Only a worker can call 'signByWorker'\");\n        signedByWorker = true;\n    }\n\n    function isSigned() public view returns (bool) {\n        return signedByEmployer && signedByWorker;\n    }\n\n    function isFunded() public view returns (bool) {\n        return tokenReceived >= totalTokenWorth;\n    }\n\n    function tokenFallback(address /*from*/, uint value, bytes /*_data*/) public {\n        // token `from` anyone is welcome :)\n        require(msg.sender == address(jobPost.marketplace().tokenContract()), \"Only our token contract can fund our work order\");\n        tokenReceived += value;\n    }\n}\n",
  "sourcePath": "/srv/work/projects/noia-network/noia-governance/contracts/noia/v1/NoiaWorkContractV1.sol",
  "compiler": {
    "name": "solc",
    "version": "0.4.24+commit.e67f0147.Emscripten.clang"
  },
  "schemaVersion": "2.0.0",
  "updatedAt": "2018-09-17T14:55:18.713Z"
}