{
  "contractName": "NoiaRegistry",
  "abi": [
    {
      "inputs": [
        {
          "name": "regulation_",
          "type": "address"
        }
      ],
      "payable": false,
      "stateMutability": "nonpayable",
      "type": "constructor"
    },
    {
      "anonymous": false,
      "inputs": [
        {
          "indexed": false,
          "name": "baseContract",
          "type": "address"
        }
      ],
      "name": "NoiaRegistryEntryAdded",
      "type": "event"
    },
    {
      "constant": false,
      "inputs": [
        {
          "name": "baseContract",
          "type": "address"
        }
      ],
      "name": "addEntry",
      "outputs": [],
      "payable": false,
      "stateMutability": "nonpayable",
      "type": "function"
    },
    {
      "constant": true,
      "inputs": [
        {
          "name": "baseContract",
          "type": "address"
        }
      ],
      "name": "hasEntry",
      "outputs": [
        {
          "name": "",
          "type": "bool"
        }
      ],
      "payable": false,
      "stateMutability": "view",
      "type": "function"
    },
    {
      "constant": true,
      "inputs": [],
      "name": "count",
      "outputs": [
        {
          "name": "",
          "type": "uint256"
        }
      ],
      "payable": false,
      "stateMutability": "view",
      "type": "function"
    }
  ],
  "bytecode": "0x6060604052341561000f57600080fd5b60405160208061045583398101604052808051906020019091905050806000806101000a81548173ffffffffffffffffffffffffffffffffffffffff021916908373ffffffffffffffffffffffffffffffffffffffff160217905550506103da8061007b6000396000f300606060405260043610610057576000357c0100000000000000000000000000000000000000000000000000000000900463ffffffff16806306661abd1461005c578063a25047a214610085578063f15ae568146100d6575b600080fd5b341561006757600080fd5b61006f61010f565b6040518082815260200191505060405180910390f35b341561009057600080fd5b6100bc600480803573ffffffffffffffffffffffffffffffffffffffff16906020019091905050610119565b604051808215151515815260200191505060405180910390f35b34156100e157600080fd5b61010d600480803573ffffffffffffffffffffffffffffffffffffffff16906020019091905050610164565b005b6000600254905090565b600080600160008473ffffffffffffffffffffffffffffffffffffffff1673ffffffffffffffffffffffffffffffffffffffff16815260200190815260200160002054119050919050565b8073ffffffffffffffffffffffffffffffffffffffff1663c45a01556040518163ffffffff167c0100000000000000000000000000000000000000000000000000000000028152600401602060405180830381600087803b15156101c757600080fd5b5af115156101d457600080fd5b5050506040518051905073ffffffffffffffffffffffffffffffffffffffff163373ffffffffffffffffffffffffffffffffffffffff1614151561021757600080fd5b6000809054906101000a900473ffffffffffffffffffffffffffffffffffffffff1673ffffffffffffffffffffffffffffffffffffffff16631f94c77c826040518263ffffffff167c0100000000000000000000000000000000000000000000000000000000028152600401808273ffffffffffffffffffffffffffffffffffffffff1673ffffffffffffffffffffffffffffffffffffffff168152602001915050602060405180830381600087803b15156102d257600080fd5b5af115156102df57600080fd5b5050506040518051905015156102f457600080fd5b60018060008373ffffffffffffffffffffffffffffffffffffffff1673ffffffffffffffffffffffffffffffffffffffff16815260200190815260200160002081905550600260008154600101919050819055507f1d2908a21f62bdc114393352feeaf505a80950de4d81096e75e408f23ffcf1ef81604051808273ffffffffffffffffffffffffffffffffffffffff1673ffffffffffffffffffffffffffffffffffffffff16815260200191505060405180910390a1505600a165627a7a72305820bc0c0b9e1520e37c49f9275b2137aadda1ba26f4514a2d0ff7e63d7b8eb57c380029",
  "source": "pragma solidity ^0.4.11;\n\nimport './NoiaBaseContract.sol';\nimport './NoiaRegulation.sol';\n\n/**\n * Shared Noia Registry\n *\n * Features/Limitations:\n * - can add base contract to entry\n *   - only allow creator of the contract to add it to entries\n *   - only allow contracts passing the regulation to be added\n * - emit NoiaRegistryEntryAdded when adding entry\n * - can query entry existence\n * - count total entries\n * - does not track base contract deletion\n */\ncontract NoiaRegistry {\n    NoiaRegulation regulation;\n    mapping(address => uint) entries;\n    uint nEntries;\n\n    function NoiaRegistry(NoiaRegulation regulation_) public {\n        regulation = regulation_;\n    }\n\n    function addEntry(NoiaBaseContract baseContract) public {\n        // validate that sender is from the same factory\n        require(msg.sender == address(baseContract.factory()));\n        require(regulation.isContractValid(baseContract));\n        entries[address(baseContract)] = 1;\n        ++nEntries;\n        emit NoiaRegistryEntryAdded(address(baseContract));\n    }\n\n    function hasEntry(address baseContract) public view returns (bool) {\n        return entries[address(baseContract)] > 0;\n    }\n\n    function count() public view returns (uint) {\n        return nEntries;\n    }\n\n    event NoiaRegistryEntryAdded(\n        address baseContract);\n}\n",
  "sourcePath": "/home/hellwolf/Projects/noia/noia-governance/contracts/noia/gov/NoiaRegistry.sol",
  "compiler": {
    "name": "solc",
    "version": "0.4.21+commit.dfe3193c.Emscripten.clang"
  },
  "schemaVersion": "2.0.0",
  "updatedAt": "2018-05-09T14:56:53.741Z"
}