{
  "contractName": "NoiaNodeV1",
  "abi": [
    {
      "constant": true,
      "inputs": [],
      "name": "infoData",
      "outputs": [
        {
          "name": "",
          "type": "bytes"
        }
      ],
      "payable": false,
      "stateMutability": "view",
      "type": "function"
    },
    {
      "constant": true,
      "inputs": [],
      "name": "version",
      "outputs": [
        {
          "name": "",
          "type": "uint16"
        }
      ],
      "payable": false,
      "stateMutability": "view",
      "type": "function"
    },
    {
      "constant": true,
      "inputs": [],
      "name": "owner",
      "outputs": [
        {
          "name": "",
          "type": "address"
        }
      ],
      "payable": false,
      "stateMutability": "view",
      "type": "function"
    },
    {
      "constant": false,
      "inputs": [
        {
          "name": "_newOwner",
          "type": "address"
        }
      ],
      "name": "changeOwner",
      "outputs": [],
      "payable": false,
      "stateMutability": "nonpayable",
      "type": "function"
    },
    {
      "constant": true,
      "inputs": [],
      "name": "infoType",
      "outputs": [
        {
          "name": "",
          "type": "bytes32"
        }
      ],
      "payable": false,
      "stateMutability": "view",
      "type": "function"
    },
    {
      "constant": true,
      "inputs": [],
      "name": "certificatesCount",
      "outputs": [
        {
          "name": "",
          "type": "uint256"
        }
      ],
      "payable": false,
      "stateMutability": "view",
      "type": "function"
    },
    {
      "constant": true,
      "inputs": [],
      "name": "factory",
      "outputs": [
        {
          "name": "",
          "type": "address"
        }
      ],
      "payable": false,
      "stateMutability": "view",
      "type": "function"
    },
    {
      "inputs": [
        {
          "name": "marketplace_",
          "type": "address"
        },
        {
          "name": "factory",
          "type": "address"
        },
        {
          "name": "infoType_",
          "type": "bytes32"
        },
        {
          "name": "infoData_",
          "type": "bytes"
        }
      ],
      "payable": false,
      "stateMutability": "nonpayable",
      "type": "constructor"
    },
    {
      "constant": false,
      "inputs": [
        {
          "name": "infoType_",
          "type": "bytes32"
        },
        {
          "name": "infoData_",
          "type": "bytes"
        }
      ],
      "name": "setInfo",
      "outputs": [],
      "payable": false,
      "stateMutability": "nonpayable",
      "type": "function"
    },
    {
      "constant": false,
      "inputs": [
        {
          "name": "certificateAddress",
          "type": "address"
        }
      ],
      "name": "acceptIssuedCertificate",
      "outputs": [],
      "payable": false,
      "stateMutability": "nonpayable",
      "type": "function"
    },
    {
      "constant": true,
      "inputs": [
        {
          "name": "certificateAddress",
          "type": "address"
        }
      ],
      "name": "acceptCertificateUpdate",
      "outputs": [],
      "payable": false,
      "stateMutability": "view",
      "type": "function"
    },
    {
      "constant": false,
      "inputs": [
        {
          "name": "certificateAddress",
          "type": "address"
        }
      ],
      "name": "receiveCertificateRevokeNotice",
      "outputs": [],
      "payable": false,
      "stateMutability": "nonpayable",
      "type": "function"
    },
    {
      "constant": true,
      "inputs": [],
      "name": "getCertificates",
      "outputs": [
        {
          "name": "",
          "type": "address[]"
        }
      ],
      "payable": false,
      "stateMutability": "view",
      "type": "function"
    }
  ],
  "bytecode": "0x6060604052341561000f57600080fd5b604051610d91380380610d918339810160405280805190602001909190805190602001909190805190602001909190805182019190505082806001336000806101000a81548173ffffffffffffffffffffffffffffffffffffffff021916908373ffffffffffffffffffffffffffffffffffffffff16021790555080600160146101000a81548161ffff021916908361ffff16021790555081600160006101000a81548173ffffffffffffffffffffffffffffffffffffffff021916908373ffffffffffffffffffffffffffffffffffffffff16021790555050508073ffffffffffffffffffffffffffffffffffffffff163373ffffffffffffffffffffffffffffffffffffffff1614151561012457600080fd5b5083600260006101000a81548173ffffffffffffffffffffffffffffffffffffffff021916908373ffffffffffffffffffffffffffffffffffffffff16021790555081600581600019169055508060069080519060200190610187929190610191565b5050505050610236565b828054600181600116156101000203166002900490600052602060002090601f016020900481019282601f106101d257805160ff1916838001178555610200565b82800160010185558215610200579182015b828111156101ff5782518255916020019190600101906101e4565b5b50905061020d9190610211565b5090565b61023391905b8082111561022f576000816000905550600101610217565b5090565b90565b610b4c806102456000396000f3006060604052600436106100ba576000357c0100000000000000000000000000000000000000000000000000000000900463ffffffff1680631f5ddb4f146100bf578063256b4e21146101295780632e5b5a131461016257806354fd4d50146101f0578063699af622146102215780638da5cb5b1461028b578063a6f9dae1146102e0578063afb74f4814610319578063b2017b0e1461034a578063b34b464814610383578063c45a0155146103ac578063ed12679c14610401575b600080fd5b34156100ca57600080fd5b6100d261043a565b6040518080602001828103825283818151815260200191508051906020019060200280838360005b838110156101155780820151818401526020810190506100fa565b505050509050019250505060405180910390f35b341561013457600080fd5b610160600480803573ffffffffffffffffffffffffffffffffffffffff1690602001909190505061053a565b005b341561016d57600080fd5b61017561068c565b6040518080602001828103825283818151815260200191508051906020019080838360005b838110156101b557808201518184015260208101905061019a565b50505050905090810190601f1680156101e25780820380516001836020036101000a031916815260200191505b509250505060405180910390f35b34156101fb57600080fd5b61020361072a565b604051808261ffff1661ffff16815260200191505060405180910390f35b341561022c57600080fd5b61028960048080356000191690602001909190803590602001908201803590602001908080601f0160208091040260200160405190810160405280939291908181526020018383808284378201915050505050509190505061073e565b005b341561029657600080fd5b61029e610764565b604051808273ffffffffffffffffffffffffffffffffffffffff1673ffffffffffffffffffffffffffffffffffffffff16815260200191505060405180910390f35b34156102eb57600080fd5b610317600480803573ffffffffffffffffffffffffffffffffffffffff16906020019091905050610789565b005b341561032457600080fd5b61032c610827565b60405180826000191660001916815260200191505060405180910390f35b341561035557600080fd5b610381600480803573ffffffffffffffffffffffffffffffffffffffff1690602001909190505061082d565b005b341561038e57600080fd5b61039661091d565b6040518082815260200191505060405180910390f35b34156103b757600080fd5b6103bf610923565b604051808273ffffffffffffffffffffffffffffffffffffffff1673ffffffffffffffffffffffffffffffffffffffff16815260200191505060405180910390f35b341561040c57600080fd5b610438600480803573ffffffffffffffffffffffffffffffffffffffff16906020019091905050610949565b005b610442610a3b565b61044a610a3b565b600080600060045460405180591061045f5750595b9080825280602002602001820160405250935060009250600091505b6003805490508210156105305760038281548110151561049757fe5b906000526020600020900160009054906101000a900473ffffffffffffffffffffffffffffffffffffffff1690506104ce81610a28565b15610525578084848060010195508151811015156104e857fe5b9060200190602002019073ffffffffffffffffffffffffffffffffffffffff16908173ffffffffffffffffffffffffffffffffffffffff16815250505b81600101915061047b565b8394505050505090565b808073ffffffffffffffffffffffffffffffffffffffff163373ffffffffffffffffffffffffffffffffffffffff1614151561057557600080fd5b61057e81610a28565b151561058957600080fd5b60018173ffffffffffffffffffffffffffffffffffffffff166354fd4d506040518163ffffffff167c0100000000000000000000000000000000000000000000000000000000028152600401602060405180830381600087803b15156105ee57600080fd5b5af115156105fb57600080fd5b5050506040518051905061ffff1614151561061557600080fd5b600380548060010182816106299190610a4f565b9160005260206000209001600084909190916101000a81548173ffffffffffffffffffffffffffffffffffffffff021916908373ffffffffffffffffffffffffffffffffffffffff16021790555050600460008154600101919050819055505050565b60068054600181600116156101000203166002900480601f0160208091040260200160405190810160405280929190818152602001828054600181600116156101000203166002900480156107225780601f106106f757610100808354040283529160200191610722565b820191906000526020600020905b81548152906001019060200180831161070557829003601f168201915b505050505081565b600160149054906101000a900461ffff1681565b8160058160001916905550806006908051906020019061075f929190610a7b565b505050565b6000809054906101000a900473ffffffffffffffffffffffffffffffffffffffff1681565b6000809054906101000a900473ffffffffffffffffffffffffffffffffffffffff1673ffffffffffffffffffffffffffffffffffffffff163373ffffffffffffffffffffffffffffffffffffffff161415156107e457600080fd5b806000806101000a81548173ffffffffffffffffffffffffffffffffffffffff021916908373ffffffffffffffffffffffffffffffffffffffff16021790555050565b60055481565b808073ffffffffffffffffffffffffffffffffffffffff163373ffffffffffffffffffffffffffffffffffffffff1614151561086857600080fd5b61087181610a28565b151561087c57600080fd5b60018173ffffffffffffffffffffffffffffffffffffffff166354fd4d506040518163ffffffff167c0100000000000000000000000000000000000000000000000000000000028152600401602060405180830381600087803b15156108e157600080fd5b5af115156108ee57600080fd5b5050506040518051905061ffff1614151561090857600080fd5b60046000815460019003919050819055505050565b60045481565b600160009054906101000a900473ffffffffffffffffffffffffffffffffffffffff1681565b808073ffffffffffffffffffffffffffffffffffffffff163373ffffffffffffffffffffffffffffffffffffffff1614151561098457600080fd5b61098d81610a28565b151561099857600080fd5b60018173ffffffffffffffffffffffffffffffffffffffff166354fd4d506040518163ffffffff167c0100000000000000000000000000000000000000000000000000000000028152600401602060405180830381600087803b15156109fd57600080fd5b5af11515610a0a57600080fd5b5050506040518051905061ffff16141515610a2457600080fd5b5050565b600080823b905060008111915050919050565b602060405190810160405280600081525090565b815481835581811511610a7657818360005260206000209182019101610a759190610afb565b5b505050565b828054600181600116156101000203166002900490600052602060002090601f016020900481019282601f10610abc57805160ff1916838001178555610aea565b82800160010185558215610aea579182015b82811115610ae9578251825591602001919060010190610ace565b5b509050610af79190610afb565b5090565b610b1d91905b80821115610b19576000816000905550600101610b01565b5090565b905600a165627a7a723058204b6722d0405c72a1ef175515042d381f5142b23bef773b8b9bd59c1b4fecfc070029",
  "source": "pragma solidity ^0.4.11;\n\nimport '../gov/NoiaMarketplace.sol';\nimport './NoiaBaseContractV1.sol';\nimport './NoiaCertificateV1.sol';\n\n/**\n * Standard Noia Node Contract V1 (Draft)\n *\n */\ncontract NoiaNodeV1 is NoiaBaseContractV1 {\n    NoiaMarketplace marketplace;\n\n    address[] certificates;\n    uint public certificatesCount;\n\n    bytes32 public infoType;\n    bytes public infoData;\n\n    function NoiaNodeV1(\n        NoiaMarketplace marketplace_,\n        address factory,\n        bytes32 infoType_, bytes infoData_)\n        NoiaBaseContractV1(factory) public {\n        marketplace = marketplace_;\n        infoType = infoType_;\n        infoData = infoData_;\n    }\n\n    //\n    // Node Info\n    //\n    function setInfo(bytes32 infoType_, bytes infoData_) public {\n        infoType = infoType_;\n        infoData = infoData_;\n    }\n\n    //\n    // Certificate Callback Functions\n    //\n    modifier fromCertificateV1(address certificateAddress) {\n        require (msg.sender == certificateAddress);\n        require(isContract(certificateAddress));\n        require(NoiaBaseContract(certificateAddress).version() == 1);\n        _;\n    }\n\n    function acceptIssuedCertificate(address certificateAddress)\n        fromCertificateV1(certificateAddress) public {\n        certificates.push(certificateAddress);\n        ++certificatesCount;\n    }\n\n    function acceptCertificateUpdate(address certificateAddress)\n        fromCertificateV1(certificateAddress) public view {\n        // ignoring the data update callback\n    }\n\n    function receiveCertificateRevokeNotice(address certificateAddress)\n        fromCertificateV1(certificateAddress) public {\n        --certificatesCount;\n    }\n\n    //\n    // Certificate Listing Functions\n    //\n    function getCertificates() public view returns (address[]) {\n        address[] memory certs = new address[](certificatesCount);\n        uint n = 0;\n        for (uint i = 0; i < certificates.length; ++i) {\n            address cert = certificates[i];\n            if (isContract(cert)) certs[n++] = cert;\n        }\n        if (n < certificatesCount) {\n            // shouldn't happen, but some business forgot to call sendCertificateRevokeNotice\n        }\n        return certs;\n    }\n\n    // TODO defrag\n\n    //\n    // misc\n    // TODO, link misc library\n    //\n    function isContract(address addr) private view returns (bool) {\n      uint size;\n      assembly { size := extcodesize(addr) }\n      return size > 0;\n    }\n}\n",
  "sourcePath": "/home/hellwolf/Projects/noia/noia-governance/contracts/noia/v1/NoiaNodeV1.sol",
  "compiler": {
    "name": "solc",
    "version": "0.4.21+commit.dfe3193c.Emscripten.clang"
  },
  "schemaVersion": "2.0.0",
  "updatedAt": "2018-04-20T09:04:43.936Z"
}