{
  "contractName": "NoiaWorkContractV1",
  "abi": [
    {
      "constant": true,
      "inputs": [],
      "name": "tokenContract",
      "outputs": [
        {
          "name": "",
          "type": "address"
        }
      ],
      "payable": false,
      "stateMutability": "view",
      "type": "function"
    },
    {
      "constant": true,
      "inputs": [],
      "name": "jobPost",
      "outputs": [
        {
          "name": "",
          "type": "address"
        }
      ],
      "payable": false,
      "stateMutability": "view",
      "type": "function"
    },
    {
      "constant": true,
      "inputs": [],
      "name": "signedByEmployer",
      "outputs": [
        {
          "name": "",
          "type": "bool"
        }
      ],
      "payable": false,
      "stateMutability": "view",
      "type": "function"
    },
    {
      "constant": true,
      "inputs": [],
      "name": "workerAddress",
      "outputs": [
        {
          "name": "",
          "type": "address"
        }
      ],
      "payable": false,
      "stateMutability": "view",
      "type": "function"
    },
    {
      "constant": true,
      "inputs": [],
      "name": "tokenReceived",
      "outputs": [
        {
          "name": "",
          "type": "uint256"
        }
      ],
      "payable": false,
      "stateMutability": "view",
      "type": "function"
    },
    {
      "constant": true,
      "inputs": [],
      "name": "signedByWorker",
      "outputs": [
        {
          "name": "",
          "type": "bool"
        }
      ],
      "payable": false,
      "stateMutability": "view",
      "type": "function"
    },
    {
      "inputs": [
        {
          "name": "jobPost_",
          "type": "address"
        },
        {
          "name": "initiator_",
          "type": "uint8"
        },
        {
          "name": "workerAddress_",
          "type": "address"
        }
      ],
      "payable": false,
      "stateMutability": "nonpayable",
      "type": "constructor"
    },
    {
      "constant": false,
      "inputs": [],
      "name": "signByEmployer",
      "outputs": [],
      "payable": false,
      "stateMutability": "nonpayable",
      "type": "function"
    },
    {
      "constant": false,
      "inputs": [],
      "name": "signByWorker",
      "outputs": [],
      "payable": false,
      "stateMutability": "nonpayable",
      "type": "function"
    },
    {
      "constant": true,
      "inputs": [],
      "name": "isSigned",
      "outputs": [
        {
          "name": "",
          "type": "bool"
        }
      ],
      "payable": false,
      "stateMutability": "view",
      "type": "function"
    },
    {
      "constant": true,
      "inputs": [],
      "name": "isFunded",
      "outputs": [
        {
          "name": "",
          "type": "bool"
        }
      ],
      "payable": false,
      "stateMutability": "view",
      "type": "function"
    },
    {
      "constant": false,
      "inputs": [
        {
          "name": "",
          "type": "address"
        },
        {
          "name": "value",
          "type": "uint256"
        },
        {
          "name": "",
          "type": "bytes"
        }
      ],
      "name": "tokenFallback",
      "outputs": [],
      "payable": false,
      "stateMutability": "nonpayable",
      "type": "function"
    }
  ],
  "bytecode": "0x60606040526000600660006101000a81548160ff0219169083151502179055506000600660016101000a81548160ff0219169083151502179055506000600755341561004a57600080fd5b604051606080610804833981016040528080519060200190919080519060200190919080519060200190919050508273ffffffffffffffffffffffffffffffffffffffff163373ffffffffffffffffffffffffffffffffffffffff161415156100b257600080fd5b82600160006101000a81548173ffffffffffffffffffffffffffffffffffffffff021916908373ffffffffffffffffffffffffffffffffffffffff16021790555081600160146101000a81548160ff0219169083600181111561011157fe5b021790555080600260006101000a81548173ffffffffffffffffffffffffffffffffffffffff021916908373ffffffffffffffffffffffffffffffffffffffff16021790555050505061069b806101696000396000f3006060604052600436106100af576000357c0100000000000000000000000000000000000000000000000000000000900463ffffffff16806336f152a3146100b45780633c206412146100c957806355a373d6146100de5780637c6543031461013357806394566d2514610160578063b146e129146101b5578063c0ee0b8a146101e2578063cbd88f4814610267578063e66a6b22146102bc578063eae19df4146102e9578063f26ef65f14610312575b600080fd5b34156100bf57600080fd5b6100c761033f565b005b34156100d457600080fd5b6100dc610431565b005b34156100e957600080fd5b6100f16104aa565b604051808273ffffffffffffffffffffffffffffffffffffffff1673ffffffffffffffffffffffffffffffffffffffff16815260200191505060405180910390f35b341561013e57600080fd5b6101466104cf565b604051808215151515815260200191505060405180910390f35b341561016b57600080fd5b6101736104de565b604051808273ffffffffffffffffffffffffffffffffffffffff1673ffffffffffffffffffffffffffffffffffffffff16815260200191505060405180910390f35b34156101c057600080fd5b6101c8610504565b604051808215151515815260200191505060405180910390f35b34156101ed57600080fd5b610265600480803573ffffffffffffffffffffffffffffffffffffffff1690602001909190803590602001909190803590602001908201803590602001908080601f01602080910402602001604051908101604052809392919081815260200183838082843782019150505050505091905050610517565b005b341561027257600080fd5b61027a610601565b604051808273ffffffffffffffffffffffffffffffffffffffff1673ffffffffffffffffffffffffffffffffffffffff16815260200191505060405180910390f35b34156102c757600080fd5b6102cf610627565b604051808215151515815260200191505060405180910390f35b34156102f457600080fd5b6102fc610656565b6040518082815260200191505060405180910390f35b341561031d57600080fd5b61032561065c565b604051808215151515815260200191505060405180910390f35b3373ffffffffffffffffffffffffffffffffffffffff16600160009054906101000a900473ffffffffffffffffffffffffffffffffffffffff1673ffffffffffffffffffffffffffffffffffffffff16630d0175a96040518163ffffffff167c0100000000000000000000000000000000000000000000000000000000028152600401602060405180830381600087803b15156103db57600080fd5b5af115156103e857600080fd5b5050506040518051905073ffffffffffffffffffffffffffffffffffffffff1614151561041457600080fd5b6001600660006101000a81548160ff021916908315150217905550565b3373ffffffffffffffffffffffffffffffffffffffff16600260009054906101000a900473ffffffffffffffffffffffffffffffffffffffff1673ffffffffffffffffffffffffffffffffffffffff1614151561048d57600080fd5b6001600660016101000a81548160ff021916908315150217905550565b6000809054906101000a900473ffffffffffffffffffffffffffffffffffffffff1681565b60006004546007541015905090565b600160009054906101000a900473ffffffffffffffffffffffffffffffffffffffff1681565b600660009054906101000a900460ff1681565b600160009054906101000a900473ffffffffffffffffffffffffffffffffffffffff1673ffffffffffffffffffffffffffffffffffffffff166355a373d66040518163ffffffff167c0100000000000000000000000000000000000000000000000000000000028152600401602060405180830381600087803b151561059c57600080fd5b5af115156105a957600080fd5b5050506040518051905073ffffffffffffffffffffffffffffffffffffffff163373ffffffffffffffffffffffffffffffffffffffff161415156105ec57600080fd5b81600760008282540192505081905550505050565b600260009054906101000a900473ffffffffffffffffffffffffffffffffffffffff1681565b6000600660009054906101000a900460ff1680156106515750600660019054906101000a900460ff165b905090565b60075481565b600660019054906101000a900460ff16815600a165627a7a7230582004068067b64355e5ac08dcb56a7732e28db24cbb375dae2d2cfe6bfe7427ecd90029",
  "source": "pragma solidity ^0.4.11;\n\nimport '../../abstracts/ERC223Interface.sol';\nimport './NoiaJobPostV1.sol';\n\ncontract NoiaWorkContractV1 {\n    enum Initiator { Employer, Worker  }\n\n    ERC223Interface public tokenContract;\n\n    NoiaJobPostV1 public jobPost;\n    Initiator initiator;\n    address public workerAddress;\n\n    // contract conditionss\n    uint upfrontFee;\n    uint totalTokenWorth;\n    uint forcedReleaseInNumBlocks;\n\n    // contract status\n    bool public signedByEmployer = false;\n    bool public signedByWorker = false;\n    uint public tokenReceived = 0;\n\n    function NoiaWorkContractV1(\n        NoiaJobPostV1 jobPost_,\n        Initiator initiator_,\n        address workerAddress_) public {\n        // can be created by a job post only\n        require(msg.sender == address(jobPost_));\n        jobPost = jobPost_;\n        initiator = initiator_;\n        workerAddress = workerAddress_;\n    }\n\n    function signByEmployer() public {\n        require(jobPost.employerAddress() == msg.sender);\n        signedByEmployer = true;\n    }\n\n    function signByWorker() public {\n        require(workerAddress == msg.sender);\n        signedByWorker = true;\n    }\n\n    function isSigned() public view returns (bool) {\n        return signedByEmployer && signedByWorker;\n    }\n\n    function isFunded() public view returns (bool) {\n        return tokenReceived >= totalTokenWorth;\n    }\n\n    function tokenFallback(address /*from*/, uint value, bytes /*_data*/) public {\n        // token `from` anyone is welcome :)\n        require(msg.sender == address(jobPost.tokenContract()));\n        tokenReceived += value;\n    }\n}\n",
  "sourcePath": "/home/hellwolf/Projects/noia/noia-governance/contracts/noia/v1/NoiaWorkContractV1.sol",
  "compiler": {
    "name": "solc",
    "version": "0.4.21+commit.dfe3193c.Emscripten.clang"
  },
  "schemaVersion": "2.0.0",
  "updatedAt": "2018-04-20T09:04:43.941Z"
}