{
  "contractName": "NoiaMarketplace",
  "abi": [
    {
      "constant": true,
      "inputs": [],
      "name": "businessRegistry",
      "outputs": [
        {
          "name": "",
          "type": "address"
        }
      ],
      "payable": false,
      "stateMutability": "view",
      "type": "function"
    },
    {
      "constant": true,
      "inputs": [],
      "name": "tokenContract",
      "outputs": [
        {
          "name": "",
          "type": "address"
        }
      ],
      "payable": false,
      "stateMutability": "view",
      "type": "function"
    },
    {
      "constant": true,
      "inputs": [],
      "name": "certificatesRegistry",
      "outputs": [
        {
          "name": "",
          "type": "address"
        }
      ],
      "payable": false,
      "stateMutability": "view",
      "type": "function"
    },
    {
      "constant": true,
      "inputs": [],
      "name": "nodeRegistry",
      "outputs": [
        {
          "name": "",
          "type": "address"
        }
      ],
      "payable": false,
      "stateMutability": "view",
      "type": "function"
    },
    {
      "constant": true,
      "inputs": [],
      "name": "jobPostRegistry",
      "outputs": [
        {
          "name": "",
          "type": "address"
        }
      ],
      "payable": false,
      "stateMutability": "view",
      "type": "function"
    },
    {
      "inputs": [
        {
          "name": "tokenContract_",
          "type": "address"
        },
        {
          "name": "regulation",
          "type": "address"
        }
      ],
      "payable": false,
      "stateMutability": "nonpayable",
      "type": "constructor"
    }
  ],
  "bytecode": "0x608060405234801561001057600080fd5b5060405160408061069283398101604052805160209091015160008054600160a060020a031916600160a060020a0384161790558061004d6101a8565b600160a060020a03909116815260405190819003602001906000f08015801561007a573d6000803e3d6000fd5b5060018054600160a060020a031916600160a060020a0392909216919091179055806100a46101a8565b600160a060020a03909116815260405190819003602001906000f0801580156100d1573d6000803e3d6000fd5b5060028054600160a060020a031916600160a060020a0392909216919091179055806100fb6101a8565b600160a060020a03909116815260405190819003602001906000f080158015610128573d6000803e3d6000fd5b5060038054600160a060020a031916600160a060020a0392909216919091179055806101526101a8565b600160a060020a03909116815260405190819003602001906000f08015801561017f573d6000803e3d6000fd5b5060048054600160a060020a031916600160a060020a0392909216919091179055506101b89050565b6040516103108061038283390190565b6101bb806101c76000396000f30060806040526004361061006c5763ffffffff7c01000000000000000000000000000000000000000000000000000000006000350416633dfc32f6811461007157806355a373d6146100af578063ba9bb76d146100c4578063d9b5c4a5146100d9578063e4f7dd63146100ee575b600080fd5b34801561007d57600080fd5b50610086610103565b6040805173ffffffffffffffffffffffffffffffffffffffff9092168252519081900360200190f35b3480156100bb57600080fd5b5061008661011f565b3480156100d057600080fd5b5061008661013b565b3480156100e557600080fd5b50610086610157565b3480156100fa57600080fd5b50610086610173565b60025473ffffffffffffffffffffffffffffffffffffffff1681565b60005473ffffffffffffffffffffffffffffffffffffffff1681565b60035473ffffffffffffffffffffffffffffffffffffffff1681565b60015473ffffffffffffffffffffffffffffffffffffffff1681565b60045473ffffffffffffffffffffffffffffffffffffffff16815600a165627a7a723058201e1d054c8c21b6783cac9e8bb5ffa740bbc60e50f84c31f8e77478b1890f14db0029608060405234801561001057600080fd5b50604051602080610310833981016040525160008054600160a060020a03909216600160a060020a03199092169190911790556102be806100526000396000f3006080604052600436106100565763ffffffff7c010000000000000000000000000000000000000000000000000000000060003504166306661abd811461005b578063a25047a214610082578063f15ae568146100b7575b600080fd5b34801561006757600080fd5b506100706100da565b60408051918252519081900360200190f35b34801561008e57600080fd5b506100a3600160a060020a03600435166100e0565b604080519115158252519081900360200190f35b3480156100c357600080fd5b506100d8600160a060020a03600435166100fc565b005b60025490565b600160a060020a03166000908152600160205260408120541190565b80600160a060020a031663c45a01556040518163ffffffff167c0100000000000000000000000000000000000000000000000000000000028152600401602060405180830381600087803b15801561015357600080fd5b505af1158015610167573d6000803e3d6000fd5b505050506040513d602081101561017d57600080fd5b5051600160a060020a0316331461019357600080fd5b60008054604080517f1f94c77c000000000000000000000000000000000000000000000000000000008152600160a060020a03858116600483015291519190921692631f94c77c92602480820193602093909283900390910190829087803b1580156101fe57600080fd5b505af1158015610212573d6000803e3d6000fd5b505050506040513d602081101561022857600080fd5b5051151561023557600080fd5b600160a060020a03811660008181526001602081815260409283902082905560028054909201909155815192835290517f1d2908a21f62bdc114393352feeaf505a80950de4d81096e75e408f23ffcf1ef9281900390910190a1505600a165627a7a7230582082299cb84100a1b8c83a25a04d72955f17821e87e9b75cc2ed3277cb977ffff40029",
  "source": "pragma solidity ^0.4.11;\n\nimport '../../abstracts/ERC223Interface.sol';\nimport './NoiaRegulation.sol';\nimport './NoiaRegistry.sol';\n\n/**\n * Noia Marketplace\n *\n * Including:\n * - node registry\n * - business registry\n * - job post registry\n */\ncontract NoiaMarketplace {\n    ERC223Interface public tokenContract;\n\n    NoiaRegistry public nodeRegistry;\n    NoiaRegistry public businessRegistry;\n    NoiaRegistry public certificatesRegistry;\n    NoiaRegistry public jobPostRegistry;\n\n    constructor(ERC223Interface tokenContract_, NoiaRegulation regulation) public {\n        tokenContract = tokenContract_;\n        nodeRegistry = new NoiaRegistry(regulation);\n        businessRegistry = new NoiaRegistry(regulation);\n        certificatesRegistry = new NoiaRegistry(regulation);\n        jobPostRegistry = new NoiaRegistry(regulation);\n    }\n}\n",
  "sourcePath": "/srv/work/projects/noia-network/noia-governance/contracts/noia/gov/NoiaMarketplace.sol",
  "compiler": {
    "name": "solc",
    "version": "0.4.24+commit.e67f0147.Emscripten.clang"
  },
  "schemaVersion": "2.0.1",
  "updatedAt": "2018-08-26T12:23:56.177Z"
}