{
  "contractName": "NoiaNodeV1",
  "abi": [
    {
      "constant": true,
      "inputs": [],
      "name": "version",
      "outputs": [
        {
          "name": "",
          "type": "uint16"
        }
      ],
      "payable": false,
      "stateMutability": "view",
      "type": "function"
    },
    {
      "constant": true,
      "inputs": [],
      "name": "owner",
      "outputs": [
        {
          "name": "",
          "type": "address"
        }
      ],
      "payable": false,
      "stateMutability": "view",
      "type": "function"
    },
    {
      "constant": false,
      "inputs": [
        {
          "name": "_newOwner",
          "type": "address"
        }
      ],
      "name": "changeOwner",
      "outputs": [],
      "payable": false,
      "stateMutability": "nonpayable",
      "type": "function"
    },
    {
      "constant": true,
      "inputs": [],
      "name": "certificatesCount",
      "outputs": [
        {
          "name": "",
          "type": "uint256"
        }
      ],
      "payable": false,
      "stateMutability": "view",
      "type": "function"
    },
    {
      "constant": true,
      "inputs": [],
      "name": "factory",
      "outputs": [
        {
          "name": "",
          "type": "address"
        }
      ],
      "payable": false,
      "stateMutability": "view",
      "type": "function"
    },
    {
      "inputs": [
        {
          "name": "marketplace_",
          "type": "address"
        },
        {
          "name": "factory",
          "type": "address"
        }
      ],
      "payable": false,
      "stateMutability": "nonpayable",
      "type": "constructor"
    },
    {
      "constant": false,
      "inputs": [
        {
          "name": "certificateAddress",
          "type": "address"
        }
      ],
      "name": "acceptIssuedCertificate",
      "outputs": [],
      "payable": false,
      "stateMutability": "nonpayable",
      "type": "function"
    },
    {
      "constant": true,
      "inputs": [
        {
          "name": "certificateAddress",
          "type": "address"
        }
      ],
      "name": "acceptCertificateUpdate",
      "outputs": [],
      "payable": false,
      "stateMutability": "view",
      "type": "function"
    },
    {
      "constant": false,
      "inputs": [
        {
          "name": "certificateAddress",
          "type": "address"
        }
      ],
      "name": "receiveCertificateRevokeNotice",
      "outputs": [],
      "payable": false,
      "stateMutability": "nonpayable",
      "type": "function"
    },
    {
      "constant": true,
      "inputs": [],
      "name": "getCertificates",
      "outputs": [
        {
          "name": "",
          "type": "address[]"
        }
      ],
      "payable": false,
      "stateMutability": "view",
      "type": "function"
    }
  ],
  "bytecode": "0x6060604052341561000f57600080fd5b604051604080610a1d8339810160405280805190602001909190805190602001909190505080806001336000806101000a81548173ffffffffffffffffffffffffffffffffffffffff021916908373ffffffffffffffffffffffffffffffffffffffff16021790555080600160146101000a81548161ffff021916908361ffff16021790555081600160006101000a81548173ffffffffffffffffffffffffffffffffffffffff021916908373ffffffffffffffffffffffffffffffffffffffff16021790555050508073ffffffffffffffffffffffffffffffffffffffff163373ffffffffffffffffffffffffffffffffffffffff1614151561011257600080fd5b5081600260006101000a81548173ffffffffffffffffffffffffffffffffffffffff021916908373ffffffffffffffffffffffffffffffffffffffff16021790555050506108b8806101656000396000f300606060405260043610610099576000357c0100000000000000000000000000000000000000000000000000000000900463ffffffff1680631f5ddb4f1461009e578063256b4e211461010857806354fd4d50146101415780638da5cb5b14610172578063a6f9dae1146101c7578063b2017b0e14610200578063b34b464814610239578063c45a015514610262578063ed12679c146102b7575b600080fd5b34156100a957600080fd5b6100b16102f0565b6040518080602001828103825283818151815260200191508051906020019060200280838360005b838110156100f45780820151818401526020810190506100d9565b505050509050019250505060405180910390f35b341561011357600080fd5b61013f600480803573ffffffffffffffffffffffffffffffffffffffff169060200190919050506103f0565b005b341561014c57600080fd5b610154610542565b604051808261ffff1661ffff16815260200191505060405180910390f35b341561017d57600080fd5b610185610556565b604051808273ffffffffffffffffffffffffffffffffffffffff1673ffffffffffffffffffffffffffffffffffffffff16815260200191505060405180910390f35b34156101d257600080fd5b6101fe600480803573ffffffffffffffffffffffffffffffffffffffff1690602001909190505061057b565b005b341561020b57600080fd5b610237600480803573ffffffffffffffffffffffffffffffffffffffff16906020019091905050610619565b005b341561024457600080fd5b61024c610709565b6040518082815260200191505060405180910390f35b341561026d57600080fd5b61027561070f565b604051808273ffffffffffffffffffffffffffffffffffffffff1673ffffffffffffffffffffffffffffffffffffffff16815260200191505060405180910390f35b34156102c257600080fd5b6102ee600480803573ffffffffffffffffffffffffffffffffffffffff16906020019091905050610735565b005b6102f8610827565b610300610827565b60008060006004546040518059106103155750595b9080825280602002602001820160405250935060009250600091505b6003805490508210156103e65760038281548110151561034d57fe5b906000526020600020900160009054906101000a900473ffffffffffffffffffffffffffffffffffffffff16905061038481610814565b156103db5780848480600101955081518110151561039e57fe5b9060200190602002019073ffffffffffffffffffffffffffffffffffffffff16908173ffffffffffffffffffffffffffffffffffffffff16815250505b816001019150610331565b8394505050505090565b808073ffffffffffffffffffffffffffffffffffffffff163373ffffffffffffffffffffffffffffffffffffffff1614151561042b57600080fd5b61043481610814565b151561043f57600080fd5b60018173ffffffffffffffffffffffffffffffffffffffff166354fd4d506040518163ffffffff167c0100000000000000000000000000000000000000000000000000000000028152600401602060405180830381600087803b15156104a457600080fd5b5af115156104b157600080fd5b5050506040518051905061ffff161415156104cb57600080fd5b600380548060010182816104df919061083b565b9160005260206000209001600084909190916101000a81548173ffffffffffffffffffffffffffffffffffffffff021916908373ffffffffffffffffffffffffffffffffffffffff16021790555050600460008154600101919050819055505050565b600160149054906101000a900461ffff1681565b6000809054906101000a900473ffffffffffffffffffffffffffffffffffffffff1681565b6000809054906101000a900473ffffffffffffffffffffffffffffffffffffffff1673ffffffffffffffffffffffffffffffffffffffff163373ffffffffffffffffffffffffffffffffffffffff161415156105d657600080fd5b806000806101000a81548173ffffffffffffffffffffffffffffffffffffffff021916908373ffffffffffffffffffffffffffffffffffffffff16021790555050565b808073ffffffffffffffffffffffffffffffffffffffff163373ffffffffffffffffffffffffffffffffffffffff1614151561065457600080fd5b61065d81610814565b151561066857600080fd5b60018173ffffffffffffffffffffffffffffffffffffffff166354fd4d506040518163ffffffff167c0100000000000000000000000000000000000000000000000000000000028152600401602060405180830381600087803b15156106cd57600080fd5b5af115156106da57600080fd5b5050506040518051905061ffff161415156106f457600080fd5b60046000815460019003919050819055505050565b60045481565b600160009054906101000a900473ffffffffffffffffffffffffffffffffffffffff1681565b808073ffffffffffffffffffffffffffffffffffffffff163373ffffffffffffffffffffffffffffffffffffffff1614151561077057600080fd5b61077981610814565b151561078457600080fd5b60018173ffffffffffffffffffffffffffffffffffffffff166354fd4d506040518163ffffffff167c0100000000000000000000000000000000000000000000000000000000028152600401602060405180830381600087803b15156107e957600080fd5b5af115156107f657600080fd5b5050506040518051905061ffff1614151561081057600080fd5b5050565b600080823b905060008111915050919050565b602060405190810160405280600081525090565b815481835581811511610862578183600052602060002091820191016108619190610867565b5b505050565b61088991905b8082111561088557600081600090555060010161086d565b5090565b905600a165627a7a72305820fc825cc8638cb0ed33a69d212364420be4f6a9c8be68b273515bd7cd387893ff0029",
  "source": "pragma solidity ^0.4.11;\n\nimport '../gov/NoiaMarketplace.sol';\nimport './NoiaBaseContractV1.sol';\nimport './NoiaCertificateV1.sol';\n\n/**\n * Standard Noia Node Contract V1 (Draft)\n *\n */\ncontract NoiaNodeV1 is NoiaBaseContractV1 {\n    NoiaMarketplace marketplace;\n\n    address[] certificates;\n    uint public certificatesCount;\n\n    function NoiaNodeV1(NoiaMarketplace marketplace_, address factory)\n        NoiaBaseContractV1(factory) public {\n        marketplace = marketplace_;\n    }\n\n    //\n    // Certificate Callback Functions\n    //\n    modifier fromCertificateV1(address certificateAddress) {\n        require (msg.sender == certificateAddress);\n        require(isContract(certificateAddress));\n        require(NoiaBaseContract(certificateAddress).version() == 1);\n        _;\n    }\n\n    function acceptIssuedCertificate(address certificateAddress)\n        fromCertificateV1(certificateAddress) public {\n        certificates.push(certificateAddress);\n        ++certificatesCount;\n    }\n\n    function acceptCertificateUpdate(address certificateAddress)\n        fromCertificateV1(certificateAddress) public view {\n        // ignoring the data update callback\n    }\n\n    function receiveCertificateRevokeNotice(address certificateAddress)\n        fromCertificateV1(certificateAddress) public {\n        --certificatesCount;\n    }\n\n    //\n    // Certificate Listing Functions\n    //\n    function getCertificates() public view returns (address[]) {\n        address[] memory certs = new address[](certificatesCount);\n        uint n = 0;\n        for (uint i = 0; i < certificates.length; ++i) {\n            address cert = certificates[i];\n            if (isContract(cert)) certs[n++] = cert;\n        }\n        if (n < certificatesCount) {\n            // shouldn't happen, but some business forgot to call sendCertificateRevokeNotice\n        }\n        return certs;\n    }\n\n    // TODO defrag\n\n    //\n    // misc\n    // TODO, link misc library\n    //\n    function isContract(address addr) private view returns (bool) {\n      uint size;\n      assembly { size := extcodesize(addr) }\n      return size > 0;\n    }\n}\n",
  "sourcePath": "/home/hellwolf/Projects/noia/noia-governance/contracts/noia/v1/NoiaNodeV1.sol",
  "compiler": {
    "name": "solc",
    "version": "0.4.21+commit.dfe3193c.Emscripten.clang"
  },
  "schemaVersion": "2.0.0",
  "updatedAt": "2018-04-18T10:11:40.630Z"
}