{
  "contractName": "NoiaJobPostContractFactoryV1",
  "abi": [
    {
      "constant": false,
      "inputs": [
        {
          "name": "marketplace_",
          "type": "address"
        }
      ],
      "name": "setMarketplace",
      "outputs": [],
      "payable": false,
      "stateMutability": "nonpayable",
      "type": "function"
    },
    {
      "anonymous": false,
      "inputs": [
        {
          "indexed": false,
          "name": "contractInstance",
          "type": "address"
        }
      ],
      "name": "NoiaContractV1Created",
      "type": "event"
    },
    {
      "constant": false,
      "inputs": [
        {
          "name": "employer",
          "type": "address"
        },
        {
          "name": "infoType",
          "type": "bytes32"
        },
        {
          "name": "infoData",
          "type": "bytes"
        }
      ],
      "name": "create",
      "outputs": [],
      "payable": false,
      "stateMutability": "nonpayable",
      "type": "function"
    }
  ],
  "bytecode": "0x608060405234801561001057600080fd5b5061128d806100206000396000f3006080604052600436106100325763ffffffff60e060020a6000350416633fca28f2811461003757806373ad6c2d146100a2575b600080fd5b34801561004357600080fd5b50604080516020600460443581810135601f81018490048402850184019095528484526100a0948235600160a060020a03169460248035953695946064949201919081908401838280828437509497506100c39650505050505050565b005b3480156100ae57600080fd5b506100a0600160a060020a0360043516610469565b60008060009054906101000a9004600160a060020a0316600160a060020a0316633dfc32f66040518163ffffffff1660e060020a028152600401602060405180830381600087803b15801561011757600080fd5b505af115801561012b573d6000803e3d6000fd5b505050506040513d602081101561014157600080fd5b5051604080517fa25047a2000000000000000000000000000000000000000000000000000000008152600160a060020a0387811660048301529151919092169163a25047a29160248083019260209291908290030181600087803b1580156101a857600080fd5b505af11580156101bc573d6000803e3d6000fd5b505050506040513d60208110156101d257600080fd5b505115156101df57600080fd5b6000543090600160a060020a03168585856101f8610498565b600160a060020a03808716825285811660208084019190915290851660408301526060820184905260a0608083018181528451918401919091528351909160c08401919085019080838360005b8381101561025d578181015183820152602001610245565b50505050905090810190601f16801561028a5780820380516001836020036101000a031916815260200191505b509650505050505050604051809103906000f0801580156102af573d6000803e3d6000fd5b50604080517fa6f9dae10000000000000000000000000000000000000000000000000000000081523360048201529051919250600160a060020a0383169163a6f9dae19160248082019260009290919082900301818387803b15801561031457600080fd5b505af1158015610328573d6000803e3d6000fd5b505050506000809054906101000a9004600160a060020a0316600160a060020a031663e4f7dd636040518163ffffffff1660e060020a028152600401602060405180830381600087803b15801561037e57600080fd5b505af1158015610392573d6000803e3d6000fd5b505050506040513d60208110156103a857600080fd5b5051604080517ff15ae568000000000000000000000000000000000000000000000000000000008152600160a060020a0384811660048301529151919092169163f15ae56891602480830192600092919082900301818387803b15801561040e57600080fd5b505af1158015610422573d6000803e3d6000fd5b505060408051600160a060020a038516815290517f4925a5c7f3f73bba343166964921a277f457922c2d49b45d9dc9f897d2fb96559350908190036020019150a150505050565b6000805473ffffffffffffffffffffffffffffffffffffffff1916600160a060020a0392909216919091179055565b604051610db9806104a9833901905600608060405234801561001057600080fd5b50604051610db9380380610db983398101604090815281516020830151918301516060840151608085015160008054600160a060020a0319163390811790915593959293919201908590859082908290600190600160a060020a0384161461007757600080fd5b6002805460018054600160a060020a03968716600160a060020a03199182161790915593851661ffff909316740100000000000000000000000000000000000000000260a060020a61ffff021990911617831691909117905560038054928816929091169190911790555050600482905580516100fb906005906020840190610106565b5050505050506101a1565b828054600181600116156101000203166002900490600052602060002090601f016020900481019282601f1061014757805160ff1916838001178555610174565b82800160010185558215610174579182015b82811115610174578251825591602001919060010190610159565b50610180929150610184565b5090565b61019e91905b80821115610180576000815560010161018a565b90565b610c09806101b06000396000f3006080604052600436106100ae5763ffffffff7c01000000000000000000000000000000000000000000000000000000006000350416632e5b5a1381146100b357806354fd4d501461013d578063691f9f22146101695780638da5cb5b146101c5578063a6f9dae1146101f6578063abc8c7af14610219578063ae200e791461022e578063afb74f4814610243578063c45a01551461026a578063e2d73ccd1461027f578063f88df730146102a0575b600080fd5b3480156100bf57600080fd5b506100c86102c1565b6040805160208082528351818301528351919283929083019185019080838360005b838110156101025781810151838201526020016100ea565b50505050905090810190601f16801561012f5780820380516001836020036101000a031916815260200191505b509250505060405180910390f35b34801561014957600080fd5b5061015261034f565b6040805161ffff9092168252519081900360200190f35b34801561017557600080fd5b5061018a600160a060020a0360043516610371565b6040518082600260200280838360005b838110156101b257818101518382015260200161019a565b5050505090500191505060405180910390f35b3480156101d157600080fd5b506101da6103ab565b60408051600160a060020a039092168252519081900360200190f35b34801561020257600080fd5b50610217600160a060020a03600435166103ba565b005b34801561022557600080fd5b506101da610400565b34801561023a57600080fd5b506101da61040f565b34801561024f57600080fd5b5061025861041e565b60408051918252519081900360200190f35b34801561027657600080fd5b506101da610424565b34801561028b57600080fd5b50610217600160a060020a0360043516610433565b3480156102ac57600080fd5b50610217600160a060020a03600435166105a9565b6005805460408051602060026001851615610100026000190190941693909304601f810184900484028201840190925281815292918301828280156103475780601f1061031c57610100808354040283529160200191610347565b820191906000526020600020905b81548152906001019060200180831161032a57829003601f168201915b505050505081565b60025474010000000000000000000000000000000000000000900461ffff1681565b610379610656565b600160a060020a0391821660008181526006602081815260408320549095168085529290915283529181019190915290565b600054600160a060020a031681565b600054600160a060020a031633146103d157600080fd5b6000805473ffffffffffffffffffffffffffffffffffffffff1916600160a060020a0392909216919091179055565b600254600160a060020a031681565b600354600160a060020a031681565b60045481565b600154600160a060020a031681565b6003546000908190600160a060020a03163314156104f1576000915030828461045a610671565b600160a060020a03841681526020810183600181111561047657fe5b60ff168152600160a060020a03909216602083015250604080519182900301925090506000f0801580156104ae573d6000803e3d6000fd5b50600160a060020a038481166000908152600660205260409020805473ffffffffffffffffffffffffffffffffffffffff191691831691909117905590506105a4565b33600160a060020a03841614156100ae5760019150308284610511610671565b600160a060020a03841681526020810183600181111561052d57fe5b60ff168152600160a060020a03909216602083015250604080519182900301925090506000f080158015610565573d6000803e3d6000fd5b50600160a060020a038481166000908152600760205260409020805473ffffffffffffffffffffffffffffffffffffffff191691831691909117905590505b505050565b600354600090600160a060020a03163314156105e05750600160a060020a038082166000908152600660205260409020541661060e565b33600160a060020a03831614156100ae5750600160a060020a03808216600090815260076020526040902054165b60408051600160a060020a03838116825291519184169130917f92fadbadb77c63cf091995b5e09c2bf4f49fd55484b9faa61b6d6701baff8480919081900360200190a35050565b60408051808201825290600290829080388339509192915050565b60405161055c8061068283390190560060806040526005805461ffff19169055600060065534801561002057600080fd5b5060405160608061055c83398101604090815281516020830151919092015133600160a060020a0384161461005457600080fd5b60008054600160a060020a031916600160a060020a0385161780825583919060a060020a60ff0219167401000000000000000000000000000000000000000083600181111561009f57fe5b021790555060018054600160a060020a03909216600160a060020a03199092169190911790555050610486806100d66000396000f30060806040526004361061008a5763ffffffff60e060020a60003504166336f152a3811461008f5780633c206412146100a65780637c654303146100bb57806394566d25146100e4578063b146e12914610115578063c0ee0b8a1461012a578063cbd88f4814610193578063e66a6b22146101a8578063eae19df4146101bd578063f26ef65f146101e4575b600080fd5b34801561009b57600080fd5b506100a46101f9565b005b3480156100b257600080fd5b506100a46102a3565b3480156100c757600080fd5b506100d06102cb565b604080519115158252519081900360200190f35b3480156100f057600080fd5b506100f96102d6565b60408051600160a060020a039092168252519081900360200190f35b34801561012157600080fd5b506100d06102e5565b34801561013657600080fd5b50604080516020600460443581810135601f81018490048402850184019095528484526100a4948235600160a060020a03169460248035953695946064949201919081908401838280828437509497506102ee9650505050505050565b34801561019f57600080fd5b506100f9610416565b3480156101b457600080fd5b506100d0610425565b3480156101c957600080fd5b506101d2610446565b60408051918252519081900360200190f35b3480156101f057600080fd5b506100d061044c565b33600160a060020a03166000809054906101000a9004600160a060020a0316600160a060020a031663ae200e796040518163ffffffff1660e060020a028152600401602060405180830381600087803b15801561025557600080fd5b505af1158015610269573d6000803e3d6000fd5b505050506040513d602081101561027f57600080fd5b5051600160a060020a03161461029457600080fd5b6005805460ff19166001179055565b600154600160a060020a031633146102ba57600080fd5b6005805461ff001916610100179055565b600354600654101590565b600054600160a060020a031681565b60055460ff1681565b6000809054906101000a9004600160a060020a0316600160a060020a031663abc8c7af6040518163ffffffff1660e060020a028152600401602060405180830381600087803b15801561034057600080fd5b505af1158015610354573d6000803e3d6000fd5b505050506040513d602081101561036a57600080fd5b5051604080517f55a373d60000000000000000000000000000000000000000000000000000000081529051600160a060020a03909216916355a373d6916004808201926020929091908290030181600087803b1580156103c957600080fd5b505af11580156103dd573d6000803e3d6000fd5b505050506040513d60208110156103f357600080fd5b5051600160a060020a0316331461040957600080fd5b5060068054909101905550565b600154600160a060020a031681565b60055460009060ff1680156104415750600554610100900460ff165b905090565b60065481565b600554610100900460ff16815600a165627a7a7230582007ba5c2ff233fd18a0d97c6fa7bb86b5dfd437c899a4c6bbbe3fcd41ffd8ddcf0029a165627a7a723058207581ed026d271fd728ece6956b27c5a0ce0dc54d6e1e0d688f5c5e9354ddf1250029a165627a7a72305820eacdf5a3c071d9b1ea420c95247b70b4feb8f14a10581004bbf511764c65a71f0029",
  "source": "pragma solidity ^0.4.20;\n\nimport './NoiaBusinessV1.sol';\nimport './NoiaNodeV1.sol';\nimport './NoiaCertificateV1.sol';\nimport './NoiaJobPostV1.sol';\n\ncontract NoiaBaseContractFactoryV1 {\n    NoiaMarketplace marketplace;\n    function setMarketplace(NoiaMarketplace marketplace_) public {\n        marketplace = marketplace_;\n    }\n    event NoiaContractV1Created(address contractInstance);\n}\n\ncontract NoiaBusinessContractFactoryV1 is NoiaBaseContractFactoryV1 {\n    function create(bytes32 infoType, bytes infoData) public {\n        NoiaBusinessV1 business = new NoiaBusinessV1(this, marketplace, infoType, infoData);\n        business.changeOwner(msg.sender);\n        marketplace.businessRegistry().addEntry(business);\n        emit NoiaContractV1Created(address(business));\n    }\n}\n\ncontract NoiaNodeContractFactoryV1 is NoiaBaseContractFactoryV1 {\n    function create(bytes32 infoType, bytes infoData) public {\n        NoiaNodeV1 node = new NoiaNodeV1(this, marketplace, infoType, infoData);\n        node.changeOwner(msg.sender);\n        marketplace.nodeRegistry().addEntry(node);\n        emit NoiaContractV1Created(address(node));\n    }\n}\n\ncontract NoiaCertificateContractFactoryV1 is NoiaBaseContractFactoryV1 {\n    function create(bytes32 certificateName, NoiaBusinessV1 issuer, NoiaNodeV1 recipient) public {\n        require(marketplace.businessRegistry().hasEntry(issuer));\n        require(marketplace.nodeRegistry().hasEntry(recipient));\n        NoiaCertificateV1 cert = new NoiaCertificateV1(this, marketplace, certificateName, issuer, recipient);\n        cert.changeOwner(msg.sender);\n        marketplace.certificatesRegistry().addEntry(cert);\n        emit NoiaContractV1Created(address(cert));\n    }\n}\n\ncontract NoiaJobPostContractFactoryV1 is NoiaBaseContractFactoryV1 {\n    function create(NoiaBusinessV1 employer, bytes32 infoType, bytes infoData) public {\n        require(marketplace.businessRegistry().hasEntry(employer));\n        NoiaJobPostV1 jobPost = new NoiaJobPostV1(this, marketplace, employer, infoType, infoData);\n        jobPost.changeOwner(msg.sender);\n        marketplace.jobPostRegistry().addEntry(jobPost);\n        emit NoiaContractV1Created(address(jobPost));\n    }\n}\n\ncontract NoiaContractFactoriesV1 {\n    constructor(\n        NoiaMarketplace marketplace,\n        NoiaBusinessContractFactoryV1 business_,\n        NoiaNodeContractFactoryV1 node_,\n        NoiaCertificateContractFactoryV1 certificate_,\n        NoiaJobPostContractFactoryV1 jobPost_) public {\n        business = business_;\n        node = node_;\n        certificate = certificate_;\n        jobPost = jobPost_;\n        business.setMarketplace(marketplace);\n        node.setMarketplace(marketplace);\n        certificate.setMarketplace(marketplace);\n        jobPost.setMarketplace(marketplace);\n    }\n\n    NoiaBusinessContractFactoryV1 public business;\n    NoiaNodeContractFactoryV1 public node;\n    NoiaCertificateContractFactoryV1 public certificate;\n    NoiaJobPostContractFactoryV1 public jobPost;\n}\n",
  "sourcePath": "/srv/work/projects/noia-network/noia-governance/contracts/noia/v1/NoiaContractFactoriesV1.sol",
  "compiler": {
    "name": "solc",
    "version": "0.4.24+commit.e67f0147.Emscripten.clang"
  },
  "schemaVersion": "2.0.0",
  "updatedAt": "2018-07-26T12:40:39.600Z"
}