{
  "contractName": "NoiaSimpleRegulation",
  "abi": [
    {
      "constant": true,
      "inputs": [],
      "name": "owner",
      "outputs": [
        {
          "name": "",
          "type": "address"
        }
      ],
      "payable": false,
      "stateMutability": "view",
      "type": "function"
    },
    {
      "constant": false,
      "inputs": [
        {
          "name": "_newOwner",
          "type": "address"
        }
      ],
      "name": "changeOwner",
      "outputs": [],
      "payable": false,
      "stateMutability": "nonpayable",
      "type": "function"
    },
    {
      "constant": false,
      "inputs": [
        {
          "name": "contractFactory",
          "type": "address"
        }
      ],
      "name": "addApprovedFactory",
      "outputs": [],
      "payable": false,
      "stateMutability": "nonpayable",
      "type": "function"
    },
    {
      "constant": true,
      "inputs": [
        {
          "name": "baseContract",
          "type": "address"
        }
      ],
      "name": "isContractValid",
      "outputs": [
        {
          "name": "",
          "type": "bool"
        }
      ],
      "payable": false,
      "stateMutability": "view",
      "type": "function"
    }
  ],
  "bytecode": "0x608060405260008054600160a060020a0319163317905561027b806100256000396000f3006080604052600436106100615763ffffffff7c01000000000000000000000000000000000000000000000000000000006000350416631f94c77c81146100665780638da5cb5b1461009b578063a6f9dae1146100cc578063e4f2c949146100ef575b600080fd5b34801561007257600080fd5b50610087600160a060020a0360043516610110565b604080519115158252519081900360200190f35b3480156100a757600080fd5b506100b06101bc565b60408051600160a060020a039092168252519081900360200190f35b3480156100d857600080fd5b506100ed600160a060020a03600435166101cb565b005b3480156100fb57600080fd5b506100ed600160a060020a0360043516610211565b60006001600083600160a060020a031663c45a01556040518163ffffffff167c0100000000000000000000000000000000000000000000000000000000028152600401602060405180830381600087803b15801561016d57600080fd5b505af1158015610181573d6000803e3d6000fd5b505050506040513d602081101561019757600080fd5b5051600160a060020a0316815260208101919091526040016000205460ff1692915050565b600054600160a060020a031681565b600054600160a060020a031633146101e257600080fd5b6000805473ffffffffffffffffffffffffffffffffffffffff1916600160a060020a0392909216919091179055565b600054600160a060020a0316331461022857600080fd5b600160a060020a03166000908152600160208190526040909120805460ff191690911790555600a165627a7a72305820eeca0a37f69792a87ddd7d7e975046d445f9595e8aaf412847aabbedb56afd230029",
  "source": "pragma solidity ^0.4.11;\n\nimport '../../abstracts/Owned.sol';\nimport './NoiaRegulation.sol';\n\n/**\n * Noia Regulation Rules\n */\ncontract NoiaSimpleRegulation is NoiaRegulation, Owned {\n    mapping(address => bool) approvedContractFactory;\n\n    function addApprovedFactory(address contractFactory) onlyOwner public {\n        approvedContractFactory[contractFactory] = true;\n    }\n\n    // NOTE! baseContract.factory() has to be validated by the caller!\n    function isContractValid(NoiaBaseContract baseContract) public view returns (bool) {\n        return approvedContractFactory[baseContract.factory()];\n    }\n}\n",
  "sourcePath": "/srv/work/projects/noia-network/noia-governance/contracts/noia/gov/NoiaSimpleRegulation.sol",
  "compiler": {
    "name": "solc",
    "version": "0.4.24+commit.e67f0147.Emscripten.clang"
  },
  "schemaVersion": "2.0.0",
  "updatedAt": "2018-07-26T13:18:54.487Z"
}