{
  "contractName": "NoiaBusinessV1",
  "abi": [
    {
      "constant": true,
      "inputs": [],
      "name": "version",
      "outputs": [
        {
          "name": "",
          "type": "uint16"
        }
      ],
      "payable": false,
      "stateMutability": "view",
      "type": "function"
    },
    {
      "constant": true,
      "inputs": [],
      "name": "owner",
      "outputs": [
        {
          "name": "",
          "type": "address"
        }
      ],
      "payable": false,
      "stateMutability": "view",
      "type": "function"
    },
    {
      "constant": false,
      "inputs": [
        {
          "name": "_newOwner",
          "type": "address"
        }
      ],
      "name": "changeOwner",
      "outputs": [],
      "payable": false,
      "stateMutability": "nonpayable",
      "type": "function"
    },
    {
      "constant": true,
      "inputs": [],
      "name": "factory",
      "outputs": [
        {
          "name": "",
          "type": "address"
        }
      ],
      "payable": false,
      "stateMutability": "view",
      "type": "function"
    },
    {
      "inputs": [
        {
          "name": "factory",
          "type": "address"
        }
      ],
      "payable": false,
      "stateMutability": "nonpayable",
      "type": "constructor"
    },
    {
      "constant": false,
      "inputs": [
        {
          "name": "certificateAddress",
          "type": "address"
        }
      ],
      "name": "signCertificate",
      "outputs": [],
      "payable": false,
      "stateMutability": "nonpayable",
      "type": "function"
    }
  ],
  "bytecode": "0x6060604052341561000f57600080fd5b60405160208061072f8339810160405280805190602001909190505080806001336000806101000a81548173ffffffffffffffffffffffffffffffffffffffff021916908373ffffffffffffffffffffffffffffffffffffffff16021790555080600160146101000a81548161ffff021916908361ffff16021790555081600160006101000a81548173ffffffffffffffffffffffffffffffffffffffff021916908373ffffffffffffffffffffffffffffffffffffffff16021790555050508073ffffffffffffffffffffffffffffffffffffffff163373ffffffffffffffffffffffffffffffffffffffff1614151561010957600080fd5b50506106158061011a6000396000f30060606040526004361061006d576000357c0100000000000000000000000000000000000000000000000000000000900463ffffffff1680632781e0161461007257806354fd4d50146100ab5780638da5cb5b146100dc578063a6f9dae114610131578063c45a01551461016a575b600080fd5b341561007d57600080fd5b6100a9600480803573ffffffffffffffffffffffffffffffffffffffff169060200190919050506101bf565b005b34156100b657600080fd5b6100be6104ec565b604051808261ffff1661ffff16815260200191505060405180910390f35b34156100e757600080fd5b6100ef610500565b604051808273ffffffffffffffffffffffffffffffffffffffff1673ffffffffffffffffffffffffffffffffffffffff16815260200191505060405180910390f35b341561013c57600080fd5b610168600480803573ffffffffffffffffffffffffffffffffffffffff16906020019091905050610525565b005b341561017557600080fd5b61017d6105c3565b604051808273ffffffffffffffffffffffffffffffffffffffff1673ffffffffffffffffffffffffffffffffffffffff16815260200191505060405180910390f35b6000809054906101000a900473ffffffffffffffffffffffffffffffffffffffff1673ffffffffffffffffffffffffffffffffffffffff163373ffffffffffffffffffffffffffffffffffffffff1614151561021a57600080fd5b600160009054906101000a900473ffffffffffffffffffffffffffffffffffffffff1673ffffffffffffffffffffffffffffffffffffffff1663abc8c7af6040518163ffffffff167c0100000000000000000000000000000000000000000000000000000000028152600401602060405180830381600087803b151561029f57600080fd5b5af115156102ac57600080fd5b5050506040518051905073ffffffffffffffffffffffffffffffffffffffff1663ba9bb76d6040518163ffffffff167c0100000000000000000000000000000000000000000000000000000000028152600401602060405180830381600087803b151561031857600080fd5b5af1151561032557600080fd5b5050506040518051905073ffffffffffffffffffffffffffffffffffffffff1663a25047a2826040518263ffffffff167c0100000000000000000000000000000000000000000000000000000000028152600401808273ffffffffffffffffffffffffffffffffffffffff1673ffffffffffffffffffffffffffffffffffffffff168152602001915050602060405180830381600087803b15156103c857600080fd5b5af115156103d557600080fd5b5050506040518051905015156103ea57600080fd5b60018173ffffffffffffffffffffffffffffffffffffffff166354fd4d506040518163ffffffff167c0100000000000000000000000000000000000000000000000000000000028152600401602060405180830381600087803b151561044f57600080fd5b5af1151561045c57600080fd5b5050506040518051905061ffff1614151561047657600080fd5b8073ffffffffffffffffffffffffffffffffffffffff16632ca151226040518163ffffffff167c0100000000000000000000000000000000000000000000000000000000028152600401600060405180830381600087803b15156104d957600080fd5b5af115156104e657600080fd5b50505050565b600160149054906101000a900461ffff1681565b6000809054906101000a900473ffffffffffffffffffffffffffffffffffffffff1681565b6000809054906101000a900473ffffffffffffffffffffffffffffffffffffffff1673ffffffffffffffffffffffffffffffffffffffff163373ffffffffffffffffffffffffffffffffffffffff1614151561058057600080fd5b806000806101000a81548173ffffffffffffffffffffffffffffffffffffffff021916908373ffffffffffffffffffffffffffffffffffffffff16021790555050565b600160009054906101000a900473ffffffffffffffffffffffffffffffffffffffff16815600a165627a7a72305820937832ab533cf0b72488f3b4c01d109f3324cacc43285ece82f781441c3ad3e70029",
  "source": "pragma solidity ^0.4.11;\n\nimport '../gov/NoiaMarketplace.sol';\nimport './NoiaContractsFactoryV1.sol';\nimport './NoiaBaseContractV1.sol';\nimport './NoiaCertificateV1.sol';\n\n/**\n * Standard Noia Business Contract V1 (Draft)\n */\ncontract NoiaBusinessV1 is NoiaBaseContractV1 {\n    function NoiaBusinessV1(NoiaContractsFactoryV1 factory)\n        NoiaBaseContractV1(factory) public {\n    }\n\n    function signCertificate(address certificateAddress) onlyOwner public {\n        require(factory.marketplace().certificatesRegistry().hasEntry(certificateAddress));\n        require(NoiaBaseContract(certificateAddress).version() == 1);\n        NoiaCertificateV1(certificateAddress).sign();\n    }\n}\n",
  "sourcePath": "/home/hellwolf/Projects/noia/noia-governance/contracts/noia/v1/NoiaBusinessV1.sol",
  "compiler": {
    "name": "solc",
    "version": "0.4.21+commit.dfe3193c.Emscripten.clang"
  },
  "schemaVersion": "2.0.0",
  "updatedAt": "2018-05-08T22:11:48.683Z"
}