{
  "contractName": "NoiaContractFactoriesV1",
  "abi": [
    {
      "constant": true,
      "inputs": [],
      "name": "certificate",
      "outputs": [
        {
          "name": "",
          "type": "address"
        }
      ],
      "payable": false,
      "stateMutability": "view",
      "type": "function"
    },
    {
      "constant": true,
      "inputs": [],
      "name": "jobPost",
      "outputs": [
        {
          "name": "",
          "type": "address"
        }
      ],
      "payable": false,
      "stateMutability": "view",
      "type": "function"
    },
    {
      "constant": true,
      "inputs": [],
      "name": "node",
      "outputs": [
        {
          "name": "",
          "type": "address"
        }
      ],
      "payable": false,
      "stateMutability": "view",
      "type": "function"
    },
    {
      "constant": true,
      "inputs": [],
      "name": "business",
      "outputs": [
        {
          "name": "",
          "type": "address"
        }
      ],
      "payable": false,
      "stateMutability": "view",
      "type": "function"
    },
    {
      "inputs": [
        {
          "name": "marketplace",
          "type": "address"
        },
        {
          "name": "business_",
          "type": "address"
        },
        {
          "name": "node_",
          "type": "address"
        },
        {
          "name": "certificate_",
          "type": "address"
        },
        {
          "name": "jobPost_",
          "type": "address"
        }
      ],
      "payable": false,
      "stateMutability": "nonpayable",
      "type": "constructor"
    }
  ],
  "bytecode": "0x608060405234801561001057600080fd5b5060405160a0806104048339810160408181528251602084015182850151606086015160809096015160008054600160a060020a0319908116600160a060020a0380871691909117808455600180548416838816179055600280548416838d1617905560038054909316828616179092557f73ad6c2d00000000000000000000000000000000000000000000000000000000895280871660048a015296519598949793969495929416926373ad6c2d926024808301939282900301818387803b1580156100dc57600080fd5b505af11580156100f0573d6000803e3d6000fd5b5050600154604080517f73ad6c2d000000000000000000000000000000000000000000000000000000008152600160a060020a038a8116600483015291519190921693506373ad6c2d9250602480830192600092919082900301818387803b15801561015b57600080fd5b505af115801561016f573d6000803e3d6000fd5b5050600254604080517f73ad6c2d000000000000000000000000000000000000000000000000000000008152600160a060020a038a8116600483015291519190921693506373ad6c2d9250602480830192600092919082900301818387803b1580156101da57600080fd5b505af11580156101ee573d6000803e3d6000fd5b5050600354604080517f73ad6c2d000000000000000000000000000000000000000000000000000000008152600160a060020a038a8116600483015291519190921693506373ad6c2d9250602480830192600092919082900301818387803b15801561025957600080fd5b505af115801561026d573d6000803e3d6000fd5b50505050505050505061017f806102856000396000f3006080604052600436106100615763ffffffff7c01000000000000000000000000000000000000000000000000000000006000350416632dbf7b98811461006657806394566d25146100a4578063d70754ec146100b9578063e74dc11c146100ce575b600080fd5b34801561007257600080fd5b5061007b6100e3565b6040805173ffffffffffffffffffffffffffffffffffffffff9092168252519081900360200190f35b3480156100b057600080fd5b5061007b6100ff565b3480156100c557600080fd5b5061007b61011b565b3480156100da57600080fd5b5061007b610137565b60025473ffffffffffffffffffffffffffffffffffffffff1681565b60035473ffffffffffffffffffffffffffffffffffffffff1681565b60015473ffffffffffffffffffffffffffffffffffffffff1681565b60005473ffffffffffffffffffffffffffffffffffffffff16815600a165627a7a723058207395d92938d0650470df8f336573b0b5b91e842818b0212d98fcfa4262841f590029",
  "source": "pragma solidity ^0.4.20;\n\nimport \"./NoiaBusinessV1.sol\";\nimport \"./NoiaNodeV1.sol\";\nimport \"./NoiaCertificateV1.sol\";\nimport \"./NoiaJobPostV1.sol\";\n\ncontract NoiaBaseContractFactoryV1 {\n    NoiaMarketplace marketplace;\n    function setMarketplace(NoiaMarketplace marketplace_) public {\n        marketplace = marketplace_;\n    }\n    event NoiaContractV1Created(address contractInstance);\n}\n\ncontract NoiaBusinessContractFactoryV1 is NoiaBaseContractFactoryV1 {\n    function create(bytes32 infoType, bytes infoData) public {\n        NoiaBusinessV1 business = new NoiaBusinessV1(this, marketplace, infoType, infoData);\n        business.changeOwner(msg.sender);\n        marketplace.businessRegistry().addEntry(business);\n        emit NoiaContractV1Created(address(business));\n    }\n}\n\ncontract NoiaNodeContractFactoryV1 is NoiaBaseContractFactoryV1 {\n    function create(bytes32 infoType, bytes infoData) public {\n        NoiaNodeV1 node = new NoiaNodeV1(this, marketplace, infoType, infoData);\n        node.changeOwner(msg.sender);\n        marketplace.nodeRegistry().addEntry(node);\n        emit NoiaContractV1Created(address(node));\n    }\n}\n\ncontract NoiaCertificateContractFactoryV1 is NoiaBaseContractFactoryV1 {\n    function create(bytes32 certificateName, NoiaBusinessV1 issuer, NoiaNodeV1 recipient) public {\n        require(marketplace.businessRegistry().hasEntry(issuer), \"Marketplace does not have provided issuer in business registry\");\n        require(marketplace.nodeRegistry().hasEntry(recipient), \"Marketplace does not have provided recipient in node's registry\");\n        NoiaCertificateV1 cert = new NoiaCertificateV1(this, marketplace, certificateName, issuer, recipient);\n        cert.changeOwner(msg.sender);\n        marketplace.certificatesRegistry().addEntry(cert);\n        emit NoiaContractV1Created(address(cert));\n    }\n}\n\ncontract NoiaJobPostContractFactoryV1 is NoiaBaseContractFactoryV1 {\n    function create(NoiaBusinessV1 employer, bytes32 infoType, bytes infoData) public {\n        require(marketplace.businessRegistry().hasEntry(employer), \"Marketplace does not have employer in business registry\");\n        NoiaJobPostV1 jobPost = new NoiaJobPostV1(this, marketplace, employer, infoType, infoData);\n        jobPost.changeOwner(msg.sender);\n        marketplace.jobPostRegistry().addEntry(jobPost);\n        emit NoiaContractV1Created(address(jobPost));\n    }\n}\n\ncontract NoiaContractFactoriesV1 {\n    constructor(\n        NoiaMarketplace marketplace,\n        NoiaBusinessContractFactoryV1 business_,\n        NoiaNodeContractFactoryV1 node_,\n        NoiaCertificateContractFactoryV1 certificate_,\n        NoiaJobPostContractFactoryV1 jobPost_) public {\n        business = business_;\n        node = node_;\n        certificate = certificate_;\n        jobPost = jobPost_;\n        business.setMarketplace(marketplace);\n        node.setMarketplace(marketplace);\n        certificate.setMarketplace(marketplace);\n        jobPost.setMarketplace(marketplace);\n    }\n\n    NoiaBusinessContractFactoryV1 public business;\n    NoiaNodeContractFactoryV1 public node;\n    NoiaCertificateContractFactoryV1 public certificate;\n    NoiaJobPostContractFactoryV1 public jobPost;\n}\n",
  "sourcePath": "/srv/work/projects/noia-network/noia-governance/contracts/noia/v1/NoiaContractFactoriesV1.sol",
  "compiler": {
    "name": "solc",
    "version": "0.4.24+commit.e67f0147.Emscripten.clang"
  },
  "schemaVersion": "2.0.1",
  "updatedAt": "2018-09-26T12:09:38.240Z"
}