{
  "contractName": "NoiaJobPostV1",
  "abi": [
    {
      "constant": true,
      "inputs": [],
      "name": "infoData",
      "outputs": [
        {
          "name": "",
          "type": "bytes"
        }
      ],
      "payable": false,
      "stateMutability": "view",
      "type": "function"
    },
    {
      "constant": true,
      "inputs": [],
      "name": "version",
      "outputs": [
        {
          "name": "",
          "type": "uint16"
        }
      ],
      "payable": false,
      "stateMutability": "view",
      "type": "function"
    },
    {
      "constant": true,
      "inputs": [],
      "name": "owner",
      "outputs": [
        {
          "name": "",
          "type": "address"
        }
      ],
      "payable": false,
      "stateMutability": "view",
      "type": "function"
    },
    {
      "constant": false,
      "inputs": [
        {
          "name": "_newOwner",
          "type": "address"
        }
      ],
      "name": "changeOwner",
      "outputs": [],
      "payable": false,
      "stateMutability": "nonpayable",
      "type": "function"
    },
    {
      "constant": true,
      "inputs": [],
      "name": "marketplace",
      "outputs": [
        {
          "name": "",
          "type": "address"
        }
      ],
      "payable": false,
      "stateMutability": "view",
      "type": "function"
    },
    {
      "constant": true,
      "inputs": [],
      "name": "employer",
      "outputs": [
        {
          "name": "",
          "type": "address"
        }
      ],
      "payable": false,
      "stateMutability": "view",
      "type": "function"
    },
    {
      "constant": true,
      "inputs": [],
      "name": "infoType",
      "outputs": [
        {
          "name": "",
          "type": "bytes32"
        }
      ],
      "payable": false,
      "stateMutability": "view",
      "type": "function"
    },
    {
      "constant": true,
      "inputs": [],
      "name": "factory",
      "outputs": [
        {
          "name": "",
          "type": "address"
        }
      ],
      "payable": false,
      "stateMutability": "view",
      "type": "function"
    },
    {
      "inputs": [
        {
          "name": "factory",
          "type": "address"
        },
        {
          "name": "marketplace",
          "type": "address"
        },
        {
          "name": "employer_",
          "type": "address"
        },
        {
          "name": "infoType_",
          "type": "bytes32"
        },
        {
          "name": "infoData_",
          "type": "bytes"
        }
      ],
      "payable": false,
      "stateMutability": "nonpayable",
      "type": "constructor"
    },
    {
      "anonymous": false,
      "inputs": [
        {
          "indexed": true,
          "name": "jobPostAddress",
          "type": "address"
        },
        {
          "indexed": true,
          "name": "workerAddress",
          "type": "address"
        },
        {
          "indexed": false,
          "name": "workContractAddress",
          "type": "address"
        }
      ],
      "name": "NoiaContractProposedV1",
      "type": "event"
    },
    {
      "constant": false,
      "inputs": [
        {
          "name": "workerAddress",
          "type": "address"
        }
      ],
      "name": "createContract",
      "outputs": [],
      "payable": false,
      "stateMutability": "nonpayable",
      "type": "function"
    },
    {
      "constant": false,
      "inputs": [
        {
          "name": "workerAddress",
          "type": "address"
        }
      ],
      "name": "proposeContract",
      "outputs": [],
      "payable": false,
      "stateMutability": "nonpayable",
      "type": "function"
    },
    {
      "constant": true,
      "inputs": [
        {
          "name": "workerAddress",
          "type": "address"
        }
      ],
      "name": "getProposedContracts",
      "outputs": [
        {
          "name": "proposals",
          "type": "address[2]"
        }
      ],
      "payable": false,
      "stateMutability": "view",
      "type": "function"
    }
  ],
  "bytecode": "0x608060405234801561001057600080fd5b50604051610db9380380610db983398101604090815281516020830151918301516060840151608085015160008054600160a060020a0319163390811790915593959293919201908590859082908290600190600160a060020a0384161461007757600080fd5b6002805460018054600160a060020a03968716600160a060020a03199182161790915593851661ffff909316740100000000000000000000000000000000000000000260a060020a61ffff021990911617831691909117905560038054928816929091169190911790555050600482905580516100fb906005906020840190610106565b5050505050506101a1565b828054600181600116156101000203166002900490600052602060002090601f016020900481019282601f1061014757805160ff1916838001178555610174565b82800160010185558215610174579182015b82811115610174578251825591602001919060010190610159565b50610180929150610184565b5090565b61019e91905b80821115610180576000815560010161018a565b90565b610c09806101b06000396000f3006080604052600436106100ae5763ffffffff7c01000000000000000000000000000000000000000000000000000000006000350416632e5b5a1381146100b357806354fd4d501461013d578063691f9f22146101695780638da5cb5b146101c5578063a6f9dae1146101f6578063abc8c7af14610219578063ae200e791461022e578063afb74f4814610243578063c45a01551461026a578063e2d73ccd1461027f578063f88df730146102a0575b600080fd5b3480156100bf57600080fd5b506100c86102c1565b6040805160208082528351818301528351919283929083019185019080838360005b838110156101025781810151838201526020016100ea565b50505050905090810190601f16801561012f5780820380516001836020036101000a031916815260200191505b509250505060405180910390f35b34801561014957600080fd5b5061015261034f565b6040805161ffff9092168252519081900360200190f35b34801561017557600080fd5b5061018a600160a060020a0360043516610371565b6040518082600260200280838360005b838110156101b257818101518382015260200161019a565b5050505090500191505060405180910390f35b3480156101d157600080fd5b506101da6103ab565b60408051600160a060020a039092168252519081900360200190f35b34801561020257600080fd5b50610217600160a060020a03600435166103ba565b005b34801561022557600080fd5b506101da610400565b34801561023a57600080fd5b506101da61040f565b34801561024f57600080fd5b5061025861041e565b60408051918252519081900360200190f35b34801561027657600080fd5b506101da610424565b34801561028b57600080fd5b50610217600160a060020a0360043516610433565b3480156102ac57600080fd5b50610217600160a060020a03600435166105a9565b6005805460408051602060026001851615610100026000190190941693909304601f810184900484028201840190925281815292918301828280156103475780601f1061031c57610100808354040283529160200191610347565b820191906000526020600020905b81548152906001019060200180831161032a57829003601f168201915b505050505081565b60025474010000000000000000000000000000000000000000900461ffff1681565b610379610656565b600160a060020a0391821660008181526006602081815260408320549095168085529290915283529181019190915290565b600054600160a060020a031681565b600054600160a060020a031633146103d157600080fd5b6000805473ffffffffffffffffffffffffffffffffffffffff1916600160a060020a0392909216919091179055565b600254600160a060020a031681565b600354600160a060020a031681565b60045481565b600154600160a060020a031681565b6003546000908190600160a060020a03163314156104f1576000915030828461045a610671565b600160a060020a03841681526020810183600181111561047657fe5b60ff168152600160a060020a03909216602083015250604080519182900301925090506000f0801580156104ae573d6000803e3d6000fd5b50600160a060020a038481166000908152600660205260409020805473ffffffffffffffffffffffffffffffffffffffff191691831691909117905590506105a4565b33600160a060020a03841614156100ae5760019150308284610511610671565b600160a060020a03841681526020810183600181111561052d57fe5b60ff168152600160a060020a03909216602083015250604080519182900301925090506000f080158015610565573d6000803e3d6000fd5b50600160a060020a038481166000908152600760205260409020805473ffffffffffffffffffffffffffffffffffffffff191691831691909117905590505b505050565b600354600090600160a060020a03163314156105e05750600160a060020a038082166000908152600660205260409020541661060e565b33600160a060020a03831614156100ae5750600160a060020a03808216600090815260076020526040902054165b60408051600160a060020a03838116825291519184169130917f92fadbadb77c63cf091995b5e09c2bf4f49fd55484b9faa61b6d6701baff8480919081900360200190a35050565b60408051808201825290600290829080388339509192915050565b60405161055c8061068283390190560060806040526005805461ffff19169055600060065534801561002057600080fd5b5060405160608061055c83398101604090815281516020830151919092015133600160a060020a0384161461005457600080fd5b60008054600160a060020a031916600160a060020a0385161780825583919060a060020a60ff0219167401000000000000000000000000000000000000000083600181111561009f57fe5b021790555060018054600160a060020a03909216600160a060020a03199092169190911790555050610486806100d66000396000f30060806040526004361061008a5763ffffffff60e060020a60003504166336f152a3811461008f5780633c206412146100a65780637c654303146100bb57806394566d25146100e4578063b146e12914610115578063c0ee0b8a1461012a578063cbd88f4814610193578063e66a6b22146101a8578063eae19df4146101bd578063f26ef65f146101e4575b600080fd5b34801561009b57600080fd5b506100a46101f9565b005b3480156100b257600080fd5b506100a46102a3565b3480156100c757600080fd5b506100d06102cb565b604080519115158252519081900360200190f35b3480156100f057600080fd5b506100f96102d6565b60408051600160a060020a039092168252519081900360200190f35b34801561012157600080fd5b506100d06102e5565b34801561013657600080fd5b50604080516020600460443581810135601f81018490048402850184019095528484526100a4948235600160a060020a03169460248035953695946064949201919081908401838280828437509497506102ee9650505050505050565b34801561019f57600080fd5b506100f9610416565b3480156101b457600080fd5b506100d0610425565b3480156101c957600080fd5b506101d2610446565b60408051918252519081900360200190f35b3480156101f057600080fd5b506100d061044c565b33600160a060020a03166000809054906101000a9004600160a060020a0316600160a060020a031663ae200e796040518163ffffffff1660e060020a028152600401602060405180830381600087803b15801561025557600080fd5b505af1158015610269573d6000803e3d6000fd5b505050506040513d602081101561027f57600080fd5b5051600160a060020a03161461029457600080fd5b6005805460ff19166001179055565b600154600160a060020a031633146102ba57600080fd5b6005805461ff001916610100179055565b600354600654101590565b600054600160a060020a031681565b60055460ff1681565b6000809054906101000a9004600160a060020a0316600160a060020a031663abc8c7af6040518163ffffffff1660e060020a028152600401602060405180830381600087803b15801561034057600080fd5b505af1158015610354573d6000803e3d6000fd5b505050506040513d602081101561036a57600080fd5b5051604080517f55a373d60000000000000000000000000000000000000000000000000000000081529051600160a060020a03909216916355a373d6916004808201926020929091908290030181600087803b1580156103c957600080fd5b505af11580156103dd573d6000803e3d6000fd5b505050506040513d60208110156103f357600080fd5b5051600160a060020a0316331461040957600080fd5b5060068054909101905550565b600154600160a060020a031681565b60055460009060ff1680156104415750600554610100900460ff165b905090565b60065481565b600554610100900460ff16815600a165627a7a7230582007ba5c2ff233fd18a0d97c6fa7bb86b5dfd437c899a4c6bbbe3fcd41ffd8ddcf0029a165627a7a723058207581ed026d271fd728ece6956b27c5a0ce0dc54d6e1e0d688f5c5e9354ddf1250029",
  "source": "pragma solidity ^0.4.11;\n\nimport './NoiaBaseContractV1.sol';\nimport './NoiaBusinessV1.sol';\nimport './NoiaNodeV1.sol';\nimport './NoiaWorkContractV1.sol';\n\n/**\n * Standard Noia Job Post Contract V1 (Draft)\n *\n */\ncontract NoiaJobPostV1 is NoiaBaseContractV1 {\n    NoiaBusinessV1 public employer;\n    bytes32 public infoType;\n    bytes public infoData;\n\n    mapping(address => NoiaWorkContractV1) employerCreatedContracts;\n    mapping(address => NoiaWorkContractV1) workerCreatedContracts;\n\n    constructor(\n        address factory,\n        NoiaMarketplace marketplace,\n        NoiaBusinessV1 employer_,\n        bytes32 infoType_, bytes infoData_)\n        NoiaBaseContractV1(factory, marketplace) public {\n        employer = employer_;\n        infoType = infoType_;\n        infoData = infoData_;\n    }\n\n    function createContract(address workerAddress) public {\n        NoiaWorkContractV1.Initiator initiator;\n        NoiaWorkContractV1 workContract;\n        if (msg.sender == address(employer)) {\n            initiator = NoiaWorkContractV1.Initiator.Employer;\n            workContract = new NoiaWorkContractV1(this, initiator, workerAddress);\n            employerCreatedContracts[workerAddress] = workContract;\n        } else if (msg.sender == workerAddress) {\n            initiator = NoiaWorkContractV1.Initiator.Worker;\n            workContract = new NoiaWorkContractV1(this, initiator, workerAddress);\n            workerCreatedContracts[workerAddress] = workContract;\n        } else {\n            require(false);\n        }\n    }\n\n    function proposeContract(address workerAddress) public {\n        address workContractAddress;\n        if (msg.sender == address(employer)) {\n            workContractAddress = employerCreatedContracts[workerAddress];\n        } else if (msg.sender == workerAddress) {\n            workContractAddress = workerCreatedContracts[workerAddress];\n        } else {\n            require(false);\n        }\n        emit NoiaContractProposedV1(this, workerAddress, workContractAddress);\n    }\n\n    /**\n     * Get proposed contracts from employer and worker\n     *\n     * [0] - contract proposal from employer\n     * [1] - contract proposal from worker\n     */\n    function getProposedContracts(address workerAddress) public view returns (address[2] proposals) {\n        proposals[0] = employerCreatedContracts[workerAddress];\n        proposals[1] = employerCreatedContracts[workerAddress];\n    }\n\n    event NoiaContractProposedV1(\n        address indexed jobPostAddress,\n        address indexed workerAddress,\n        address workContractAddress);\n}\n",
  "sourcePath": "/srv/work/projects/noia-network/noia-governance/contracts/noia/v1/NoiaJobPostV1.sol",
  "compiler": {
    "name": "solc",
    "version": "0.4.24+commit.e67f0147.Emscripten.clang"
  },
  "schemaVersion": "2.0.0",
  "updatedAt": "2018-07-26T12:36:39.823Z"
}