{
  "contractName": "NoiaJobPostV1",
  "abi": [
    {
      "constant": true,
      "inputs": [],
      "name": "infoData",
      "outputs": [
        {
          "name": "",
          "type": "bytes"
        }
      ],
      "payable": false,
      "stateMutability": "view",
      "type": "function"
    },
    {
      "constant": true,
      "inputs": [],
      "name": "version",
      "outputs": [
        {
          "name": "",
          "type": "uint16"
        }
      ],
      "payable": false,
      "stateMutability": "view",
      "type": "function"
    },
    {
      "constant": true,
      "inputs": [],
      "name": "owner",
      "outputs": [
        {
          "name": "",
          "type": "address"
        }
      ],
      "payable": false,
      "stateMutability": "view",
      "type": "function"
    },
    {
      "constant": false,
      "inputs": [
        {
          "name": "_newOwner",
          "type": "address"
        }
      ],
      "name": "changeOwner",
      "outputs": [],
      "payable": false,
      "stateMutability": "nonpayable",
      "type": "function"
    },
    {
      "constant": true,
      "inputs": [],
      "name": "marketplace",
      "outputs": [
        {
          "name": "",
          "type": "address"
        }
      ],
      "payable": false,
      "stateMutability": "view",
      "type": "function"
    },
    {
      "constant": true,
      "inputs": [],
      "name": "employer",
      "outputs": [
        {
          "name": "",
          "type": "address"
        }
      ],
      "payable": false,
      "stateMutability": "view",
      "type": "function"
    },
    {
      "constant": true,
      "inputs": [],
      "name": "infoType",
      "outputs": [
        {
          "name": "",
          "type": "bytes32"
        }
      ],
      "payable": false,
      "stateMutability": "view",
      "type": "function"
    },
    {
      "constant": true,
      "inputs": [],
      "name": "factory",
      "outputs": [
        {
          "name": "",
          "type": "address"
        }
      ],
      "payable": false,
      "stateMutability": "view",
      "type": "function"
    },
    {
      "inputs": [
        {
          "name": "factory",
          "type": "address"
        },
        {
          "name": "marketplace",
          "type": "address"
        },
        {
          "name": "employer_",
          "type": "address"
        },
        {
          "name": "infoType_",
          "type": "bytes32"
        },
        {
          "name": "infoData_",
          "type": "bytes"
        }
      ],
      "payable": false,
      "stateMutability": "nonpayable",
      "type": "constructor"
    },
    {
      "anonymous": false,
      "inputs": [
        {
          "indexed": false,
          "name": "contractInstance",
          "type": "address"
        }
      ],
      "name": "NoiaContractV1Created",
      "type": "event"
    },
    {
      "anonymous": false,
      "inputs": [
        {
          "indexed": true,
          "name": "jobPostAddress",
          "type": "address"
        },
        {
          "indexed": true,
          "name": "workerAddress",
          "type": "address"
        },
        {
          "indexed": false,
          "name": "workOrderAddress",
          "type": "address"
        }
      ],
      "name": "NoiaWorkOrderProposedV1",
      "type": "event"
    },
    {
      "constant": false,
      "inputs": [
        {
          "name": "_worker",
          "type": "address"
        }
      ],
      "name": "createWorkOrder",
      "outputs": [],
      "payable": false,
      "stateMutability": "nonpayable",
      "type": "function"
    },
    {
      "constant": false,
      "inputs": [
        {
          "name": "_worker",
          "type": "address"
        }
      ],
      "name": "proposeWorkOrder",
      "outputs": [],
      "payable": false,
      "stateMutability": "nonpayable",
      "type": "function"
    },
    {
      "constant": true,
      "inputs": [
        {
          "name": "_worker",
          "type": "address"
        }
      ],
      "name": "getProposedWorkOrders",
      "outputs": [
        {
          "name": "proposals",
          "type": "address[2]"
        }
      ],
      "payable": false,
      "stateMutability": "view",
      "type": "function"
    }
  ],
  "bytecode": "0x608060405234801561001057600080fd5b50604051611f96380380611f9683398101604090815281516020830151918301516060840151608085015160008054600160a060020a0319163390811790915593959293919201908590859082908290600190600160a060020a0384161461007757600080fd5b6002805460018054600160a060020a03968716600160a060020a03199182161790915593851661ffff909316740100000000000000000000000000000000000000000260a060020a61ffff021990911617831691909117905560038054928816929091169190911790555050600482905580516100fb906005906020840190610106565b5050505050506101a1565b828054600181600116156101000203166002900490600052602060002090601f016020900481019282601f1061014757805160ff1916838001178555610174565b82800160010185558215610174579182015b82811115610174578251825591602001919060010190610159565b50610180929150610184565b5090565b61019e91905b80821115610180576000815560010161018a565b90565b611de6806101b06000396000f3006080604052600436106100955763ffffffff60e060020a6000350416632e5b5a13811461009a57806330401ebb146101245780634fb70d731461014757806354fd4d50146101a35780638123488f146101cf5780638da5cb5b146101f0578063a6f9dae114610221578063abc8c7af14610242578063ae200e7914610257578063afb74f481461026c578063c45a015514610293575b600080fd5b3480156100a657600080fd5b506100af6102a8565b6040805160208082528351818301528351919283929083019185019080838360005b838110156100e95781810151838201526020016100d1565b50505050905090810190601f1680156101165780820380516001836020036101000a031916815260200191505b509250505060405180910390f35b34801561013057600080fd5b50610145600160a060020a0360043516610336565b005b34801561015357600080fd5b50610168600160a060020a03600435166104d7565b6040518082600260200280838360005b83811015610190578181015183820152602001610178565b5050505090500191505060405180910390f35b3480156101af57600080fd5b506101b8610518565b6040805161ffff9092168252519081900360200190f35b3480156101db57600080fd5b50610145600160a060020a036004351661053a565b3480156101fc57600080fd5b506102056107d5565b60408051600160a060020a039092168252519081900360200190f35b34801561022d57600080fd5b50610145600160a060020a03600435166107e4565b34801561024e57600080fd5b5061020561082a565b34801561026357600080fd5b50610205610839565b34801561027857600080fd5b50610281610848565b60408051918252519081900360200190f35b34801561029f57600080fd5b5061020561084e565b6005805460408051602060026001851615610100026000190190941693909304601f8101849004840282018401909252818152929183018282801561032e5780601f106103035761010080835404028352916020019161032e565b820191906000526020600020905b81548152906001019060200180831161031157829003601f168201915b505050505081565b600354604080517f8da5cb5b00000000000000000000000000000000000000000000000000000000815290518392600092600160a060020a0390911691638da5cb5b9160048082019260209290919082900301818787803b15801561039a57600080fd5b505af11580156103ae573d6000803e3d6000fd5b505050506040513d60208110156103c457600080fd5b5051600160a060020a03163314156103f75750600160a060020a038082166000908152600660205260409020541661048e565b81600160a060020a0316638da5cb5b6040518163ffffffff1660e060020a028152600401602060405180830381600087803b15801561043557600080fd5b505af1158015610449573d6000803e3d6000fd5b505050506040513d602081101561045f57600080fd5b5051600160a060020a03163314156100955750600160a060020a03808216600090815260076020526040902054165b60408051600160a060020a03838116825291519184169130917f419c6b1c6bd6e09e528b9cc6d5b529e51dc2f481125a44b6f9c51487663c0e8f919081900360200190a3505050565b6104df61085d565b600160a060020a039182166000818152600660209081526040808320548616855292825260078152919020549092169181019190915290565b60025474010000000000000000000000000000000000000000900461ffff1681565b6000806000839050600360009054906101000a9004600160a060020a0316600160a060020a0316638da5cb5b6040518163ffffffff1660e060020a028152600401602060405180830381600087803b15801561059557600080fd5b505af11580156105a9573d6000803e3d6000fd5b505050506040513d60208110156105bf57600080fd5b5051600160a060020a031633141561067757600092503083826105e0610878565b600160a060020a0384168152602081018360018111156105fc57fe5b60ff168152600160a060020a03909216602083015250604080519182900301925090506000f080158015610634573d6000803e3d6000fd5b50600160a060020a038281166000908152600660205260409020805473ffffffffffffffffffffffffffffffffffffffff19169183169190911790559150610793565b80600160a060020a0316638da5cb5b6040518163ffffffff1660e060020a028152600401602060405180830381600087803b1580156106b557600080fd5b505af11580156106c9573d6000803e3d6000fd5b505050506040513d60208110156106df57600080fd5b5051600160a060020a03163314156100955760019250308382610700610878565b600160a060020a03841681526020810183600181111561071c57fe5b60ff168152600160a060020a03909216602083015250604080519182900301925090506000f080158015610754573d6000803e3d6000fd5b50600160a060020a038281166000908152600760205260409020805473ffffffffffffffffffffffffffffffffffffffff191691831691909117905591505b60408051600160a060020a038416815290517f4925a5c7f3f73bba343166964921a277f457922c2d49b45d9dc9f897d2fb96559181900360200190a150505050565b600054600160a060020a031681565b600054600160a060020a031633146107fb57600080fd5b6000805473ffffffffffffffffffffffffffffffffffffffff1916600160a060020a0392909216919091179055565b600254600160a060020a031681565b600354600160a060020a031681565b60045481565b600154600160a060020a031681565b60408051808201825290600290829080388339509192915050565b6040516115328061088983390190560060806040526007805461ffff191690553480156200001c57600080fd5b506040516060806200153283398101604090815281516020830151919092015133600160a060020a038416146200005257600080fd5b600160a060020a03811615156200006857600080fd5b82600160a060020a031663abc8c7af6040518163ffffffff167c0100000000000000000000000000000000000000000000000000000000028152600401602060405180830381600087803b158015620000c057600080fd5b505af1158015620000d5573d6000803e3d6000fd5b505050506040513d6020811015620000ec57600080fd5b5051604080517f55a373d60000000000000000000000000000000000000000000000000000000081529051600160a060020a03909216916355a373d6916004808201926020929091908290030181600087803b1580156200014c57600080fd5b505af115801562000161573d6000803e3d6000fd5b505050506040513d60208110156200017857600080fd5b505160018054600160a060020a031916600160a060020a0390921691909117815560008054849260a060020a60ff02199091169074010000000000000000000000000000000000000000908490811115620001cf57fe5b021790555082600160a060020a031663ae200e796040518163ffffffff167c0100000000000000000000000000000000000000000000000000000000028152600401602060405180830381600087803b1580156200022c57600080fd5b505af115801562000241573d6000803e3d6000fd5b505050506040513d60208110156200025857600080fd5b505160028054600160a060020a0319908116600160a060020a03938416179091556003805482169383169390931790925560008054909216931692909217825550611288908190620002aa90396000f3006080604052600436106100b65763ffffffff60e060020a600035041663199cbc5481146100bb5780632852b71c146100e25780634d547ada146100f95780635051a5ec1461012a57806390380dcf1461015357806394566d2514610201578063968ed60014610216578063a9ae25121461022b578063ae200e7914610289578063ba3e095c1461029e578063bd980f4b146102b9578063c0ee0b8a146102ce578063c56a1a2b14610337578063d9e840161461034c575b600080fd5b3480156100c757600080fd5b506100d06103b5565b60408051918252519081900360200190f35b3480156100ee57600080fd5b506100f76103bb565b005b34801561010557600080fd5b5061010e6103c6565b60408051600160a060020a039092168252519081900360200190f35b34801561013657600080fd5b5061013f6103d5565b604080519115158252519081900360200190f35b34801561015f57600080fd5b506101686103f6565b604051808060200180602001838103835285818151815260200191508051906020019060200280838360005b838110156101ac578181015183820152602001610194565b50505050905001838103825284818151815260200191508051906020019060200280838360005b838110156101eb5781810151838201526020016101d3565b5050505090500194505050505060405180910390f35b34801561020d57600080fd5b5061010e6104da565b34801561022257600080fd5b506100d06104e9565b34801561023757600080fd5b5060408051602060046024803582810135601f81018590048502860185019096528585526100f795833595369560449491939091019190819084018382808284375094975061057f9650505050505050565b34801561029557600080fd5b5061010e61081e565b3480156102aa57600080fd5b506100f760043560243561082d565b3480156102c557600080fd5b5061013f610a0b565b3480156102da57600080fd5b50604080516020600460443581810135601f81018490048402850184019095528484526100f7948235600160a060020a0316946024803595369594606494920191908190840183828082843750949750610a199650505050505050565b34801561034357600080fd5b5061013f610a35565b34801561035857600080fd5b50604080516020600460443581810135601f81018490048402850184019095528484526100f7948235600160a060020a0316946024803595369594606494920191908190840183828082843750949750610a3e9650505050505050565b60065481565b6103c433610e57565b565b600354600160a060020a031681565b600754600090610100900460ff1680156103f1575060075460ff165b905090565b60608060608060008060058054905060405190808252806020026020018201604052801561042e578160200160208202803883390190505b50600554604080518281526020808402820101909152919550801561045d578160200160208202803883390190505b509250600091505b6005548210156104cf57600580548390811061047d57fe5b90600052602060002090600202019050806001015484838151811015156104a057fe5b60209081029091010152805483518490849081106104ba57fe5b60209081029091010152600190910190610465565b509194909350915050565b600054600160a060020a031681565b600154604080517f70a082310000000000000000000000000000000000000000000000000000000081523060048201529051600092600160a060020a0316916370a0823191602480830192602092919082900301818787803b15801561054e57600080fd5b505af1158015610562573d6000803e3d6000fd5b505050506040513d602081101561057857600080fd5b5051905090565b606060006004836040518082805190602001908083835b602083106105b55780518252601f199092019160209182019101610596565b51815160209384036101000a600019018019909216911617905292019485525060405193849003019092205460ff16159150610654905057604080517f08c379a000000000000000000000000000000000000000000000000000000000815260206004820152601960248201527f5369676e617475726520616c7265616479206578697374732100000000000000604482015290519081900360640190fd5b60016004846040518082805190602001908083835b602083106106885780518252601f199092019160209182019101610669565b51815160209384036101000a6000190180199092169116179052920194855250604080519485900382018520805460ff191696151596909617909555306c0100000000000000000000000002848201527f61636365707400000000000000000000000000000000000000000000000000006034850152603a8085018a905285518086039091018152605a90940194859052835193965061079694889461078a945088935090918291908401908083835b602083106107575780518252601f199092019160209182019101610738565b5181516020939093036101000a6000190180199091169216919091179052604051920182900390912092506110b8915050565b9063ffffffff61116216565b9050600160a060020a038116151561080f57604080517f08c379a000000000000000000000000000000000000000000000000000000000815260206004820152601660248201527f5369676e6572206e6f74207265636f676e697a65642100000000000000000000604482015290519081900360640190fd5b61081881610e57565b50505050565b600254600160a060020a031681565b600260009054906101000a9004600160a060020a0316600160a060020a0316638da5cb5b6040518163ffffffff1660e060020a028152600401602060405180830381600087803b15801561088057600080fd5b505af1158015610894573d6000803e3d6000fd5b505050506040513d60208110156108aa57600080fd5b5051600160a060020a031633146108c057600080fd5b4281116108cc57600080fd5b6006546108df908363ffffffff61123716565b600154604080517f70a082310000000000000000000000000000000000000000000000000000000081523060048201529051600160a060020a03909216916370a08231916024808201926020929091908290030181600087803b15801561094557600080fd5b505af1158015610959573d6000803e3d6000fd5b505050506040513d602081101561096f57600080fd5b5051101561097c57600080fd5b60065461098f908363ffffffff61123716565b60065560408051808201909152908152602081019182526005805460018101825560009190915290517f036b6384b5eca791c62761152d0c79bb0604c104a5fb6f4eb0703f3154bb3db060029092029182015590517f036b6384b5eca791c62761152d0c79bb0604c104a5fb6f4eb0703f3154bb3db190910155565b600754610100900460ff1681565b600154600160a060020a03163314610a3057600080fd5b505050565b60075460ff1681565b6060600080600080600080600080610a546103d5565b1515610a5f57600080fd5b600160a060020a038c161515610a7457600080fd5b60048a6040518082805190602001908083835b60208310610aa65780518252601f199092019160209182019101610a87565b51815160209384036101000a600019018019909216911617905292019485525060405193849003019092205460ff16159150610ae3905057600080fd5b600160048b6040518082805190602001908083835b60208310610b175780518252601f199092019160209182019101610af8565b6001836020036101000a038019825116818451168082178552505050505050905001915050908152602001604051809103902060006101000a81548160ff021916908315150217905550308c8c6040516020018084600160a060020a0316600160a060020a03166c01000000000000000000000000028152601401807f72656c656173650000000000000000000000000000000000000000000000000081525060070183600160a060020a0316600160a060020a03166c0100000000000000000000000002815260140182815260200193505050506040516020818303038152906040529850610c338a61078a8b604051808280519060200190808383602083106107575780518252601f199092019160209182019101610738565b9750600160a060020a0388161515610c4a57600080fd5b600360009054906101000a9004600160a060020a0316600160a060020a0316638da5cb5b6040518163ffffffff1660e060020a028152600401602060405180830381600087803b158015610c9d57600080fd5b505af1158015610cb1573d6000803e3d6000fd5b505050506040513d6020811015610cc757600080fd5b5051600160a060020a03898116911614610ce057600080fd5b6005548c97506000965093504292508591505b83821015610d5f576005805483908110610d0957fe5b60009182526020822060029091020180549650915085118015610d2b57508285105b15610d54576001810154610d4690879063ffffffff61123716565b600060018301819055825595505b600190910190610cf3565b6000861115610e4957600654610d7b908763ffffffff61124a16565b600655600154604080517fa9059cbb000000000000000000000000000000000000000000000000000000008152600160a060020a038a81166004830152602482018a90529151919092169163a9059cbb91604480830192600092919082900301818387803b158015610dec57600080fd5b505af1158015610e00573d6000803e3d6000fd5b505060408051600160a060020a038b168152602081018a905281517fb21fb52d5749b80f3182f8c6992236b5e5576681880914484d7f4c9b062e619e9450908190039091019150a15b505050505050505050505050565b6000806000600360009054906101000a9004600160a060020a0316600160a060020a0316638da5cb5b6040518163ffffffff1660e060020a028152600401602060405180830381600087803b158015610eaf57600080fd5b505af1158015610ec3573d6000803e3d6000fd5b505050506040513d6020811015610ed957600080fd5b5051600254604080517f8da5cb5b0000000000000000000000000000000000000000000000000000000081529051600160a060020a039384168885161496509290911691638da5cb5b916004808201926020929091908290030181600087803b158015610f4557600080fd5b505af1158015610f59573d6000803e3d6000fd5b505050506040513d6020811015610f6f57600080fd5b5051600160a060020a0385811691161491508280610f8a5750815b151561101c57604080517f08c379a0000000000000000000000000000000000000000000000000000000008152602060048201526024808201527f5369676e6572206d757374206265206120776f726b6572206f7220656d706c6f60448201527f7965652100000000000000000000000000000000000000000000000000000000606482015290519081900360840190fd5b6110246103d5565b9050821561103c576007805461ff0019166101001790555b8115611050576007805460ff191660011790555b8015801561106157506110616103d5565b156108185760025460035460408051600160a060020a03938416815292909116602083015280517f4cd361b37129a4a13dff2704ff3bc0261c22f688c60784c2849582de8b77f1f59281900390910190a150505050565b604080517f19457468657265756d205369676e6564204d6573736167653a0a333200000000602080830191909152603c80830185905283518084039091018152605c909201928390528151600093918291908401908083835b602083106111305780518252601f199092019160209182019101611111565b5181516020939093036101000a6000190180199091169216919091179052604051920182900390912095945050505050565b6000806000808451604114151561117c576000935061122e565b50505060208201516040830151606084015160001a601b60ff821610156111a157601b015b8060ff16601b141580156111b957508060ff16601c14155b156111c7576000935061122e565b60408051600080825260208083018085528a905260ff8516838501526060830187905260808301869052925160019360a0808501949193601f19840193928390039091019190865af1158015611221573d6000803e3d6000fd5b5050506020604051035193505b50505092915050565b8181018281101561124457fe5b92915050565b60008282111561125657fe5b509003905600a165627a7a7230582060f137710f0d985889d6af5b6976af79b19ed62eca4665a44ab892bed1e6d2f60029a165627a7a72305820d3b3004815dd2f2d2cda8e0153bfc74c29e8f3a0cddb09ba3a3695daca3018430029",
  "source": "pragma solidity ^0.4.24;\n\nimport { NoiaBaseContractV1 } from './NoiaBaseContractV1.sol';\nimport { NoiaBusinessV1 } from './NoiaBusinessV1.sol';\nimport { NoiaWorkOrderV1 } from \"./NoiaWorkOrderV1.sol\";\nimport { NoiaMarketplace } from \"../gov/NoiaMarketplace.sol\";\nimport { Owned } from \"../../abstracts/Owned.sol\";\n\n/**\n * Standard Noia Job Post Contract V1 (Draft)\n *\n */\ncontract NoiaJobPostV1 is NoiaBaseContractV1 {\n    NoiaBusinessV1 public employer;\n    bytes32 public infoType;\n    bytes public infoData;\n\n    mapping(address => NoiaWorkOrderV1) employerCreatedOrders;\n    mapping(address => NoiaWorkOrderV1) workerCreatedOrders;\n\n    constructor(\n        address factory,\n        NoiaMarketplace marketplace,\n        NoiaBusinessV1 employer_,\n        bytes32 infoType_, bytes infoData_)\n        NoiaBaseContractV1(factory, marketplace) public {\n        employer = employer_;\n        infoType = infoType_;\n        infoData = infoData_;\n    }\n\n    function createWorkOrder(address _worker) public {\n        NoiaWorkOrderV1.Initiator initiator;\n        NoiaWorkOrderV1 workOrder;\n        Owned worker = Owned(_worker);\n        if (msg.sender == address(employer.owner())) {\n            initiator = NoiaWorkOrderV1.Initiator.Employer;\n            workOrder = new NoiaWorkOrderV1(this, initiator, worker);\n            employerCreatedOrders[worker] = workOrder;\n        } else if (msg.sender == worker.owner()) {\n            initiator = NoiaWorkOrderV1.Initiator.Worker;\n            workOrder = new NoiaWorkOrderV1(this, initiator, worker);\n            workerCreatedOrders[worker] = workOrder;\n        } else {\n            require(false);\n        }\n        emit NoiaContractV1Created(workOrder);\n    }\n\n    function proposeWorkOrder(address _worker) public {\n        Owned worker = Owned(_worker);\n        address workOrderAddress;\n        if (msg.sender == address(employer.owner())) {\n            workOrderAddress = employerCreatedOrders[worker];\n        } else if (msg.sender == worker.owner()) {\n            workOrderAddress = workerCreatedOrders[worker];\n        } else {\n            require(false);\n        }\n        emit NoiaWorkOrderProposedV1(this, worker, workOrderAddress);\n    }\n\n    /**\n     * Get proposed contracts from employer and worker\n     *\n     * [0] - contract proposal from employer\n     * [1] - contract proposal from worker\n     */\n    function getProposedWorkOrders(address _worker) public view returns (address[2] proposals) {\n        proposals[0] = employerCreatedOrders[_worker];\n        proposals[1] = workerCreatedOrders[_worker];\n    }\n\n    event NoiaContractV1Created(address contractInstance);\n\n    event NoiaWorkOrderProposedV1(\n        address indexed jobPostAddress,\n        address indexed workerAddress,\n        address workOrderAddress);\n}\n",
  "sourcePath": "/srv/work/projects/noia-network/noia-governance/contracts/noia/v1/NoiaJobPostV1.sol",
  "compiler": {
    "name": "solc",
    "version": "0.4.24+commit.e67f0147.Emscripten.clang"
  },
  "schemaVersion": "2.0.1",
  "updatedAt": "2018-08-26T12:23:56.210Z"
}