{
  "contractName": "NOIAToken",
  "abi": [
    {
      "constant": false,
      "inputs": [
        {
          "name": "token",
          "type": "address"
        },
        {
          "name": "to",
          "type": "address"
        },
        {
          "name": "amount",
          "type": "uint256"
        }
      ],
      "name": "recoverTokens",
      "outputs": [],
      "payable": false,
      "stateMutability": "nonpayable",
      "type": "function"
    },
    {
      "constant": false,
      "inputs": [],
      "name": "renounceOwnership",
      "outputs": [],
      "payable": false,
      "stateMutability": "nonpayable",
      "type": "function"
    },
    {
      "constant": true,
      "inputs": [
        {
          "name": "",
          "type": "address"
        }
      ],
      "name": "authorizationNonces",
      "outputs": [
        {
          "name": "",
          "type": "uint256"
        }
      ],
      "payable": false,
      "stateMutability": "view",
      "type": "function"
    },
    {
      "constant": true,
      "inputs": [],
      "name": "owner",
      "outputs": [
        {
          "name": "",
          "type": "address"
        }
      ],
      "payable": false,
      "stateMutability": "view",
      "type": "function"
    },
    {
      "constant": true,
      "inputs": [],
      "name": "state",
      "outputs": [
        {
          "name": "",
          "type": "uint8"
        }
      ],
      "payable": false,
      "stateMutability": "view",
      "type": "function"
    },
    {
      "constant": false,
      "inputs": [
        {
          "name": "_newOwner",
          "type": "address"
        }
      ],
      "name": "transferOwnership",
      "outputs": [],
      "payable": false,
      "stateMutability": "nonpayable",
      "type": "function"
    },
    {
      "inputs": [],
      "payable": false,
      "stateMutability": "nonpayable",
      "type": "constructor"
    },
    {
      "anonymous": false,
      "inputs": [],
      "name": "MintFinished",
      "type": "event"
    },
    {
      "anonymous": false,
      "inputs": [
        {
          "indexed": true,
          "name": "operator",
          "type": "address"
        },
        {
          "indexed": true,
          "name": "from",
          "type": "address"
        },
        {
          "indexed": true,
          "name": "to",
          "type": "address"
        },
        {
          "indexed": false,
          "name": "amount",
          "type": "uint256"
        },
        {
          "indexed": false,
          "name": "userData",
          "type": "bytes"
        },
        {
          "indexed": false,
          "name": "operatorData",
          "type": "bytes"
        }
      ],
      "name": "Sent",
      "type": "event"
    },
    {
      "anonymous": false,
      "inputs": [
        {
          "indexed": true,
          "name": "operator",
          "type": "address"
        },
        {
          "indexed": true,
          "name": "to",
          "type": "address"
        },
        {
          "indexed": false,
          "name": "amount",
          "type": "uint256"
        },
        {
          "indexed": false,
          "name": "operatorData",
          "type": "bytes"
        }
      ],
      "name": "Minted",
      "type": "event"
    },
    {
      "anonymous": false,
      "inputs": [
        {
          "indexed": true,
          "name": "operator",
          "type": "address"
        },
        {
          "indexed": true,
          "name": "from",
          "type": "address"
        },
        {
          "indexed": false,
          "name": "amount",
          "type": "uint256"
        },
        {
          "indexed": false,
          "name": "userData",
          "type": "bytes"
        },
        {
          "indexed": false,
          "name": "operatorData",
          "type": "bytes"
        }
      ],
      "name": "Burned",
      "type": "event"
    },
    {
      "anonymous": false,
      "inputs": [
        {
          "indexed": true,
          "name": "operator",
          "type": "address"
        },
        {
          "indexed": true,
          "name": "tokenHolder",
          "type": "address"
        }
      ],
      "name": "AuthorizedOperator",
      "type": "event"
    },
    {
      "anonymous": false,
      "inputs": [
        {
          "indexed": true,
          "name": "operator",
          "type": "address"
        },
        {
          "indexed": true,
          "name": "tokenHolder",
          "type": "address"
        }
      ],
      "name": "RevokedOperator",
      "type": "event"
    },
    {
      "anonymous": false,
      "inputs": [
        {
          "indexed": true,
          "name": "from",
          "type": "address"
        },
        {
          "indexed": true,
          "name": "to",
          "type": "address"
        },
        {
          "indexed": false,
          "name": "amount",
          "type": "uint256"
        }
      ],
      "name": "Transfer",
      "type": "event"
    },
    {
      "anonymous": false,
      "inputs": [
        {
          "indexed": true,
          "name": "owner",
          "type": "address"
        },
        {
          "indexed": true,
          "name": "spender",
          "type": "address"
        },
        {
          "indexed": false,
          "name": "amount",
          "type": "uint256"
        }
      ],
      "name": "Approval",
      "type": "event"
    },
    {
      "anonymous": false,
      "inputs": [
        {
          "indexed": true,
          "name": "previousOwner",
          "type": "address"
        }
      ],
      "name": "OwnershipRenounced",
      "type": "event"
    },
    {
      "anonymous": false,
      "inputs": [
        {
          "indexed": true,
          "name": "previousOwner",
          "type": "address"
        },
        {
          "indexed": true,
          "name": "newOwner",
          "type": "address"
        }
      ],
      "name": "OwnershipTransferred",
      "type": "event"
    },
    {
      "constant": true,
      "inputs": [],
      "name": "name",
      "outputs": [
        {
          "name": "",
          "type": "string"
        }
      ],
      "payable": false,
      "stateMutability": "view",
      "type": "function"
    },
    {
      "constant": true,
      "inputs": [],
      "name": "symbol",
      "outputs": [
        {
          "name": "",
          "type": "string"
        }
      ],
      "payable": false,
      "stateMutability": "view",
      "type": "function"
    },
    {
      "constant": true,
      "inputs": [],
      "name": "granularity",
      "outputs": [
        {
          "name": "",
          "type": "uint256"
        }
      ],
      "payable": false,
      "stateMutability": "view",
      "type": "function"
    },
    {
      "constant": true,
      "inputs": [],
      "name": "totalSupply",
      "outputs": [
        {
          "name": "",
          "type": "uint256"
        }
      ],
      "payable": false,
      "stateMutability": "view",
      "type": "function"
    },
    {
      "constant": true,
      "inputs": [
        {
          "name": "_tokenHolder",
          "type": "address"
        }
      ],
      "name": "balanceOf",
      "outputs": [
        {
          "name": "",
          "type": "uint256"
        }
      ],
      "payable": false,
      "stateMutability": "view",
      "type": "function"
    },
    {
      "constant": false,
      "inputs": [
        {
          "name": "_to",
          "type": "address"
        },
        {
          "name": "_amount",
          "type": "uint256"
        },
        {
          "name": "_fee",
          "type": "uint256"
        },
        {
          "name": "_data",
          "type": "bytes"
        },
        {
          "name": "_nonce",
          "type": "uint256"
        },
        {
          "name": "_sig",
          "type": "bytes"
        }
      ],
      "name": "sendByCheque",
      "outputs": [
        {
          "name": "",
          "type": "bool"
        }
      ],
      "payable": false,
      "stateMutability": "nonpayable",
      "type": "function"
    },
    {
      "constant": false,
      "inputs": [
        {
          "name": "_to",
          "type": "address"
        },
        {
          "name": "_amount",
          "type": "uint256"
        },
        {
          "name": "_fee",
          "type": "uint256"
        },
        {
          "name": "_data",
          "type": "bytes"
        },
        {
          "name": "_nonce",
          "type": "uint256"
        },
        {
          "name": "_sig",
          "type": "bytes"
        }
      ],
      "name": "transferByCheque",
      "outputs": [
        {
          "name": "",
          "type": "bool"
        }
      ],
      "payable": false,
      "stateMutability": "nonpayable",
      "type": "function"
    },
    {
      "constant": false,
      "inputs": [
        {
          "name": "_to",
          "type": "address"
        },
        {
          "name": "_amount",
          "type": "uint256"
        },
        {
          "name": "_userData",
          "type": "bytes"
        }
      ],
      "name": "send",
      "outputs": [],
      "payable": false,
      "stateMutability": "nonpayable",
      "type": "function"
    },
    {
      "constant": false,
      "inputs": [
        {
          "name": "_operator",
          "type": "address"
        }
      ],
      "name": "authorizeOperator",
      "outputs": [],
      "payable": false,
      "stateMutability": "nonpayable",
      "type": "function"
    },
    {
      "constant": false,
      "inputs": [
        {
          "name": "_operator",
          "type": "address"
        }
      ],
      "name": "revokeOperator",
      "outputs": [],
      "payable": false,
      "stateMutability": "nonpayable",
      "type": "function"
    },
    {
      "constant": false,
      "inputs": [
        {
          "name": "_operator",
          "type": "address"
        },
        {
          "name": "_nonce",
          "type": "uint256"
        },
        {
          "name": "_sig",
          "type": "bytes"
        }
      ],
      "name": "authorizeOperatorWithSignature",
      "outputs": [],
      "payable": false,
      "stateMutability": "nonpayable",
      "type": "function"
    },
    {
      "constant": false,
      "inputs": [
        {
          "name": "_operator",
          "type": "address"
        },
        {
          "name": "_nonce",
          "type": "uint256"
        },
        {
          "name": "_sig",
          "type": "bytes"
        }
      ],
      "name": "revokeOperatorWithSignature",
      "outputs": [],
      "payable": false,
      "stateMutability": "nonpayable",
      "type": "function"
    },
    {
      "constant": true,
      "inputs": [
        {
          "name": "_operator",
          "type": "address"
        },
        {
          "name": "_tokenHolder",
          "type": "address"
        }
      ],
      "name": "isOperatorFor",
      "outputs": [
        {
          "name": "",
          "type": "bool"
        }
      ],
      "payable": false,
      "stateMutability": "view",
      "type": "function"
    },
    {
      "constant": false,
      "inputs": [
        {
          "name": "_from",
          "type": "address"
        },
        {
          "name": "_to",
          "type": "address"
        },
        {
          "name": "_amount",
          "type": "uint256"
        },
        {
          "name": "_userData",
          "type": "bytes"
        },
        {
          "name": "_operatorData",
          "type": "bytes"
        }
      ],
      "name": "operatorSend",
      "outputs": [],
      "payable": false,
      "stateMutability": "nonpayable",
      "type": "function"
    },
    {
      "constant": false,
      "inputs": [
        {
          "name": "_tokenHolder",
          "type": "address"
        },
        {
          "name": "_amount",
          "type": "uint256"
        }
      ],
      "name": "mint",
      "outputs": [],
      "payable": false,
      "stateMutability": "nonpayable",
      "type": "function"
    },
    {
      "constant": false,
      "inputs": [
        {
          "name": "_amount",
          "type": "uint256"
        },
        {
          "name": "_userData",
          "type": "bytes"
        },
        {
          "name": "_operatorData",
          "type": "bytes"
        }
      ],
      "name": "burn",
      "outputs": [],
      "payable": false,
      "stateMutability": "nonpayable",
      "type": "function"
    },
    {
      "constant": true,
      "inputs": [],
      "name": "decimals",
      "outputs": [
        {
          "name": "",
          "type": "uint8"
        }
      ],
      "payable": false,
      "stateMutability": "view",
      "type": "function"
    },
    {
      "constant": false,
      "inputs": [
        {
          "name": "_to",
          "type": "address"
        },
        {
          "name": "_amount",
          "type": "uint256"
        }
      ],
      "name": "transfer",
      "outputs": [
        {
          "name": "success",
          "type": "bool"
        }
      ],
      "payable": false,
      "stateMutability": "nonpayable",
      "type": "function"
    },
    {
      "constant": false,
      "inputs": [
        {
          "name": "_from",
          "type": "address"
        },
        {
          "name": "_to",
          "type": "address"
        },
        {
          "name": "_amount",
          "type": "uint256"
        }
      ],
      "name": "transferFrom",
      "outputs": [
        {
          "name": "success",
          "type": "bool"
        }
      ],
      "payable": false,
      "stateMutability": "nonpayable",
      "type": "function"
    },
    {
      "constant": false,
      "inputs": [
        {
          "name": "_spender",
          "type": "address"
        },
        {
          "name": "_amount",
          "type": "uint256"
        }
      ],
      "name": "approve",
      "outputs": [
        {
          "name": "success",
          "type": "bool"
        }
      ],
      "payable": false,
      "stateMutability": "nonpayable",
      "type": "function"
    },
    {
      "constant": false,
      "inputs": [
        {
          "name": "_spender",
          "type": "address"
        },
        {
          "name": "_addedValue",
          "type": "uint256"
        }
      ],
      "name": "increaseApproval",
      "outputs": [
        {
          "name": "",
          "type": "bool"
        }
      ],
      "payable": false,
      "stateMutability": "nonpayable",
      "type": "function"
    },
    {
      "constant": false,
      "inputs": [
        {
          "name": "_spender",
          "type": "address"
        },
        {
          "name": "_subtractedValue",
          "type": "uint256"
        }
      ],
      "name": "decreaseApproval",
      "outputs": [
        {
          "name": "",
          "type": "bool"
        }
      ],
      "payable": false,
      "stateMutability": "nonpayable",
      "type": "function"
    },
    {
      "constant": true,
      "inputs": [
        {
          "name": "_owner",
          "type": "address"
        },
        {
          "name": "_spender",
          "type": "address"
        }
      ],
      "name": "allowance",
      "outputs": [
        {
          "name": "remaining",
          "type": "uint256"
        }
      ],
      "payable": false,
      "stateMutability": "view",
      "type": "function"
    },
    {
      "constant": false,
      "inputs": [],
      "name": "finishMinting",
      "outputs": [
        {
          "name": "",
          "type": "bool"
        }
      ],
      "payable": false,
      "stateMutability": "nonpayable",
      "type": "function"
    },
    {
      "constant": false,
      "inputs": [
        {
          "name": "enable",
          "type": "bool"
        }
      ],
      "name": "enableBurn",
      "outputs": [
        {
          "name": "",
          "type": "bool"
        }
      ],
      "payable": false,
      "stateMutability": "nonpayable",
      "type": "function"
    }
  ],
  "bytecode": "0x608060405260018054600160a060020a03191673991a1bcb077599290d7305493c9a630c20f8b7981790556008805460ff191690553480156200004157600080fd5b5060008054600160a060020a0319163317905560408051808201909152600a81527f4552433230546f6b656e0000000000000000000000000000000000000000000060208201526200009d9030640100000000620000ec810204565b60408051808201909152600b81527f455243373737546f6b656e0000000000000000000000000000000000000000006020820152620000e69030640100000000620000ec810204565b62000247565b6000826040516020018082805190602001908083835b60208310620001235780518252601f19909201916020918201910162000102565b6001836020036101000a0380198251168184511680821785525050505050509050019150506040516020818303038152906040526040518082805190602001908083835b60208310620001885780518252601f19909201916020918201910162000167565b5181516020939093036101000a6000190180199091169216919091179052604080519190930181900381206001547f29965a1d00000000000000000000000000000000000000000000000000000000835230600484015260248301829052600160a060020a03898116604485015294519197509390931694506329965a1d9350606480820193600093509182900301818387803b1580156200022957600080fd5b505af11580156200023e573d6000803e3d6000fd5b50505050505050565b61268680620002576000396000f3006080604052600436106101715763ffffffff60e060020a60003504166306fdde038114610176578063095ea7b31461020057806318160ddd1461023857806318e011991461025f57806323b872dd146102fd578063313ce5671461032757806340c10f19146103525780634dfc1c3814610376578063556f0dc7146103df5780635f3e849f146103f457806362ad1b831461041e57806366188463146104cb5780636b9a0e5d146104ef57806370a082311461059f578063715018a6146105c05780637d64bcb4146105d557806381de274c146105ea5780638da5cb5b1461060b578063959b8c3f1461063c57806395d89b41146101765780639bd9bbc61461065d578063a9059cbb146106c6578063c19d93fb146106ea578063d568d3e814610723578063d73dd623146107d3578063d95b6371146107f7578063dd62ed3e1461081e578063f229abbd14610845578063f2fde38b1461085f578063f445334114610880578063fad8b32a146108e9575b600080fd5b34801561018257600080fd5b5061018b61090a565b6040805160208082528351818301528351919283929083019185019080838360005b838110156101c55781810151838201526020016101ad565b50505050905090810190601f1680156101f25780820380516001836020036101000a031916815260200191505b509250505060405180910390f35b34801561020c57600080fd5b50610224600160a060020a0360043516602435610941565b604080519115158252519081900360200190f35b34801561024457600080fd5b5061024d6109a8565b60408051918252519081900360200190f35b34801561026b57600080fd5b5060408051602060046024803582810135601f81018590048502860185019096528585526102fb95833595369560449491939091019190819084018382808284375050604080516020601f89358b018035918201839004830284018301909452808352979a9998810197919650918201945092508291508401838280828437509497506109ae9650505050505050565b005b34801561030957600080fd5b50610224600160a060020a0360043581169060243516604435610bec565b34801561033357600080fd5b5061033c610ca9565b6040805160ff9092168252519081900360200190f35b34801561035e57600080fd5b506102fb600160a060020a0360043516602435610cae565b34801561038257600080fd5b50604080516020600460443581810135601f81018490048402850184019095528484526102fb948235600160a060020a0316946024803595369594606494920191908190840183828082843750949750610e4d9650505050505050565b3480156103eb57600080fd5b5061024d610ea4565b34801561040057600080fd5b506102fb600160a060020a0360043581169060243516604435610ea9565b34801561042a57600080fd5b50604080516020601f6064356004818101359283018490048402850184019095528184526102fb94600160a060020a03813581169560248035909216956044359536956084940191819084018382808284375050604080516020601f89358b018035918201839004830284018301909452808352979a999881019791965091820194509250829150840183828082843750949750610f7d9650505050505050565b3480156104d757600080fd5b50610224600160a060020a0360043516602435610fa9565b3480156104fb57600080fd5b50604080516020601f60643560048181013592830184900484028501840190955281845261022494600160a060020a03813516946024803595604435953695608494930191819084018382808284375050604080516020601f818a01358b0180359182018390048302840183018552818452989b8a359b909a9099940197509195509182019350915081908401838280828437509497506110999650505050505050565b3480156105ab57600080fd5b5061024d600160a060020a03600435166110b8565b3480156105cc57600080fd5b506102fb6110d3565b3480156105e157600080fd5b5061022461113f565b3480156105f657600080fd5b5061024d600160a060020a03600435166111fb565b34801561061757600080fd5b5061062061120d565b60408051600160a060020a039092168252519081900360200190f35b34801561064857600080fd5b506102fb600160a060020a036004351661121c565b34801561066957600080fd5b50604080516020600460443581810135601f81018490048402850184019095528484526102fb948235600160a060020a031694602480359536959460649492019190819084018382808284375094975061128b9650505050505050565b3480156106d257600080fd5b50610224600160a060020a03600435166024356112b0565b3480156106f657600080fd5b506106ff6112eb565b6040518082600281111561070f57fe5b60ff16815260200191505060405180910390f35b34801561072f57600080fd5b50604080516020601f60643560048181013592830184900484028501840190955281845261022494600160a060020a03813516946024803595604435953695608494930191819084018382808284375050604080516020601f818a01358b0180359182018390048302840183018552818452989b8a359b909a9099940197509195509182019350915081908401838280828437509497506112f49650505050505050565b3480156107df57600080fd5b50610224600160a060020a0360043516602435611306565b34801561080357600080fd5b50610224600160a060020a036004358116906024351661139f565b34801561082a57600080fd5b5061024d600160a060020a03600435811690602435166113ed565b34801561085157600080fd5b506102246004351515611418565b34801561086b57600080fd5b506102fb600160a060020a0360043516611499565b34801561088c57600080fd5b50604080516020600460443581810135601f81018490048402850184019095528484526102fb948235600160a060020a03169460248035953695946064949201919081908401838280828437509497506114bc9650505050505050565b3480156108f557600080fd5b506102fb600160a060020a0360043516611513565b60408051808201909152600481527f4e4f494100000000000000000000000000000000000000000000000000000000602082015290565b336000818152600560209081526040808320600160a060020a038716808552908352818420869055815186815291519394909390927f8c5be1e5ebec7d5bd14f71427d1e84f3dd0314c0f7b2291e5b200ac8c7c3b925928290030190a35060015b92915050565b60025490565b600260085460ff1660028111156109c157fe5b14610a16576040805160e560020a62461bcd02815260206004820152601760248201527f4e6f7420696e20274275726e696e672720737461746521000000000000000000604482015290519081900360640190fd5b610a1f8361157f565b610a2e333360008686866115ab565b33600090815260036020526040902054831115610a4a57600080fd5b33600090815260036020526040902054610a6a908463ffffffff61178716565b33600090815260036020526040902055600254610a8d908463ffffffff61178716565b60028190555033600160a060020a031633600160a060020a03167fa78a9be3a7b862d26933ad85fb11d80ef66b8f972d7cbba06621d583943a4098858585604051808481526020018060200180602001838103835285818151815260200191508051906020019080838360005b83811015610b12578181015183820152602001610afa565b50505050905090810190601f168015610b3f5780820380516001836020036101000a031916815260200191505b50838103825284518152845160209182019186019080838360005b83811015610b72578181015183820152602001610b5a565b50505050905090810190601f168015610b9f5780820380516001836020036101000a031916815260200191505b509550505050505060405180910390a360408051848152905160009133917fddf252ad1be2c89b69c2b068fc378daa952ba7f163c4a11628f55a4df523b3ef9181900360200190a3505050565b600160a060020a0383166000908152600560209081526040808320338452909152812054821115610c1c57600080fd5b600160a060020a0384166000908152600560209081526040808320338452909152902054610c50908363ffffffff61178716565b600160a060020a03851660009081526005602090815260408083203380855290835281842094909455805180830182528381528151928301909152828252610c9f938893889388939291611799565b5060019392505050565b601290565b600054600160a060020a03163314610cc557600080fd5b600060085460ff166002811115610cd857fe5b14610d2d576040805160e560020a62461bcd02815260206004820152601760248201527f4e6f7420696e20274d696e74696e672720737461746521000000000000000000604482015290519081900360640190fd5b610d368161157f565b600254610d49908263ffffffff611a9416565b600255600160a060020a038216600090815260036020526040902054610d75908263ffffffff611a9416565b600160a060020a038316600090815260036020908152604080832093909355825180820184528281528351918201909352818152610dbb92339291869186916001611aa1565b60408051828152602081018290526000818301529051600160a060020a0384169133917fbcd28e05e57d4bcd5bfcc92a4661d412893e6112c44a2e25d96cfdfc30d5f22e9181900360800190a3604080518281529051600160a060020a038416916000917fddf252ad1be2c89b69c2b068fc378daa952ba7f163c4a11628f55a4df523b3ef9181900360200190a35050565b6000610e5c6001858585611c9b565b905080600160a060020a031684600160a060020a03167ff4caeb2d6ca8932a215a353d0703c326ec2d81fc68170f320eb2ab49e9df61f960405160405180910390a350505050565b600190565b60008054600160a060020a03163314610ec157600080fd5b604080517f70a082310000000000000000000000000000000000000000000000000000000081523060048201529051600160a060020a038616916370a082319160248083019260209291908290030181600087803b158015610f2257600080fd5b505af1158015610f36573d6000803e3d6000fd5b505050506040513d6020811015610f4c57600080fd5b5051905081811015610f5d57600080fd5b610f77600160a060020a038516848463ffffffff611e3816565b50505050565b610f87338661139f565b1515610f9257600080fd5b610fa28585858533866001611799565b5050505050565b336000908152600560209081526040808320600160a060020a038616845290915281205480831115610ffe57336000908152600560209081526040808320600160a060020a0388168452909152812055611033565b61100e818463ffffffff61178716565b336000908152600560209081526040808320600160a060020a03891684529091529020555b336000818152600560209081526040808320600160a060020a0389168085529083529281902054815190815290519293927f8c5be1e5ebec7d5bd14f71427d1e84f3dd0314c0f7b2291e5b200ac8c7c3b925929181900390910190a35060019392505050565b60006110ab8787878787876001611ed2565b5060019695505050505050565b600160a060020a031660009081526003602052604090205490565b600054600160a060020a031633146110ea57600080fd5b60008054604051600160a060020a03909116917ff8df31144d9c2f0f6b59d69b8b98abd5459d07f2742c4df920b25aae33c6482091a26000805473ffffffffffffffffffffffffffffffffffffffff19169055565b60008054600160a060020a0316331461115757600080fd5b600060085460ff16600281111561116a57fe5b146111bf576040805160e560020a62461bcd02815260206004820152601760248201527f4e6f7420696e20274d696e74696e672720737461746521000000000000000000604482015290519081900360640190fd5b6008805460ff191660011790556040517fae5184fba832cb2b1f702aca6117b8d265eaf03ad33eb133f19dde0f5920fa0890600090a150600190565b60066020526000908152604090205481565b600054600160a060020a031681565b600160a060020a03811633141561123257600080fd5b600160a060020a0381166000818152600460209081526040808320338085529252808320805460ff19166001179055519092917ff4caeb2d6ca8932a215a353d0703c326ec2d81fc68170f320eb2ab49e9df61f991a350565b6112ab338484843360206040519081016040528060008152506001611799565b505050565b60006112e233848460206040519081016040528060008152503360206040519081016040528060008152506000611799565b50600192915050565b60085460ff1681565b60006110ab8787878787876000611ed2565b336000908152600560209081526040808320600160a060020a038616845290915281205461133a908363ffffffff611a9416565b336000818152600560209081526040808320600160a060020a0389168085529083529281902085905580519485525191937f8c5be1e5ebec7d5bd14f71427d1e84f3dd0314c0f7b2291e5b200ac8c7c3b925929081900390910190a350600192915050565b600081600160a060020a031683600160a060020a031614806113e65750600160a060020a0380841660009081526004602090815260408083209386168352929052205460ff165b9392505050565b600160a060020a03918216600090815260056020908152604080832093909416825291909152205490565b60008054600160a060020a0316331461143057600080fd5b600160085460ff16600281111561144357fe5b148061145f5750600260085460ff16600281111561145d57fe5b145b151561146a57600080fd5b81611476576001611479565b60025b6008805460ff1916600183600281111561148f57fe5b0217905550919050565b600054600160a060020a031633146114b057600080fd5b6114b981612292565b50565b60006114cb6000858585611c9b565b905080600160a060020a031684600160a060020a03167f50546e66e5f44d728365dc3908c63bc5cfeeab470722c1677e3073a6ac294aa160405160405180910390a350505050565b600160a060020a03811633141561152957600080fd5b600160a060020a0381166000818152600460209081526040808320338085529252808320805460ff19169055519092917f50546e66e5f44d728365dc3908c63bc5cfeeab470722c1677e3073a6ac294aa191a350565b806115a16001611595838263ffffffff61230f16565b9063ffffffff61232416565b146114b957600080fd5b60006115ec866040805190810160405280601281526020017f455243373737546f6b656e7353656e646572000000000000000000000000000081525061234d565b9050600160a060020a0381161561177e5780600160a060020a03166375ab97828888888888886040518763ffffffff1660e060020a0281526004018087600160a060020a0316600160a060020a0316815260200186600160a060020a0316600160a060020a0316815260200185600160a060020a0316600160a060020a031681526020018481526020018060200180602001838103835285818151815260200191508051906020019080838360005b838110156116b357818101518382015260200161169b565b50505050905090810190601f1680156116e05780820380516001836020036101000a031916815260200191505b50838103825284518152845160209182019186019080838360005b838110156117135781810151838201526020016116fb565b50505050905090810190601f1680156117405780820380516001836020036101000a031916815260200191505b5098505050505050505050600060405180830381600087803b15801561176557600080fd5b505af1158015611779573d6000803e3d6000fd5b505050505b50505050505050565b60008282111561179357fe5b50900390565b600160085460ff1660028111156117ac57fe5b14806117c85750600260085460ff1660028111156117c657fe5b145b1515611843576040805160e560020a62461bcd028152602060048201526024808201527f4e6f7420696e202754726164696e6727206f7220274275726e696e672720737460448201527f6174652100000000000000000000000000000000000000000000000000000000606482015290519081900360840190fd5b61184c8561157f565b61185a8388888888876115ab565b600160a060020a038616151561186f57600080fd5b600160a060020a03871660009081526003602052604090205485111561189457600080fd5b600160a060020a0387166000908152600360205260409020546118bd908663ffffffff61178716565b600160a060020a0380891660009081526003602052604080822093909355908816815220546118f2908663ffffffff611a9416565b600160a060020a03871660009081526003602052604090205561191a83888888888787611aa1565b85600160a060020a031687600160a060020a031684600160a060020a03167f06b541ddaa720db2b10a4d0cdac39b8d360425fc073085fac19bc82614677987888887604051808481526020018060200180602001838103835285818151815260200191508051906020019080838360005b838110156119a357818101518382015260200161198b565b50505050905090810190601f1680156119d05780820380516001836020036101000a031916815260200191505b50838103825284518152845160209182019186019080838360005b83811015611a035781810151838201526020016119eb565b50505050905090810190601f168015611a305780820380516001836020036101000a031916815260200191505b509550505050505060405180910390a485600160a060020a031687600160a060020a03167fddf252ad1be2c89b69c2b068fc378daa952ba7f163c4a11628f55a4df523b3ef876040518082815260200191505060405180910390a350505050505050565b818101828110156109a257fe5b6000611ae2866040805190810160405280601581526020017f455243373737546f6b656e73526563697069656e74000000000000000000000081525061234d565b9050600160a060020a03811615611c775780600160a060020a03166223de298989898989896040518763ffffffff1660e060020a0281526004018087600160a060020a0316600160a060020a0316815260200186600160a060020a0316600160a060020a0316815260200185600160a060020a0316600160a060020a031681526020018481526020018060200180602001838103835285818151815260200191508051906020019080838360005b83811015611ba8578181015183820152602001611b90565b50505050905090810190601f168015611bd55780820380516001836020036101000a031916815260200191505b50838103825284518152845160209182019186019080838360005b83811015611c08578181015183820152602001611bf0565b50505050905090810190601f168015611c355780820380516001836020036101000a031916815260200191505b5098505050505050505050600060405180830381600087803b158015611c5a57600080fd5b505af1158015611c6e573d6000803e3d6000fd5b50505050611c91565b8115611c9157611c86866124b1565b1515611c9157600080fd5b5050505050505050565b604080516c01000000000000000000000000308102602080840191909152600160a060020a0387169091026034830152604882018590527f01000000000000000000000000000000000000000000000000000000000000008715150260688301528251604981840301815260699092019283905281516000938493611d89938793611d7d93918291908401908083835b60208310611d4a5780518252601f199092019160209182019101611d2b565b5181516020939093036101000a6000190180199091169216919091179052604051920182900390912092506124db915050565b9063ffffffff61258516565b9050600160a060020a0381161515611da057600080fd5b600160a060020a038581169082161415611db957600080fd5b600160a060020a0381166000908152600660205260409020548414611ddd57600080fd5b611dee84600163ffffffff611a9416565b600160a060020a03808316600081815260066020908152604080832095909555928916815260048352838120918152915220805487151560ff199091161790559050949350505050565b82600160a060020a031663a9059cbb83836040518363ffffffff1660e060020a0281526004018083600160a060020a0316600160a060020a0316815260200182815260200192505050602060405180830381600087803b158015611e9b57600080fd5b505af1158015611eaf573d6000803e3d6000fd5b505050506040513d6020811015611ec557600080fd5b505115156112ab57600080fd5b6060600080600160a060020a038a161515611eec57600080fd5b600160a060020a038a16301415611f0257600080fd5b6007856040518082805190602001908083835b60208310611f345780518252601f199092019160209182019101611f15565b51815160209384036101000a600019018019909216911617905292019485525060405193849003019092205460ff16159150611f71905057600080fd5b60016007866040518082805190602001908083835b60208310611fa55780518252601f199092019160209182019101611f86565b51815160209384036101000a60001901801990921691161790529201948552506040519384900301909220805460ff191693151593909317909255505083156120b757308a8a8a8a8a6040516020018087600160a060020a0316600160a060020a03166c0100000000000000000000000002815260140186600160a060020a0316600160a060020a03166c0100000000000000000000000002815260140185815260200184815260200183805190602001908083835b6020831061207a5780518252601f19909201916020918201910161205b565b51815160209384036101000a60001901801990921691161790529201938452506040805180850381529390910190525097506121aa945050505050565b308a8a8a8a8a6040516020018087600160a060020a0316600160a060020a03166c0100000000000000000000000002815260140186600160a060020a0316600160a060020a03166c0100000000000000000000000002815260140185815260200184815260200183805190602001908083835b602083106121495780518252601f19909201916020918201910161212a565b51815160209384036101000a60001901801990921691161790529201938452507f4552433230436f6d706174000000000000000000000000000000000000000000908301525060408051600b818403018152602b9092019052975050505050505b6121e085611d7d8560405180828051906020019080838360208310611d4a5780518252601f199092019160209182019101611d2b565b9150600160a060020a03821615156121f757600080fd5b612207898963ffffffff611a9416565b600160a060020a03831660009081526003602052604090205490915081111561222f57600080fd5b61224e828b8b8a3360206040519081016040528060008152508a611799565b60008811156122865761228682338a60206040519081016040528060008152503360206040519081016040528060008152508a611799565b50505050505050505050565b600160a060020a03811615156122a757600080fd5b60008054604051600160a060020a03808516939216917f8be0079c531659141344cd1fd0a4f28419497f9722a3daafe3b4186f6b6457e091a36000805473ffffffffffffffffffffffffffffffffffffffff1916600160a060020a0392909216919091179055565b6000818381151561231c57fe5b049392505050565b6000821515612335575060006109a2565b5081810281838281151561234557fe5b04146109a257fe5b600080826040516020018082805190602001908083835b602083106123835780518252601f199092019160209182019101612364565b6001836020036101000a0380198251168184511680821785525050505050509050019150506040516020818303038152906040526040518082805190602001908083835b602083106123e65780518252601f1990920191602091820191016123c7565b51815160209384036101000a6000190180199092169116179052604080519290940182900382206001547faabbb8ca000000000000000000000000000000000000000000000000000000008452600160a060020a038c8116600486015260248501839052955191985094909416955063aabbb8ca945060448083019491935090918290030181600087803b15801561247d57600080fd5b505af1158015612491573d6000803e3d6000fd5b505050506040513d60208110156124a757600080fd5b5051949350505050565b600080600160a060020a03831615156124cd57600091506124d5565b5050803b8015905b50919050565b604080517f19457468657265756d205369676e6564204d6573736167653a0a333200000000602080830191909152603c80830185905283518084039091018152605c909201928390528151600093918291908401908083835b602083106125535780518252601f199092019160209182019101612534565b5181516020939093036101000a6000190180199091169216919091179052604051920182900390912095945050505050565b6000806000808451604114151561259f5760009350612651565b50505060208201516040830151606084015160001a601b60ff821610156125c457601b015b8060ff16601b141580156125dc57508060ff16601c14155b156125ea5760009350612651565b60408051600080825260208083018085528a905260ff8516838501526060830187905260808301869052925160019360a0808501949193601f19840193928390039091019190865af1158015612644573d6000803e3d6000fd5b5050506020604051035193505b505050929150505600a165627a7a72305820203671f5c6bea9699b40afc32cc78c32b12fa10703f97fe852f6f15e7565e3590029",
  "source": "pragma solidity 0.4.24;\n\nimport \"openzeppelin-solidity/contracts/ownership/Ownable.sol\";\nimport \"openzeppelin-solidity/contracts/math/SafeMath.sol\";\n\nimport \"./eip820/contracts/ERC820Implementer.sol\";\nimport \"./erc777/contracts/ERC20Token.sol\";\nimport \"./erc777/contracts/ERC777Token.sol\";\nimport \"./erc777/contracts/ERC777TokensSender.sol\";\nimport \"./erc777/contracts/ERC777TokensRecipient.sol\";\nimport \"./TokenRecoverable.sol\";\nimport \"./ECRecovery.sol\";\n\n\ncontract NOIAToken is TokenRecoverable, ERC20Token, ERC777Token, ERC820Implementer {\n    using SafeMath for uint256;\n    using ECRecovery for bytes32;\n\n    enum State { Minting, Trading, Burning }\n\n    string private constant name_ = \"NOIA\";\n    string private constant symbol_ = \"NOIA\";\n\n    uint256 private constant granularity_ = 1;\n    uint256 private totalSupply_;\n\n    mapping(address => uint256) private balances;\n    mapping(address => mapping(address => bool)) private authorized;\n    mapping(address => mapping(address => uint256)) private allowed;\n    mapping(address => uint256) public authorizationNonces;\n    mapping(bytes => bool) private signatures;\n\n    State public state = State.Minting;\n\n    event MintFinished();\n\n    /// @notice Constructor to create a NOIAToken\n    constructor() public {\n        setInterfaceImplementation(\"ERC20Token\", address(this));\n        setInterfaceImplementation(\"ERC777Token\", address(this));\n    }\n\n    modifier canMint() {\n        require(state == State.Minting, \"Not in 'Minting' state!\");\n        _;\n    }       \n\n    modifier canTrade() {\n        require(state == State.Trading || state == State.Burning, \"Not in 'Trading' or 'Burning' state!\");\n        _;\n    }\n\n    modifier canBurn() {\n        require(state == State.Burning, \"Not in 'Burning' state!\");\n        _;\n    }\n\n    /* -- ERC777 Interface Implementation -- */\n    //\n    /// @return the name of the token\n    function name() public view returns (string) { return name_; }\n\n    /// @return the symbol of the token\n    function symbol() public view returns (string) { return symbol_; }\n\n    /// @return the granularity of the token\n    function granularity() public view returns (uint256) { return granularity_; }\n\n    /// @return the total supply of the token\n    function totalSupply() public view returns (uint256) { return totalSupply_; }\n\n    /// @notice Return the account balance of some account\n    /// @param _tokenHolder Address for which the balance is returned\n    /// @return the balance of `_tokenAddress`.\n    function balanceOf(address _tokenHolder) public view returns (uint256) { return balances[_tokenHolder]; }\n\n    /// @notice sends tokens using signature to recover token sender\n    /// @param _to the address of the recepient\n    /// @param _amount tokens to send\n    /// @param _fee amound of tokens which goes to msg.sender\n    /// @param _data arbitrary user data\n    /// @param _nonce value to protect from replay attacks\n    /// @param _sig concatenated r,s,v values\n    /// @return `true` if the token transfer is success, otherwise should fail\n    function sendByCheque(address _to, uint256 _amount, uint256 _fee, bytes _data, uint256 _nonce, bytes _sig) public returns (bool) {\n        doSendByCheque(_to, _amount, _fee, _data, _nonce, _sig, true);\n        return true;\n    }\n\n    /// @notice transfers tokens in ERC20 compatible way using signature to recover token sender\n    /// @param _to the address of the recepient\n    /// @param _amount tokens to transfer\n    /// @param _fee amound of tokens which goes to msg.sender\n    /// @param _data arbitrary user data\n    /// @param _nonce value to protect from replay attacks\n    /// @param _sig concatenated r,s,v values\n    /// @return `true` if the token transfer is success, otherwise should fail\n    function transferByCheque(address _to, uint256 _amount, uint256 _fee, bytes _data, uint256 _nonce, bytes _sig) public returns (bool) {\n        doSendByCheque(_to, _amount, _fee, _data, _nonce, _sig, false);\n        return true;\n    }\n\n    /// @notice Send `_amount` of tokens to address `_to` passing `_userData` to the recipient\n    /// @param _to The address of the recipient\n    /// @param _amount The number of tokens to be sent\n    function send(address _to, uint256 _amount, bytes _userData) public {\n        doSend(msg.sender, _to, _amount, _userData, msg.sender, \"\", true);\n    }\n\n    /// @notice Authorize a third party `_operator` to manage (send) `msg.sender`'s tokens.\n    /// @param _operator The operator that wants to be Authorized\n    function authorizeOperator(address _operator) public {\n        require(_operator != msg.sender);\n        authorized[_operator][msg.sender] = true;\n        emit AuthorizedOperator(_operator, msg.sender);\n    }\n\n    /// @notice Revoke a third party `_operator`'s rights to manage (send) `msg.sender`'s tokens.\n    /// @param _operator The operator that wants to be Revoked\n    function revokeOperator(address _operator) public {\n        require(_operator != msg.sender);\n        authorized[_operator][msg.sender] = false;\n        emit RevokedOperator(_operator, msg.sender);\n    }\n\n    /// @notice Authorize a third party `_operator` to manage (send) `msg.sender`'s tokens with issued signature.\n    /// @param _operator The operator that wants to be Authorized\n    function authorizeOperatorWithSignature(address _operator, uint256 _nonce, bytes _sig) public {\n        address signer = doOperatorAuthorizationWithSignature(true, _operator, _nonce, _sig);\n        emit AuthorizedOperator(_operator, signer);\n    }\n\n    /// @notice Revoke a third party `_operator`'s rights to manage (send) `msg.sender`'s tokens with issued signature.\n    /// @param _operator The operator that wants to be Revoked\n    function revokeOperatorWithSignature(address _operator, uint256 _nonce, bytes _sig) public {\n        address signer = doOperatorAuthorizationWithSignature(false, _operator, _nonce, _sig);\n        emit RevokedOperator(_operator, signer);\n    }\n\n    /// @notice Check whether the `_operator` address is allowed to manage the tokens held by `_tokenHolder` address.\n    /// @param _operator address to check if it has the right to manage the tokens\n    /// @param _tokenHolder address which holds the tokens to be managed\n    /// @return `true` if `_operator` is authorized for `_tokenHolder`\n    function isOperatorFor(address _operator, address _tokenHolder) public view returns (bool) {\n        return _operator == _tokenHolder || authorized[_operator][_tokenHolder];\n    }\n\n    /// @notice Send `_amount` of tokens on behalf of the address `from` to the address `to`.\n    /// @param _from The address holding the tokens being sent\n    /// @param _to The address of the recipient\n    /// @param _amount The number of tokens to be sent\n    /// @param _userData Data generated by the user to be sent to the recipient\n    /// @param _operatorData Data generated by the operator to be sent to the recipient\n    function operatorSend(address _from, address _to, uint256 _amount, bytes _userData, bytes _operatorData) public {\n        require(isOperatorFor(msg.sender, _from));\n        doSend(_from, _to, _amount, _userData, msg.sender, _operatorData, true);\n    }\n\n    /* -- Mint And Burn Functions (not part of the ERC777 standard, only the Events/tokensReceived are) -- */\n    //\n    /// @notice Generates `_amount` tokens to be assigned to `_tokenHolder`\n    ///  Sample mint function to showcase the use of the `Minted` event and the logic to notify the recipient.\n    /// @param _tokenHolder The address that will be assigned the new tokens\n    /// @param _amount The quantity of tokens generated\n    function mint(address _tokenHolder, uint256 _amount) public onlyOwner canMint {\n        requireMultiple(_amount);\n        totalSupply_ = totalSupply_.add(_amount);\n        balances[_tokenHolder] = balances[_tokenHolder].add(_amount);\n\n        callRecipient(msg.sender, address(0), _tokenHolder, _amount, \"\", \"\", true);\n\n        emit Minted(msg.sender, _tokenHolder, _amount, \"\");\n        emit Transfer(address(0), _tokenHolder, _amount);\n    }\n\n    /// @notice Burns `_amount` tokens from `_tokenHolder`\n    /// Sample burn function to showcase the use of the `Burned` event.\n    /// @param _amount The quantity of tokens to burn\n    function burn(uint256 _amount, bytes _userData, bytes _operatorData) public canBurn {\n        requireMultiple(_amount);\n\n        callSender(msg.sender, msg.sender, address(0), _amount, _userData, _operatorData);\n\n        require(balances[msg.sender] >= _amount);\n\n        balances[msg.sender] = balances[msg.sender].sub(_amount);\n        totalSupply_ = totalSupply_.sub(_amount);\n\n        emit Burned(msg.sender, msg.sender, _amount, _userData, _operatorData);\n        emit Transfer(msg.sender, address(0), _amount);\n    }\n\n    /// @notice For Backwards compatibility\n    /// @return The decimls of the token. Forced to 18 in ERC777.\n    function decimals() public view returns (uint8) { return uint8(18); }\n\n    /// @notice ERC20 backwards compatible transfer.\n    /// @param _to The address of the recipient\n    /// @param _amount The number of tokens to be transferred\n    /// @return `true`, if the transfer can't be done, it should fail.\n    function transfer(address _to, uint256 _amount) public returns (bool success) {\n        doSend(msg.sender, _to, _amount, \"\", msg.sender, \"\", false);\n        return true;\n    }\n\n    /// @notice ERC20 backwards compatible transferFrom.\n    /// @param _from The address holding the tokens being transferred\n    /// @param _to The address of the recipient\n    /// @param _amount The number of tokens to be transferred\n    /// @return `true`, if the transfer can't be done, it should fail.\n    function transferFrom(address _from, address _to, uint256 _amount) public returns (bool success) {\n        require(_amount <= allowed[_from][msg.sender]);\n\n        // Cannot be after doSend because of tokensReceived re-entry\n        allowed[_from][msg.sender] = allowed[_from][msg.sender].sub(_amount);\n        doSend(_from, _to, _amount, \"\", msg.sender, \"\", false);\n        return true;\n    }\n\n    /**\n    * @dev Approve the passed address to spend the specified amount of tokens on behalf of msg.sender.\n    *\n    * Beware that changing an allowance with this method brings the risk that someone may use both the old\n    * and the new allowance by unfortunate transaction ordering. One possible solution to mitigate this\n    * race condition is to first reduce the spender's allowance to 0 and set the desired value afterwards:\n    * https://github.com/ethereum/EIPs/issues/20#issuecomment-263524729\n    * @param _spender The address which will spend the funds.\n    * @param _amount The amount of tokens to be spent.\n    */\n    function approve(address _spender, uint256 _amount) public returns (bool success) {\n        allowed[msg.sender][_spender] = _amount;\n        emit Approval(msg.sender, _spender, _amount);\n        return true;\n    }\n\n    /**\n    * @dev Increase the amount of tokens that an owner allowed to a spender.\n    *\n    * approve should be called when allowed[_spender] == 0. To increment\n    * allowed value is better to use this function to avoid 2 calls (and wait until\n    * the first transaction is mined)\n    * From MonolithDAO Token.sol\n    * @param _spender The address which will spend the funds.\n    * @param _addedValue The amount of tokens to increase the allowance by.\n    */\n    function increaseApproval(address _spender, uint256 _addedValue) public returns (bool) {\n        allowed[msg.sender][_spender] = allowed[msg.sender][_spender].add(_addedValue);\n        emit Approval(msg.sender, _spender, allowed[msg.sender][_spender]);\n        return true;\n    }\n\n    /**\n    * @dev Decrease the amount of tokens that an owner allowed to a spender.\n    *\n    * approve should be called when allowed[_spender] == 0. To decrement\n    * allowed value is better to use this function to avoid 2 calls (and wait until\n    * the first transaction is mined)\n    * From MonolithDAO Token.sol\n    * @param _spender The address which will spend the funds.\n    * @param _subtractedValue The amount of tokens to decrease the allowance by.\n    */\n    function decreaseApproval(address _spender, uint256 _subtractedValue) public returns (bool) {\n        uint256 oldValue = allowed[msg.sender][_spender];\n        if (_subtractedValue > oldValue) {\n            allowed[msg.sender][_spender] = 0;\n        } else {\n            allowed[msg.sender][_spender] = oldValue.sub(_subtractedValue);\n        }\n        emit Approval(msg.sender, _spender, allowed[msg.sender][_spender]);\n        return true;\n    }\n\n    /// @notice ERC20 backwards compatible allowance.\n    ///  This function makes it easy to read the `allowed[]` map\n    /// @param _owner The address of the account that owns the token\n    /// @param _spender The address of the account able to transfer the tokens\n    /// @return Amount of remaining tokens of _owner that _spender is allowed\n    ///  to spend\n    function allowance(address _owner, address _spender) public view returns (uint256 remaining) {\n        return allowed[_owner][_spender];\n    }\n\n    /**\n     * @dev Function to stop minting new tokens.\n     * @return True if the operation was successful.\n     */\n    function finishMinting() public onlyOwner canMint returns (bool) {\n        state = State.Trading;\n        emit MintFinished();\n        return true;\n    }\n\n    function enableBurn(bool enable) public onlyOwner returns (bool) {\n        require(state == State.Trading || state == State.Burning);\n        state = (enable ? State.Burning : State.Trading);\n    }\n\n    /* -- Helper Functions -- */\n    //\n    /// @notice Internal function that ensures `_amount` is multiple of the granularity\n    /// @param _amount The quantity that want's to be checked\n    function requireMultiple(uint256 _amount) internal pure {\n        require(_amount.div(granularity_).mul(granularity_) == _amount);\n    }\n\n    /// @notice Check whether an address is a regular address or not.\n    /// @param _addr Address of the contract that has to be checked\n    /// @return `true` if `_addr` is a regular address (not a contract)\n    function isRegularAddress(address _addr) internal view returns (bool) {\n        if (_addr == 0) { return false; }\n        uint size;\n        assembly { size := extcodesize(_addr) } // solhint-disable-line no-inline-assembly\n        return size == 0;\n    }\n\n    /// @notice Helper function actually performing the sending of tokens.\n    /// @param _from The address holding the tokens being sent\n    /// @param _to The address of the recipient\n    /// @param _amount The number of tokens to be sent\n    /// @param _userData Data generated by the user to be passed to the recipient\n    /// @param _operatorData Data generated by the operator to be passed to the recipient\n    /// @param _preventLocking `true` if you want this function to throw when tokens are sent to a contract not\n    ///  implementing `erc777_tokenHolder`.\n    ///  ERC777 native Send functions MUST set this parameter to `true`, and backwards compatible ERC20 transfer\n    ///  functions SHOULD set this parameter to `false`.\n    function doSend(\n        address _from,\n        address _to,\n        uint256 _amount,\n        bytes _userData,\n        address _operator,\n        bytes _operatorData,\n        bool _preventLocking\n    )\n        private\n        canTrade\n    {\n        requireMultiple(_amount);\n\n        callSender(_operator, _from, _to, _amount, _userData, _operatorData);\n\n        require(_to != address(0));          // forbid sending to 0x0 (=burning)\n        require(balances[_from] >= _amount); // ensure enough funds\n\n        balances[_from] = balances[_from].sub(_amount);\n        balances[_to] = balances[_to].add(_amount);\n\n        callRecipient(_operator, _from, _to, _amount, _userData, _operatorData, _preventLocking);\n\n        emit Sent(_operator, _from, _to, _amount, _userData, _operatorData);\n        emit Transfer(_from, _to, _amount);\n    }\n\n    /// @notice Helper function that checks for ERC777TokensRecipient on the recipient and calls it.\n    ///  May throw according to `_preventLocking`\n    /// @param _from The address holding the tokens being sent\n    /// @param _to The address of the recipient\n    /// @param _amount The number of tokens to be sent\n    /// @param _userData Data generated by the user to be passed to the recipient\n    /// @param _operatorData Data generated by the operator to be passed to the recipient\n    /// @param _preventLocking `true` if you want this function to throw when tokens are sent to a contract not\n    ///  implementing `ERC777TokensRecipient`.\n    ///  ERC777 native Send functions MUST set this parameter to `true`, and backwards compatible ERC20 transfer\n    ///  functions SHOULD set this parameter to `false`.\n    function callRecipient(\n        address _operator,\n        address _from,\n        address _to,\n        uint256 _amount,\n        bytes _userData,\n        bytes _operatorData,\n        bool _preventLocking\n    ) private {\n        address recipientImplementation = interfaceAddr(_to, \"ERC777TokensRecipient\");\n        if (recipientImplementation != address(0)) {\n            ERC777TokensRecipient(recipientImplementation).tokensReceived(\n                _operator, _from, _to, _amount, _userData, _operatorData);\n        } else if (_preventLocking) {\n            require(isRegularAddress(_to));\n        }\n    }\n\n    /// @notice Helper function that checks for ERC777TokensSender on the sender and calls it.\n    ///  May throw according to `_preventLocking`\n    /// @param _from The address holding the tokens being sent\n    /// @param _to The address of the recipient\n    /// @param _amount The amount of tokens to be sent\n    /// @param _userData Data generated by the user to be passed to the recipient\n    /// @param _operatorData Data generated by the operator to be passed to the recipient\n    ///  implementing `ERC777TokensSender`.\n    ///  ERC777 native Send functions MUST set this parameter to `true`, and backwards compatible ERC20 transfer\n    ///  functions SHOULD set this parameter to `false`.\n    function callSender(\n        address _operator,\n        address _from,\n        address _to,\n        uint256 _amount,\n        bytes _userData,\n        bytes _operatorData\n    ) private {\n        address senderImplementation = interfaceAddr(_from, \"ERC777TokensSender\");\n        if (senderImplementation != address(0)) {\n            ERC777TokensSender(senderImplementation).tokensToSend(\n                _operator, _from, _to, _amount, _userData, _operatorData);\n        }\n    }\n\n    function doSendByCheque(address _to, uint256 _amount, uint256 _fee, bytes _data, uint256 _nonce, bytes _sig, bool _preventLocking) private {\n        require(_to != address(0));\n        require(_to != address(this)); // token contract does not accept own tokens\n\n        require(signatures[_sig] == false);\n        signatures[_sig] = true;\n\n        bytes memory packed;\n        if (_preventLocking) {\n            packed = abi.encodePacked(address(this), _to, _amount, _fee, _data, _nonce);\n        } else {\n            packed = abi.encodePacked(address(this), _to, _amount, _fee, _data, _nonce, \"ERC20Compat\");\n        }\n\n        address signer = keccak256(packed)\n            .toEthSignedMessageHash()\n            .recover(_sig); // same security considerations as in Ethereum TX\n        \n        require(signer != address(0));\n\n        uint256 total = _amount.add(_fee);\n        require(balances[signer] >= total);\n\n        doSend(signer, _to, _amount, _data, msg.sender, \"\", _preventLocking);\n        if (_fee > 0) {\n            doSend(signer, msg.sender, _fee, \"\", msg.sender, \"\", _preventLocking);\n        }\n    }\n\n    function doOperatorAuthorizationWithSignature(bool _authorize, address _operator, uint256 _nonce, bytes _sig) private returns (address) {\n        address signer = keccak256(abi.encodePacked(address(this), _operator, _nonce, _authorize))\n            .toEthSignedMessageHash()\n            .recover(_sig); // same security considerations as in Ethereum TX\n        require(signer != address(0));\n        require(_operator != signer);\n        require(authorizationNonces[signer] == _nonce);\n        authorizationNonces[signer] = _nonce.add(1);\n        authorized[_operator][signer] = _authorize;\n        return signer;\n    }\n}\n",
  "sourcePath": "noia-token/contracts/NOIAToken.sol",
  "compiler": {
    "name": "solc",
    "version": "0.4.24+commit.e67f0147.Emscripten.clang"
  },
  "schemaVersion": "2.0.1",
  "updatedAt": "2018-09-27T10:13:12.144Z"
}