{
  "contractName": "NoiaBaseContract",
  "abi": [
    {
      "constant": true,
      "inputs": [],
      "name": "version",
      "outputs": [
        {
          "name": "",
          "type": "uint16"
        }
      ],
      "payable": false,
      "stateMutability": "view",
      "type": "function"
    },
    {
      "constant": true,
      "inputs": [],
      "name": "owner",
      "outputs": [
        {
          "name": "",
          "type": "address"
        }
      ],
      "payable": false,
      "stateMutability": "view",
      "type": "function"
    },
    {
      "constant": false,
      "inputs": [
        {
          "name": "_newOwner",
          "type": "address"
        }
      ],
      "name": "changeOwner",
      "outputs": [],
      "payable": false,
      "stateMutability": "nonpayable",
      "type": "function"
    },
    {
      "constant": true,
      "inputs": [],
      "name": "marketplace",
      "outputs": [
        {
          "name": "",
          "type": "address"
        }
      ],
      "payable": false,
      "stateMutability": "view",
      "type": "function"
    },
    {
      "constant": true,
      "inputs": [],
      "name": "factory",
      "outputs": [
        {
          "name": "",
          "type": "address"
        }
      ],
      "payable": false,
      "stateMutability": "view",
      "type": "function"
    },
    {
      "inputs": [
        {
          "name": "factory_",
          "type": "address"
        },
        {
          "name": "marketplace_",
          "type": "address"
        },
        {
          "name": "version_",
          "type": "uint16"
        }
      ],
      "payable": false,
      "stateMutability": "nonpayable",
      "type": "constructor"
    }
  ],
  "bytecode": "0x608060405234801561001057600080fd5b5060405160608061038883398101604090815281516020830151919092015160008054600160a060020a03191633908117909155600160a060020a038416146100df57604080517f08c379a0000000000000000000000000000000000000000000000000000000008152602060048201526024808201527f4f6e6c79206120466163746f72792063616e20637265617465206120636f6e7460448201527f7261637400000000000000000000000000000000000000000000000000000000606482015290519081900360840190fd5b6002805460018054600160a060020a03968716600160a060020a0319918216179091559390941661ffff909216740100000000000000000000000000000000000000000260a060020a61ffff0219909416939093179190911617905561023e8061014a6000396000f30060806040526004361061006c5763ffffffff7c010000000000000000000000000000000000000000000000000000000060003504166354fd4d5081146100715780638da5cb5b1461009d578063a6f9dae1146100ce578063abc8c7af146100f1578063c45a015514610106575b600080fd5b34801561007d57600080fd5b5061008661011b565b6040805161ffff9092168252519081900360200190f35b3480156100a957600080fd5b506100b261013d565b60408051600160a060020a039092168252519081900360200190f35b3480156100da57600080fd5b506100ef600160a060020a036004351661014c565b005b3480156100fd57600080fd5b506100b26101f4565b34801561011257600080fd5b506100b2610203565b60025474010000000000000000000000000000000000000000900461ffff1681565b600054600160a060020a031681565b600054600160a060020a031633146101c557604080517f08c379a000000000000000000000000000000000000000000000000000000000815260206004820152601660248201527f53656e646572206973206e6f7420616e206f776e657200000000000000000000604482015290519081900360640190fd5b6000805473ffffffffffffffffffffffffffffffffffffffff1916600160a060020a0392909216919091179055565b600254600160a060020a031681565b600154600160a060020a0316815600a165627a7a7230582026c1e8f785ac3bfbde513e16a4b9bf75945f392e97cd2d75f9ac2aac224249b00029",
  "source": "pragma solidity ^0.4.11;\n\nimport \"../../abstracts/Owned.sol\";\nimport \"./NoiaMarketplace.sol\";\n\n/**\n * Base contract for Noia Contracts\n */\ncontract NoiaBaseContract is Owned {\n    address public factory;\n    NoiaMarketplace public marketplace;\n    uint16 public version;\n\n    constructor(\n        address factory_,\n        NoiaMarketplace marketplace_,\n        uint16 version_) public {\n        // factory needs to prove its identity\n        require(msg.sender == factory_, \"Only a Factory can create a contract\");\n        version = version_;\n        factory = factory_;\n        marketplace = marketplace_;\n    }\n}\n",
  "sourcePath": "/srv/work/projects/noia-network/noia-governance/contracts/noia/gov/NoiaBaseContract.sol",
  "compiler": {
    "name": "solc",
    "version": "0.4.24+commit.e67f0147.Emscripten.clang"
  },
  "schemaVersion": "2.0.0",
  "updatedAt": "2018-09-17T14:55:18.679Z"
}