{
  "contractName": "NoiaNodeV1",
  "abi": [
    {
      "constant": true,
      "inputs": [],
      "name": "infoData",
      "outputs": [
        {
          "name": "",
          "type": "bytes"
        }
      ],
      "payable": false,
      "stateMutability": "view",
      "type": "function"
    },
    {
      "constant": true,
      "inputs": [],
      "name": "version",
      "outputs": [
        {
          "name": "",
          "type": "uint16"
        }
      ],
      "payable": false,
      "stateMutability": "view",
      "type": "function"
    },
    {
      "constant": true,
      "inputs": [],
      "name": "owner",
      "outputs": [
        {
          "name": "",
          "type": "address"
        }
      ],
      "payable": false,
      "stateMutability": "view",
      "type": "function"
    },
    {
      "constant": false,
      "inputs": [
        {
          "name": "_newOwner",
          "type": "address"
        }
      ],
      "name": "changeOwner",
      "outputs": [],
      "payable": false,
      "stateMutability": "nonpayable",
      "type": "function"
    },
    {
      "constant": true,
      "inputs": [],
      "name": "marketplace",
      "outputs": [
        {
          "name": "",
          "type": "address"
        }
      ],
      "payable": false,
      "stateMutability": "view",
      "type": "function"
    },
    {
      "constant": true,
      "inputs": [],
      "name": "infoType",
      "outputs": [
        {
          "name": "",
          "type": "bytes32"
        }
      ],
      "payable": false,
      "stateMutability": "view",
      "type": "function"
    },
    {
      "constant": true,
      "inputs": [],
      "name": "certificatesCount",
      "outputs": [
        {
          "name": "",
          "type": "uint256"
        }
      ],
      "payable": false,
      "stateMutability": "view",
      "type": "function"
    },
    {
      "constant": true,
      "inputs": [],
      "name": "factory",
      "outputs": [
        {
          "name": "",
          "type": "address"
        }
      ],
      "payable": false,
      "stateMutability": "view",
      "type": "function"
    },
    {
      "inputs": [
        {
          "name": "factory",
          "type": "address"
        },
        {
          "name": "marketplace",
          "type": "address"
        },
        {
          "name": "infoType_",
          "type": "bytes32"
        },
        {
          "name": "infoData_",
          "type": "bytes"
        }
      ],
      "payable": false,
      "stateMutability": "nonpayable",
      "type": "constructor"
    },
    {
      "constant": false,
      "inputs": [
        {
          "name": "infoType_",
          "type": "bytes32"
        },
        {
          "name": "infoData_",
          "type": "bytes"
        }
      ],
      "name": "setInfo",
      "outputs": [],
      "payable": false,
      "stateMutability": "nonpayable",
      "type": "function"
    },
    {
      "constant": false,
      "inputs": [
        {
          "name": "certificateAddress",
          "type": "address"
        }
      ],
      "name": "acceptIssuedCertificate",
      "outputs": [],
      "payable": false,
      "stateMutability": "nonpayable",
      "type": "function"
    },
    {
      "constant": true,
      "inputs": [
        {
          "name": "certificateAddress",
          "type": "address"
        }
      ],
      "name": "acceptCertificateUpdate",
      "outputs": [],
      "payable": false,
      "stateMutability": "view",
      "type": "function"
    },
    {
      "constant": false,
      "inputs": [
        {
          "name": "certificateAddress",
          "type": "address"
        }
      ],
      "name": "receiveCertificateRevokeNotice",
      "outputs": [],
      "payable": false,
      "stateMutability": "nonpayable",
      "type": "function"
    },
    {
      "constant": true,
      "inputs": [],
      "name": "getCertificates",
      "outputs": [
        {
          "name": "",
          "type": "address[]"
        }
      ],
      "payable": false,
      "stateMutability": "view",
      "type": "function"
    }
  ],
  "bytecode": "0x608060405234801561001057600080fd5b50604051610ea0380380610ea083398101806040528101908080519060200190929190805190602001909291908051906020019092919080518201929190505050838381816001336000806101000a81548173ffffffffffffffffffffffffffffffffffffffff021916908373ffffffffffffffffffffffffffffffffffffffff1602179055508273ffffffffffffffffffffffffffffffffffffffff163373ffffffffffffffffffffffffffffffffffffffff161415156100d157600080fd5b80600260146101000a81548161ffff021916908361ffff16021790555082600160006101000a81548173ffffffffffffffffffffffffffffffffffffffff021916908373ffffffffffffffffffffffffffffffffffffffff16021790555081600260006101000a81548173ffffffffffffffffffffffffffffffffffffffff021916908373ffffffffffffffffffffffffffffffffffffffff1602179055505050505050816005816000191690555080600690805190602001906101969291906101a0565b5050505050610245565b828054600181600116156101000203166002900490600052602060002090601f016020900481019282601f106101e157805160ff191683800117855561020f565b8280016001018555821561020f579182015b8281111561020e5782518255916020019190600101906101f3565b5b50905061021c9190610220565b5090565b61024291905b8082111561023e576000816000905550600101610226565b5090565b90565b610c4c806102546000396000f3006080604052600436106100c5576000357c0100000000000000000000000000000000000000000000000000000000900463ffffffff1680631f5ddb4f146100ca578063256b4e21146101365780632e5b5a131461017957806354fd4d5014610209578063699af6221461023c5780638da5cb5b146102b3578063a6f9dae11461030a578063abc8c7af1461034d578063afb74f48146103a4578063b2017b0e146103d7578063b34b46481461041a578063c45a015514610445578063ed12679c1461049c575b600080fd5b3480156100d657600080fd5b506100df6104df565b6040518080602001828103825283818151815260200191508051906020019060200280838360005b83811015610122578082015181840152602081019050610107565b505050509050019250505060405180910390f35b34801561014257600080fd5b50610177600480360381019080803573ffffffffffffffffffffffffffffffffffffffff1690602001909291905050506105e2565b005b34801561018557600080fd5b5061018e61075c565b6040518080602001828103825283818151815260200191508051906020019080838360005b838110156101ce5780820151818401526020810190506101b3565b50505050905090810190601f1680156101fb5780820380516001836020036101000a031916815260200191505b509250505060405180910390f35b34801561021557600080fd5b5061021e6107fa565b604051808261ffff1661ffff16815260200191505060405180910390f35b34801561024857600080fd5b506102b16004803603810190808035600019169060200190929190803590602001908201803590602001908080601f016020809104026020016040519081016040528093929190818152602001838380828437820191505050505050919291929050505061080e565b005b3480156102bf57600080fd5b506102c8610834565b604051808273ffffffffffffffffffffffffffffffffffffffff1673ffffffffffffffffffffffffffffffffffffffff16815260200191505060405180910390f35b34801561031657600080fd5b5061034b600480360381019080803573ffffffffffffffffffffffffffffffffffffffff169060200190929190505050610859565b005b34801561035957600080fd5b506103626108f7565b604051808273ffffffffffffffffffffffffffffffffffffffff1673ffffffffffffffffffffffffffffffffffffffff16815260200191505060405180910390f35b3480156103b057600080fd5b506103b961091d565b60405180826000191660001916815260200191505060405180910390f35b3480156103e357600080fd5b50610418600480360381019080803573ffffffffffffffffffffffffffffffffffffffff169060200190929190505050610923565b005b34801561042657600080fd5b5061042f610a38565b6040518082815260200191505060405180910390f35b34801561045157600080fd5b5061045a610a3e565b604051808273ffffffffffffffffffffffffffffffffffffffff1673ffffffffffffffffffffffffffffffffffffffff16815260200191505060405180910390f35b3480156104a857600080fd5b506104dd600480360381019080803573ffffffffffffffffffffffffffffffffffffffff169060200190929190505050610a64565b005b60608060008060006004546040519080825280602002602001820160405280156105185781602001602082028038833980820191505090505b50935060009250600091505b6003805490508210156105d85760038281548110151561054057fe5b9060005260206000200160009054906101000a900473ffffffffffffffffffffffffffffffffffffffff16905061057681610b68565b156105cd5780848480600101955081518110151561059057fe5b9060200190602002019073ffffffffffffffffffffffffffffffffffffffff16908173ffffffffffffffffffffffffffffffffffffffff16815250505b816001019150610524565b8394505050505090565b808073ffffffffffffffffffffffffffffffffffffffff163373ffffffffffffffffffffffffffffffffffffffff1614151561061d57600080fd5b61062681610b68565b151561063157600080fd5b60018173ffffffffffffffffffffffffffffffffffffffff166354fd4d506040518163ffffffff167c0100000000000000000000000000000000000000000000000000000000028152600401602060405180830381600087803b15801561069757600080fd5b505af11580156106ab573d6000803e3d6000fd5b505050506040513d60208110156106c157600080fd5b810190808051906020019092919050505061ffff161415156106e257600080fd5b60038290806001815401808255809150509060018203906000526020600020016000909192909190916101000a81548173ffffffffffffffffffffffffffffffffffffffff021916908373ffffffffffffffffffffffffffffffffffffffff16021790555050600460008154600101919050819055505050565b60068054600181600116156101000203166002900480601f0160208091040260200160405190810160405280929190818152602001828054600181600116156101000203166002900480156107f25780601f106107c7576101008083540402835291602001916107f2565b820191906000526020600020905b8154815290600101906020018083116107d557829003601f168201915b505050505081565b600260149054906101000a900461ffff1681565b8160058160001916905550806006908051906020019061082f929190610b7b565b505050565b6000809054906101000a900473ffffffffffffffffffffffffffffffffffffffff1681565b6000809054906101000a900473ffffffffffffffffffffffffffffffffffffffff1673ffffffffffffffffffffffffffffffffffffffff163373ffffffffffffffffffffffffffffffffffffffff161415156108b457600080fd5b806000806101000a81548173ffffffffffffffffffffffffffffffffffffffff021916908373ffffffffffffffffffffffffffffffffffffffff16021790555050565b600260009054906101000a900473ffffffffffffffffffffffffffffffffffffffff1681565b60055481565b808073ffffffffffffffffffffffffffffffffffffffff163373ffffffffffffffffffffffffffffffffffffffff1614151561095e57600080fd5b61096781610b68565b151561097257600080fd5b60018173ffffffffffffffffffffffffffffffffffffffff166354fd4d506040518163ffffffff167c0100000000000000000000000000000000000000000000000000000000028152600401602060405180830381600087803b1580156109d857600080fd5b505af11580156109ec573d6000803e3d6000fd5b505050506040513d6020811015610a0257600080fd5b810190808051906020019092919050505061ffff16141515610a2357600080fd5b60046000815460019003919050819055505050565b60045481565b600160009054906101000a900473ffffffffffffffffffffffffffffffffffffffff1681565b808073ffffffffffffffffffffffffffffffffffffffff163373ffffffffffffffffffffffffffffffffffffffff16141515610a9f57600080fd5b610aa881610b68565b1515610ab357600080fd5b60018173ffffffffffffffffffffffffffffffffffffffff166354fd4d506040518163ffffffff167c0100000000000000000000000000000000000000000000000000000000028152600401602060405180830381600087803b158015610b1957600080fd5b505af1158015610b2d573d6000803e3d6000fd5b505050506040513d6020811015610b4357600080fd5b810190808051906020019092919050505061ffff16141515610b6457600080fd5b5050565b600080823b905060008111915050919050565b828054600181600116156101000203166002900490600052602060002090601f016020900481019282601f10610bbc57805160ff1916838001178555610bea565b82800160010185558215610bea579182015b82811115610be9578251825591602001919060010190610bce565b5b509050610bf79190610bfb565b5090565b610c1d91905b80821115610c19576000816000905550600101610c01565b5090565b905600a165627a7a723058207b33ab526f3da8edcc9fea6d320d0dd8a7afea2a33e7243f41e1a190c43549470029",
  "source": "pragma solidity ^0.4.11;\n\nimport './NoiaBaseContractV1.sol';\nimport './NoiaCertificateV1.sol';\n\n/**\n * Standard Noia Node Contract V1 (Draft)\n *\n */\ncontract NoiaNodeV1 is NoiaBaseContractV1 {\n    address[] certificates;\n    uint public certificatesCount;\n\n    bytes32 public infoType;\n    bytes public infoData;\n\n    function NoiaNodeV1(\n        address factory,\n        NoiaMarketplace marketplace,\n        bytes32 infoType_, bytes infoData_)\n        NoiaBaseContractV1(factory, marketplace) public {\n        infoType = infoType_;\n        infoData = infoData_;\n    }\n\n    //\n    // Node Info\n    //\n    function setInfo(bytes32 infoType_, bytes infoData_) public {\n        infoType = infoType_;\n        infoData = infoData_;\n    }\n\n    //\n    // Certificate Callback Functions\n    //\n    modifier fromCertificateV1(address certificateAddress) {\n        require (msg.sender == certificateAddress);\n        require(isContract(certificateAddress));\n        require(NoiaBaseContract(certificateAddress).version() == 1);\n        _;\n    }\n\n    function acceptIssuedCertificate(address certificateAddress)\n        fromCertificateV1(certificateAddress) public {\n        certificates.push(certificateAddress);\n        ++certificatesCount;\n    }\n\n    function acceptCertificateUpdate(address certificateAddress)\n        fromCertificateV1(certificateAddress) public view {\n        // ignoring the data update callback\n    }\n\n    function receiveCertificateRevokeNotice(address certificateAddress)\n        fromCertificateV1(certificateAddress) public {\n        --certificatesCount;\n    }\n\n    //\n    // Certificate Listing Functions\n    //\n    function getCertificates() public view returns (address[]) {\n        address[] memory certs = new address[](certificatesCount);\n        uint n = 0;\n        for (uint i = 0; i < certificates.length; ++i) {\n            address cert = certificates[i];\n            if (isContract(cert)) certs[n++] = cert;\n        }\n        if (n < certificatesCount) {\n            // shouldn't happen, but some business forgot to call sendCertificateRevokeNotice\n        }\n        return certs;\n    }\n\n    // TODO defrag\n\n    //\n    // misc\n    // TODO, link misc library\n    //\n    function isContract(address addr) private view returns (bool) {\n      uint size;\n      assembly { size := extcodesize(addr) }\n      return size > 0;\n    }\n}\n",
  "sourcePath": "/srv/work/projects/noia-network/noia-governance/contracts/noia/v1/NoiaNodeV1.sol",
  "compiler": {
    "name": "solc",
    "version": "0.4.24+commit.e67f0147.Emscripten.clang"
  },
  "schemaVersion": "2.0.1",
  "updatedAt": "2018-07-09T18:14:19.072Z"
}