{
  "contractName": "NoiaNodeContractFactoryV1",
  "abi": [
    {
      "constant": false,
      "inputs": [
        {
          "name": "marketplace_",
          "type": "address"
        }
      ],
      "name": "setMarketplace",
      "outputs": [],
      "payable": false,
      "stateMutability": "nonpayable",
      "type": "function"
    },
    {
      "anonymous": false,
      "inputs": [
        {
          "indexed": false,
          "name": "contractInstance",
          "type": "address"
        }
      ],
      "name": "NoiaContractV1Created",
      "type": "event"
    },
    {
      "constant": false,
      "inputs": [
        {
          "name": "infoType",
          "type": "bytes32"
        },
        {
          "name": "infoData",
          "type": "bytes"
        }
      ],
      "name": "create",
      "outputs": [],
      "payable": false,
      "stateMutability": "nonpayable",
      "type": "function"
    }
  ],
  "bytecode": "0x608060405234801561001057600080fd5b50610df6806100206000396000f30060806040526004361061004b5763ffffffff7c01000000000000000000000000000000000000000000000000000000006000350416635b37e150811461005057806373ad6c2d146100b0575b600080fd5b34801561005c57600080fd5b5060408051602060046024803582810135601f81018590048502860185019096528585526100ae9583359536956044949193909101919081908401838280828437509497506100d19650505050505050565b005b3480156100bc57600080fd5b506100ae600160a060020a0360043516610369565b600080543090600160a060020a031684846100ea610398565b600160a060020a0380861682528416602080830191909152604082018490526080606083018181528451918401919091528351909160a08401919085019080838360005b8381101561014657818101518382015260200161012e565b50505050905090810190601f1680156101735780820380516001836020036101000a031916815260200191505b5095505050505050604051809103906000f080158015610197573d6000803e3d6000fd5b50604080517fa6f9dae10000000000000000000000000000000000000000000000000000000081523360048201529051919250600160a060020a0383169163a6f9dae19160248082019260009290919082900301818387803b1580156101fc57600080fd5b505af1158015610210573d6000803e3d6000fd5b505050506000809054906101000a9004600160a060020a0316600160a060020a031663d9b5c4a56040518163ffffffff167c0100000000000000000000000000000000000000000000000000000000028152600401602060405180830381600087803b15801561027f57600080fd5b505af1158015610293573d6000803e3d6000fd5b505050506040513d60208110156102a957600080fd5b5051604080517ff15ae568000000000000000000000000000000000000000000000000000000008152600160a060020a0384811660048301529151919092169163f15ae56891602480830192600092919082900301818387803b15801561030f57600080fd5b505af1158015610323573d6000803e3d6000fd5b505060408051600160a060020a038516815290517f4925a5c7f3f73bba343166964921a277f457922c2d49b45d9dc9f897d2fb96559350908190036020019150a1505050565b6000805473ffffffffffffffffffffffffffffffffffffffff1916600160a060020a0392909216919091179055565b604051610a22806103a9833901905600608060405234801561001057600080fd5b50604051610a22380380610a228339810160409081528151602083015191830151606084015160008054600160a060020a03191633908117909155929491929101908490849082908290600190600160a060020a0384161461007157600080fd5b6002805460018054600160a060020a03968716600160a060020a0319918216179091559390941661ffff909216740100000000000000000000000000000000000000000260a060020a61ffff021990941693909317919091161790555050600582905580516100e79060069060208401906100f1565b505050505061018c565b828054600181600116156101000203166002900490600052602060002090601f016020900481019282601f1061013257805160ff191683800117855561015f565b8280016001018555821561015f579182015b8281111561015f578251825591602001919060010190610144565b5061016b92915061016f565b5090565b61018991905b8082111561016b5760008155600101610175565b90565b6108878061019b6000396000f3006080604052600436106100ab5763ffffffff60e060020a6000350416631f5ddb4f81146100b0578063256b4e21146101155780632e5b5a131461013857806354fd4d50146101c2578063699af622146101ee5780638da5cb5b1461024c578063a6f9dae11461027d578063abc8c7af1461029e578063afb74f48146102b3578063b2017b0e146102da578063b34b4648146102fb578063c45a015514610310578063ed12679c14610325575b600080fd5b3480156100bc57600080fd5b506100c5610346565b60408051602080825283518183015283519192839290830191858101910280838360005b838110156101015781810151838201526020016100e9565b505050509050019250505060405180910390f35b34801561012157600080fd5b50610136600160a060020a0360043516610403565b005b34801561014457600080fd5b5061014d610512565b6040805160208082528351818301528351919283929083019185019080838360005b8381101561018757818101518382015260200161016f565b50505050905090810190601f1680156101b45780820380516001836020036101000a031916815260200191505b509250505060405180910390f35b3480156101ce57600080fd5b506101d76105a0565b6040805161ffff9092168252519081900360200190f35b3480156101fa57600080fd5b5060408051602060046024803582810135601f81018590048502860185019096528585526101369583359536956044949193909101919081908401838280828437509497506105c29650505050505050565b34801561025857600080fd5b506102616105df565b60408051600160a060020a039092168252519081900360200190f35b34801561028957600080fd5b50610136600160a060020a03600435166105ee565b3480156102aa57600080fd5b50610261610634565b3480156102bf57600080fd5b506102c8610643565b60408051918252519081900360200190f35b3480156102e657600080fd5b50610136600160a060020a0360043516610649565b34801561030757600080fd5b506102c86106fb565b34801561031c57600080fd5b50610261610701565b34801561033157600080fd5b50610136600160a060020a0360043516610710565b606080600080600060045460405190808252806020026020018201604052801561037a578160200160208202803883390190505b50935060009250600091505b6003548210156103fa57600380548390811061039e57fe5b600091825260209091200154600160a060020a031690506103be816107b8565b156103ef5783516001840193829186919081106103d757fe5b600160a060020a039092166020928302909101909101525b816001019150610386565b50919392505050565b8033600160a060020a0382161461041957600080fd5b610422816107b8565b151561042d57600080fd5b80600160a060020a03166354fd4d506040518163ffffffff1660e060020a028152600401602060405180830381600087803b15801561046b57600080fd5b505af115801561047f573d6000803e3d6000fd5b505050506040513d602081101561049557600080fd5b505161ffff166001146104a757600080fd5b5060038054600180820183556000929092527fc2575a0e9e593c00f959f8c92f12db2869c3395a3b0502d05e2516446f71f85b01805473ffffffffffffffffffffffffffffffffffffffff1916600160a060020a039390931692909217909155600480549091019055565b6006805460408051602060026001851615610100026000190190941693909304601f810184900484028201840190925281815292918301828280156105985780601f1061056d57610100808354040283529160200191610598565b820191906000526020600020905b81548152906001019060200180831161057b57829003601f168201915b505050505081565b60025474010000000000000000000000000000000000000000900461ffff1681565b600582905580516105da9060069060208401906107c0565b505050565b600054600160a060020a031681565b600054600160a060020a0316331461060557600080fd5b6000805473ffffffffffffffffffffffffffffffffffffffff1916600160a060020a0392909216919091179055565b600254600160a060020a031681565b60055481565b8033600160a060020a0382161461065f57600080fd5b610668816107b8565b151561067357600080fd5b80600160a060020a03166354fd4d506040518163ffffffff1660e060020a028152600401602060405180830381600087803b1580156106b157600080fd5b505af11580156106c5573d6000803e3d6000fd5b505050506040513d60208110156106db57600080fd5b505161ffff166001146106ed57600080fd5b505060048054600019019055565b60045481565b600154600160a060020a031681565b8033600160a060020a0382161461072657600080fd5b61072f816107b8565b151561073a57600080fd5b80600160a060020a03166354fd4d506040518163ffffffff1660e060020a028152600401602060405180830381600087803b15801561077857600080fd5b505af115801561078c573d6000803e3d6000fd5b505050506040513d60208110156107a257600080fd5b505161ffff166001146107b457600080fd5b5050565b6000903b1190565b828054600181600116156101000203166002900490600052602060002090601f016020900481019282601f1061080157805160ff191683800117855561082e565b8280016001018555821561082e579182015b8281111561082e578251825591602001919060010190610813565b5061083a92915061083e565b5090565b61085891905b8082111561083a5760008155600101610844565b905600a165627a7a723058207cded58dda55de9c75e681cf7ea4d22c87bd58d551ba5cb828cb8920204a082f0029a165627a7a72305820b4e19cd80860a3a7d29ff208e14a3374c52820850d7dad27ec33b479feba31d10029",
  "source": "pragma solidity ^0.4.20;\n\nimport './NoiaBusinessV1.sol';\nimport './NoiaNodeV1.sol';\nimport './NoiaCertificateV1.sol';\nimport './NoiaJobPostV1.sol';\n\ncontract NoiaBaseContractFactoryV1 {\n    NoiaMarketplace marketplace;\n    function setMarketplace(NoiaMarketplace marketplace_) public {\n        marketplace = marketplace_;\n    }\n    event NoiaContractV1Created(address contractInstance);\n}\n\ncontract NoiaBusinessContractFactoryV1 is NoiaBaseContractFactoryV1 {\n    function create(bytes32 infoType, bytes infoData) public {\n        NoiaBusinessV1 business = new NoiaBusinessV1(this, marketplace, infoType, infoData);\n        business.changeOwner(msg.sender);\n        marketplace.businessRegistry().addEntry(business);\n        emit NoiaContractV1Created(address(business));\n    }\n}\n\ncontract NoiaNodeContractFactoryV1 is NoiaBaseContractFactoryV1 {\n    function create(bytes32 infoType, bytes infoData) public {\n        NoiaNodeV1 node = new NoiaNodeV1(this, marketplace, infoType, infoData);\n        node.changeOwner(msg.sender);\n        marketplace.nodeRegistry().addEntry(node);\n        emit NoiaContractV1Created(address(node));\n    }\n}\n\ncontract NoiaCertificateContractFactoryV1 is NoiaBaseContractFactoryV1 {\n    function create(bytes32 certificateName, NoiaBusinessV1 issuer, NoiaNodeV1 recipient) public {\n        require(marketplace.businessRegistry().hasEntry(issuer));\n        require(marketplace.nodeRegistry().hasEntry(recipient));\n        NoiaCertificateV1 cert = new NoiaCertificateV1(this, marketplace, certificateName, issuer, recipient);\n        cert.changeOwner(msg.sender);\n        marketplace.certificatesRegistry().addEntry(cert);\n        emit NoiaContractV1Created(address(cert));\n    }\n}\n\ncontract NoiaJobPostContractFactoryV1 is NoiaBaseContractFactoryV1 {\n    function create(NoiaBusinessV1 employer, bytes32 infoType, bytes infoData) public {\n        require(marketplace.businessRegistry().hasEntry(employer));\n        NoiaJobPostV1 jobPost = new NoiaJobPostV1(this, marketplace, employer, infoType, infoData);\n        jobPost.changeOwner(msg.sender);\n        marketplace.jobPostRegistry().addEntry(jobPost);\n        emit NoiaContractV1Created(address(jobPost));\n    }\n}\n\ncontract NoiaContractFactoriesV1 {\n    constructor(\n        NoiaMarketplace marketplace,\n        NoiaBusinessContractFactoryV1 business_,\n        NoiaNodeContractFactoryV1 node_,\n        NoiaCertificateContractFactoryV1 certificate_,\n        NoiaJobPostContractFactoryV1 jobPost_) public {\n        business = business_;\n        node = node_;\n        certificate = certificate_;\n        jobPost = jobPost_;\n        business.setMarketplace(marketplace);\n        node.setMarketplace(marketplace);\n        certificate.setMarketplace(marketplace);\n        jobPost.setMarketplace(marketplace);\n    }\n\n    NoiaBusinessContractFactoryV1 public business;\n    NoiaNodeContractFactoryV1 public node;\n    NoiaCertificateContractFactoryV1 public certificate;\n    NoiaJobPostContractFactoryV1 public jobPost;\n}\n",
  "sourcePath": "/srv/work/projects/noia-network/noia-governance/contracts/noia/v1/NoiaContractFactoriesV1.sol",
  "compiler": {
    "name": "solc",
    "version": "0.4.24+commit.e67f0147.Emscripten.clang"
  },
  "schemaVersion": "2.0.1",
  "updatedAt": "2018-09-01T14:02:21.909Z"
}