{
  "contractName": "NoiaJobPostV1",
  "abi": [
    {
      "constant": true,
      "inputs": [],
      "name": "infoData",
      "outputs": [
        {
          "name": "",
          "type": "bytes"
        }
      ],
      "payable": false,
      "stateMutability": "view",
      "type": "function"
    },
    {
      "constant": true,
      "inputs": [],
      "name": "version",
      "outputs": [
        {
          "name": "",
          "type": "uint16"
        }
      ],
      "payable": false,
      "stateMutability": "view",
      "type": "function"
    },
    {
      "constant": true,
      "inputs": [],
      "name": "owner",
      "outputs": [
        {
          "name": "",
          "type": "address"
        }
      ],
      "payable": false,
      "stateMutability": "view",
      "type": "function"
    },
    {
      "constant": false,
      "inputs": [
        {
          "name": "_newOwner",
          "type": "address"
        }
      ],
      "name": "changeOwner",
      "outputs": [],
      "payable": false,
      "stateMutability": "nonpayable",
      "type": "function"
    },
    {
      "constant": true,
      "inputs": [],
      "name": "marketplace",
      "outputs": [
        {
          "name": "",
          "type": "address"
        }
      ],
      "payable": false,
      "stateMutability": "view",
      "type": "function"
    },
    {
      "constant": true,
      "inputs": [],
      "name": "employer",
      "outputs": [
        {
          "name": "",
          "type": "address"
        }
      ],
      "payable": false,
      "stateMutability": "view",
      "type": "function"
    },
    {
      "constant": true,
      "inputs": [],
      "name": "infoType",
      "outputs": [
        {
          "name": "",
          "type": "bytes32"
        }
      ],
      "payable": false,
      "stateMutability": "view",
      "type": "function"
    },
    {
      "constant": true,
      "inputs": [],
      "name": "factory",
      "outputs": [
        {
          "name": "",
          "type": "address"
        }
      ],
      "payable": false,
      "stateMutability": "view",
      "type": "function"
    },
    {
      "inputs": [
        {
          "name": "factory",
          "type": "address"
        },
        {
          "name": "marketplace",
          "type": "address"
        },
        {
          "name": "employer_",
          "type": "address"
        },
        {
          "name": "infoType_",
          "type": "bytes32"
        },
        {
          "name": "infoData_",
          "type": "bytes"
        }
      ],
      "payable": false,
      "stateMutability": "nonpayable",
      "type": "constructor"
    },
    {
      "anonymous": false,
      "inputs": [
        {
          "indexed": false,
          "name": "contractInstance",
          "type": "address"
        }
      ],
      "name": "NoiaContractV1Created",
      "type": "event"
    },
    {
      "constant": false,
      "inputs": [
        {
          "name": "_workerOwner",
          "type": "address"
        }
      ],
      "name": "createWorkOrder",
      "outputs": [],
      "payable": false,
      "stateMutability": "nonpayable",
      "type": "function"
    },
    {
      "constant": true,
      "inputs": [
        {
          "name": "_workerOwner",
          "type": "address"
        }
      ],
      "name": "getWorkOrder",
      "outputs": [
        {
          "name": "",
          "type": "address"
        }
      ],
      "payable": false,
      "stateMutability": "view",
      "type": "function"
    }
  ],
  "bytecode": "0x608060405234801561001057600080fd5b50604051611b78380380611b7883398101604090815281516020830151918301516060840151608085015160008054600160a060020a0319163390811790915593959293919201908590859082908290600190600160a060020a0384161461007757600080fd5b6002805460018054600160a060020a03968716600160a060020a03199182161790915593851661ffff909316740100000000000000000000000000000000000000000260a060020a61ffff021990911617831691909117905560038054928816929091169190911790555050600482905580516100fb906005906020840190610106565b5050505050506101a1565b828054600181600116156101000203166002900490600052602060002090601f016020900481019282601f1061014757805160ff1916838001178555610174565b82800160010185558215610174579182015b82811115610174578251825591602001919060010190610159565b50610180929150610184565b5090565b61019e91905b80821115610180576000815560010161018a565b90565b6119c8806101b06000396000f3006080604052600436106100a35763ffffffff7c01000000000000000000000000000000000000000000000000000000006000350416632e5b5a1381146100a857806354fd4d50146101325780638123488f1461015e5780638da5cb5b14610181578063a6f9dae1146101b2578063abc8c7af146101d3578063ae200e79146101e8578063afb74f48146101fd578063c2d4e92c14610224578063c45a015514610245575b600080fd5b3480156100b457600080fd5b506100bd61025a565b6040805160208082528351818301528351919283929083019185019080838360005b838110156100f75781810151838201526020016100df565b50505050905090810190601f1680156101245780820380516001836020036101000a031916815260200191505b509250505060405180910390f35b34801561013e57600080fd5b506101476102e8565b6040805161ffff9092168252519081900360200190f35b34801561016a57600080fd5b5061017f600160a060020a036004351661030a565b005b34801561018d57600080fd5b50610196610497565b60408051600160a060020a039092168252519081900360200190f35b3480156101be57600080fd5b5061017f600160a060020a03600435166104a6565b3480156101df57600080fd5b506101966104ec565b3480156101f457600080fd5b506101966104fb565b34801561020957600080fd5b5061021261050a565b60408051918252519081900360200190f35b34801561023057600080fd5b50610196600160a060020a0360043516610510565b34801561025157600080fd5b5061019661052e565b6005805460408051602060026001851615610100026000190190941693909304601f810184900484028201840190925281815292918301828280156102e05780601f106102b5576101008083540402835291602001916102e0565b820191906000526020600020905b8154815290600101906020018083116102c357829003601f168201915b505050505081565b60025474010000000000000000000000000000000000000000900461ffff1681565b600080600360009054906101000a9004600160a060020a0316600160a060020a0316638da5cb5b6040518163ffffffff167c0100000000000000000000000000000000000000000000000000000000028152600401602060405180830381600087803b15801561037957600080fd5b505af115801561038d573d6000803e3d6000fd5b505050506040513d60208110156103a357600080fd5b5051600160a060020a03163314156100a357600091503082846103c461053d565b600160a060020a0384168152602081018360018111156103e057fe5b60ff168152600160a060020a03909216602083015250604080519182900301925090506000f080158015610418573d6000803e3d6000fd5b50600160a060020a038481166000908152600660205260409020805473ffffffffffffffffffffffffffffffffffffffff1916918316919091179055905060408051600160a060020a038316815290517f4925a5c7f3f73bba343166964921a277f457922c2d49b45d9dc9f897d2fb96559181900360200190a1505050565b600054600160a060020a031681565b600054600160a060020a031633146104bd57600080fd5b6000805473ffffffffffffffffffffffffffffffffffffffff1916600160a060020a0392909216919091179055565b600254600160a060020a031681565b600354600160a060020a031681565b60045481565b600160a060020a039081166000908152600660205260409020541690565b600154600160a060020a031681565b60405161144f8061054e83390190560060806040526007805461ffff1916905534801561001b57600080fd5b506040516060806200144f83398101604090815281516020830151919092015133600160a060020a0384161461005057600080fd5b600160a060020a038116151561006557600080fd5b82600160a060020a031663abc8c7af6040518163ffffffff167c0100000000000000000000000000000000000000000000000000000000028152600401602060405180830381600087803b1580156100bc57600080fd5b505af11580156100d0573d6000803e3d6000fd5b505050506040513d60208110156100e657600080fd5b5051604080517f55a373d60000000000000000000000000000000000000000000000000000000081529051600160a060020a03909216916355a373d6916004808201926020929091908290030181600087803b15801561014557600080fd5b505af1158015610159573d6000803e3d6000fd5b505050506040513d602081101561016f57600080fd5b505160018054600160a060020a031916600160a060020a0390921691909117815560008054849260a060020a60ff021990911690740100000000000000000000000000000000000000009084908111156101c557fe5b021790555082600160a060020a031663ae200e796040518163ffffffff167c0100000000000000000000000000000000000000000000000000000000028152600401602060405180830381600087803b15801561022157600080fd5b505af1158015610235573d6000803e3d6000fd5b505050506040513d602081101561024b57600080fd5b505160028054600160a060020a0319908116600160a060020a039384161790915560038054821693831693909317909255600080549092169316929092178255506111b29081906200029d90396000f3006080604052600436106100cf5763ffffffff7c0100000000000000000000000000000000000000000000000000000000600035041663199cbc5481146100d45780632852b71c146100fb5780635051a5ec14610112578063595b18721461013b57806390380dcf1461016c57806394566d251461021a578063968ed6001461022f578063a9ae251214610244578063ae200e79146102a2578063ba3e095c146102b7578063bd980f4b146102d2578063c0ee0b8a146102e7578063c56a1a2b14610350578063d9e8401614610365575b600080fd5b3480156100e057600080fd5b506100e96103ce565b60408051918252519081900360200190f35b34801561010757600080fd5b506101106103d4565b005b34801561011e57600080fd5b506101276103df565b604080519115158252519081900360200190f35b34801561014757600080fd5b50610150610400565b60408051600160a060020a039092168252519081900360200190f35b34801561017857600080fd5b5061018161040f565b604051808060200180602001838103835285818151815260200191508051906020019060200280838360005b838110156101c55781810151838201526020016101ad565b50505050905001838103825284818151815260200191508051906020019060200280838360005b838110156102045781810151838201526020016101ec565b5050505090500194505050505060405180910390f35b34801561022657600080fd5b506101506104f3565b34801561023b57600080fd5b506100e9610502565b34801561025057600080fd5b5060408051602060046024803582810135601f81018590048502860185019096528585526101109583359536956044949193909101919081908401838280828437509497506105989650505050505050565b3480156102ae57600080fd5b50610150610837565b3480156102c357600080fd5b50610110600435602435610846565b3480156102de57600080fd5b50610127610a31565b3480156102f357600080fd5b50604080516020600460443581810135601f8101849004840285018401909552848452610110948235600160a060020a0316946024803595369594606494920191908190840183828082843750949750610a3f9650505050505050565b34801561035c57600080fd5b50610127610a5b565b34801561037157600080fd5b50604080516020600460443581810135601f8101849004840285018401909552848452610110948235600160a060020a0316946024803595369594606494920191908190840183828082843750949750610a649650505050505050565b60065481565b6103dd33610e01565b565b600754600090610100900460ff1680156103fb575060075460ff165b905090565b600354600160a060020a031681565b606080606080600080600580549050604051908082528060200260200182016040528015610447578160200160208202803883390190505b506005546040805182815260208084028201019091529195508015610476578160200160208202803883390190505b509250600091505b6005548210156104e857600580548390811061049657fe5b90600052602060002090600202019050806001015484838151811015156104b957fe5b60209081029091010152805483518490849081106104d357fe5b6020908102909101015260019091019061047e565b509194909350915050565b600054600160a060020a031681565b600154604080517f70a082310000000000000000000000000000000000000000000000000000000081523060048201529051600092600160a060020a0316916370a0823191602480830192602092919082900301818787803b15801561056757600080fd5b505af115801561057b573d6000803e3d6000fd5b505050506040513d602081101561059157600080fd5b5051905090565b606060006004836040518082805190602001908083835b602083106105ce5780518252601f1990920191602091820191016105af565b51815160209384036101000a600019018019909216911617905292019485525060405193849003019092205460ff1615915061066d905057604080517f08c379a000000000000000000000000000000000000000000000000000000000815260206004820152601960248201527f5369676e617475726520616c7265616479206578697374732100000000000000604482015290519081900360640190fd5b60016004846040518082805190602001908083835b602083106106a15780518252601f199092019160209182019101610682565b51815160209384036101000a6000190180199092169116179052920194855250604080519485900382018520805460ff191696151596909617909555306c0100000000000000000000000002848201527f61636365707400000000000000000000000000000000000000000000000000006034850152603a8085018a905285518086039091018152605a9094019485905283519396506107af9488946107a3945088935090918291908401908083835b602083106107705780518252601f199092019160209182019101610751565b5181516020939093036101000a600019018019909116921691909117905260405192018290039091209250610fe2915050565b9063ffffffff61108c16565b9050600160a060020a038116151561082857604080517f08c379a000000000000000000000000000000000000000000000000000000000815260206004820152601660248201527f5369676e6572206e6f74207265636f676e697a65642100000000000000000000604482015290519081900360640190fd5b61083181610e01565b50505050565b600254600160a060020a031681565b600260009054906101000a9004600160a060020a0316600160a060020a0316638da5cb5b6040518163ffffffff167c0100000000000000000000000000000000000000000000000000000000028152600401602060405180830381600087803b1580156108b257600080fd5b505af11580156108c6573d6000803e3d6000fd5b505050506040513d60208110156108dc57600080fd5b5051600160a060020a031633146108f257600080fd5b600654610905908363ffffffff61116116565b600154604080517f70a082310000000000000000000000000000000000000000000000000000000081523060048201529051600160a060020a03909216916370a08231916024808201926020929091908290030181600087803b15801561096b57600080fd5b505af115801561097f573d6000803e3d6000fd5b505050506040513d602081101561099557600080fd5b505110156109a257600080fd5b6006546109b5908363ffffffff61116116565b60065560408051808201909152908152602081019182526005805460018101825560009190915290517f036b6384b5eca791c62761152d0c79bb0604c104a5fb6f4eb0703f3154bb3db060029092029182015590517f036b6384b5eca791c62761152d0c79bb0604c104a5fb6f4eb0703f3154bb3db190910155565b600754610100900460ff1681565b600154600160a060020a03163314610a5657600080fd5b505050565b60075460ff1681565b6060600080600080600080600080610a7a6103df565b1515610a8557600080fd5b600160a060020a038c161515610a9a57600080fd5b60048a6040518082805190602001908083835b60208310610acc5780518252601f199092019160209182019101610aad565b51815160209384036101000a600019018019909216911617905292019485525060405193849003019092205460ff16159150610b09905057600080fd5b600160048b6040518082805190602001908083835b60208310610b3d5780518252601f199092019160209182019101610b1e565b6001836020036101000a038019825116818451168082178552505050505050905001915050908152602001604051809103902060006101000a81548160ff021916908315150217905550308c8c6040516020018084600160a060020a0316600160a060020a03166c01000000000000000000000000028152601401807f72656c656173650000000000000000000000000000000000000000000000000081525060070183600160a060020a0316600160a060020a03166c0100000000000000000000000002815260140182815260200193505050506040516020818303038152906040529850610c598a6107a38b604051808280519060200190808383602083106107705780518252601f199092019160209182019101610751565b9750600160a060020a0388161515610c7057600080fd5b600354600160a060020a03898116911614610c8a57600080fd5b6005548c97506000965093504292508591505b83821015610d09576005805483908110610cb357fe5b60009182526020822060029091020180549650915085118015610cd557508285105b15610cfe576001810154610cf090879063ffffffff61116116565b600060018301819055825595505b600190910190610c9d565b6000861115610df357600654610d25908763ffffffff61117416565b600655600154604080517fa9059cbb000000000000000000000000000000000000000000000000000000008152600160a060020a038a81166004830152602482018a90529151919092169163a9059cbb91604480830192600092919082900301818387803b158015610d9657600080fd5b505af1158015610daa573d6000803e3d6000fd5b505060408051600160a060020a038b168152602081018a905281517fb21fb52d5749b80f3182f8c6992236b5e5576681880914484d7f4c9b062e619e9450908190039091019150a15b505050505050505050505050565b600354600254604080517f8da5cb5b0000000000000000000000000000000000000000000000000000000081529051600160a060020a0393841685851614936000938493911691638da5cb5b9160048082019260209290919082900301818787803b158015610e6f57600080fd5b505af1158015610e83573d6000803e3d6000fd5b505050506040513d6020811015610e9957600080fd5b5051600160a060020a0385811691161491508280610eb45750815b1515610f4657604080517f08c379a0000000000000000000000000000000000000000000000000000000008152602060048201526024808201527f5369676e6572206d757374206265206120776f726b6572206f7220656d706c6f60448201527f7965652100000000000000000000000000000000000000000000000000000000606482015290519081900360840190fd5b610f4e6103df565b90508215610f66576007805461ff0019166101001790555b8115610f7a576007805460ff191660011790555b80158015610f8b5750610f8b6103df565b156108315760025460035460408051600160a060020a03938416815292909116602083015280517f4cd361b37129a4a13dff2704ff3bc0261c22f688c60784c2849582de8b77f1f59281900390910190a150505050565b604080517f19457468657265756d205369676e6564204d6573736167653a0a333200000000602080830191909152603c80830185905283518084039091018152605c909201928390528151600093918291908401908083835b6020831061105a5780518252601f19909201916020918201910161103b565b5181516020939093036101000a6000190180199091169216919091179052604051920182900390912095945050505050565b600080600080845160411415156110a65760009350611158565b50505060208201516040830151606084015160001a601b60ff821610156110cb57601b015b8060ff16601b141580156110e357508060ff16601c14155b156110f15760009350611158565b60408051600080825260208083018085528a905260ff8516838501526060830187905260808301869052925160019360a0808501949193601f19840193928390039091019190865af115801561114b573d6000803e3d6000fd5b5050506020604051035193505b50505092915050565b8181018281101561116e57fe5b92915050565b60008282111561118057fe5b509003905600a165627a7a7230582033f1fdd6ae9eec1462faf2df9a8f0558b7cdfdc8c4eb65c685f3d424c61e8ca00029a165627a7a723058200d1387a6529615ab6912beec3b0159c8fd5df185c821f522d5d3df58cf1ca8040029",
  "source": "pragma solidity ^0.4.24;\n\nimport { NoiaBaseContractV1 } from './NoiaBaseContractV1.sol';\nimport { NoiaBusinessV1 } from './NoiaBusinessV1.sol';\nimport { NoiaWorkOrderV1 } from \"./NoiaWorkOrderV1.sol\";\nimport { NoiaMarketplace } from \"../gov/NoiaMarketplace.sol\";\nimport { Owned } from \"../../abstracts/Owned.sol\";\n\n/**\n * Standard Noia Job Post Contract V1 (Draft)\n *\n */\ncontract NoiaJobPostV1 is NoiaBaseContractV1 {\n    NoiaBusinessV1 public employer;\n    bytes32 public infoType;\n    bytes public infoData;\n\n    mapping(address => NoiaWorkOrderV1) employerCreatedOrders;\n\n    constructor(\n        address factory,\n        NoiaMarketplace marketplace,\n        NoiaBusinessV1 employer_,\n        bytes32 infoType_, bytes infoData_)\n        NoiaBaseContractV1(factory, marketplace) public {\n        employer = employer_;\n        infoType = infoType_;\n        infoData = infoData_;\n    }\n\n    function createWorkOrder(address _workerOwner) public {\n        NoiaWorkOrderV1.Initiator initiator;\n        NoiaWorkOrderV1 workOrder;\n        if (msg.sender == address(employer.owner())) {\n            initiator = NoiaWorkOrderV1.Initiator.Employer;\n            workOrder = new NoiaWorkOrderV1(this, initiator, _workerOwner);\n            employerCreatedOrders[_workerOwner] = workOrder;\n        } else {\n            require(false);\n        }\n        emit NoiaContractV1Created(workOrder);\n    }\n\n    /**\n     * Get created work order from employer\n     */\n    function getWorkOrder(address _workerOwner) public view returns (address) {\n        return employerCreatedOrders[_workerOwner];\n    }\n\n    event NoiaContractV1Created(address contractInstance);\n}\n",
  "sourcePath": "/srv/work/projects/noia-network/noia-governance/contracts/noia/v1/NoiaJobPostV1.sol",
  "compiler": {
    "name": "solc",
    "version": "0.4.24+commit.e67f0147.Emscripten.clang"
  },
  "schemaVersion": "2.0.0",
  "updatedAt": "2018-09-10T14:17:13.953Z"
}