{
  "contractName": "NoiaBusinessV1",
  "abi": [
    {
      "constant": true,
      "inputs": [],
      "name": "infoData",
      "outputs": [
        {
          "name": "",
          "type": "bytes"
        }
      ],
      "payable": false,
      "stateMutability": "view",
      "type": "function"
    },
    {
      "constant": true,
      "inputs": [],
      "name": "version",
      "outputs": [
        {
          "name": "",
          "type": "uint16"
        }
      ],
      "payable": false,
      "stateMutability": "view",
      "type": "function"
    },
    {
      "constant": true,
      "inputs": [],
      "name": "owner",
      "outputs": [
        {
          "name": "",
          "type": "address"
        }
      ],
      "payable": false,
      "stateMutability": "view",
      "type": "function"
    },
    {
      "constant": false,
      "inputs": [
        {
          "name": "_newOwner",
          "type": "address"
        }
      ],
      "name": "changeOwner",
      "outputs": [],
      "payable": false,
      "stateMutability": "nonpayable",
      "type": "function"
    },
    {
      "constant": true,
      "inputs": [],
      "name": "marketplace",
      "outputs": [
        {
          "name": "",
          "type": "address"
        }
      ],
      "payable": false,
      "stateMutability": "view",
      "type": "function"
    },
    {
      "constant": true,
      "inputs": [],
      "name": "infoType",
      "outputs": [
        {
          "name": "",
          "type": "bytes32"
        }
      ],
      "payable": false,
      "stateMutability": "view",
      "type": "function"
    },
    {
      "constant": true,
      "inputs": [],
      "name": "factory",
      "outputs": [
        {
          "name": "",
          "type": "address"
        }
      ],
      "payable": false,
      "stateMutability": "view",
      "type": "function"
    },
    {
      "inputs": [
        {
          "name": "factory",
          "type": "address"
        },
        {
          "name": "marketplace",
          "type": "address"
        },
        {
          "name": "infoType_",
          "type": "bytes32"
        },
        {
          "name": "infoData_",
          "type": "bytes"
        }
      ],
      "payable": false,
      "stateMutability": "nonpayable",
      "type": "constructor"
    },
    {
      "constant": false,
      "inputs": [
        {
          "name": "infoType_",
          "type": "bytes32"
        },
        {
          "name": "infoData_",
          "type": "bytes"
        }
      ],
      "name": "setInfo",
      "outputs": [],
      "payable": false,
      "stateMutability": "nonpayable",
      "type": "function"
    },
    {
      "constant": false,
      "inputs": [
        {
          "name": "certificateAddress",
          "type": "address"
        }
      ],
      "name": "signCertificate",
      "outputs": [],
      "payable": false,
      "stateMutability": "nonpayable",
      "type": "function"
    }
  ],
  "bytecode": "0x608060405234801561001057600080fd5b5060405161080b38038061080b8339810160409081528151602083015191830151606084015160008054600160a060020a03191633908117909155929491929101908490849082908290600190600160a060020a0384161461007157600080fd5b6002805460018054600160a060020a03968716600160a060020a0319918216179091559390941661ffff909216740100000000000000000000000000000000000000000260a060020a61ffff021990941693909317919091161790555050600382905580516100e79060049060208401906100f1565b505050505061018c565b828054600181600116156101000203166002900490600052602060002090601f016020900481019282601f1061013257805160ff191683800117855561015f565b8280016001018555821561015f579182015b8281111561015f578251825591602001919060010190610144565b5061016b92915061016f565b5090565b61018991905b8082111561016b5760008155600101610175565b90565b6106708061019b6000396000f30060806040526004361061007f5763ffffffff60e060020a6000350416632781e01681146100845780632e5b5a13146100a757806354fd4d5014610131578063699af6221461015d5780638da5cb5b146101bb578063a6f9dae1146101ec578063abc8c7af1461020d578063afb74f4814610222578063c45a015514610249575b600080fd5b34801561009057600080fd5b506100a5600160a060020a036004351661025e565b005b3480156100b357600080fd5b506100bc610463565b6040805160208082528351818301528351919283929083019185019080838360005b838110156100f65781810151838201526020016100de565b50505050905090810190601f1680156101235780820380516001836020036101000a031916815260200191505b509250505060405180910390f35b34801561013d57600080fd5b506101466104f1565b6040805161ffff9092168252519081900360200190f35b34801561016957600080fd5b5060408051602060046024803582810135601f81018590048502860185019096528585526100a59583359536956044949193909101919081908401838280828437509497506105139650505050505050565b3480156101c757600080fd5b506101d0610530565b60408051600160a060020a039092168252519081900360200190f35b3480156101f857600080fd5b506100a5600160a060020a036004351661053f565b34801561021957600080fd5b506101d0610585565b34801561022e57600080fd5b50610237610594565b60408051918252519081900360200190f35b34801561025557600080fd5b506101d061059a565b600054600160a060020a0316331461027557600080fd5b600260009054906101000a9004600160a060020a0316600160a060020a031663ba9bb76d6040518163ffffffff1660e060020a028152600401602060405180830381600087803b1580156102c857600080fd5b505af11580156102dc573d6000803e3d6000fd5b505050506040513d60208110156102f257600080fd5b5051604080517fa25047a2000000000000000000000000000000000000000000000000000000008152600160a060020a0384811660048301529151919092169163a25047a29160248083019260209291908290030181600087803b15801561035957600080fd5b505af115801561036d573d6000803e3d6000fd5b505050506040513d602081101561038357600080fd5b5051151561039057600080fd5b80600160a060020a03166354fd4d506040518163ffffffff1660e060020a028152600401602060405180830381600087803b1580156103ce57600080fd5b505af11580156103e2573d6000803e3d6000fd5b505050506040513d60208110156103f857600080fd5b505161ffff1660011461040a57600080fd5b80600160a060020a0316632ca151226040518163ffffffff1660e060020a028152600401600060405180830381600087803b15801561044857600080fd5b505af115801561045c573d6000803e3d6000fd5b5050505050565b6004805460408051602060026001851615610100026000190190941693909304601f810184900484028201840190925281815292918301828280156104e95780601f106104be576101008083540402835291602001916104e9565b820191906000526020600020905b8154815290600101906020018083116104cc57829003601f168201915b505050505081565b60025474010000000000000000000000000000000000000000900461ffff1681565b6003829055805161052b9060049060208401906105a9565b505050565b600054600160a060020a031681565b600054600160a060020a0316331461055657600080fd5b6000805473ffffffffffffffffffffffffffffffffffffffff1916600160a060020a0392909216919091179055565b600254600160a060020a031681565b60035481565b600154600160a060020a031681565b828054600181600116156101000203166002900490600052602060002090601f016020900481019282601f106105ea57805160ff1916838001178555610617565b82800160010185558215610617579182015b828111156106175782518255916020019190600101906105fc565b50610623929150610627565b5090565b61064191905b80821115610623576000815560010161062d565b905600a165627a7a72305820feefdd35c01d1ba626206ed66a92664a51da05f9597b305f3db8a9faf8aef4260029",
  "source": "pragma solidity ^0.4.11;\n\nimport '../gov/NoiaMarketplace.sol';\nimport './NoiaBaseContractV1.sol';\nimport './NoiaCertificateV1.sol';\n\n/**\n * Standard Noia Business Contract V1 (Draft)\n */\ncontract NoiaBusinessV1 is NoiaBaseContractV1 {\n    bytes32 public infoType;\n    bytes public infoData;\n\n    constructor(address factory,\n        NoiaMarketplace marketplace,\n        bytes32 infoType_, bytes infoData_)\n        NoiaBaseContractV1(factory, marketplace) public {\n        infoType = infoType_;\n        infoData = infoData_;\n    }\n\n    function setInfo(bytes32 infoType_, bytes infoData_) public {\n        infoType = infoType_;\n        infoData = infoData_;\n    }\n\n    function signCertificate(address certificateAddress) onlyOwner public {\n        require(marketplace.certificatesRegistry().hasEntry(certificateAddress));\n        require(NoiaBaseContract(certificateAddress).version() == 1);\n        NoiaCertificateV1(certificateAddress).sign();\n    }\n}\n",
  "sourcePath": "/srv/work/projects/noia-network/noia-governance/contracts/noia/v1/NoiaBusinessV1.sol",
  "compiler": {
    "name": "solc",
    "version": "0.4.24+commit.e67f0147.Emscripten.clang"
  },
  "schemaVersion": "2.0.0",
  "updatedAt": "2018-08-28T09:15:40.574Z"
}