{
  "contractName": "NoiaCertificate",
  "abi": [
    {
      "constant": true,
      "inputs": [],
      "name": "issuer",
      "outputs": [
        {
          "name": "",
          "type": "address"
        }
      ],
      "payable": false,
      "stateMutability": "view",
      "type": "function"
    },
    {
      "constant": true,
      "inputs": [],
      "name": "version",
      "outputs": [
        {
          "name": "",
          "type": "uint16"
        }
      ],
      "payable": false,
      "stateMutability": "view",
      "type": "function"
    },
    {
      "constant": true,
      "inputs": [],
      "name": "recipient",
      "outputs": [
        {
          "name": "",
          "type": "address"
        }
      ],
      "payable": false,
      "stateMutability": "view",
      "type": "function"
    },
    {
      "inputs": [
        {
          "name": "issuer_",
          "type": "address"
        },
        {
          "name": "recipient_",
          "type": "address"
        }
      ],
      "payable": false,
      "stateMutability": "nonpayable",
      "type": "constructor"
    }
  ],
  "bytecode": "0x6060604052341561000f57600080fd5b6040516040806102a68339810160405280805190602001909190805190602001909190505060016000806101000a81548161ffff021916908361ffff16021790555081600060026101000a81548173ffffffffffffffffffffffffffffffffffffffff021916908373ffffffffffffffffffffffffffffffffffffffff16021790555080600160006101000a81548173ffffffffffffffffffffffffffffffffffffffff021916908373ffffffffffffffffffffffffffffffffffffffff16021790555050506101c2806100e46000396000f300606060405260043610610057576000357c0100000000000000000000000000000000000000000000000000000000900463ffffffff1680631d1438481461005c57806354fd4d50146100b157806366d003ac146100e2575b600080fd5b341561006757600080fd5b61006f610137565b604051808273ffffffffffffffffffffffffffffffffffffffff1673ffffffffffffffffffffffffffffffffffffffff16815260200191505060405180910390f35b34156100bc57600080fd5b6100c461015d565b604051808261ffff1661ffff16815260200191505060405180910390f35b34156100ed57600080fd5b6100f5610170565b604051808273ffffffffffffffffffffffffffffffffffffffff1673ffffffffffffffffffffffffffffffffffffffff16815260200191505060405180910390f35b600060029054906101000a900473ffffffffffffffffffffffffffffffffffffffff1681565b6000809054906101000a900461ffff1681565b600160009054906101000a900473ffffffffffffffffffffffffffffffffffffffff16815600a165627a7a723058201aef9edfc1fd8e68040228a4289b0045f2a34df0a242d7739e77fd41c6ec01020029",
  "source": "pragma solidity ^0.4.11;\n\nimport './NoiaNode.sol';\nimport './NoiaBusiness.sol';\n\ncontract NoiaCertificate {\n    uint16 constant CURRENT_VERSION = 1;\n\n    uint16 public version;\n\n    NoiaBusiness public issuer;\n    NoiaNode public recipient;\n\n    function NoiaCertificate(NoiaBusiness issuer_, NoiaNode recipient_) public {\n        version = CURRENT_VERSION;\n        issuer = issuer_;\n        recipient = recipient_;\n    }\n}\n",
  "sourcePath": "/home/hellwolf/Projects/noia/noia-governance/contracts/NoiaCertificate.sol",
  "compiler": {
    "name": "solc",
    "version": "0.4.21+commit.dfe3193c.Emscripten.clang"
  },
  "schemaVersion": "2.0.0",
  "updatedAt": "2018-04-14T21:34:04.642Z"
}