{
  "contractName": "NoiaRegistry",
  "abi": [
    {
      "inputs": [
        {
          "name": "regulation_",
          "type": "address"
        }
      ],
      "payable": false,
      "stateMutability": "nonpayable",
      "type": "constructor"
    },
    {
      "anonymous": false,
      "inputs": [
        {
          "indexed": false,
          "name": "baseContract",
          "type": "address"
        }
      ],
      "name": "NoiaRegistryEntryAdded",
      "type": "event"
    },
    {
      "constant": false,
      "inputs": [
        {
          "name": "baseContract",
          "type": "address"
        }
      ],
      "name": "addEntry",
      "outputs": [],
      "payable": false,
      "stateMutability": "nonpayable",
      "type": "function"
    },
    {
      "constant": true,
      "inputs": [
        {
          "name": "baseContract",
          "type": "address"
        }
      ],
      "name": "hasEntry",
      "outputs": [
        {
          "name": "",
          "type": "bool"
        }
      ],
      "payable": false,
      "stateMutability": "view",
      "type": "function"
    },
    {
      "constant": true,
      "inputs": [],
      "name": "count",
      "outputs": [
        {
          "name": "",
          "type": "uint256"
        }
      ],
      "payable": false,
      "stateMutability": "view",
      "type": "function"
    }
  ],
  "bytecode": "0x608060405234801561001057600080fd5b50604051602080610310833981016040525160008054600160a060020a03909216600160a060020a03199092169190911790556102be806100526000396000f3006080604052600436106100565763ffffffff7c010000000000000000000000000000000000000000000000000000000060003504166306661abd811461005b578063a25047a214610082578063f15ae568146100b7575b600080fd5b34801561006757600080fd5b506100706100da565b60408051918252519081900360200190f35b34801561008e57600080fd5b506100a3600160a060020a03600435166100e0565b604080519115158252519081900360200190f35b3480156100c357600080fd5b506100d8600160a060020a03600435166100fc565b005b60025490565b600160a060020a03166000908152600160205260408120541190565b80600160a060020a031663c45a01556040518163ffffffff167c0100000000000000000000000000000000000000000000000000000000028152600401602060405180830381600087803b15801561015357600080fd5b505af1158015610167573d6000803e3d6000fd5b505050506040513d602081101561017d57600080fd5b5051600160a060020a0316331461019357600080fd5b60008054604080517f1f94c77c000000000000000000000000000000000000000000000000000000008152600160a060020a03858116600483015291519190921692631f94c77c92602480820193602093909283900390910190829087803b1580156101fe57600080fd5b505af1158015610212573d6000803e3d6000fd5b505050506040513d602081101561022857600080fd5b5051151561023557600080fd5b600160a060020a03811660008181526001602081815260409283902082905560028054909201909155815192835290517f1d2908a21f62bdc114393352feeaf505a80950de4d81096e75e408f23ffcf1ef9281900390910190a1505600a165627a7a7230582082299cb84100a1b8c83a25a04d72955f17821e87e9b75cc2ed3277cb977ffff40029",
  "source": "pragma solidity ^0.4.11;\n\nimport './NoiaBaseContract.sol';\nimport './NoiaRegulation.sol';\n\n/**\n * Shared Noia Registry\n *\n * Features/Limitations:\n * - can add base contract to entry\n *   - only allow creator of the contract to add it to entries\n *   - only allow contracts passing the regulation to be added\n * - emit NoiaRegistryEntryAdded when adding entry\n * - can query entry existence\n * - count total entries\n * - does not track base contract deletion\n */\ncontract NoiaRegistry {\n    NoiaRegulation regulation;\n    mapping(address => uint) entries;\n    uint nEntries;\n\n    constructor(NoiaRegulation regulation_) public {\n        regulation = regulation_;\n    }\n\n    function addEntry(NoiaBaseContract baseContract) public {\n        // validate that sender is from the same factory\n        require(msg.sender == address(baseContract.factory()));\n        require(regulation.isContractValid(baseContract));\n        entries[address(baseContract)] = 1;\n        ++nEntries;\n        emit NoiaRegistryEntryAdded(address(baseContract));\n    }\n\n    function hasEntry(address baseContract) public view returns (bool) {\n        return entries[address(baseContract)] > 0;\n    }\n\n    function count() public view returns (uint) {\n        return nEntries;\n    }\n\n    event NoiaRegistryEntryAdded(\n        address baseContract);\n}\n",
  "sourcePath": "/srv/work/projects/noia-network/noia-governance/contracts/noia/gov/NoiaRegistry.sol",
  "compiler": {
    "name": "solc",
    "version": "0.4.24+commit.e67f0147.Emscripten.clang"
  },
  "schemaVersion": "2.0.0",
  "updatedAt": "2018-07-26T12:36:39.709Z"
}