{
  "contractName": "NoiaBusinessV1",
  "abi": [
    {
      "constant": true,
      "inputs": [],
      "name": "creator",
      "outputs": [
        {
          "name": "",
          "type": "address"
        }
      ],
      "payable": false,
      "stateMutability": "view",
      "type": "function"
    },
    {
      "constant": true,
      "inputs": [],
      "name": "version",
      "outputs": [
        {
          "name": "",
          "type": "uint16"
        }
      ],
      "payable": false,
      "stateMutability": "view",
      "type": "function"
    },
    {
      "constant": true,
      "inputs": [],
      "name": "owner",
      "outputs": [
        {
          "name": "",
          "type": "address"
        }
      ],
      "payable": false,
      "stateMutability": "view",
      "type": "function"
    },
    {
      "constant": false,
      "inputs": [
        {
          "name": "_newOwner",
          "type": "address"
        }
      ],
      "name": "changeOwner",
      "outputs": [],
      "payable": false,
      "stateMutability": "nonpayable",
      "type": "function"
    },
    {
      "anonymous": false,
      "inputs": [
        {
          "indexed": true,
          "name": "issuer",
          "type": "address"
        },
        {
          "indexed": true,
          "name": "recipient",
          "type": "address"
        },
        {
          "indexed": false,
          "name": "certificate",
          "type": "address"
        }
      ],
      "name": "CertificateSignedV1",
      "type": "event"
    },
    {
      "anonymous": false,
      "inputs": [
        {
          "indexed": true,
          "name": "issuer",
          "type": "address"
        },
        {
          "indexed": true,
          "name": "recipient",
          "type": "address"
        },
        {
          "indexed": false,
          "name": "certificate",
          "type": "address"
        }
      ],
      "name": "CertificateUpdatedV1",
      "type": "event"
    },
    {
      "anonymous": false,
      "inputs": [
        {
          "indexed": true,
          "name": "issuer",
          "type": "address"
        },
        {
          "indexed": true,
          "name": "recipient",
          "type": "address"
        },
        {
          "indexed": false,
          "name": "certificate",
          "type": "address"
        }
      ],
      "name": "CertificateRevokedV1",
      "type": "event"
    },
    {
      "constant": false,
      "inputs": [
        {
          "name": "certificate",
          "type": "address"
        }
      ],
      "name": "signCertificate",
      "outputs": [],
      "payable": false,
      "stateMutability": "nonpayable",
      "type": "function"
    },
    {
      "constant": false,
      "inputs": [
        {
          "name": "certificate",
          "type": "address"
        },
        {
          "name": "payloadType",
          "type": "bytes32"
        },
        {
          "name": "payloadData",
          "type": "bytes"
        }
      ],
      "name": "updateCertificate",
      "outputs": [],
      "payable": false,
      "stateMutability": "nonpayable",
      "type": "function"
    },
    {
      "constant": false,
      "inputs": [
        {
          "name": "certificate",
          "type": "address"
        }
      ],
      "name": "sendCertificateRevokeNotice",
      "outputs": [],
      "payable": false,
      "stateMutability": "nonpayable",
      "type": "function"
    },
    {
      "constant": false,
      "inputs": [
        {
          "name": "certificate",
          "type": "address"
        }
      ],
      "name": "revokeCertificate",
      "outputs": [],
      "payable": false,
      "stateMutability": "nonpayable",
      "type": "function"
    }
  ],
  "bytecode": "0x6060604052600133600160006101000a81548173ffffffffffffffffffffffffffffffffffffffff021916908373ffffffffffffffffffffffffffffffffffffffff16021790556000806101000a81548173ffffffffffffffffffffffffffffffffffffffff021916908373ffffffffffffffffffffffffffffffffffffffff16021790555080600160146101000a81548161ffff021916908361ffff16021790555050610ef4806100b26000396000f30060606040526004361061008e576000357c0100000000000000000000000000000000000000000000000000000000900463ffffffff16806302d05d3f146100935780632781e016146100e857806354fd4d50146101215780635bfb2370146101525780635f5cf8011461018b5780635f893bfa146102145780638da5cb5b1461024d578063a6f9dae1146102a2575b600080fd5b341561009e57600080fd5b6100a66102db565b604051808273ffffffffffffffffffffffffffffffffffffffff1673ffffffffffffffffffffffffffffffffffffffff16815260200191505060405180910390f35b34156100f357600080fd5b61011f600480803573ffffffffffffffffffffffffffffffffffffffff16906020019091905050610300565b005b341561012c57600080fd5b6101346105f7565b604051808261ffff1661ffff16815260200191505060405180910390f35b341561015d57600080fd5b610189600480803573ffffffffffffffffffffffffffffffffffffffff1690602001909190505061060b565b005b341561019657600080fd5b610212600480803573ffffffffffffffffffffffffffffffffffffffff169060200190919080356000191690602001909190803590602001908201803590602001908080601f0160208091040260200160405190810160405280939291908181526020018383808284378201915050505050509190505061077f565b005b341561021f57600080fd5b61024b600480803573ffffffffffffffffffffffffffffffffffffffff16906020019091905050610af8565b005b341561025857600080fd5b610260610def565b604051808273ffffffffffffffffffffffffffffffffffffffff1673ffffffffffffffffffffffffffffffffffffffff16815260200191505060405180910390f35b34156102ad57600080fd5b6102d9600480803573ffffffffffffffffffffffffffffffffffffffff16906020019091905050610e15565b005b6000809054906101000a900473ffffffffffffffffffffffffffffffffffffffff1681565b8061030a81610eb5565b151561031557600080fd5b60018173ffffffffffffffffffffffffffffffffffffffff166354fd4d506040518163ffffffff167c0100000000000000000000000000000000000000000000000000000000028152600401602060405180830381600087803b151561037a57600080fd5b5af1151561038757600080fd5b5050506040518051905061ffff161415156103a157600080fd5b600160009054906101000a900473ffffffffffffffffffffffffffffffffffffffff1673ffffffffffffffffffffffffffffffffffffffff163373ffffffffffffffffffffffffffffffffffffffff161415156103fd57600080fd5b8173ffffffffffffffffffffffffffffffffffffffff16632ca151226040518163ffffffff167c0100000000000000000000000000000000000000000000000000000000028152600401600060405180830381600087803b151561046057600080fd5b5af1151561046d57600080fd5b5050508173ffffffffffffffffffffffffffffffffffffffff166366d003ac6040518163ffffffff167c0100000000000000000000000000000000000000000000000000000000028152600401602060405180830381600087803b15156104d357600080fd5b5af115156104e057600080fd5b5050506040518051905073ffffffffffffffffffffffffffffffffffffffff168273ffffffffffffffffffffffffffffffffffffffff16631d1438486040518163ffffffff167c0100000000000000000000000000000000000000000000000000000000028152600401602060405180830381600087803b151561056357600080fd5b5af1151561057057600080fd5b5050506040518051905073ffffffffffffffffffffffffffffffffffffffff167f55bce1bcabc08a1a080c97efadeadf8116df766d74d772cfd0e8161073b31a5e84604051808273ffffffffffffffffffffffffffffffffffffffff1673ffffffffffffffffffffffffffffffffffffffff16815260200191505060405180910390a35050565b600160149054906101000a900461ffff1681565b8061061581610eb5565b151561062057600080fd5b60018173ffffffffffffffffffffffffffffffffffffffff166354fd4d506040518163ffffffff167c0100000000000000000000000000000000000000000000000000000000028152600401602060405180830381600087803b151561068557600080fd5b5af1151561069257600080fd5b5050506040518051905061ffff161415156106ac57600080fd5b600160009054906101000a900473ffffffffffffffffffffffffffffffffffffffff1673ffffffffffffffffffffffffffffffffffffffff163373ffffffffffffffffffffffffffffffffffffffff1614151561070857600080fd5b8173ffffffffffffffffffffffffffffffffffffffff1663bf8fcfbe6040518163ffffffff167c0100000000000000000000000000000000000000000000000000000000028152600401600060405180830381600087803b151561076b57600080fd5b5af1151561077857600080fd5b5050505050565b8261078981610eb5565b151561079457600080fd5b60018173ffffffffffffffffffffffffffffffffffffffff166354fd4d506040518163ffffffff167c0100000000000000000000000000000000000000000000000000000000028152600401602060405180830381600087803b15156107f957600080fd5b5af1151561080657600080fd5b5050506040518051905061ffff1614151561082057600080fd5b600160009054906101000a900473ffffffffffffffffffffffffffffffffffffffff1673ffffffffffffffffffffffffffffffffffffffff163373ffffffffffffffffffffffffffffffffffffffff1614151561087c57600080fd5b8373ffffffffffffffffffffffffffffffffffffffff1663212788f984846040518363ffffffff167c010000000000000000000000000000000000000000000000000000000002815260040180836000191660001916815260200180602001828103825283818151815260200191508051906020019080838360005b838110156109135780820151818401526020810190506108f8565b50505050905090810190601f1680156109405780820380516001836020036101000a031916815260200191505b509350505050600060405180830381600087803b151561095f57600080fd5b5af1151561096c57600080fd5b5050508373ffffffffffffffffffffffffffffffffffffffff166366d003ac6040518163ffffffff167c0100000000000000000000000000000000000000000000000000000000028152600401602060405180830381600087803b15156109d257600080fd5b5af115156109df57600080fd5b5050506040518051905073ffffffffffffffffffffffffffffffffffffffff168473ffffffffffffffffffffffffffffffffffffffff16631d1438486040518163ffffffff167c0100000000000000000000000000000000000000000000000000000000028152600401602060405180830381600087803b1515610a6257600080fd5b5af11515610a6f57600080fd5b5050506040518051905073ffffffffffffffffffffffffffffffffffffffff167f35d200684fe8162a67c412b6bb2725481d7f90e83c9a6cb59fb4ce71b0bf585e86604051808273ffffffffffffffffffffffffffffffffffffffff1673ffffffffffffffffffffffffffffffffffffffff16815260200191505060405180910390a350505050565b80610b0281610eb5565b1515610b0d57600080fd5b60018173ffffffffffffffffffffffffffffffffffffffff166354fd4d506040518163ffffffff167c0100000000000000000000000000000000000000000000000000000000028152600401602060405180830381600087803b1515610b7257600080fd5b5af11515610b7f57600080fd5b5050506040518051905061ffff16141515610b9957600080fd5b600160009054906101000a900473ffffffffffffffffffffffffffffffffffffffff1673ffffffffffffffffffffffffffffffffffffffff163373ffffffffffffffffffffffffffffffffffffffff16141515610bf557600080fd5b8173ffffffffffffffffffffffffffffffffffffffff1663b6549f756040518163ffffffff167c0100000000000000000000000000000000000000000000000000000000028152600401600060405180830381600087803b1515610c5857600080fd5b5af11515610c6557600080fd5b5050508173ffffffffffffffffffffffffffffffffffffffff166366d003ac6040518163ffffffff167c0100000000000000000000000000000000000000000000000000000000028152600401602060405180830381600087803b1515610ccb57600080fd5b5af11515610cd857600080fd5b5050506040518051905073ffffffffffffffffffffffffffffffffffffffff168273ffffffffffffffffffffffffffffffffffffffff16631d1438486040518163ffffffff167c0100000000000000000000000000000000000000000000000000000000028152600401602060405180830381600087803b1515610d5b57600080fd5b5af11515610d6857600080fd5b5050506040518051905073ffffffffffffffffffffffffffffffffffffffff167fc03a186f7ae51763ee7cf0cb3aa2d05e8d557075233806eaa96db96a96fedbd084604051808273ffffffffffffffffffffffffffffffffffffffff1673ffffffffffffffffffffffffffffffffffffffff16815260200191505060405180910390a35050565b600160009054906101000a900473ffffffffffffffffffffffffffffffffffffffff1681565b600160009054906101000a900473ffffffffffffffffffffffffffffffffffffffff1673ffffffffffffffffffffffffffffffffffffffff163373ffffffffffffffffffffffffffffffffffffffff16141515610e7157600080fd5b80600160006101000a81548173ffffffffffffffffffffffffffffffffffffffff021916908373ffffffffffffffffffffffffffffffffffffffff16021790555050565b600080823b9050600081119150509190505600a165627a7a72305820587a022e338864413f28ea1f0b73b0e79a05034cd27ed5a02d81157acffdb5bc0029",
  "source": "pragma solidity ^0.4.11;\n\nimport './NoiaBaseContractV1.sol';\nimport './NoiaCertificateV1.sol';\n\n/**\n * Standard Noia Business Contract V1 (Draft)\n */\ncontract NoiaBusinessV1\n    is NoiaBaseContractV1 {\n    //\n    // Certificate Functions\n    //\n    modifier ofCertificateV1(address certificateAddress) {\n        require(isContract(certificateAddress));\n        require(NoiaBaseContract(certificateAddress).version() == 1);\n        _;\n    }\n\n    function signCertificate(NoiaCertificateV1 certificate)\n        ofCertificateV1(address(certificate)) onlyOwner public {\n        certificate.sign();\n        emit CertificateSignedV1(certificate.issuer(), certificate.recipient(), address(certificate));\n    }\n\n    function updateCertificate(\n        NoiaCertificateV1 certificate,\n        bytes32 payloadType, bytes payloadData)\n        ofCertificateV1(address(certificate)) onlyOwner public {\n        certificate.update(payloadType, payloadData);\n        emit CertificateUpdatedV1(certificate.issuer(), certificate.recipient(), address(certificate));\n    }\n\n    function sendCertificateRevokeNotice(NoiaCertificateV1 certificate)\n        ofCertificateV1(address(certificate)) onlyOwner public {\n        certificate.revokeNotice();\n    }\n\n    function revokeCertificate(NoiaCertificateV1 certificate)\n        ofCertificateV1(address(certificate)) onlyOwner public {\n        certificate.revoke();\n        emit CertificateRevokedV1(certificate.issuer(), certificate.recipient(), address(certificate));\n    }\n\n    event CertificateSignedV1(\n        address indexed issuer,\n        address indexed recipient,\n        address certificate);\n\n    event CertificateUpdatedV1(\n        address indexed issuer,\n        address indexed recipient,\n        address certificate);\n\n    event CertificateRevokedV1(\n        address indexed issuer,\n        address indexed recipient,\n        address certificate);\n\n    //\n    // misc\n    //\n    function isContract(address addr) private view returns (bool) {\n      uint size;\n      assembly { size := extcodesize(addr) }\n      return size > 0;\n    }\n}\n",
  "sourcePath": "/home/hellwolf/Projects/noia/noia-governance/contracts/noia/v1/NoiaBusinessV1.sol",
  "compiler": {
    "name": "solc",
    "version": "0.4.21+commit.dfe3193c.Emscripten.clang"
  },
  "schemaVersion": "2.0.0",
  "updatedAt": "2018-04-18T01:25:36.173Z"
}