{
  "contractName": "NoiaNodeV1",
  "abi": [
    {
      "constant": true,
      "inputs": [],
      "name": "creator",
      "outputs": [
        {
          "name": "",
          "type": "address"
        }
      ],
      "payable": false,
      "stateMutability": "view",
      "type": "function"
    },
    {
      "constant": true,
      "inputs": [],
      "name": "version",
      "outputs": [
        {
          "name": "",
          "type": "uint16"
        }
      ],
      "payable": false,
      "stateMutability": "view",
      "type": "function"
    },
    {
      "constant": true,
      "inputs": [],
      "name": "owner",
      "outputs": [
        {
          "name": "",
          "type": "address"
        }
      ],
      "payable": false,
      "stateMutability": "view",
      "type": "function"
    },
    {
      "constant": false,
      "inputs": [
        {
          "name": "_newOwner",
          "type": "address"
        }
      ],
      "name": "changeOwner",
      "outputs": [],
      "payable": false,
      "stateMutability": "nonpayable",
      "type": "function"
    },
    {
      "constant": true,
      "inputs": [],
      "name": "certificatesCount",
      "outputs": [
        {
          "name": "",
          "type": "uint256"
        }
      ],
      "payable": false,
      "stateMutability": "view",
      "type": "function"
    },
    {
      "constant": false,
      "inputs": [
        {
          "name": "certificateAddress",
          "type": "address"
        }
      ],
      "name": "acceptSignedCertificate",
      "outputs": [],
      "payable": false,
      "stateMutability": "nonpayable",
      "type": "function"
    },
    {
      "constant": true,
      "inputs": [
        {
          "name": "certificateAddress",
          "type": "address"
        }
      ],
      "name": "acceptCertificateUpdate",
      "outputs": [],
      "payable": false,
      "stateMutability": "view",
      "type": "function"
    },
    {
      "constant": false,
      "inputs": [
        {
          "name": "certificateAddress",
          "type": "address"
        }
      ],
      "name": "receiveCertificateRevokeNotice",
      "outputs": [],
      "payable": false,
      "stateMutability": "nonpayable",
      "type": "function"
    },
    {
      "constant": true,
      "inputs": [],
      "name": "getCertificates",
      "outputs": [
        {
          "name": "",
          "type": "address[]"
        }
      ],
      "payable": false,
      "stateMutability": "view",
      "type": "function"
    }
  ],
  "bytecode": "0x6060604052600133600160006101000a81548173ffffffffffffffffffffffffffffffffffffffff021916908373ffffffffffffffffffffffffffffffffffffffff16021790556000806101000a81548173ffffffffffffffffffffffffffffffffffffffff021916908373ffffffffffffffffffffffffffffffffffffffff16021790555080600160146101000a81548161ffff021916908361ffff1602179055505061093f806100b26000396000f300606060405260043610610099576000357c0100000000000000000000000000000000000000000000000000000000900463ffffffff16806302d05d3f1461009e5780631f5ddb4f146100f357806354fd4d501461015d5780638da5cb5b1461018e578063a6f9dae1146101e3578063b2017b0e1461021c578063b34b464814610255578063cb86cb521461027e578063ed12679c146102b7575b600080fd5b34156100a957600080fd5b6100b16102f0565b604051808273ffffffffffffffffffffffffffffffffffffffff1673ffffffffffffffffffffffffffffffffffffffff16815260200191505060405180910390f35b34156100fe57600080fd5b610106610315565b6040518080602001828103825283818151815260200191508051906020019060200280838360005b8381101561014957808201518184015260208101905061012e565b505050509050019250505060405180910390f35b341561016857600080fd5b610170610415565b604051808261ffff1661ffff16815260200191505060405180910390f35b341561019957600080fd5b6101a1610429565b604051808273ffffffffffffffffffffffffffffffffffffffff1673ffffffffffffffffffffffffffffffffffffffff16815260200191505060405180910390f35b34156101ee57600080fd5b61021a600480803573ffffffffffffffffffffffffffffffffffffffff1690602001909190505061044f565b005b341561022757600080fd5b610253600480803573ffffffffffffffffffffffffffffffffffffffff169060200190919050506104ef565b005b341561026057600080fd5b6102686105df565b6040518082815260200191505060405180910390f35b341561028957600080fd5b6102b5600480803573ffffffffffffffffffffffffffffffffffffffff169060200190919050506105e5565b005b34156102c257600080fd5b6102ee600480803573ffffffffffffffffffffffffffffffffffffffff169060200190919050506107bc565b005b6000809054906101000a900473ffffffffffffffffffffffffffffffffffffffff1681565b61031d6108ae565b6103256108ae565b600080600060035460405180591061033a5750595b9080825280602002602001820160405250935060009250600091505b60028054905082101561040b5760028281548110151561037257fe5b906000526020600020900160009054906101000a900473ffffffffffffffffffffffffffffffffffffffff1690506103a98161089b565b15610400578084848060010195508151811015156103c357fe5b9060200190602002019073ffffffffffffffffffffffffffffffffffffffff16908173ffffffffffffffffffffffffffffffffffffffff16815250505b816001019150610356565b8394505050505090565b600160149054906101000a900461ffff1681565b600160009054906101000a900473ffffffffffffffffffffffffffffffffffffffff1681565b600160009054906101000a900473ffffffffffffffffffffffffffffffffffffffff1673ffffffffffffffffffffffffffffffffffffffff163373ffffffffffffffffffffffffffffffffffffffff161415156104ab57600080fd5b80600160006101000a81548173ffffffffffffffffffffffffffffffffffffffff021916908373ffffffffffffffffffffffffffffffffffffffff16021790555050565b808073ffffffffffffffffffffffffffffffffffffffff163373ffffffffffffffffffffffffffffffffffffffff1614151561052a57600080fd5b6105338161089b565b151561053e57600080fd5b60018173ffffffffffffffffffffffffffffffffffffffff166354fd4d506040518163ffffffff167c0100000000000000000000000000000000000000000000000000000000028152600401602060405180830381600087803b15156105a357600080fd5b5af115156105b057600080fd5b5050506040518051905061ffff161415156105ca57600080fd5b60036000815460019003919050819055505050565b60035481565b808073ffffffffffffffffffffffffffffffffffffffff163373ffffffffffffffffffffffffffffffffffffffff1614151561062057600080fd5b6106298161089b565b151561063457600080fd5b60018173ffffffffffffffffffffffffffffffffffffffff166354fd4d506040518163ffffffff167c0100000000000000000000000000000000000000000000000000000000028152600401602060405180830381600087803b151561069957600080fd5b5af115156106a657600080fd5b5050506040518051905061ffff161415156106c057600080fd5b8173ffffffffffffffffffffffffffffffffffffffff1663e501bc7f6040518163ffffffff167c0100000000000000000000000000000000000000000000000000000000028152600401602060405180830381600087803b151561072357600080fd5b5af1151561073057600080fd5b50505060405180519050151561074557600080fd5b6002805480600101828161075991906108c2565b9160005260206000209001600084909190916101000a81548173ffffffffffffffffffffffffffffffffffffffff021916908373ffffffffffffffffffffffffffffffffffffffff16021790555050600360008154600101919050819055505050565b808073ffffffffffffffffffffffffffffffffffffffff163373ffffffffffffffffffffffffffffffffffffffff161415156107f757600080fd5b6108008161089b565b151561080b57600080fd5b60018173ffffffffffffffffffffffffffffffffffffffff166354fd4d506040518163ffffffff167c0100000000000000000000000000000000000000000000000000000000028152600401602060405180830381600087803b151561087057600080fd5b5af1151561087d57600080fd5b5050506040518051905061ffff1614151561089757600080fd5b5050565b600080823b905060008111915050919050565b602060405190810160405280600081525090565b8154818355818115116108e9578183600052602060002091820191016108e891906108ee565b5b505050565b61091091905b8082111561090c5760008160009055506001016108f4565b5090565b905600a165627a7a72305820f6d17272846a491c8e431584672f0bf3fd2cef038d9647d35cbbb8823c478b6b0029",
  "source": "pragma solidity ^0.4.11;\n\nimport './NoiaBaseContractV1.sol';\nimport './NoiaCertificateV1.sol';\n\n/**\n * Standard Noia Node Contract V1 (Draft)\n *\n */\ncontract NoiaNodeV1\n    is NoiaBaseContractV1 {\n    address[] certificates;\n    uint public certificatesCount;\n\n    //\n    // Certificate Callback Functions\n    //\n    modifier fromCertificateV1(address certificateAddress) {\n        require (msg.sender == certificateAddress);\n        require(isContract(certificateAddress));\n        require(NoiaBaseContract(certificateAddress).version() == 1);\n        _;\n    }\n\n    function acceptSignedCertificate(address certificateAddress)\n        fromCertificateV1(certificateAddress) public {\n        // we don't accept un-signed certificate\n        require(NoiaCertificateV1(certificateAddress).signedByBusiness());\n\n        certificates.push(certificateAddress);\n        ++certificatesCount;\n    }\n\n    function acceptCertificateUpdate(address certificateAddress)\n        fromCertificateV1(certificateAddress) public view {\n        // ignoring the data update callback\n    }\n\n    function receiveCertificateRevokeNotice(address certificateAddress)\n        fromCertificateV1(certificateAddress) public {\n        --certificatesCount;\n    }\n\n    //\n    // Certificate Listing Functions\n    //\n    function getCertificates() public view returns (address[]) {\n        address[] memory certs = new address[](certificatesCount);\n        uint n = 0;\n        for (uint i = 0; i < certificates.length; ++i) {\n            address cert = certificates[i];\n            if (isContract(cert)) certs[n++] = cert;\n        }\n        if (n < certificatesCount) {\n            // shouldn't happen, but some business forgot to call sendCertificateRevokeNotice\n        }\n        return certs;\n    }\n\n    // TODO defrag\n\n    //\n    // misc\n    //\n    function isContract(address addr) private view returns (bool) {\n      uint size;\n      assembly { size := extcodesize(addr) }\n      return size > 0;\n    }\n}\n",
  "sourcePath": "/home/hellwolf/Projects/noia/noia-governance/contracts/noia/v1/NoiaNodeV1.sol",
  "compiler": {
    "name": "solc",
    "version": "0.4.21+commit.dfe3193c.Emscripten.clang"
  },
  "schemaVersion": "2.0.0",
  "updatedAt": "2018-04-18T01:25:36.175Z"
}