{
  "contractName": "NoiaContractFactoriesV1",
  "abi": [
    {
      "constant": true,
      "inputs": [],
      "name": "certificate",
      "outputs": [
        {
          "name": "",
          "type": "address"
        }
      ],
      "payable": false,
      "stateMutability": "view",
      "type": "function"
    },
    {
      "constant": true,
      "inputs": [],
      "name": "jobPost",
      "outputs": [
        {
          "name": "",
          "type": "address"
        }
      ],
      "payable": false,
      "stateMutability": "view",
      "type": "function"
    },
    {
      "constant": true,
      "inputs": [],
      "name": "node",
      "outputs": [
        {
          "name": "",
          "type": "address"
        }
      ],
      "payable": false,
      "stateMutability": "view",
      "type": "function"
    },
    {
      "constant": true,
      "inputs": [],
      "name": "business",
      "outputs": [
        {
          "name": "",
          "type": "address"
        }
      ],
      "payable": false,
      "stateMutability": "view",
      "type": "function"
    },
    {
      "inputs": [
        {
          "name": "marketplace",
          "type": "address"
        },
        {
          "name": "business_",
          "type": "address"
        },
        {
          "name": "node_",
          "type": "address"
        },
        {
          "name": "certificate_",
          "type": "address"
        },
        {
          "name": "jobPost_",
          "type": "address"
        }
      ],
      "payable": false,
      "stateMutability": "nonpayable",
      "type": "constructor"
    }
  ],
  "bytecode": "0x6060604052341561000f57600080fd5b60405160a08061071383398101604052808051906020019091908051906020019091908051906020019091908051906020019091908051906020019091905050836000806101000a81548173ffffffffffffffffffffffffffffffffffffffff021916908373ffffffffffffffffffffffffffffffffffffffff16021790555082600160006101000a81548173ffffffffffffffffffffffffffffffffffffffff021916908373ffffffffffffffffffffffffffffffffffffffff16021790555081600260006101000a81548173ffffffffffffffffffffffffffffffffffffffff021916908373ffffffffffffffffffffffffffffffffffffffff16021790555080600360006101000a81548173ffffffffffffffffffffffffffffffffffffffff021916908373ffffffffffffffffffffffffffffffffffffffff1602179055506000809054906101000a900473ffffffffffffffffffffffffffffffffffffffff1673ffffffffffffffffffffffffffffffffffffffff166373ad6c2d866040518263ffffffff167c0100000000000000000000000000000000000000000000000000000000028152600401808273ffffffffffffffffffffffffffffffffffffffff1673ffffffffffffffffffffffffffffffffffffffff168152602001915050600060405180830381600087803b151561020d57600080fd5b5af1151561021a57600080fd5b505050600160009054906101000a900473ffffffffffffffffffffffffffffffffffffffff1673ffffffffffffffffffffffffffffffffffffffff166373ad6c2d866040518263ffffffff167c0100000000000000000000000000000000000000000000000000000000028152600401808273ffffffffffffffffffffffffffffffffffffffff1673ffffffffffffffffffffffffffffffffffffffff168152602001915050600060405180830381600087803b15156102d957600080fd5b5af115156102e657600080fd5b505050600260009054906101000a900473ffffffffffffffffffffffffffffffffffffffff1673ffffffffffffffffffffffffffffffffffffffff166373ad6c2d866040518263ffffffff167c0100000000000000000000000000000000000000000000000000000000028152600401808273ffffffffffffffffffffffffffffffffffffffff1673ffffffffffffffffffffffffffffffffffffffff168152602001915050600060405180830381600087803b15156103a557600080fd5b5af115156103b257600080fd5b505050600360009054906101000a900473ffffffffffffffffffffffffffffffffffffffff1673ffffffffffffffffffffffffffffffffffffffff166373ad6c2d866040518263ffffffff167c0100000000000000000000000000000000000000000000000000000000028152600401808273ffffffffffffffffffffffffffffffffffffffff1673ffffffffffffffffffffffffffffffffffffffff168152602001915050600060405180830381600087803b151561047157600080fd5b5af1151561047e57600080fd5b505050505050505061027e806104956000396000f300606060405260043610610062576000357c0100000000000000000000000000000000000000000000000000000000900463ffffffff1680632dbf7b981461006757806394566d25146100bc578063d70754ec14610111578063e74dc11c14610166575b600080fd5b341561007257600080fd5b61007a6101bb565b604051808273ffffffffffffffffffffffffffffffffffffffff1673ffffffffffffffffffffffffffffffffffffffff16815260200191505060405180910390f35b34156100c757600080fd5b6100cf6101e1565b604051808273ffffffffffffffffffffffffffffffffffffffff1673ffffffffffffffffffffffffffffffffffffffff16815260200191505060405180910390f35b341561011c57600080fd5b610124610207565b604051808273ffffffffffffffffffffffffffffffffffffffff1673ffffffffffffffffffffffffffffffffffffffff16815260200191505060405180910390f35b341561017157600080fd5b61017961022d565b604051808273ffffffffffffffffffffffffffffffffffffffff1673ffffffffffffffffffffffffffffffffffffffff16815260200191505060405180910390f35b600260009054906101000a900473ffffffffffffffffffffffffffffffffffffffff1681565b600360009054906101000a900473ffffffffffffffffffffffffffffffffffffffff1681565b600160009054906101000a900473ffffffffffffffffffffffffffffffffffffffff1681565b6000809054906101000a900473ffffffffffffffffffffffffffffffffffffffff16815600a165627a7a72305820951d38905884218dce35990f69ad6d994d4805ce3ae1113692d57a8b2eb2e00a0029",
  "source": "pragma solidity ^0.4.20;\n\nimport './NoiaBusinessV1.sol';\nimport './NoiaNodeV1.sol';\nimport './NoiaCertificateV1.sol';\nimport './NoiaJobPostV1.sol';\n\ncontract NoiaBaseContractFactoryV1 {\n    NoiaMarketplace marketplace;\n    function setMarketplace(NoiaMarketplace marketplace_) public {\n        marketplace = marketplace_;\n    }\n    event NoiaContractV1Created(address contractInstance);\n}\n\ncontract NoiaBusinessContractFactoryV1 is NoiaBaseContractFactoryV1 {\n    function create() public {\n        NoiaBusinessV1 business = new NoiaBusinessV1(this, marketplace);\n        business.changeOwner(msg.sender);\n        marketplace.businessRegistry().addEntry(business);\n        emit NoiaContractV1Created(address(business));\n    }\n}\n\ncontract NoiaNodeContractFactoryV1 is NoiaBaseContractFactoryV1 {\n    function create(bytes32 infoType, bytes infoData) public {\n        NoiaNodeV1 node = new NoiaNodeV1(this, marketplace, infoType, infoData);\n        node.changeOwner(msg.sender);\n        marketplace.nodeRegistry().addEntry(node);\n        emit NoiaContractV1Created(address(node));\n    }\n}\n\ncontract NoiaCertificateContractFactoryV1 is NoiaBaseContractFactoryV1 {\n    function create(bytes32 certificateName, NoiaBusinessV1 issuer, NoiaNodeV1 recipient) public {\n        require(marketplace.businessRegistry().hasEntry(issuer));\n        require(marketplace.nodeRegistry().hasEntry(recipient));\n        NoiaCertificateV1 cert = new NoiaCertificateV1(this, marketplace, certificateName, issuer, recipient);\n        cert.changeOwner(msg.sender);\n        marketplace.certificatesRegistry().addEntry(cert);\n        emit NoiaContractV1Created(address(cert));\n    }\n}\n\ncontract NoiaJobPostContractFactoryV1 is NoiaBaseContractFactoryV1 {\n    function create(NoiaBusinessV1 employer, bytes32 infoType, bytes infoData) public {\n        require(marketplace.businessRegistry().hasEntry(employer));\n        NoiaJobPostV1 jobPost = new NoiaJobPostV1(this, marketplace, employer, infoType, infoData);\n        jobPost.changeOwner(msg.sender);\n        marketplace.jobPostRegistry().addEntry(jobPost);\n        emit NoiaContractV1Created(address(jobPost));\n    }\n}\n\ncontract NoiaContractFactoriesV1 {\n    function NoiaContractFactoriesV1(\n        NoiaMarketplace marketplace,\n        NoiaBusinessContractFactoryV1 business_,\n        NoiaNodeContractFactoryV1 node_,\n        NoiaCertificateContractFactoryV1 certificate_,\n        NoiaJobPostContractFactoryV1 jobPost_) public {\n        business = business_;\n        node = node_;\n        certificate = certificate_;\n        jobPost = jobPost_;\n        business.setMarketplace(marketplace);\n        node.setMarketplace(marketplace);\n        certificate.setMarketplace(marketplace);\n        jobPost.setMarketplace(marketplace);\n    }\n\n    NoiaBusinessContractFactoryV1 public business;\n    NoiaNodeContractFactoryV1 public node;\n    NoiaCertificateContractFactoryV1 public certificate;\n    NoiaJobPostContractFactoryV1 public jobPost;\n}\n",
  "sourcePath": "/home/hellwolf/Projects/noia/noia-governance/contracts/noia/v1/NoiaContractFactoriesV1.sol",
  "compiler": {
    "name": "solc",
    "version": "0.4.21+commit.dfe3193c.Emscripten.clang"
  },
  "schemaVersion": "2.0.0",
  "updatedAt": "2018-05-09T21:21:02.203Z"
}