{
  "contractName": "NoiaBusinessV1",
  "abi": [
    {
      "constant": true,
      "inputs": [],
      "name": "version",
      "outputs": [
        {
          "name": "",
          "type": "uint16"
        }
      ],
      "payable": false,
      "stateMutability": "view",
      "type": "function"
    },
    {
      "constant": true,
      "inputs": [],
      "name": "owner",
      "outputs": [
        {
          "name": "",
          "type": "address"
        }
      ],
      "payable": false,
      "stateMutability": "view",
      "type": "function"
    },
    {
      "constant": false,
      "inputs": [
        {
          "name": "_newOwner",
          "type": "address"
        }
      ],
      "name": "changeOwner",
      "outputs": [],
      "payable": false,
      "stateMutability": "nonpayable",
      "type": "function"
    },
    {
      "constant": true,
      "inputs": [],
      "name": "marketplace",
      "outputs": [
        {
          "name": "",
          "type": "address"
        }
      ],
      "payable": false,
      "stateMutability": "view",
      "type": "function"
    },
    {
      "constant": true,
      "inputs": [],
      "name": "factory",
      "outputs": [
        {
          "name": "",
          "type": "address"
        }
      ],
      "payable": false,
      "stateMutability": "view",
      "type": "function"
    },
    {
      "inputs": [
        {
          "name": "factory",
          "type": "address"
        },
        {
          "name": "marketplace",
          "type": "address"
        }
      ],
      "payable": false,
      "stateMutability": "nonpayable",
      "type": "constructor"
    },
    {
      "constant": false,
      "inputs": [
        {
          "name": "certificateAddress",
          "type": "address"
        }
      ],
      "name": "signCertificate",
      "outputs": [],
      "payable": false,
      "stateMutability": "nonpayable",
      "type": "function"
    }
  ],
  "bytecode": "0x6060604052341561000f57600080fd5b60405160408061078b83398101604052808051906020019091908051906020019091905050818181816001336000806101000a81548173ffffffffffffffffffffffffffffffffffffffff021916908373ffffffffffffffffffffffffffffffffffffffff1602179055508273ffffffffffffffffffffffffffffffffffffffff163373ffffffffffffffffffffffffffffffffffffffff161415156100b457600080fd5b80600260146101000a81548161ffff021916908361ffff16021790555082600160006101000a81548173ffffffffffffffffffffffffffffffffffffffff021916908373ffffffffffffffffffffffffffffffffffffffff16021790555081600260006101000a81548173ffffffffffffffffffffffffffffffffffffffff021916908373ffffffffffffffffffffffffffffffffffffffff16021790555050505050505050610622806101696000396000f300606060405260043610610078576000357c0100000000000000000000000000000000000000000000000000000000900463ffffffff1680632781e0161461007d57806354fd4d50146100b65780638da5cb5b146100e7578063a6f9dae11461013c578063abc8c7af14610175578063c45a0155146101ca575b600080fd5b341561008857600080fd5b6100b4600480803573ffffffffffffffffffffffffffffffffffffffff1690602001909190505061021f565b005b34156100c157600080fd5b6100c96104d3565b604051808261ffff1661ffff16815260200191505060405180910390f35b34156100f257600080fd5b6100fa6104e7565b604051808273ffffffffffffffffffffffffffffffffffffffff1673ffffffffffffffffffffffffffffffffffffffff16815260200191505060405180910390f35b341561014757600080fd5b610173600480803573ffffffffffffffffffffffffffffffffffffffff1690602001909190505061050c565b005b341561018057600080fd5b6101886105aa565b604051808273ffffffffffffffffffffffffffffffffffffffff1673ffffffffffffffffffffffffffffffffffffffff16815260200191505060405180910390f35b34156101d557600080fd5b6101dd6105d0565b604051808273ffffffffffffffffffffffffffffffffffffffff1673ffffffffffffffffffffffffffffffffffffffff16815260200191505060405180910390f35b6000809054906101000a900473ffffffffffffffffffffffffffffffffffffffff1673ffffffffffffffffffffffffffffffffffffffff163373ffffffffffffffffffffffffffffffffffffffff1614151561027a57600080fd5b600260009054906101000a900473ffffffffffffffffffffffffffffffffffffffff1673ffffffffffffffffffffffffffffffffffffffff1663ba9bb76d6040518163ffffffff167c0100000000000000000000000000000000000000000000000000000000028152600401602060405180830381600087803b15156102ff57600080fd5b5af1151561030c57600080fd5b5050506040518051905073ffffffffffffffffffffffffffffffffffffffff1663a25047a2826040518263ffffffff167c0100000000000000000000000000000000000000000000000000000000028152600401808273ffffffffffffffffffffffffffffffffffffffff1673ffffffffffffffffffffffffffffffffffffffff168152602001915050602060405180830381600087803b15156103af57600080fd5b5af115156103bc57600080fd5b5050506040518051905015156103d157600080fd5b60018173ffffffffffffffffffffffffffffffffffffffff166354fd4d506040518163ffffffff167c0100000000000000000000000000000000000000000000000000000000028152600401602060405180830381600087803b151561043657600080fd5b5af1151561044357600080fd5b5050506040518051905061ffff1614151561045d57600080fd5b8073ffffffffffffffffffffffffffffffffffffffff16632ca151226040518163ffffffff167c0100000000000000000000000000000000000000000000000000000000028152600401600060405180830381600087803b15156104c057600080fd5b5af115156104cd57600080fd5b50505050565b600260149054906101000a900461ffff1681565b6000809054906101000a900473ffffffffffffffffffffffffffffffffffffffff1681565b6000809054906101000a900473ffffffffffffffffffffffffffffffffffffffff1673ffffffffffffffffffffffffffffffffffffffff163373ffffffffffffffffffffffffffffffffffffffff1614151561056757600080fd5b806000806101000a81548173ffffffffffffffffffffffffffffffffffffffff021916908373ffffffffffffffffffffffffffffffffffffffff16021790555050565b600260009054906101000a900473ffffffffffffffffffffffffffffffffffffffff1681565b600160009054906101000a900473ffffffffffffffffffffffffffffffffffffffff16815600a165627a7a723058209d581fcf60edddab1d42c7a8f7dc3b51d95a152b9759490b2e278d3f4149bff80029",
  "source": "pragma solidity ^0.4.11;\n\nimport '../gov/NoiaMarketplace.sol';\nimport './NoiaBaseContractV1.sol';\nimport './NoiaCertificateV1.sol';\n\n/**\n * Standard Noia Business Contract V1 (Draft)\n */\ncontract NoiaBusinessV1 is NoiaBaseContractV1 {\n    function NoiaBusinessV1(address factory, NoiaMarketplace marketplace)\n        NoiaBaseContractV1(factory, marketplace) public {\n    }\n\n    function signCertificate(address certificateAddress) onlyOwner public {\n        require(marketplace.certificatesRegistry().hasEntry(certificateAddress));\n        require(NoiaBaseContract(certificateAddress).version() == 1);\n        NoiaCertificateV1(certificateAddress).sign();\n    }\n}\n",
  "sourcePath": "/home/hellwolf/Projects/noia/noia-governance/contracts/noia/v1/NoiaBusinessV1.sol",
  "compiler": {
    "name": "solc",
    "version": "0.4.21+commit.dfe3193c.Emscripten.clang"
  },
  "schemaVersion": "2.0.0",
  "updatedAt": "2018-05-09T14:56:53.745Z"
}