{
  "contractName": "NoiaJobPostV1",
  "abi": [
    {
      "constant": true,
      "inputs": [],
      "name": "infoData",
      "outputs": [
        {
          "name": "",
          "type": "bytes"
        }
      ],
      "payable": false,
      "stateMutability": "view",
      "type": "function"
    },
    {
      "constant": true,
      "inputs": [],
      "name": "version",
      "outputs": [
        {
          "name": "",
          "type": "uint16"
        }
      ],
      "payable": false,
      "stateMutability": "view",
      "type": "function"
    },
    {
      "constant": true,
      "inputs": [],
      "name": "owner",
      "outputs": [
        {
          "name": "",
          "type": "address"
        }
      ],
      "payable": false,
      "stateMutability": "view",
      "type": "function"
    },
    {
      "constant": false,
      "inputs": [
        {
          "name": "_newOwner",
          "type": "address"
        }
      ],
      "name": "changeOwner",
      "outputs": [],
      "payable": false,
      "stateMutability": "nonpayable",
      "type": "function"
    },
    {
      "constant": true,
      "inputs": [],
      "name": "employer",
      "outputs": [
        {
          "name": "",
          "type": "address"
        }
      ],
      "payable": false,
      "stateMutability": "view",
      "type": "function"
    },
    {
      "constant": true,
      "inputs": [],
      "name": "infoType",
      "outputs": [
        {
          "name": "",
          "type": "bytes32"
        }
      ],
      "payable": false,
      "stateMutability": "view",
      "type": "function"
    },
    {
      "constant": true,
      "inputs": [],
      "name": "factory",
      "outputs": [
        {
          "name": "",
          "type": "address"
        }
      ],
      "payable": false,
      "stateMutability": "view",
      "type": "function"
    },
    {
      "inputs": [
        {
          "name": "factory",
          "type": "address"
        },
        {
          "name": "employer_",
          "type": "address"
        },
        {
          "name": "infoType_",
          "type": "bytes32"
        },
        {
          "name": "infoData_",
          "type": "bytes"
        }
      ],
      "payable": false,
      "stateMutability": "nonpayable",
      "type": "constructor"
    },
    {
      "anonymous": false,
      "inputs": [
        {
          "indexed": true,
          "name": "jobPostAddress",
          "type": "address"
        },
        {
          "indexed": true,
          "name": "workerAddress",
          "type": "address"
        },
        {
          "indexed": false,
          "name": "workContractAddress",
          "type": "address"
        }
      ],
      "name": "NoiaContractProposedV1",
      "type": "event"
    },
    {
      "constant": false,
      "inputs": [
        {
          "name": "workerAddress",
          "type": "address"
        }
      ],
      "name": "createContract",
      "outputs": [],
      "payable": false,
      "stateMutability": "nonpayable",
      "type": "function"
    },
    {
      "constant": false,
      "inputs": [
        {
          "name": "workerAddress",
          "type": "address"
        }
      ],
      "name": "proposeContract",
      "outputs": [],
      "payable": false,
      "stateMutability": "nonpayable",
      "type": "function"
    },
    {
      "constant": true,
      "inputs": [
        {
          "name": "workerAddress",
          "type": "address"
        }
      ],
      "name": "getProposedContracts",
      "outputs": [
        {
          "name": "proposals",
          "type": "address[2]"
        }
      ],
      "payable": false,
      "stateMutability": "view",
      "type": "function"
    }
  ],
  "bytecode": "0x6060604052341561000f57600080fd5b6040516116f23803806116f28339810160405280805190602001909190805190602001909190805190602001909190805182019190505083806001336000806101000a81548173ffffffffffffffffffffffffffffffffffffffff021916908373ffffffffffffffffffffffffffffffffffffffff16021790555080600160146101000a81548161ffff021916908361ffff16021790555081600160006101000a81548173ffffffffffffffffffffffffffffffffffffffff021916908373ffffffffffffffffffffffffffffffffffffffff16021790555050508073ffffffffffffffffffffffffffffffffffffffff163373ffffffffffffffffffffffffffffffffffffffff1614151561012457600080fd5b5082600260006101000a81548173ffffffffffffffffffffffffffffffffffffffff021916908373ffffffffffffffffffffffffffffffffffffffff16021790555081600381600019169055508060049080519060200190610187929190610191565b5050505050610236565b828054600181600116156101000203166002900490600052602060002090601f016020900481019282601f106101d257805160ff1916838001178555610200565b82800160010185558215610200579182015b828111156101ff5782518255916020019190600101906101e4565b5b50905061020d9190610211565b5090565b61023391905b8082111561022f576000816000905550600101610217565b5090565b90565b6114ad806102456000396000f3006060604052600436106100a4576000357c0100000000000000000000000000000000000000000000000000000000900463ffffffff1680632e5b5a13146100a957806354fd4d5014610137578063691f9f22146101685780638da5cb5b146101dd578063a6f9dae114610232578063ae200e791461026b578063afb74f48146102c0578063c45a0155146102f1578063e2d73ccd14610346578063f88df7301461037f575b600080fd5b34156100b457600080fd5b6100bc6103b8565b6040518080602001828103825283818151815260200191508051906020019080838360005b838110156100fc5780820151818401526020810190506100e1565b50505050905090810190601f1680156101295780820380516001836020036101000a031916815260200191505b509250505060405180910390f35b341561014257600080fd5b61014a610456565b604051808261ffff1661ffff16815260200191505060405180910390f35b341561017357600080fd5b61019f600480803573ffffffffffffffffffffffffffffffffffffffff1690602001909190505061046a565b6040518082600260200280838360005b838110156101ca5780820151818401526020810190506101af565b5050505090500191505060405180910390f35b34156101e857600080fd5b6101f06105c3565b604051808273ffffffffffffffffffffffffffffffffffffffff1673ffffffffffffffffffffffffffffffffffffffff16815260200191505060405180910390f35b341561023d57600080fd5b610269600480803573ffffffffffffffffffffffffffffffffffffffff169060200190919050506105e8565b005b341561027657600080fd5b61027e610686565b604051808273ffffffffffffffffffffffffffffffffffffffff1673ffffffffffffffffffffffffffffffffffffffff16815260200191505060405180910390f35b34156102cb57600080fd5b6102d36106ac565b60405180826000191660001916815260200191505060405180910390f35b34156102fc57600080fd5b6103046106b2565b604051808273ffffffffffffffffffffffffffffffffffffffff1673ffffffffffffffffffffffffffffffffffffffff16815260200191505060405180910390f35b341561035157600080fd5b61037d600480803573ffffffffffffffffffffffffffffffffffffffff169060200190919050506106d8565b005b341561038a57600080fd5b6103b6600480803573ffffffffffffffffffffffffffffffffffffffff169060200190919050506109c9565b005b60048054600181600116156101000203166002900480601f01602080910402602001604051908101604052809291908181526020018280546001816001161561010002031660029004801561044e5780601f106104235761010080835404028352916020019161044e565b820191906000526020600020905b81548152906001019060200180831161043157829003601f168201915b505050505081565b600160149054906101000a900461ffff1681565b610472610bc7565b600560008373ffffffffffffffffffffffffffffffffffffffff1673ffffffffffffffffffffffffffffffffffffffff16815260200190815260200160002060009054906101000a900473ffffffffffffffffffffffffffffffffffffffff168160006002811015156104e157fe5b602002019073ffffffffffffffffffffffffffffffffffffffff16908173ffffffffffffffffffffffffffffffffffffffff1681525050600560008373ffffffffffffffffffffffffffffffffffffffff1673ffffffffffffffffffffffffffffffffffffffff16815260200190815260200160002060009054906101000a900473ffffffffffffffffffffffffffffffffffffffff1681600160028110151561058757fe5b602002019073ffffffffffffffffffffffffffffffffffffffff16908173ffffffffffffffffffffffffffffffffffffffff1681525050919050565b6000809054906101000a900473ffffffffffffffffffffffffffffffffffffffff1681565b6000809054906101000a900473ffffffffffffffffffffffffffffffffffffffff1673ffffffffffffffffffffffffffffffffffffffff163373ffffffffffffffffffffffffffffffffffffffff1614151561064357600080fd5b806000806101000a81548173ffffffffffffffffffffffffffffffffffffffff021916908373ffffffffffffffffffffffffffffffffffffffff16021790555050565b600260009054906101000a900473ffffffffffffffffffffffffffffffffffffffff1681565b60035481565b600160009054906101000a900473ffffffffffffffffffffffffffffffffffffffff1681565b600080600260009054906101000a900473ffffffffffffffffffffffffffffffffffffffff1673ffffffffffffffffffffffffffffffffffffffff163373ffffffffffffffffffffffffffffffffffffffff1614156108595760009150308284610740610c04565b808473ffffffffffffffffffffffffffffffffffffffff1673ffffffffffffffffffffffffffffffffffffffff16815260200183600181111561077f57fe5b60ff1681526020018273ffffffffffffffffffffffffffffffffffffffff1673ffffffffffffffffffffffffffffffffffffffff1681526020019350505050604051809103906000f08015156107d457600080fd5b905080600560008573ffffffffffffffffffffffffffffffffffffffff1673ffffffffffffffffffffffffffffffffffffffff16815260200190815260200160002060006101000a81548173ffffffffffffffffffffffffffffffffffffffff021916908373ffffffffffffffffffffffffffffffffffffffff1602179055506109c4565b8273ffffffffffffffffffffffffffffffffffffffff163373ffffffffffffffffffffffffffffffffffffffff1614156109b5576001915030828461089c610c04565b808473ffffffffffffffffffffffffffffffffffffffff1673ffffffffffffffffffffffffffffffffffffffff1681526020018360018111156108db57fe5b60ff1681526020018273ffffffffffffffffffffffffffffffffffffffff1673ffffffffffffffffffffffffffffffffffffffff1681526020019350505050604051809103906000f080151561093057600080fd5b905080600660008573ffffffffffffffffffffffffffffffffffffffff1673ffffffffffffffffffffffffffffffffffffffff16815260200190815260200160002060006101000a81548173ffffffffffffffffffffffffffffffffffffffff021916908373ffffffffffffffffffffffffffffffffffffffff1602179055506109c3565b600015156109c257600080fd5b5b5b505050565b6000600260009054906101000a900473ffffffffffffffffffffffffffffffffffffffff1673ffffffffffffffffffffffffffffffffffffffff163373ffffffffffffffffffffffffffffffffffffffff161415610a8857600560008373ffffffffffffffffffffffffffffffffffffffff1673ffffffffffffffffffffffffffffffffffffffff16815260200190815260200160002060009054906101000a900473ffffffffffffffffffffffffffffffffffffffff169050610b32565b8173ffffffffffffffffffffffffffffffffffffffff163373ffffffffffffffffffffffffffffffffffffffff161415610b2357600660008373ffffffffffffffffffffffffffffffffffffffff1673ffffffffffffffffffffffffffffffffffffffff16815260200190815260200160002060009054906101000a900473ffffffffffffffffffffffffffffffffffffffff169050610b31565b60001515610b3057600080fd5b5b5b8173ffffffffffffffffffffffffffffffffffffffff163073ffffffffffffffffffffffffffffffffffffffff167f92fadbadb77c63cf091995b5e09c2bf4f49fd55484b9faa61b6d6701baff848083604051808273ffffffffffffffffffffffffffffffffffffffff1673ffffffffffffffffffffffffffffffffffffffff16815260200191505060405180910390a35050565b60408051908101604052806002905b600073ffffffffffffffffffffffffffffffffffffffff16815260200190600190039081610bd65790505090565b60405161086d80610c1583390190560060606040526000600560006101000a81548160ff0219169083151502179055506000600560016101000a81548160ff0219169083151502179055506000600655341561004a57600080fd5b60405160608061086d833981016040528080519060200190919080519060200190919080519060200190919050508273ffffffffffffffffffffffffffffffffffffffff163373ffffffffffffffffffffffffffffffffffffffff161415156100b257600080fd5b826000806101000a81548173ffffffffffffffffffffffffffffffffffffffff021916908373ffffffffffffffffffffffffffffffffffffffff16021790555081600060146101000a81548160ff0219169083600181111561011057fe5b021790555080600160006101000a81548173ffffffffffffffffffffffffffffffffffffffff021916908373ffffffffffffffffffffffffffffffffffffffff160217905550505050610705806101686000396000f3006060604052600436106100a4576000357c0100000000000000000000000000000000000000000000000000000000900463ffffffff16806336f152a3146100a95780633c206412146100be5780637c654303146100d357806394566d2514610100578063b146e12914610155578063c0ee0b8a14610182578063cbd88f4814610207578063e66a6b221461025c578063eae19df414610289578063f26ef65f146102b2575b600080fd5b34156100b457600080fd5b6100bc6102df565b005b34156100c957600080fd5b6100d16103d0565b005b34156100de57600080fd5b6100e6610449565b604051808215151515815260200191505060405180910390f35b341561010b57600080fd5b610113610458565b604051808273ffffffffffffffffffffffffffffffffffffffff1673ffffffffffffffffffffffffffffffffffffffff16815260200191505060405180910390f35b341561016057600080fd5b61016861047d565b604051808215151515815260200191505060405180910390f35b341561018d57600080fd5b610205600480803573ffffffffffffffffffffffffffffffffffffffff1690602001909190803590602001909190803590602001908201803590602001908080601f01602080910402602001604051908101604052809392919081815260200183838082843782019150505050505091905050610490565b005b341561021257600080fd5b61021a61066b565b604051808273ffffffffffffffffffffffffffffffffffffffff1673ffffffffffffffffffffffffffffffffffffffff16815260200191505060405180910390f35b341561026757600080fd5b61026f610691565b604051808215151515815260200191505060405180910390f35b341561029457600080fd5b61029c6106c0565b6040518082815260200191505060405180910390f35b34156102bd57600080fd5b6102c56106c6565b604051808215151515815260200191505060405180910390f35b3373ffffffffffffffffffffffffffffffffffffffff166000809054906101000a900473ffffffffffffffffffffffffffffffffffffffff1673ffffffffffffffffffffffffffffffffffffffff1663ae200e796040518163ffffffff167c0100000000000000000000000000000000000000000000000000000000028152600401602060405180830381600087803b151561037a57600080fd5b5af1151561038757600080fd5b5050506040518051905073ffffffffffffffffffffffffffffffffffffffff161415156103b357600080fd5b6001600560006101000a81548160ff021916908315150217905550565b3373ffffffffffffffffffffffffffffffffffffffff16600160009054906101000a900473ffffffffffffffffffffffffffffffffffffffff1673ffffffffffffffffffffffffffffffffffffffff1614151561042c57600080fd5b6001600560016101000a81548160ff021916908315150217905550565b60006003546006541015905090565b6000809054906101000a900473ffffffffffffffffffffffffffffffffffffffff1681565b600560009054906101000a900460ff1681565b6000809054906101000a900473ffffffffffffffffffffffffffffffffffffffff1673ffffffffffffffffffffffffffffffffffffffff1663c45a01556040518163ffffffff167c0100000000000000000000000000000000000000000000000000000000028152600401602060405180830381600087803b151561051457600080fd5b5af1151561052157600080fd5b5050506040518051905073ffffffffffffffffffffffffffffffffffffffff1663abc8c7af6040518163ffffffff167c0100000000000000000000000000000000000000000000000000000000028152600401602060405180830381600087803b151561058d57600080fd5b5af1151561059a57600080fd5b5050506040518051905073ffffffffffffffffffffffffffffffffffffffff166355a373d66040518163ffffffff167c0100000000000000000000000000000000000000000000000000000000028152600401602060405180830381600087803b151561060657600080fd5b5af1151561061357600080fd5b5050506040518051905073ffffffffffffffffffffffffffffffffffffffff163373ffffffffffffffffffffffffffffffffffffffff1614151561065657600080fd5b81600660008282540192505081905550505050565b600160009054906101000a900473ffffffffffffffffffffffffffffffffffffffff1681565b6000600560009054906101000a900460ff1680156106bb5750600560019054906101000a900460ff165b905090565b60065481565b600560019054906101000a900460ff16815600a165627a7a723058202ff950d49d27fca65921fbd4823e1866247166037bb7ecb2bb611726b5eecd8d0029a165627a7a7230582080678145fe2ce9e6379be75165245559f922e463b90a28716f4a0a3d380165630029",
  "source": "pragma solidity ^0.4.11;\n\nimport './NoiaBaseContractV1.sol';\nimport './NoiaContractsFactoryV1.sol';\nimport './NoiaBusinessV1.sol';\nimport './NoiaNodeV1.sol';\nimport './NoiaWorkContractV1.sol';\n\n/**\n * Standard Noia Job Post Contract V1 (Draft)\n *\n */\ncontract NoiaJobPostV1\n    is NoiaBaseContractV1 {\n    NoiaBusinessV1 public employer;\n    bytes32 public infoType;\n    bytes public infoData;\n\n    mapping(address => NoiaWorkContractV1) employerCreatedContracts;\n    mapping(address => NoiaWorkContractV1) workerCreatedContracts;\n\n    function NoiaJobPostV1(NoiaContractsFactoryV1 factory,\n        NoiaBusinessV1 employer_,\n        bytes32 infoType_, bytes infoData_)\n        NoiaBaseContractV1(factory) public {\n        employer = employer_;\n        infoType = infoType_;\n        infoData = infoData_;\n    }\n\n    function createContract(address workerAddress) public {\n        NoiaWorkContractV1.Initiator initiator;\n        NoiaWorkContractV1 workContract;\n        if (msg.sender == address(employer)) {\n            initiator = NoiaWorkContractV1.Initiator.Employer;\n            workContract = new NoiaWorkContractV1(this, initiator, workerAddress);\n            employerCreatedContracts[workerAddress] = workContract;\n        } else if (msg.sender == workerAddress) {\n            initiator = NoiaWorkContractV1.Initiator.Worker;\n            workContract = new NoiaWorkContractV1(this, initiator, workerAddress);\n            workerCreatedContracts[workerAddress] = workContract;\n        } else {\n            require(false);\n        }\n    }\n\n    function proposeContract(address workerAddress) public {\n        address workContractAddress;\n        if (msg.sender == address(employer)) {\n            workContractAddress = employerCreatedContracts[workerAddress];\n        } else if (msg.sender == workerAddress) {\n            workContractAddress = workerCreatedContracts[workerAddress];\n        } else {\n            require(false);\n        }\n        emit NoiaContractProposedV1(this, workerAddress, workContractAddress);\n    }\n\n    /**\n     * Get proposed contracts from employer and worker\n     *\n     * [0] - contract proposal from employer\n     * [1] - contract proposal from worker\n     */\n    function getProposedContracts(address workerAddress) public view returns (address[2] proposals) {\n        proposals[0] = employerCreatedContracts[workerAddress];\n        proposals[1] = employerCreatedContracts[workerAddress];\n    }\n\n    event NoiaContractProposedV1(\n        address indexed jobPostAddress,\n        address indexed workerAddress,\n        address workContractAddress);\n}\n",
  "sourcePath": "/home/hellwolf/Projects/noia/noia-governance/contracts/noia/v1/NoiaJobPostV1.sol",
  "compiler": {
    "name": "solc",
    "version": "0.4.21+commit.dfe3193c.Emscripten.clang"
  },
  "schemaVersion": "2.0.0",
  "updatedAt": "2018-05-08T22:11:48.687Z"
}