{
  "contractName": "NoiaCertificateContractFactoryV1",
  "abi": [
    {
      "constant": false,
      "inputs": [
        {
          "name": "marketplace_",
          "type": "address"
        }
      ],
      "name": "setMarketplace",
      "outputs": [],
      "payable": false,
      "stateMutability": "nonpayable",
      "type": "function"
    },
    {
      "anonymous": false,
      "inputs": [
        {
          "indexed": false,
          "name": "contractInstance",
          "type": "address"
        }
      ],
      "name": "NoiaContractV1Created",
      "type": "event"
    },
    {
      "constant": false,
      "inputs": [
        {
          "name": "certificateName",
          "type": "bytes32"
        },
        {
          "name": "issuer",
          "type": "address"
        },
        {
          "name": "recipient",
          "type": "address"
        }
      ],
      "name": "create",
      "outputs": [],
      "payable": false,
      "stateMutability": "nonpayable",
      "type": "function"
    }
  ],
  "bytecode": "0x608060405234801561001057600080fd5b50611001806100206000396000f3006080604052600436106100325763ffffffff60e060020a60003504166373ad6c2d81146100375780637da976771461005a575b600080fd5b34801561004357600080fd5b50610058600160a060020a0360043516610084565b005b34801561006657600080fd5b50610058600435600160a060020a03602435811690604435166100b3565b6000805473ffffffffffffffffffffffffffffffffffffffff1916600160a060020a0392909216919091179055565b60008060009054906101000a9004600160a060020a0316600160a060020a0316633dfc32f66040518163ffffffff1660e060020a028152600401602060405180830381600087803b15801561010757600080fd5b505af115801561011b573d6000803e3d6000fd5b505050506040513d602081101561013157600080fd5b5051604080517fa25047a2000000000000000000000000000000000000000000000000000000008152600160a060020a0386811660048301529151919092169163a25047a29160248083019260209291908290030181600087803b15801561019857600080fd5b505af11580156101ac573d6000803e3d6000fd5b505050506040513d60208110156101c257600080fd5b505115156101cf57600080fd5b6000809054906101000a9004600160a060020a0316600160a060020a031663d9b5c4a56040518163ffffffff1660e060020a028152600401602060405180830381600087803b15801561022157600080fd5b505af1158015610235573d6000803e3d6000fd5b505050506040513d602081101561024b57600080fd5b5051604080517fa25047a2000000000000000000000000000000000000000000000000000000008152600160a060020a0385811660048301529151919092169163a25047a29160248083019260209291908290030181600087803b1580156102b257600080fd5b505af11580156102c6573d6000803e3d6000fd5b505050506040513d60208110156102dc57600080fd5b505115156102e957600080fd5b6000543090600160a060020a0316858585610302610509565b600160a060020a03958616815293851660208501526040808501939093529084166060840152909216608082015290519081900360a001906000f08015801561034f573d6000803e3d6000fd5b50604080517fa6f9dae10000000000000000000000000000000000000000000000000000000081523360048201529051919250600160a060020a0383169163a6f9dae19160248082019260009290919082900301818387803b1580156103b457600080fd5b505af11580156103c8573d6000803e3d6000fd5b505050506000809054906101000a9004600160a060020a0316600160a060020a031663ba9bb76d6040518163ffffffff1660e060020a028152600401602060405180830381600087803b15801561041e57600080fd5b505af1158015610432573d6000803e3d6000fd5b505050506040513d602081101561044857600080fd5b5051604080517ff15ae568000000000000000000000000000000000000000000000000000000008152600160a060020a0384811660048301529151919092169163f15ae56891602480830192600092919082900301818387803b1580156104ae57600080fd5b505af11580156104c2573d6000803e3d6000fd5b505060408051600160a060020a038516815290517f4925a5c7f3f73bba343166964921a277f457922c2d49b45d9dc9f897d2fb96559350908190036020019150a150505050565b604051610abc8061051a833901905600608060405234801561001057600080fd5b5060405160a080610abc8339810160409081528151602083015191830151606084015160809094015160008054600160a060020a03191633908117909155929491928590859082908290600190600160a060020a0384161461007157600080fd5b6002805460018054600160a060020a03968716600160a060020a03199182161790915593851661ffff909316740100000000000000000000000000000000000000000260a060020a61ffff0219909116178316919091179055600596909655600380549582169587169590951790945550506004805491909216921691909117905550506109b8806101046000396000f3006080604052600436106100f05763ffffffff7c01000000000000000000000000000000000000000000000000000000006000350416631d14384881146100f5578063212788f914610126578063232a6b9d146101865780632ca15122146101af57806354fd4d50146101c45780635f1ff549146101f057806366d003ac146102055780638da5cb5b1461021a578063948e19681461022f578063a6809c5314610256578063a6f9dae11461026b578063abc8c7af1461028c578063b6549f75146102a1578063c45a0155146102b6578063cf937141146102cb578063d383f646146102e0578063dc984dd4146102f5575b600080fd5b34801561010157600080fd5b5061010a61037f565b60408051600160a060020a039092168252519081900360200190f35b34801561013257600080fd5b5060408051602060046024803582810135601f810185900485028601850190965285855261018495833595369560449491939091019190819084018382808284375094975061038e9650505050505050565b005b34801561019257600080fd5b5061019b6104a2565b604080519115158252519081900360200190f35b3480156101bb57600080fd5b506101846104c3565b3480156101d057600080fd5b506101d961055d565b6040805161ffff9092168252519081900360200190f35b3480156101fc57600080fd5b5061019b61057f565b34801561021157600080fd5b5061010a61058f565b34801561022657600080fd5b5061010a61059e565b34801561023b57600080fd5b506102446105ad565b60408051918252519081900360200190f35b34801561026257600080fd5b506102446105b3565b34801561027757600080fd5b50610184600160a060020a03600435166105b9565b34801561029857600080fd5b5061010a6105ff565b3480156102ad57600080fd5b5061018461060e565b3480156102c257600080fd5b5061010a610713565b3480156102d757600080fd5b5061019b610722565b3480156102ec57600080fd5b5061018461075e565b34801561030157600080fd5b5061030a610866565b6040805160208082528351818301528351919283929083019185019080838360005b8381101561034457818101518382015260200161032c565b50505050905090810190601f1680156103715780820380516001836020036101000a031916815260200191505b509250505060405180910390f35b600354600160a060020a031681565b600054600160a060020a031633146103a557600080fd5b600682905580516103bd9060079060208401906108f4565b5060045460a860020a900460ff161561049e5760048054604080517fed12679c000000000000000000000000000000000000000000000000000000008152309381019390935251600160a060020a039091169163ed12679c91602480830192600092919082900301818387803b15801561043657600080fd5b505af115801561044a573d6000803e3d6000fd5b5050600454600354600554604080513081529051600160a060020a039485169650929093169350917f020eb707875fabe09e43d7e9fbfd8ad6badf4db780b02e5d9dfd0137a4998d83919081900360200190a45b5050565b60045474010000000000000000000000000000000000000000900460ff1681565b600354600160a060020a031633146104da57600080fd5b6004805474ff00000000000000000000000000000000000000001916740100000000000000000000000000000000000000001790819055600354600554604080513081529051600160a060020a039485169493909316927feb66f58799ba88cba0ed9ed8f9225778b2f486e1aadd3ea4d221be124b95c1619181900360200190a4565b60025474010000000000000000000000000000000000000000900461ffff1681565b60045460a860020a900460ff1681565b600454600160a060020a031681565b600054600160a060020a031681565b60055481565b60065481565b600054600160a060020a031633146105d057600080fd5b6000805473ffffffffffffffffffffffffffffffffffffffff1916600160a060020a0392909216919091179055565b600254600160a060020a031681565b600054600160a060020a0316331461062557600080fd5b60045460a860020a900460ff16156107055760048054604080517fb2017b0e000000000000000000000000000000000000000000000000000000008152309381019390935251600160a060020a039091169163b2017b0e91602480830192600092919082900301818387803b15801561069d57600080fd5b505af11580156106b1573d6000803e3d6000fd5b5050600454600354600554604080513081529051600160a060020a039485169650929093169350917f932a757ae8910660400e5295842e79edd393efa17703e52dffdc85c3932bfdbd919081900360200190a45b600054600160a060020a0316ff5b600154600160a060020a031681565b60045460009074010000000000000000000000000000000000000000900460ff168015610758575060045460a860020a900460ff165b90505b90565b600054600160a060020a0316331461077557600080fd5b6004805475ff000000000000000000000000000000000000000000191660a860020a17808255604080517f256b4e21000000000000000000000000000000000000000000000000000000008152309381019390935251600160a060020a039091169163256b4e2191602480830192600092919082900301818387803b1580156107fd57600080fd5b505af1158015610811573d6000803e3d6000fd5b5050600454600354600554604080513081529051600160a060020a039485169650929093169350917f5d46e800c06cf76d6a9e81eb0720ce8e14a9ac64a898ec41fa83cd06864da709919081900360200190a4565b6007805460408051602060026001851615610100026000190190941693909304601f810184900484028201840190925281815292918301828280156108ec5780601f106108c1576101008083540402835291602001916108ec565b820191906000526020600020905b8154815290600101906020018083116108cf57829003601f168201915b505050505081565b828054600181600116156101000203166002900490600052602060002090601f016020900481019282601f1061093557805160ff1916838001178555610962565b82800160010185558215610962579182015b82811115610962578251825591602001919060010190610947565b5061096e929150610972565b5090565b61075b91905b8082111561096e57600081556001016109785600a165627a7a7230582007a9d40d7bad8f9439a74d24fd96869f45c53e6d026fbe9c105ac0d4349f18340029a165627a7a72305820348445065298f9d05c47899b3974d2b212c0f6a0a6bd9cb6eebd4252a294a8de0029",
  "source": "pragma solidity ^0.4.20;\n\nimport './NoiaBusinessV1.sol';\nimport './NoiaNodeV1.sol';\nimport './NoiaCertificateV1.sol';\nimport './NoiaJobPostV1.sol';\n\ncontract NoiaBaseContractFactoryV1 {\n    NoiaMarketplace marketplace;\n    function setMarketplace(NoiaMarketplace marketplace_) public {\n        marketplace = marketplace_;\n    }\n    event NoiaContractV1Created(address contractInstance);\n}\n\ncontract NoiaBusinessContractFactoryV1 is NoiaBaseContractFactoryV1 {\n    function create(bytes32 infoType, bytes infoData) public {\n        NoiaBusinessV1 business = new NoiaBusinessV1(this, marketplace, infoType, infoData);\n        business.changeOwner(msg.sender);\n        marketplace.businessRegistry().addEntry(business);\n        emit NoiaContractV1Created(address(business));\n    }\n}\n\ncontract NoiaNodeContractFactoryV1 is NoiaBaseContractFactoryV1 {\n    function create(bytes32 infoType, bytes infoData) public {\n        NoiaNodeV1 node = new NoiaNodeV1(this, marketplace, infoType, infoData);\n        node.changeOwner(msg.sender);\n        marketplace.nodeRegistry().addEntry(node);\n        emit NoiaContractV1Created(address(node));\n    }\n}\n\ncontract NoiaCertificateContractFactoryV1 is NoiaBaseContractFactoryV1 {\n    function create(bytes32 certificateName, NoiaBusinessV1 issuer, NoiaNodeV1 recipient) public {\n        require(marketplace.businessRegistry().hasEntry(issuer));\n        require(marketplace.nodeRegistry().hasEntry(recipient));\n        NoiaCertificateV1 cert = new NoiaCertificateV1(this, marketplace, certificateName, issuer, recipient);\n        cert.changeOwner(msg.sender);\n        marketplace.certificatesRegistry().addEntry(cert);\n        emit NoiaContractV1Created(address(cert));\n    }\n}\n\ncontract NoiaJobPostContractFactoryV1 is NoiaBaseContractFactoryV1 {\n    function create(NoiaBusinessV1 employer, bytes32 infoType, bytes infoData) public {\n        require(marketplace.businessRegistry().hasEntry(employer));\n        NoiaJobPostV1 jobPost = new NoiaJobPostV1(this, marketplace, employer, infoType, infoData);\n        jobPost.changeOwner(msg.sender);\n        marketplace.jobPostRegistry().addEntry(jobPost);\n        emit NoiaContractV1Created(address(jobPost));\n    }\n}\n\ncontract NoiaContractFactoriesV1 {\n    constructor(\n        NoiaMarketplace marketplace,\n        NoiaBusinessContractFactoryV1 business_,\n        NoiaNodeContractFactoryV1 node_,\n        NoiaCertificateContractFactoryV1 certificate_,\n        NoiaJobPostContractFactoryV1 jobPost_) public {\n        business = business_;\n        node = node_;\n        certificate = certificate_;\n        jobPost = jobPost_;\n        business.setMarketplace(marketplace);\n        node.setMarketplace(marketplace);\n        certificate.setMarketplace(marketplace);\n        jobPost.setMarketplace(marketplace);\n    }\n\n    NoiaBusinessContractFactoryV1 public business;\n    NoiaNodeContractFactoryV1 public node;\n    NoiaCertificateContractFactoryV1 public certificate;\n    NoiaJobPostContractFactoryV1 public jobPost;\n}\n",
  "sourcePath": "/srv/work/projects/noia-network/noia-governance/contracts/noia/v1/NoiaContractFactoriesV1.sol",
  "compiler": {
    "name": "solc",
    "version": "0.4.24+commit.e67f0147.Emscripten.clang"
  },
  "schemaVersion": "2.0.0",
  "updatedAt": "2018-08-28T09:16:17.784Z"
}