{
  "contractName": "NoiaContractsFactoryV1",
  "abi": [
    {
      "inputs": [
        {
          "name": "marketplace_",
          "type": "address"
        }
      ],
      "payable": false,
      "stateMutability": "nonpayable",
      "type": "constructor"
    },
    {
      "anonymous": false,
      "inputs": [
        {
          "indexed": false,
          "name": "businessAddress",
          "type": "address"
        }
      ],
      "name": "NoiaBusinessCreatedV1",
      "type": "event"
    },
    {
      "anonymous": false,
      "inputs": [
        {
          "indexed": false,
          "name": "nodeAddress",
          "type": "address"
        }
      ],
      "name": "NoiaNodeCreatedV1",
      "type": "event"
    },
    {
      "anonymous": false,
      "inputs": [
        {
          "indexed": false,
          "name": "certAddress",
          "type": "address"
        }
      ],
      "name": "NoiaCertificateCreatedV1",
      "type": "event"
    },
    {
      "constant": false,
      "inputs": [],
      "name": "createBusiness",
      "outputs": [],
      "payable": false,
      "stateMutability": "nonpayable",
      "type": "function"
    },
    {
      "constant": false,
      "inputs": [],
      "name": "createNode",
      "outputs": [],
      "payable": false,
      "stateMutability": "nonpayable",
      "type": "function"
    },
    {
      "constant": false,
      "inputs": [
        {
          "name": "certificateName",
          "type": "bytes32"
        },
        {
          "name": "issuer",
          "type": "address"
        },
        {
          "name": "recipient",
          "type": "address"
        }
      ],
      "name": "createCertificate",
      "outputs": [],
      "payable": false,
      "stateMutability": "nonpayable",
      "type": "function"
    }
  ],
  "bytecode": "0x6060604052341561000f57600080fd5b60405160208061306683398101604052808051906020019091905050806000806101000a81548173ffffffffffffffffffffffffffffffffffffffff021916908373ffffffffffffffffffffffffffffffffffffffff16021790555050612feb8061007b6000396000f300606060405260043610610057576000357c0100000000000000000000000000000000000000000000000000000000900463ffffffff1680631c3917b81461005c5780638d85618a14610071578063fce5f4b614610086575b600080fd5b341561006757600080fd5b61006f6100eb565b005b341561007c57600080fd5b6100846103ed565b005b341561009157600080fd5b6100e960048080356000191690602001909190803573ffffffffffffffffffffffffffffffffffffffff1690602001909190803573ffffffffffffffffffffffffffffffffffffffff169060200190919050506106ef565b005b60008060009054906101000a900473ffffffffffffffffffffffffffffffffffffffff1630610118610cc3565b808373ffffffffffffffffffffffffffffffffffffffff1673ffffffffffffffffffffffffffffffffffffffff1681526020018273ffffffffffffffffffffffffffffffffffffffff1673ffffffffffffffffffffffffffffffffffffffff16815260200192505050604051809103906000f080151561019757600080fd5b90508073ffffffffffffffffffffffffffffffffffffffff1663a6f9dae1336040518263ffffffff167c0100000000000000000000000000000000000000000000000000000000028152600401808273ffffffffffffffffffffffffffffffffffffffff1673ffffffffffffffffffffffffffffffffffffffff168152602001915050600060405180830381600087803b151561023357600080fd5b5af1151561024057600080fd5b5050506000809054906101000a900473ffffffffffffffffffffffffffffffffffffffff1673ffffffffffffffffffffffffffffffffffffffff1663d9b5c4a56040518163ffffffff167c0100000000000000000000000000000000000000000000000000000000028152600401602060405180830381600087803b15156102c757600080fd5b5af115156102d457600080fd5b5050506040518051905073ffffffffffffffffffffffffffffffffffffffff1663f15ae568826040518263ffffffff167c0100000000000000000000000000000000000000000000000000000000028152600401808273ffffffffffffffffffffffffffffffffffffffff1673ffffffffffffffffffffffffffffffffffffffff168152602001915050600060405180830381600087803b151561037757600080fd5b5af1151561038457600080fd5b5050507f7201a6c6f7b62368f61168125f64da6da1bb91d6ded899707e8b27741309aa1f81604051808273ffffffffffffffffffffffffffffffffffffffff1673ffffffffffffffffffffffffffffffffffffffff16815260200191505060405180910390a150565b60008060009054906101000a900473ffffffffffffffffffffffffffffffffffffffff163061041a610cd3565b808373ffffffffffffffffffffffffffffffffffffffff1673ffffffffffffffffffffffffffffffffffffffff1681526020018273ffffffffffffffffffffffffffffffffffffffff1673ffffffffffffffffffffffffffffffffffffffff16815260200192505050604051809103906000f080151561049957600080fd5b90508073ffffffffffffffffffffffffffffffffffffffff1663a6f9dae1336040518263ffffffff167c0100000000000000000000000000000000000000000000000000000000028152600401808273ffffffffffffffffffffffffffffffffffffffff1673ffffffffffffffffffffffffffffffffffffffff168152602001915050600060405180830381600087803b151561053557600080fd5b5af1151561054257600080fd5b5050506000809054906101000a900473ffffffffffffffffffffffffffffffffffffffff1673ffffffffffffffffffffffffffffffffffffffff16633dfc32f66040518163ffffffff167c0100000000000000000000000000000000000000000000000000000000028152600401602060405180830381600087803b15156105c957600080fd5b5af115156105d657600080fd5b5050506040518051905073ffffffffffffffffffffffffffffffffffffffff1663f15ae568826040518263ffffffff167c0100000000000000000000000000000000000000000000000000000000028152600401808273ffffffffffffffffffffffffffffffffffffffff1673ffffffffffffffffffffffffffffffffffffffff168152602001915050600060405180830381600087803b151561067957600080fd5b5af1151561068657600080fd5b5050507ff191f0f605bc0c587b08ae89ac813aab383537c15ba23a9273b81adbbfbbf16b81604051808273ffffffffffffffffffffffffffffffffffffffff1673ffffffffffffffffffffffffffffffffffffffff16815260200191505060405180910390a150565b60008060009054906101000a900473ffffffffffffffffffffffffffffffffffffffff1673ffffffffffffffffffffffffffffffffffffffff16633dfc32f66040518163ffffffff167c0100000000000000000000000000000000000000000000000000000000028152600401602060405180830381600087803b151561077557600080fd5b5af1151561078257600080fd5b5050506040518051905073ffffffffffffffffffffffffffffffffffffffff1663a25047a2846040518263ffffffff167c0100000000000000000000000000000000000000000000000000000000028152600401808273ffffffffffffffffffffffffffffffffffffffff1673ffffffffffffffffffffffffffffffffffffffff168152602001915050602060405180830381600087803b151561082557600080fd5b5af1151561083257600080fd5b50505060405180519050151561084757600080fd5b6000809054906101000a900473ffffffffffffffffffffffffffffffffffffffff1673ffffffffffffffffffffffffffffffffffffffff1663d9b5c4a56040518163ffffffff167c0100000000000000000000000000000000000000000000000000000000028152600401602060405180830381600087803b15156108cb57600080fd5b5af115156108d857600080fd5b5050506040518051905073ffffffffffffffffffffffffffffffffffffffff1663a25047a2836040518263ffffffff167c0100000000000000000000000000000000000000000000000000000000028152600401808273ffffffffffffffffffffffffffffffffffffffff1673ffffffffffffffffffffffffffffffffffffffff168152602001915050602060405180830381600087803b151561097b57600080fd5b5af1151561098857600080fd5b50505060405180519050151561099d57600080fd5b308484846109a9610ce3565b808573ffffffffffffffffffffffffffffffffffffffff1673ffffffffffffffffffffffffffffffffffffffff16815260200184600019166000191681526020018373ffffffffffffffffffffffffffffffffffffffff1673ffffffffffffffffffffffffffffffffffffffff1681526020018273ffffffffffffffffffffffffffffffffffffffff1673ffffffffffffffffffffffffffffffffffffffff168152602001945050505050604051809103906000f0801515610a6a57600080fd5b90508073ffffffffffffffffffffffffffffffffffffffff1663a6f9dae1336040518263ffffffff167c0100000000000000000000000000000000000000000000000000000000028152600401808273ffffffffffffffffffffffffffffffffffffffff1673ffffffffffffffffffffffffffffffffffffffff168152602001915050600060405180830381600087803b1515610b0657600080fd5b5af11515610b1357600080fd5b5050506000809054906101000a900473ffffffffffffffffffffffffffffffffffffffff1673ffffffffffffffffffffffffffffffffffffffff1663ba9bb76d6040518163ffffffff167c0100000000000000000000000000000000000000000000000000000000028152600401602060405180830381600087803b1515610b9a57600080fd5b5af11515610ba757600080fd5b5050506040518051905073ffffffffffffffffffffffffffffffffffffffff1663f15ae568826040518263ffffffff167c0100000000000000000000000000000000000000000000000000000000028152600401808273ffffffffffffffffffffffffffffffffffffffff1673ffffffffffffffffffffffffffffffffffffffff168152602001915050600060405180830381600087803b1515610c4a57600080fd5b5af11515610c5757600080fd5b5050507fc3c5727858fb83aea970bde367824702915388f25c0bb9f7210f0c831dfc6ce081604051808273ffffffffffffffffffffffffffffffffffffffff1673ffffffffffffffffffffffffffffffffffffffff16815260200191505060405180910390a150505050565b604051610a1d80610cf483390190565b6040516107018061171183390190565b6040516111ae80611e128339019056006060604052341561000f57600080fd5b604051604080610a1d8339810160405280805190602001909190805190602001909190505080806001336000806101000a81548173ffffffffffffffffffffffffffffffffffffffff021916908373ffffffffffffffffffffffffffffffffffffffff16021790555080600160146101000a81548161ffff021916908361ffff16021790555081600160006101000a81548173ffffffffffffffffffffffffffffffffffffffff021916908373ffffffffffffffffffffffffffffffffffffffff16021790555050508073ffffffffffffffffffffffffffffffffffffffff163373ffffffffffffffffffffffffffffffffffffffff1614151561011257600080fd5b5081600260006101000a81548173ffffffffffffffffffffffffffffffffffffffff021916908373ffffffffffffffffffffffffffffffffffffffff16021790555050506108b8806101656000396000f300606060405260043610610099576000357c0100000000000000000000000000000000000000000000000000000000900463ffffffff1680631f5ddb4f1461009e578063256b4e211461010857806354fd4d50146101415780638da5cb5b14610172578063a6f9dae1146101c7578063b2017b0e14610200578063b34b464814610239578063c45a015514610262578063ed12679c146102b7575b600080fd5b34156100a957600080fd5b6100b16102f0565b6040518080602001828103825283818151815260200191508051906020019060200280838360005b838110156100f45780820151818401526020810190506100d9565b505050509050019250505060405180910390f35b341561011357600080fd5b61013f600480803573ffffffffffffffffffffffffffffffffffffffff169060200190919050506103f0565b005b341561014c57600080fd5b610154610542565b604051808261ffff1661ffff16815260200191505060405180910390f35b341561017d57600080fd5b610185610556565b604051808273ffffffffffffffffffffffffffffffffffffffff1673ffffffffffffffffffffffffffffffffffffffff16815260200191505060405180910390f35b34156101d257600080fd5b6101fe600480803573ffffffffffffffffffffffffffffffffffffffff1690602001909190505061057b565b005b341561020b57600080fd5b610237600480803573ffffffffffffffffffffffffffffffffffffffff16906020019091905050610619565b005b341561024457600080fd5b61024c610709565b6040518082815260200191505060405180910390f35b341561026d57600080fd5b61027561070f565b604051808273ffffffffffffffffffffffffffffffffffffffff1673ffffffffffffffffffffffffffffffffffffffff16815260200191505060405180910390f35b34156102c257600080fd5b6102ee600480803573ffffffffffffffffffffffffffffffffffffffff16906020019091905050610735565b005b6102f8610827565b610300610827565b60008060006004546040518059106103155750595b9080825280602002602001820160405250935060009250600091505b6003805490508210156103e65760038281548110151561034d57fe5b906000526020600020900160009054906101000a900473ffffffffffffffffffffffffffffffffffffffff16905061038481610814565b156103db5780848480600101955081518110151561039e57fe5b9060200190602002019073ffffffffffffffffffffffffffffffffffffffff16908173ffffffffffffffffffffffffffffffffffffffff16815250505b816001019150610331565b8394505050505090565b808073ffffffffffffffffffffffffffffffffffffffff163373ffffffffffffffffffffffffffffffffffffffff1614151561042b57600080fd5b61043481610814565b151561043f57600080fd5b60018173ffffffffffffffffffffffffffffffffffffffff166354fd4d506040518163ffffffff167c0100000000000000000000000000000000000000000000000000000000028152600401602060405180830381600087803b15156104a457600080fd5b5af115156104b157600080fd5b5050506040518051905061ffff161415156104cb57600080fd5b600380548060010182816104df919061083b565b9160005260206000209001600084909190916101000a81548173ffffffffffffffffffffffffffffffffffffffff021916908373ffffffffffffffffffffffffffffffffffffffff16021790555050600460008154600101919050819055505050565b600160149054906101000a900461ffff1681565b6000809054906101000a900473ffffffffffffffffffffffffffffffffffffffff1681565b6000809054906101000a900473ffffffffffffffffffffffffffffffffffffffff1673ffffffffffffffffffffffffffffffffffffffff163373ffffffffffffffffffffffffffffffffffffffff161415156105d657600080fd5b806000806101000a81548173ffffffffffffffffffffffffffffffffffffffff021916908373ffffffffffffffffffffffffffffffffffffffff16021790555050565b808073ffffffffffffffffffffffffffffffffffffffff163373ffffffffffffffffffffffffffffffffffffffff1614151561065457600080fd5b61065d81610814565b151561066857600080fd5b60018173ffffffffffffffffffffffffffffffffffffffff166354fd4d506040518163ffffffff167c0100000000000000000000000000000000000000000000000000000000028152600401602060405180830381600087803b15156106cd57600080fd5b5af115156106da57600080fd5b5050506040518051905061ffff161415156106f457600080fd5b60046000815460019003919050819055505050565b60045481565b600160009054906101000a900473ffffffffffffffffffffffffffffffffffffffff1681565b808073ffffffffffffffffffffffffffffffffffffffff163373ffffffffffffffffffffffffffffffffffffffff1614151561077057600080fd5b61077981610814565b151561078457600080fd5b60018173ffffffffffffffffffffffffffffffffffffffff166354fd4d506040518163ffffffff167c0100000000000000000000000000000000000000000000000000000000028152600401602060405180830381600087803b15156107e957600080fd5b5af115156107f657600080fd5b5050506040518051905061ffff1614151561081057600080fd5b5050565b600080823b905060008111915050919050565b602060405190810160405280600081525090565b815481835581811511610862578183600052602060002091820191016108619190610867565b5b505050565b61088991905b8082111561088557600081600090555060010161086d565b5090565b905600a165627a7a72305820fc825cc8638cb0ed33a69d212364420be4f6a9c8be68b273515bd7cd387893ff00296060604052341561000f57600080fd5b6040516040806107018339810160405280805190602001909190805190602001909190505080806001336000806101000a81548173ffffffffffffffffffffffffffffffffffffffff021916908373ffffffffffffffffffffffffffffffffffffffff16021790555080600160146101000a81548161ffff021916908361ffff16021790555081600160006101000a81548173ffffffffffffffffffffffffffffffffffffffff021916908373ffffffffffffffffffffffffffffffffffffffff16021790555050508073ffffffffffffffffffffffffffffffffffffffff163373ffffffffffffffffffffffffffffffffffffffff1614151561011257600080fd5b5081600260006101000a81548173ffffffffffffffffffffffffffffffffffffffff021916908373ffffffffffffffffffffffffffffffffffffffff160217905550505061059c806101656000396000f30060606040526004361061006d576000357c0100000000000000000000000000000000000000000000000000000000900463ffffffff1680632781e0161461007257806354fd4d50146100ab5780638da5cb5b146100dc578063a6f9dae114610131578063c45a01551461016a575b600080fd5b341561007d57600080fd5b6100a9600480803573ffffffffffffffffffffffffffffffffffffffff169060200190919050506101bf565b005b34156100b657600080fd5b6100be610473565b604051808261ffff1661ffff16815260200191505060405180910390f35b34156100e757600080fd5b6100ef610487565b604051808273ffffffffffffffffffffffffffffffffffffffff1673ffffffffffffffffffffffffffffffffffffffff16815260200191505060405180910390f35b341561013c57600080fd5b610168600480803573ffffffffffffffffffffffffffffffffffffffff169060200190919050506104ac565b005b341561017557600080fd5b61017d61054a565b604051808273ffffffffffffffffffffffffffffffffffffffff1673ffffffffffffffffffffffffffffffffffffffff16815260200191505060405180910390f35b6000809054906101000a900473ffffffffffffffffffffffffffffffffffffffff1673ffffffffffffffffffffffffffffffffffffffff163373ffffffffffffffffffffffffffffffffffffffff1614151561021a57600080fd5b600260009054906101000a900473ffffffffffffffffffffffffffffffffffffffff1673ffffffffffffffffffffffffffffffffffffffff1663ba9bb76d6040518163ffffffff167c0100000000000000000000000000000000000000000000000000000000028152600401602060405180830381600087803b151561029f57600080fd5b5af115156102ac57600080fd5b5050506040518051905073ffffffffffffffffffffffffffffffffffffffff1663a25047a2826040518263ffffffff167c0100000000000000000000000000000000000000000000000000000000028152600401808273ffffffffffffffffffffffffffffffffffffffff1673ffffffffffffffffffffffffffffffffffffffff168152602001915050602060405180830381600087803b151561034f57600080fd5b5af1151561035c57600080fd5b50505060405180519050151561037157600080fd5b60018173ffffffffffffffffffffffffffffffffffffffff166354fd4d506040518163ffffffff167c0100000000000000000000000000000000000000000000000000000000028152600401602060405180830381600087803b15156103d657600080fd5b5af115156103e357600080fd5b5050506040518051905061ffff161415156103fd57600080fd5b8073ffffffffffffffffffffffffffffffffffffffff16632ca151226040518163ffffffff167c0100000000000000000000000000000000000000000000000000000000028152600401600060405180830381600087803b151561046057600080fd5b5af1151561046d57600080fd5b50505050565b600160149054906101000a900461ffff1681565b6000809054906101000a900473ffffffffffffffffffffffffffffffffffffffff1681565b6000809054906101000a900473ffffffffffffffffffffffffffffffffffffffff1673ffffffffffffffffffffffffffffffffffffffff163373ffffffffffffffffffffffffffffffffffffffff1614151561050757600080fd5b806000806101000a81548173ffffffffffffffffffffffffffffffffffffffff021916908373ffffffffffffffffffffffffffffffffffffffff16021790555050565b600160009054906101000a900473ffffffffffffffffffffffffffffffffffffffff16815600a165627a7a723058202add224b6d6ade177140dd9a102e006ab1af01d9e6d301dc377a4f63768cc7ad00296060604052341561000f57600080fd5b6040516080806111ae8339810160405280805190602001909190805190602001909190805190602001909190805190602001909190505083806001336000806101000a81548173ffffffffffffffffffffffffffffffffffffffff021916908373ffffffffffffffffffffffffffffffffffffffff16021790555080600160146101000a81548161ffff021916908361ffff16021790555081600160006101000a81548173ffffffffffffffffffffffffffffffffffffffff021916908373ffffffffffffffffffffffffffffffffffffffff16021790555050508073ffffffffffffffffffffffffffffffffffffffff163373ffffffffffffffffffffffffffffffffffffffff1614151561012457600080fd5b50826004816000191690555081600260006101000a81548173ffffffffffffffffffffffffffffffffffffffff021916908373ffffffffffffffffffffffffffffffffffffffff16021790555080600360006101000a81548173ffffffffffffffffffffffffffffffffffffffff021916908373ffffffffffffffffffffffffffffffffffffffff16021790555050505050610fe9806101c56000396000f3006060604052600436106100e6576000357c0100000000000000000000000000000000000000000000000000000000900463ffffffff1680631d143848146100eb578063212788f914610140578063232a6b9d146101aa5780632ca15122146101d757806354fd4d50146101ec5780635f1ff5491461021d57806366d003ac1461024a5780638da5cb5b1461029f578063948e1968146102f4578063a6809c5314610325578063a6f9dae114610356578063b6549f751461038f578063c45a0155146103a4578063cf937141146103f9578063d383f64614610426578063dc984dd41461043b575b600080fd5b34156100f657600080fd5b6100fe6104c9565b604051808273ffffffffffffffffffffffffffffffffffffffff1673ffffffffffffffffffffffffffffffffffffffff16815260200191505060405180910390f35b341561014b57600080fd5b6101a860048080356000191690602001909190803590602001908201803590602001908080601f016020809104026020016040519081016040528093929190818152602001838380828437820191505050505050919050506104ef565b005b34156101b557600080fd5b6101bd61072e565b604051808215151515815260200191505060405180910390f35b34156101e257600080fd5b6101ea610741565b005b34156101f757600080fd5b6101ff610896565b604051808261ffff1661ffff16815260200191505060405180910390f35b341561022857600080fd5b6102306108aa565b604051808215151515815260200191505060405180910390f35b341561025557600080fd5b61025d6108bd565b604051808273ffffffffffffffffffffffffffffffffffffffff1673ffffffffffffffffffffffffffffffffffffffff16815260200191505060405180910390f35b34156102aa57600080fd5b6102b26108e3565b604051808273ffffffffffffffffffffffffffffffffffffffff1673ffffffffffffffffffffffffffffffffffffffff16815260200191505060405180910390f35b34156102ff57600080fd5b610307610908565b60405180826000191660001916815260200191505060405180910390f35b341561033057600080fd5b61033861090e565b60405180826000191660001916815260200191505060405180910390f35b341561036157600080fd5b61038d600480803573ffffffffffffffffffffffffffffffffffffffff16906020019091905050610914565b005b341561039a57600080fd5b6103a26109b2565b005b34156103af57600080fd5b6103b7610c05565b604051808273ffffffffffffffffffffffffffffffffffffffff1673ffffffffffffffffffffffffffffffffffffffff16815260200191505060405180910390f35b341561040457600080fd5b61040c610c2b565b604051808215151515815260200191505060405180910390f35b341561043157600080fd5b610439610c5a565b005b341561044657600080fd5b61044e610e7a565b6040518080602001828103825283818151815260200191508051906020019080838360005b8381101561048e578082015181840152602081019050610473565b50505050905090810190601f1680156104bb5780820380516001836020036101000a031916815260200191505b509250505060405180910390f35b600260009054906101000a900473ffffffffffffffffffffffffffffffffffffffff1681565b6000809054906101000a900473ffffffffffffffffffffffffffffffffffffffff1673ffffffffffffffffffffffffffffffffffffffff163373ffffffffffffffffffffffffffffffffffffffff1614151561054a57600080fd5b8160058160001916905550806006908051906020019061056b929190610f18565b50600360159054906101000a900460ff161561072a57600360009054906101000a900473ffffffffffffffffffffffffffffffffffffffff1673ffffffffffffffffffffffffffffffffffffffff1663ed12679c306040518263ffffffff167c0100000000000000000000000000000000000000000000000000000000028152600401808273ffffffffffffffffffffffffffffffffffffffff1673ffffffffffffffffffffffffffffffffffffffff168152602001915050600060405180830381600087803b151561063d57600080fd5b5af1151561064a57600080fd5b505050600360009054906101000a900473ffffffffffffffffffffffffffffffffffffffff1673ffffffffffffffffffffffffffffffffffffffff16600260009054906101000a900473ffffffffffffffffffffffffffffffffffffffff1673ffffffffffffffffffffffffffffffffffffffff16600454600019167f020eb707875fabe09e43d7e9fbfd8ad6badf4db780b02e5d9dfd0137a4998d8330604051808273ffffffffffffffffffffffffffffffffffffffff1673ffffffffffffffffffffffffffffffffffffffff16815260200191505060405180910390a45b5050565b600360149054906101000a900460ff1681565b600260009054906101000a900473ffffffffffffffffffffffffffffffffffffffff1673ffffffffffffffffffffffffffffffffffffffff163373ffffffffffffffffffffffffffffffffffffffff1614151561079d57600080fd5b6001600360146101000a81548160ff021916908315150217905550600360009054906101000a900473ffffffffffffffffffffffffffffffffffffffff1673ffffffffffffffffffffffffffffffffffffffff16600260009054906101000a900473ffffffffffffffffffffffffffffffffffffffff1673ffffffffffffffffffffffffffffffffffffffff16600454600019167feb66f58799ba88cba0ed9ed8f9225778b2f486e1aadd3ea4d221be124b95c16130604051808273ffffffffffffffffffffffffffffffffffffffff1673ffffffffffffffffffffffffffffffffffffffff16815260200191505060405180910390a4565b600160149054906101000a900461ffff1681565b600360159054906101000a900460ff1681565b600360009054906101000a900473ffffffffffffffffffffffffffffffffffffffff1681565b6000809054906101000a900473ffffffffffffffffffffffffffffffffffffffff1681565b60045481565b60055481565b6000809054906101000a900473ffffffffffffffffffffffffffffffffffffffff1673ffffffffffffffffffffffffffffffffffffffff163373ffffffffffffffffffffffffffffffffffffffff1614151561096f57600080fd5b806000806101000a81548173ffffffffffffffffffffffffffffffffffffffff021916908373ffffffffffffffffffffffffffffffffffffffff16021790555050565b6000809054906101000a900473ffffffffffffffffffffffffffffffffffffffff1673ffffffffffffffffffffffffffffffffffffffff163373ffffffffffffffffffffffffffffffffffffffff16141515610a0d57600080fd5b600360159054906101000a900460ff1615610bcb57600360009054906101000a900473ffffffffffffffffffffffffffffffffffffffff1673ffffffffffffffffffffffffffffffffffffffff1663b2017b0e306040518263ffffffff167c0100000000000000000000000000000000000000000000000000000000028152600401808273ffffffffffffffffffffffffffffffffffffffff1673ffffffffffffffffffffffffffffffffffffffff168152602001915050600060405180830381600087803b1515610ade57600080fd5b5af11515610aeb57600080fd5b505050600360009054906101000a900473ffffffffffffffffffffffffffffffffffffffff1673ffffffffffffffffffffffffffffffffffffffff16600260009054906101000a900473ffffffffffffffffffffffffffffffffffffffff1673ffffffffffffffffffffffffffffffffffffffff16600454600019167f932a757ae8910660400e5295842e79edd393efa17703e52dffdc85c3932bfdbd30604051808273ffffffffffffffffffffffffffffffffffffffff1673ffffffffffffffffffffffffffffffffffffffff16815260200191505060405180910390a45b6000809054906101000a900473ffffffffffffffffffffffffffffffffffffffff1673ffffffffffffffffffffffffffffffffffffffff16ff5b600160009054906101000a900473ffffffffffffffffffffffffffffffffffffffff1681565b6000600360149054906101000a900460ff168015610c555750600360159054906101000a900460ff165b905090565b6000809054906101000a900473ffffffffffffffffffffffffffffffffffffffff1673ffffffffffffffffffffffffffffffffffffffff163373ffffffffffffffffffffffffffffffffffffffff16141515610cb557600080fd5b6001600360156101000a81548160ff021916908315150217905550600360009054906101000a900473ffffffffffffffffffffffffffffffffffffffff1673ffffffffffffffffffffffffffffffffffffffff1663256b4e21306040518263ffffffff167c0100000000000000000000000000000000000000000000000000000000028152600401808273ffffffffffffffffffffffffffffffffffffffff1673ffffffffffffffffffffffffffffffffffffffff168152602001915050600060405180830381600087803b1515610d8c57600080fd5b5af11515610d9957600080fd5b505050600360009054906101000a900473ffffffffffffffffffffffffffffffffffffffff1673ffffffffffffffffffffffffffffffffffffffff16600260009054906101000a900473ffffffffffffffffffffffffffffffffffffffff1673ffffffffffffffffffffffffffffffffffffffff16600454600019167f5d46e800c06cf76d6a9e81eb0720ce8e14a9ac64a898ec41fa83cd06864da70930604051808273ffffffffffffffffffffffffffffffffffffffff1673ffffffffffffffffffffffffffffffffffffffff16815260200191505060405180910390a4565b60068054600181600116156101000203166002900480601f016020809104026020016040519081016040528092919081815260200182805460018160011615610100020316600290048015610f105780601f10610ee557610100808354040283529160200191610f10565b820191906000526020600020905b815481529060010190602001808311610ef357829003601f168201915b505050505081565b828054600181600116156101000203166002900490600052602060002090601f016020900481019282601f10610f5957805160ff1916838001178555610f87565b82800160010185558215610f87579182015b82811115610f86578251825591602001919060010190610f6b565b5b509050610f949190610f98565b5090565b610fba91905b80821115610fb6576000816000905550600101610f9e565b5090565b905600a165627a7a723058205589d4855e11fb1a84d363fa18541f44f8d13d7502f4196194df7f12bf0eb3a00029a165627a7a72305820c4eb4354dc557d2477e12e085844d0f089ec98daa85517fe59cc60d943af193e0029",
  "source": "pragma solidity ^0.4.11;\n\nimport '../gov/NoiaMarketplace.sol';\nimport './NoiaBusinessV1.sol';\nimport './NoiaNodeV1.sol';\n\ncontract NoiaContractsFactoryV1 {\n    NoiaMarketplace marketplace;\n\n    function NoiaContractsFactoryV1(NoiaMarketplace marketplace_) public {\n        marketplace = marketplace_;\n    }\n\n    function createBusiness() public {\n        NoiaBusinessV1 business = new NoiaBusinessV1(marketplace, this);\n        business.changeOwner(msg.sender);\n        marketplace.businessRegistry().addEntry(business);\n        emit NoiaBusinessCreatedV1(address(business));\n    }\n\n    event NoiaBusinessCreatedV1(address businessAddress);\n\n    function createNode() public {\n        NoiaNodeV1 node = new NoiaNodeV1(marketplace, this);\n        node.changeOwner(msg.sender);\n        marketplace.nodeRegistry().addEntry(node);\n        emit NoiaNodeCreatedV1(address(node));\n    }\n\n    event NoiaNodeCreatedV1(address nodeAddress);\n\n    function createCertificate(bytes32 certificateName, NoiaBusinessV1 issuer, NoiaNodeV1 recipient) public {\n        require(marketplace.businessRegistry().hasEntry(issuer));\n        require(marketplace.nodeRegistry().hasEntry(recipient));\n        NoiaCertificateV1 cert = new NoiaCertificateV1(this, certificateName, issuer, recipient);\n        cert.changeOwner(msg.sender);\n        marketplace.certificatesRegistry().addEntry(cert);\n        emit NoiaCertificateCreatedV1(address(cert));\n    }\n\n    event NoiaCertificateCreatedV1(address certAddress);\n}\n",
  "sourcePath": "/home/hellwolf/Projects/noia/noia-governance/contracts/noia/v1/NoiaContractsFactoryV1.sol",
  "compiler": {
    "name": "solc",
    "version": "0.4.21+commit.dfe3193c.Emscripten.clang"
  },
  "schemaVersion": "2.0.0",
  "updatedAt": "2018-04-18T10:11:40.628Z"
}