{
  "contractName": "NoiaJobPostContractFactoryV1",
  "abi": [
    {
      "constant": false,
      "inputs": [
        {
          "name": "marketplace_",
          "type": "address"
        }
      ],
      "name": "setMarketplace",
      "outputs": [],
      "payable": false,
      "stateMutability": "nonpayable",
      "type": "function"
    },
    {
      "anonymous": false,
      "inputs": [
        {
          "indexed": false,
          "name": "contractInstance",
          "type": "address"
        }
      ],
      "name": "NoiaContractV1Created",
      "type": "event"
    },
    {
      "constant": false,
      "inputs": [
        {
          "name": "employer",
          "type": "address"
        },
        {
          "name": "infoType",
          "type": "bytes32"
        },
        {
          "name": "infoData",
          "type": "bytes"
        }
      ],
      "name": "create",
      "outputs": [],
      "payable": false,
      "stateMutability": "nonpayable",
      "type": "function"
    }
  ],
  "bytecode": "0x608060405234801561001057600080fd5b50612689806100206000396000f3006080604052600436106100325763ffffffff60e060020a6000350416633fca28f2811461003757806373ad6c2d146100a2575b600080fd5b34801561004357600080fd5b50604080516020600460443581810135601f81018490048402850184019095528484526100a0948235600160a060020a03169460248035953695946064949201919081908401838280828437509497506100c39650505050505050565b005b3480156100ae57600080fd5b506100a0600160a060020a03600435166104f1565b60008060009054906101000a9004600160a060020a0316600160a060020a0316633dfc32f66040518163ffffffff1660e060020a028152600401602060405180830381600087803b15801561011757600080fd5b505af115801561012b573d6000803e3d6000fd5b505050506040513d602081101561014157600080fd5b5051604080517fa25047a2000000000000000000000000000000000000000000000000000000008152600160a060020a0387811660048301529151919092169163a25047a29160248083019260209291908290030181600087803b1580156101a857600080fd5b505af11580156101bc573d6000803e3d6000fd5b505050506040513d60208110156101d257600080fd5b5051151561026757604080517f08c379a000000000000000000000000000000000000000000000000000000000815260206004820152603760248201527f4d61726b6574706c61636520646f6573206e6f74206861766520656d706c6f7960448201527f657220696e20627573696e657373207265676973747279000000000000000000606482015290519081900360840190fd5b6000543090600160a060020a0316858585610280610520565b600160a060020a03808716825285811660208084019190915290851660408301526060820184905260a0608083018181528451918401919091528351909160c08401919085019080838360005b838110156102e55781810151838201526020016102cd565b50505050905090810190601f1680156103125780820380516001836020036101000a031916815260200191505b509650505050505050604051809103906000f080158015610337573d6000803e3d6000fd5b50604080517fa6f9dae10000000000000000000000000000000000000000000000000000000081523360048201529051919250600160a060020a0383169163a6f9dae19160248082019260009290919082900301818387803b15801561039c57600080fd5b505af11580156103b0573d6000803e3d6000fd5b505050506000809054906101000a9004600160a060020a0316600160a060020a031663e4f7dd636040518163ffffffff1660e060020a028152600401602060405180830381600087803b15801561040657600080fd5b505af115801561041a573d6000803e3d6000fd5b505050506040513d602081101561043057600080fd5b5051604080517ff15ae568000000000000000000000000000000000000000000000000000000008152600160a060020a0384811660048301529151919092169163f15ae56891602480830192600092919082900301818387803b15801561049657600080fd5b505af11580156104aa573d6000803e3d6000fd5b505060408051600160a060020a038516815290517f4925a5c7f3f73bba343166964921a277f457922c2d49b45d9dc9f897d2fb96559350908190036020019150a150505050565b6000805473ffffffffffffffffffffffffffffffffffffffff1916600160a060020a0392909216919091179055565b60405161212d80610531833901905600608060405234801561001057600080fd5b5060405161212d38038061212d83398101604090815281516020830151918301516060840151608085015160008054600160a060020a0319163390811790915593959293919201908590859082908290600190600160a060020a038416146100fe57604080517f08c379a0000000000000000000000000000000000000000000000000000000008152602060048201526024808201527f4f6e6c79206120466163746f72792063616e20637265617465206120636f6e7460448201527f7261637400000000000000000000000000000000000000000000000000000000606482015290519081900360840190fd5b6002805460018054600160a060020a03968716600160a060020a03199182161790915593851661ffff909316740100000000000000000000000000000000000000000260a060020a61ffff0219909116178316919091179055600380549288169290911691909117905550506004829055805161018290600590602084019061018d565b505050505050610228565b828054600181600116156101000203166002900490600052602060002090601f016020900481019282601f106101ce57805160ff19168380011785556101fb565b828001600101855582156101fb579182015b828111156101fb5782518255916020019190600101906101e0565b5061020792915061020b565b5090565b61022591905b808211156102075760008155600101610211565b90565b611ef6806102376000396000f3006080604052600436106100a35763ffffffff7c01000000000000000000000000000000000000000000000000000000006000350416632e5b5a1381146100a857806354fd4d50146101325780638123488f1461015e5780638da5cb5b14610181578063a6f9dae1146101b2578063abc8c7af146101d3578063ae200e79146101e8578063afb74f48146101fd578063c2d4e92c14610224578063c45a015514610245575b600080fd5b3480156100b457600080fd5b506100bd61025a565b6040805160208082528351818301528351919283929083019185019080838360005b838110156100f75781810151838201526020016100df565b50505050905090810190601f1680156101245780820380516001836020036101000a031916815260200191505b509250505060405180910390f35b34801561013e57600080fd5b506101476102e8565b6040805161ffff9092168252519081900360200190f35b34801561016a57600080fd5b5061017f600160a060020a036004351661030a565b005b34801561018d57600080fd5b50610196610529565b60408051600160a060020a039092168252519081900360200190f35b3480156101be57600080fd5b5061017f600160a060020a0360043516610538565b3480156101df57600080fd5b506101966105e0565b3480156101f457600080fd5b506101966105ef565b34801561020957600080fd5b506102126105fe565b60408051918252519081900360200190f35b34801561023057600080fd5b50610196600160a060020a0360043516610604565b34801561025157600080fd5b50610196610622565b6005805460408051602060026001851615610100026000190190941693909304601f810184900484028201840190925281815292918301828280156102e05780601f106102b5576101008083540402835291602001916102e0565b820191906000526020600020905b8154815290600101906020018083116102c357829003601f168201915b505050505081565b60025474010000000000000000000000000000000000000000900461ffff1681565b600080600360009054906101000a9004600160a060020a0316600160a060020a0316638da5cb5b6040518163ffffffff167c0100000000000000000000000000000000000000000000000000000000028152600401602060405180830381600087803b15801561037957600080fd5b505af115801561038d573d6000803e3d6000fd5b505050506040513d60208110156103a357600080fd5b5051600160a060020a031633141561045b57600091503082846103c4610631565b600160a060020a0384168152602081018360018111156103e057fe5b60ff168152600160a060020a03909216602083015250604080519182900301925090506000f080158015610418573d6000803e3d6000fd5b50600160a060020a038481166000908152600660205260409020805473ffffffffffffffffffffffffffffffffffffffff191691831691909117905590506104e8565b604080517f08c379a000000000000000000000000000000000000000000000000000000000815260206004820152603660248201527f4f6e6c792061206a6f6220706f7374206f776e65722f656d706c6f796572206360448201527f616e20637265617465206120776f726b206f7264657200000000000000000000606482015290519081900360840190fd5b60408051600160a060020a038316815290517f4925a5c7f3f73bba343166964921a277f457922c2d49b45d9dc9f897d2fb96559181900360200190a1505050565b600054600160a060020a031681565b600054600160a060020a031633146105b157604080517f08c379a000000000000000000000000000000000000000000000000000000000815260206004820152601660248201527f53656e646572206973206e6f7420616e206f776e657200000000000000000000604482015290519081900360640190fd5b6000805473ffffffffffffffffffffffffffffffffffffffff1916600160a060020a0392909216919091179055565b600254600160a060020a031681565b600354600160a060020a031681565b60045481565b600160a060020a039081166000908152600660205260409020541690565b600154600160a060020a031681565b6040516118898061064283390190560060806040526007805461ffff191690553480156200001c57600080fd5b506040516060806200188983398101604090815281516020830151919092015133600160a060020a03841614620000da57604080517f08c379a000000000000000000000000000000000000000000000000000000000815260206004820152602760248201527f4f6e6c792061206a6f6220706f73742063616e20637265617465206120776f7260448201527f6b206f7264657200000000000000000000000000000000000000000000000000606482015290519081900360840190fd5b600160a060020a03811615156200015257604080517f08c379a000000000000000000000000000000000000000000000000000000000815260206004820152601360248201527f576f726b65722061646472657373206973203000000000000000000000000000604482015290519081900360640190fd5b82600160a060020a031663abc8c7af6040518163ffffffff167c0100000000000000000000000000000000000000000000000000000000028152600401602060405180830381600087803b158015620001aa57600080fd5b505af1158015620001bf573d6000803e3d6000fd5b505050506040513d6020811015620001d657600080fd5b5051604080517f55a373d60000000000000000000000000000000000000000000000000000000081529051600160a060020a03909216916355a373d6916004808201926020929091908290030181600087803b1580156200023657600080fd5b505af11580156200024b573d6000803e3d6000fd5b505050506040513d60208110156200026257600080fd5b505160018054600160a060020a031916600160a060020a0390921691909117815560008054849260a060020a60ff02199091169074010000000000000000000000000000000000000000908490811115620002b957fe5b021790555082600160a060020a031663ae200e796040518163ffffffff167c0100000000000000000000000000000000000000000000000000000000028152600401602060405180830381600087803b1580156200031657600080fd5b505af11580156200032b573d6000803e3d6000fd5b505050506040513d60208110156200034257600080fd5b505160028054600160a060020a0319908116600160a060020a039384161790915560038054821693831693909317909255600080549092169316929092178255506114f59081906200039490396000f3006080604052600436106100cf5763ffffffff7c0100000000000000000000000000000000000000000000000000000000600035041663199cbc5481146100d45780632852b71c146100fb5780635051a5ec14610112578063595b18721461013b57806390380dcf1461016c57806394566d251461021a578063968ed6001461022f578063a9ae251214610244578063ae200e79146102a2578063ba3e095c146102b7578063bd980f4b146102d2578063c0ee0b8a146102e7578063c56a1a2b14610350578063d9e8401614610365575b600080fd5b3480156100e057600080fd5b506100e96103ce565b60408051918252519081900360200190f35b34801561010757600080fd5b506101106103d4565b005b34801561011e57600080fd5b506101276103df565b604080519115158252519081900360200190f35b34801561014757600080fd5b50610150610400565b60408051600160a060020a039092168252519081900360200190f35b34801561017857600080fd5b5061018161040f565b604051808060200180602001838103835285818151815260200191508051906020019060200280838360005b838110156101c55781810151838201526020016101ad565b50505050905001838103825284818151815260200191508051906020019060200280838360005b838110156102045781810151838201526020016101ec565b5050505090500194505050505060405180910390f35b34801561022657600080fd5b506101506104f3565b34801561023b57600080fd5b506100e9610502565b34801561025057600080fd5b5060408051602060046024803582810135601f81018590048502860185019096528585526101109583359536956044949193909101919081908401838280828437509497506105989650505050505050565b3480156102ae57600080fd5b50610150610809565b3480156102c357600080fd5b50610110600435602435610818565b3480156102de57600080fd5b50610127610ae5565b3480156102f357600080fd5b50604080516020600460443581810135601f8101849004840285018401909552848452610110948235600160a060020a0316946024803595369594606494920191908190840183828082843750949750610af39650505050505050565b34801561035c57600080fd5b50610127610b80565b34801561037157600080fd5b50604080516020600460443581810135601f8101849004840285018401909552848452610110948235600160a060020a0316946024803595369594606494920191908190840183828082843750949750610b899650505050505050565b60065481565b6103dd3361115b565b565b600754600090610100900460ff1680156103fb575060075460ff165b905090565b600354600160a060020a031681565b606080606080600080600580549050604051908082528060200260200182016040528015610447578160200160208202803883390190505b506005546040805182815260208084028201019091529195508015610476578160200160208202803883390190505b509250600091505b6005548210156104e857600580548390811061049657fe5b90600052602060002090600202019050806001015484838151811015156104b957fe5b60209081029091010152805483518490849081106104d357fe5b6020908102909101015260019091019061047e565b509194909350915050565b600054600160a060020a031681565b600154604080517f70a082310000000000000000000000000000000000000000000000000000000081523060048201529051600092600160a060020a0316916370a0823191602480830192602092919082900301818787803b15801561056757600080fd5b505af115801561057b573d6000803e3d6000fd5b505050506040513d602081101561059157600080fd5b5051905090565b606060006004836040518082805190602001908083835b602083106105ce5780518252601f1990920191602091820191016105af565b51815160209384036101000a600019018019909216911617905292019485525060405193849003019092205460ff161591506106569050576040805160e560020a62461bcd02815260206004820152601960248201527f5369676e617475726520616c7265616479206578697374732100000000000000604482015290519081900360640190fd5b60016004846040518082805190602001908083835b6020831061068a5780518252601f19909201916020918201910161066b565b51815160209384036101000a6000190180199092169116179052920194855250604080519485900382018520805460ff191696151596909617909555306c0100000000000000000000000002848201527f61636365707400000000000000000000000000000000000000000000000000006034850152603a8085018a905285518086039091018152605a90940194859052835193965061079894889461078c945088935090918291908401908083835b602083106107595780518252601f19909201916020918201910161073a565b5181516020939093036101000a600019018019909116921691909117905260405192018290039091209250611325915050565b9063ffffffff6113cf16565b9050600160a060020a03811615156107fa576040805160e560020a62461bcd02815260206004820152601660248201527f5369676e6572206e6f74207265636f676e697a65642100000000000000000000604482015290519081900360640190fd5b6108038161115b565b50505050565b600254600160a060020a031681565b600260009054906101000a9004600160a060020a0316600160a060020a0316638da5cb5b6040518163ffffffff167c0100000000000000000000000000000000000000000000000000000000028152600401602060405180830381600087803b15801561088457600080fd5b505af1158015610898573d6000803e3d6000fd5b505050506040513d60208110156108ae57600080fd5b5051600160a060020a03163314610935576040805160e560020a62461bcd02815260206004820152602760248201527f4f6e6c7920616e20656d706c6f7965722063616e2074696d656c6f636b20746860448201527f652066756e647300000000000000000000000000000000000000000000000000606482015290519081900360840190fd5b600654610948908363ffffffff6114a416565b600154604080517f70a082310000000000000000000000000000000000000000000000000000000081523060048201529051600160a060020a03909216916370a08231916024808201926020929091908290030181600087803b1580156109ae57600080fd5b505af11580156109c2573d6000803e3d6000fd5b505050506040513d60208110156109d857600080fd5b50511015610a56576040805160e560020a62461bcd02815260206004820152603b60248201527f546f74616c207665737465642063616e6e6f74206265206c6f7765722074686160448201527f6e20746f74616c2066756e647320696e20776f726b206f726465720000000000606482015290519081900360840190fd5b600654610a69908363ffffffff6114a416565b60065560408051808201909152908152602081019182526005805460018101825560009190915290517f036b6384b5eca791c62761152d0c79bb0604c104a5fb6f4eb0703f3154bb3db060029092029182015590517f036b6384b5eca791c62761152d0c79bb0604c104a5fb6f4eb0703f3154bb3db190910155565b600754610100900460ff1681565b600154600160a060020a03163314610b7b576040805160e560020a62461bcd02815260206004820152603660248201527f5765206f6e6c792061636365707420746f6b656e207472616e7366657273206660448201527f726f6d206f757220746f6b656e20636f6e747261637400000000000000000000606482015290519081900360840190fd5b505050565b60075460ff1681565b6060600080600080600080600080610b9f6103df565b1515610c1b576040805160e560020a62461bcd02815260206004820152603260248201527f43616e6e6f742072656c656173652066756e6473206265666f726520776f726b60448201527f206f726465722069732061636365707465640000000000000000000000000000606482015290519081900360840190fd5b600160a060020a038c161515610c7b576040805160e560020a62461bcd02815260206004820152601860248201527f42656e6566696369617279206164647265737320697320300000000000000000604482015290519081900360640190fd5b60048a6040518082805190602001908083835b60208310610cad5780518252601f199092019160209182019101610c8e565b51815160209384036101000a600019018019909216911617905292019485525060405193849003019092205460ff16159150610d5b9050576040805160e560020a62461bcd02815260206004820152603960248201527f4d756c7469706c6520757365206f66207468652073616d652064656c6567617460448201527f6564206d657373616765206973206e6f7420616c6c6f77656400000000000000606482015290519081900360840190fd5b600160048b6040518082805190602001908083835b60208310610d8f5780518252601f199092019160209182019101610d70565b6001836020036101000a038019825116818451168082178552505050505050905001915050908152602001604051809103902060006101000a81548160ff021916908315150217905550308c8c6040516020018084600160a060020a0316600160a060020a03166c01000000000000000000000000028152601401807f72656c656173650000000000000000000000000000000000000000000000000081525060070183600160a060020a0316600160a060020a03166c0100000000000000000000000002815260140182815260200193505050506040516020818303038152906040529850610eab8a61078c8b604051808280519060200190808383602083106107595780518252601f19909201916020918201910161073a565b9750600160a060020a0388161515610f33576040805160e560020a62461bcd02815260206004820152603260248201527f44656c6567617465642072656c65617365206d657373616765207369676e657260448201527f206973206e6f74207265636f676e697a65640000000000000000000000000000606482015290519081900360840190fd5b600354600160a060020a03898116911614610fe4576040805160e560020a62461bcd02815260206004820152604360248201527f44656c6567617465642072656c65617365206d657373616765207369676e657260448201527f206d757374206265206120776f726b6572206f662074686520776f726b206f7260648201527f6465720000000000000000000000000000000000000000000000000000000000608482015290519081900360a40190fd5b6005548c97506000965093504292508591505b8382101561106357600580548390811061100d57fe5b6000918252602082206002909102018054965091508511801561102f57508285105b1561105857600181015461104a90879063ffffffff6114a416565b600060018301819055825595505b600190910190610ff7565b600086111561114d5760065461107f908763ffffffff6114b716565b600655600154604080517fa9059cbb000000000000000000000000000000000000000000000000000000008152600160a060020a038a81166004830152602482018a90529151919092169163a9059cbb91604480830192600092919082900301818387803b1580156110f057600080fd5b505af1158015611104573d6000803e3d6000fd5b505060408051600160a060020a038b168152602081018a905281517fb21fb52d5749b80f3182f8c6992236b5e5576681880914484d7f4c9b062e619e9450908190039091019150a15b505050505050505050505050565b600354600254604080517f8da5cb5b0000000000000000000000000000000000000000000000000000000081529051600160a060020a0393841685851614936000938493911691638da5cb5b9160048082019260209290919082900301818787803b1580156111c957600080fd5b505af11580156111dd573d6000803e3d6000fd5b505050506040513d60208110156111f357600080fd5b5051600160a060020a038581169116149150828061120e5750815b1515611289576040805160e560020a62461bcd028152602060048201526024808201527f5369676e6572206d757374206265206120776f726b6572206f7220656d706c6f60448201527f7965652100000000000000000000000000000000000000000000000000000000606482015290519081900360840190fd5b6112916103df565b905082156112a9576007805461ff0019166101001790555b81156112bd576007805460ff191660011790555b801580156112ce57506112ce6103df565b156108035760025460035460408051600160a060020a03938416815292909116602083015280517f4cd361b37129a4a13dff2704ff3bc0261c22f688c60784c2849582de8b77f1f59281900390910190a150505050565b604080517f19457468657265756d205369676e6564204d6573736167653a0a333200000000602080830191909152603c80830185905283518084039091018152605c909201928390528151600093918291908401908083835b6020831061139d5780518252601f19909201916020918201910161137e565b5181516020939093036101000a6000190180199091169216919091179052604051920182900390912095945050505050565b600080600080845160411415156113e9576000935061149b565b50505060208201516040830151606084015160001a601b60ff8216101561140e57601b015b8060ff16601b1415801561142657508060ff16601c14155b15611434576000935061149b565b60408051600080825260208083018085528a905260ff8516838501526060830187905260808301869052925160019360a0808501949193601f19840193928390039091019190865af115801561148e573d6000803e3d6000fd5b5050506020604051035193505b50505092915050565b818101828110156114b157fe5b92915050565b6000828211156114c357fe5b509003905600a165627a7a72305820f0a2782bbfd1c527930de9698c523ac96364d1d71c167ad36e897e3cef18fece0029a165627a7a72305820f6621386fcd2564901206201e6ed16270f92f116a7f0129d1f24e6d5e9d5c9b20029a165627a7a72305820f42fde242173c1bf74b9278dab02f59bf12f96078d2dc509cce366f1ef07b25d0029",
  "source": "pragma solidity ^0.4.20;\n\nimport \"./NoiaBusinessV1.sol\";\nimport \"./NoiaNodeV1.sol\";\nimport \"./NoiaCertificateV1.sol\";\nimport \"./NoiaJobPostV1.sol\";\n\ncontract NoiaBaseContractFactoryV1 {\n    NoiaMarketplace marketplace;\n    function setMarketplace(NoiaMarketplace marketplace_) public {\n        marketplace = marketplace_;\n    }\n    event NoiaContractV1Created(address contractInstance);\n}\n\ncontract NoiaBusinessContractFactoryV1 is NoiaBaseContractFactoryV1 {\n    function create(bytes32 infoType, bytes infoData) public {\n        NoiaBusinessV1 business = new NoiaBusinessV1(this, marketplace, infoType, infoData);\n        business.changeOwner(msg.sender);\n        marketplace.businessRegistry().addEntry(business);\n        emit NoiaContractV1Created(address(business));\n    }\n}\n\ncontract NoiaNodeContractFactoryV1 is NoiaBaseContractFactoryV1 {\n    function create(bytes32 infoType, bytes infoData) public {\n        NoiaNodeV1 node = new NoiaNodeV1(this, marketplace, infoType, infoData);\n        node.changeOwner(msg.sender);\n        marketplace.nodeRegistry().addEntry(node);\n        emit NoiaContractV1Created(address(node));\n    }\n}\n\ncontract NoiaCertificateContractFactoryV1 is NoiaBaseContractFactoryV1 {\n    function create(bytes32 certificateName, NoiaBusinessV1 issuer, NoiaNodeV1 recipient) public {\n        require(marketplace.businessRegistry().hasEntry(issuer), \"Marketplace does not have provided issuer in business registry\");\n        require(marketplace.nodeRegistry().hasEntry(recipient), \"Marketplace does not have provided recipient in node's registry\");\n        NoiaCertificateV1 cert = new NoiaCertificateV1(this, marketplace, certificateName, issuer, recipient);\n        cert.changeOwner(msg.sender);\n        marketplace.certificatesRegistry().addEntry(cert);\n        emit NoiaContractV1Created(address(cert));\n    }\n}\n\ncontract NoiaJobPostContractFactoryV1 is NoiaBaseContractFactoryV1 {\n    function create(NoiaBusinessV1 employer, bytes32 infoType, bytes infoData) public {\n        require(marketplace.businessRegistry().hasEntry(employer), \"Marketplace does not have employer in business registry\");\n        NoiaJobPostV1 jobPost = new NoiaJobPostV1(this, marketplace, employer, infoType, infoData);\n        jobPost.changeOwner(msg.sender);\n        marketplace.jobPostRegistry().addEntry(jobPost);\n        emit NoiaContractV1Created(address(jobPost));\n    }\n}\n\ncontract NoiaContractFactoriesV1 {\n    constructor(\n        NoiaMarketplace marketplace,\n        NoiaBusinessContractFactoryV1 business_,\n        NoiaNodeContractFactoryV1 node_,\n        NoiaCertificateContractFactoryV1 certificate_,\n        NoiaJobPostContractFactoryV1 jobPost_) public {\n        business = business_;\n        node = node_;\n        certificate = certificate_;\n        jobPost = jobPost_;\n        business.setMarketplace(marketplace);\n        node.setMarketplace(marketplace);\n        certificate.setMarketplace(marketplace);\n        jobPost.setMarketplace(marketplace);\n    }\n\n    NoiaBusinessContractFactoryV1 public business;\n    NoiaNodeContractFactoryV1 public node;\n    NoiaCertificateContractFactoryV1 public certificate;\n    NoiaJobPostContractFactoryV1 public jobPost;\n}\n",
  "sourcePath": "/srv/work/projects/noia-network/noia-governance/contracts/noia/v1/NoiaContractFactoriesV1.sol",
  "compiler": {
    "name": "solc",
    "version": "0.4.24+commit.e67f0147.Emscripten.clang"
  },
  "schemaVersion": "2.0.0",
  "updatedAt": "2018-09-17T14:58:43.077Z"
}