{
  "contractName": "NoiaBaseContractV1",
  "abi": [
    {
      "constant": true,
      "inputs": [],
      "name": "version",
      "outputs": [
        {
          "name": "",
          "type": "uint16"
        }
      ],
      "payable": false,
      "stateMutability": "view",
      "type": "function"
    },
    {
      "constant": true,
      "inputs": [],
      "name": "owner",
      "outputs": [
        {
          "name": "",
          "type": "address"
        }
      ],
      "payable": false,
      "stateMutability": "view",
      "type": "function"
    },
    {
      "constant": false,
      "inputs": [
        {
          "name": "_newOwner",
          "type": "address"
        }
      ],
      "name": "changeOwner",
      "outputs": [],
      "payable": false,
      "stateMutability": "nonpayable",
      "type": "function"
    },
    {
      "constant": true,
      "inputs": [],
      "name": "marketplace",
      "outputs": [
        {
          "name": "",
          "type": "address"
        }
      ],
      "payable": false,
      "stateMutability": "view",
      "type": "function"
    },
    {
      "constant": true,
      "inputs": [],
      "name": "factory",
      "outputs": [
        {
          "name": "",
          "type": "address"
        }
      ],
      "payable": false,
      "stateMutability": "view",
      "type": "function"
    },
    {
      "inputs": [
        {
          "name": "factory",
          "type": "address"
        },
        {
          "name": "marketplace",
          "type": "address"
        }
      ],
      "payable": false,
      "stateMutability": "nonpayable",
      "type": "constructor"
    }
  ],
  "bytecode": "0x608060405234801561001057600080fd5b506040516040806102a283398101604052805160209091015160008054600160a060020a0319163390811790915582908290600190600160a060020a0384161461005957600080fd5b6002805460018054600160a060020a03968716600160a060020a0319918216179091559390941661ffff909216740100000000000000000000000000000000000000000260a060020a61ffff0219909416939093179190911617905550506101dc806100c66000396000f30060806040526004361061006c5763ffffffff7c010000000000000000000000000000000000000000000000000000000060003504166354fd4d5081146100715780638da5cb5b1461009d578063a6f9dae1146100ce578063abc8c7af146100f1578063c45a015514610106575b600080fd5b34801561007d57600080fd5b5061008661011b565b6040805161ffff9092168252519081900360200190f35b3480156100a957600080fd5b506100b261013d565b60408051600160a060020a039092168252519081900360200190f35b3480156100da57600080fd5b506100ef600160a060020a036004351661014c565b005b3480156100fd57600080fd5b506100b2610192565b34801561011257600080fd5b506100b26101a1565b60025474010000000000000000000000000000000000000000900461ffff1681565b600054600160a060020a031681565b600054600160a060020a0316331461016357600080fd5b6000805473ffffffffffffffffffffffffffffffffffffffff1916600160a060020a0392909216919091179055565b600254600160a060020a031681565b600154600160a060020a0316815600a165627a7a7230582056eaa62255da9015e274d79a396aedd58bca4ebcc2ec342ae17d3dda61664cd50029",
  "source": "pragma solidity ^0.4.11;\n\nimport '../gov/NoiaBaseContract.sol';\n\n/**\n * Base contract for Noia Contracts\n */\ncontract NoiaBaseContractV1 is NoiaBaseContract {\n    uint16 private constant CURRENT_VERSION = 1;\n\n    constructor(address factory, NoiaMarketplace marketplace)\n        NoiaBaseContract(factory, marketplace, CURRENT_VERSION) public {\n    }\n}\n",
  "sourcePath": "/srv/work/projects/noia-network/noia-governance/contracts/noia/v1/NoiaBaseContractV1.sol",
  "compiler": {
    "name": "solc",
    "version": "0.4.24+commit.e67f0147.Emscripten.clang"
  },
  "schemaVersion": "2.0.0",
  "updatedAt": "2018-08-28T09:15:40.553Z"
}