{
  "contractName": "NoiaWorkOrderV1",
  "abi": [
    {
      "constant": true,
      "inputs": [],
      "name": "totalVested",
      "outputs": [
        {
          "name": "",
          "type": "uint256"
        }
      ],
      "payable": false,
      "stateMutability": "view",
      "type": "function"
    },
    {
      "constant": true,
      "inputs": [],
      "name": "worker",
      "outputs": [
        {
          "name": "",
          "type": "address"
        }
      ],
      "payable": false,
      "stateMutability": "view",
      "type": "function"
    },
    {
      "constant": true,
      "inputs": [],
      "name": "jobPost",
      "outputs": [
        {
          "name": "",
          "type": "address"
        }
      ],
      "payable": false,
      "stateMutability": "view",
      "type": "function"
    },
    {
      "constant": true,
      "inputs": [],
      "name": "employer",
      "outputs": [
        {
          "name": "",
          "type": "address"
        }
      ],
      "payable": false,
      "stateMutability": "view",
      "type": "function"
    },
    {
      "constant": true,
      "inputs": [],
      "name": "acceptedByWorker",
      "outputs": [
        {
          "name": "",
          "type": "bool"
        }
      ],
      "payable": false,
      "stateMutability": "view",
      "type": "function"
    },
    {
      "constant": true,
      "inputs": [],
      "name": "acceptedByEmployer",
      "outputs": [
        {
          "name": "",
          "type": "bool"
        }
      ],
      "payable": false,
      "stateMutability": "view",
      "type": "function"
    },
    {
      "inputs": [
        {
          "name": "_jobPost",
          "type": "address"
        },
        {
          "name": "_initiator",
          "type": "uint8"
        },
        {
          "name": "_worker",
          "type": "address"
        }
      ],
      "payable": false,
      "stateMutability": "nonpayable",
      "type": "constructor"
    },
    {
      "anonymous": false,
      "inputs": [
        {
          "indexed": false,
          "name": "employer",
          "type": "address"
        },
        {
          "indexed": false,
          "name": "worker",
          "type": "address"
        }
      ],
      "name": "Accepted",
      "type": "event"
    },
    {
      "anonymous": false,
      "inputs": [
        {
          "indexed": false,
          "name": "to",
          "type": "address"
        },
        {
          "indexed": false,
          "name": "amount",
          "type": "uint256"
        }
      ],
      "name": "Released",
      "type": "event"
    },
    {
      "constant": false,
      "inputs": [],
      "name": "accept",
      "outputs": [],
      "payable": false,
      "stateMutability": "nonpayable",
      "type": "function"
    },
    {
      "constant": false,
      "inputs": [
        {
          "name": "_nonce",
          "type": "uint256"
        },
        {
          "name": "_sig",
          "type": "bytes"
        }
      ],
      "name": "delegatedAccept",
      "outputs": [],
      "payable": false,
      "stateMutability": "nonpayable",
      "type": "function"
    },
    {
      "constant": true,
      "inputs": [],
      "name": "isAccepted",
      "outputs": [
        {
          "name": "",
          "type": "bool"
        }
      ],
      "payable": false,
      "stateMutability": "view",
      "type": "function"
    },
    {
      "constant": true,
      "inputs": [],
      "name": "totalFunds",
      "outputs": [
        {
          "name": "",
          "type": "uint256"
        }
      ],
      "payable": false,
      "stateMutability": "view",
      "type": "function"
    },
    {
      "constant": false,
      "inputs": [
        {
          "name": "_amount",
          "type": "uint256"
        },
        {
          "name": "_lockUntil",
          "type": "uint256"
        }
      ],
      "name": "timelock",
      "outputs": [],
      "payable": false,
      "stateMutability": "nonpayable",
      "type": "function"
    },
    {
      "constant": true,
      "inputs": [],
      "name": "getTimelocks",
      "outputs": [
        {
          "name": "",
          "type": "uint256[]"
        },
        {
          "name": "",
          "type": "uint256[]"
        }
      ],
      "payable": false,
      "stateMutability": "view",
      "type": "function"
    },
    {
      "constant": false,
      "inputs": [
        {
          "name": "beneficiary",
          "type": "address"
        },
        {
          "name": "_nonce",
          "type": "uint256"
        },
        {
          "name": "_sig",
          "type": "bytes"
        }
      ],
      "name": "delegatedRelease",
      "outputs": [],
      "payable": false,
      "stateMutability": "nonpayable",
      "type": "function"
    },
    {
      "constant": false,
      "inputs": [
        {
          "name": "",
          "type": "address"
        },
        {
          "name": "",
          "type": "uint256"
        },
        {
          "name": "",
          "type": "bytes"
        }
      ],
      "name": "tokenFallback",
      "outputs": [],
      "payable": false,
      "stateMutability": "nonpayable",
      "type": "function"
    }
  ],
  "bytecode": "0x60806040526007805461ffff191690553480156200001c57600080fd5b506040516060806200153283398101604090815281516020830151919092015133600160a060020a038416146200005257600080fd5b600160a060020a03811615156200006857600080fd5b82600160a060020a031663abc8c7af6040518163ffffffff167c0100000000000000000000000000000000000000000000000000000000028152600401602060405180830381600087803b158015620000c057600080fd5b505af1158015620000d5573d6000803e3d6000fd5b505050506040513d6020811015620000ec57600080fd5b5051604080517f55a373d60000000000000000000000000000000000000000000000000000000081529051600160a060020a03909216916355a373d6916004808201926020929091908290030181600087803b1580156200014c57600080fd5b505af115801562000161573d6000803e3d6000fd5b505050506040513d60208110156200017857600080fd5b505160018054600160a060020a031916600160a060020a0390921691909117815560008054849260a060020a60ff02199091169074010000000000000000000000000000000000000000908490811115620001cf57fe5b021790555082600160a060020a031663ae200e796040518163ffffffff167c0100000000000000000000000000000000000000000000000000000000028152600401602060405180830381600087803b1580156200022c57600080fd5b505af115801562000241573d6000803e3d6000fd5b505050506040513d60208110156200025857600080fd5b505160028054600160a060020a0319908116600160a060020a03938416179091556003805482169383169390931790925560008054909216931692909217825550611288908190620002aa90396000f3006080604052600436106100b65763ffffffff60e060020a600035041663199cbc5481146100bb5780632852b71c146100e25780634d547ada146100f95780635051a5ec1461012a57806390380dcf1461015357806394566d2514610201578063968ed60014610216578063a9ae25121461022b578063ae200e7914610289578063ba3e095c1461029e578063bd980f4b146102b9578063c0ee0b8a146102ce578063c56a1a2b14610337578063d9e840161461034c575b600080fd5b3480156100c757600080fd5b506100d06103b5565b60408051918252519081900360200190f35b3480156100ee57600080fd5b506100f76103bb565b005b34801561010557600080fd5b5061010e6103c6565b60408051600160a060020a039092168252519081900360200190f35b34801561013657600080fd5b5061013f6103d5565b604080519115158252519081900360200190f35b34801561015f57600080fd5b506101686103f6565b604051808060200180602001838103835285818151815260200191508051906020019060200280838360005b838110156101ac578181015183820152602001610194565b50505050905001838103825284818151815260200191508051906020019060200280838360005b838110156101eb5781810151838201526020016101d3565b5050505090500194505050505060405180910390f35b34801561020d57600080fd5b5061010e6104da565b34801561022257600080fd5b506100d06104e9565b34801561023757600080fd5b5060408051602060046024803582810135601f81018590048502860185019096528585526100f795833595369560449491939091019190819084018382808284375094975061057f9650505050505050565b34801561029557600080fd5b5061010e61081e565b3480156102aa57600080fd5b506100f760043560243561082d565b3480156102c557600080fd5b5061013f610a0b565b3480156102da57600080fd5b50604080516020600460443581810135601f81018490048402850184019095528484526100f7948235600160a060020a0316946024803595369594606494920191908190840183828082843750949750610a199650505050505050565b34801561034357600080fd5b5061013f610a35565b34801561035857600080fd5b50604080516020600460443581810135601f81018490048402850184019095528484526100f7948235600160a060020a0316946024803595369594606494920191908190840183828082843750949750610a3e9650505050505050565b60065481565b6103c433610e57565b565b600354600160a060020a031681565b600754600090610100900460ff1680156103f1575060075460ff165b905090565b60608060608060008060058054905060405190808252806020026020018201604052801561042e578160200160208202803883390190505b50600554604080518281526020808402820101909152919550801561045d578160200160208202803883390190505b509250600091505b6005548210156104cf57600580548390811061047d57fe5b90600052602060002090600202019050806001015484838151811015156104a057fe5b60209081029091010152805483518490849081106104ba57fe5b60209081029091010152600190910190610465565b509194909350915050565b600054600160a060020a031681565b600154604080517f70a082310000000000000000000000000000000000000000000000000000000081523060048201529051600092600160a060020a0316916370a0823191602480830192602092919082900301818787803b15801561054e57600080fd5b505af1158015610562573d6000803e3d6000fd5b505050506040513d602081101561057857600080fd5b5051905090565b606060006004836040518082805190602001908083835b602083106105b55780518252601f199092019160209182019101610596565b51815160209384036101000a600019018019909216911617905292019485525060405193849003019092205460ff16159150610654905057604080517f08c379a000000000000000000000000000000000000000000000000000000000815260206004820152601960248201527f5369676e617475726520616c7265616479206578697374732100000000000000604482015290519081900360640190fd5b60016004846040518082805190602001908083835b602083106106885780518252601f199092019160209182019101610669565b51815160209384036101000a6000190180199092169116179052920194855250604080519485900382018520805460ff191696151596909617909555306c0100000000000000000000000002848201527f61636365707400000000000000000000000000000000000000000000000000006034850152603a8085018a905285518086039091018152605a90940194859052835193965061079694889461078a945088935090918291908401908083835b602083106107575780518252601f199092019160209182019101610738565b5181516020939093036101000a6000190180199091169216919091179052604051920182900390912092506110b8915050565b9063ffffffff61116216565b9050600160a060020a038116151561080f57604080517f08c379a000000000000000000000000000000000000000000000000000000000815260206004820152601660248201527f5369676e6572206e6f74207265636f676e697a65642100000000000000000000604482015290519081900360640190fd5b61081881610e57565b50505050565b600254600160a060020a031681565b600260009054906101000a9004600160a060020a0316600160a060020a0316638da5cb5b6040518163ffffffff1660e060020a028152600401602060405180830381600087803b15801561088057600080fd5b505af1158015610894573d6000803e3d6000fd5b505050506040513d60208110156108aa57600080fd5b5051600160a060020a031633146108c057600080fd5b4281116108cc57600080fd5b6006546108df908363ffffffff61123716565b600154604080517f70a082310000000000000000000000000000000000000000000000000000000081523060048201529051600160a060020a03909216916370a08231916024808201926020929091908290030181600087803b15801561094557600080fd5b505af1158015610959573d6000803e3d6000fd5b505050506040513d602081101561096f57600080fd5b5051101561097c57600080fd5b60065461098f908363ffffffff61123716565b60065560408051808201909152908152602081019182526005805460018101825560009190915290517f036b6384b5eca791c62761152d0c79bb0604c104a5fb6f4eb0703f3154bb3db060029092029182015590517f036b6384b5eca791c62761152d0c79bb0604c104a5fb6f4eb0703f3154bb3db190910155565b600754610100900460ff1681565b600154600160a060020a03163314610a3057600080fd5b505050565b60075460ff1681565b6060600080600080600080600080610a546103d5565b1515610a5f57600080fd5b600160a060020a038c161515610a7457600080fd5b60048a6040518082805190602001908083835b60208310610aa65780518252601f199092019160209182019101610a87565b51815160209384036101000a600019018019909216911617905292019485525060405193849003019092205460ff16159150610ae3905057600080fd5b600160048b6040518082805190602001908083835b60208310610b175780518252601f199092019160209182019101610af8565b6001836020036101000a038019825116818451168082178552505050505050905001915050908152602001604051809103902060006101000a81548160ff021916908315150217905550308c8c6040516020018084600160a060020a0316600160a060020a03166c01000000000000000000000000028152601401807f72656c656173650000000000000000000000000000000000000000000000000081525060070183600160a060020a0316600160a060020a03166c0100000000000000000000000002815260140182815260200193505050506040516020818303038152906040529850610c338a61078a8b604051808280519060200190808383602083106107575780518252601f199092019160209182019101610738565b9750600160a060020a0388161515610c4a57600080fd5b600360009054906101000a9004600160a060020a0316600160a060020a0316638da5cb5b6040518163ffffffff1660e060020a028152600401602060405180830381600087803b158015610c9d57600080fd5b505af1158015610cb1573d6000803e3d6000fd5b505050506040513d6020811015610cc757600080fd5b5051600160a060020a03898116911614610ce057600080fd5b6005548c97506000965093504292508591505b83821015610d5f576005805483908110610d0957fe5b60009182526020822060029091020180549650915085118015610d2b57508285105b15610d54576001810154610d4690879063ffffffff61123716565b600060018301819055825595505b600190910190610cf3565b6000861115610e4957600654610d7b908763ffffffff61124a16565b600655600154604080517fa9059cbb000000000000000000000000000000000000000000000000000000008152600160a060020a038a81166004830152602482018a90529151919092169163a9059cbb91604480830192600092919082900301818387803b158015610dec57600080fd5b505af1158015610e00573d6000803e3d6000fd5b505060408051600160a060020a038b168152602081018a905281517fb21fb52d5749b80f3182f8c6992236b5e5576681880914484d7f4c9b062e619e9450908190039091019150a15b505050505050505050505050565b6000806000600360009054906101000a9004600160a060020a0316600160a060020a0316638da5cb5b6040518163ffffffff1660e060020a028152600401602060405180830381600087803b158015610eaf57600080fd5b505af1158015610ec3573d6000803e3d6000fd5b505050506040513d6020811015610ed957600080fd5b5051600254604080517f8da5cb5b0000000000000000000000000000000000000000000000000000000081529051600160a060020a039384168885161496509290911691638da5cb5b916004808201926020929091908290030181600087803b158015610f4557600080fd5b505af1158015610f59573d6000803e3d6000fd5b505050506040513d6020811015610f6f57600080fd5b5051600160a060020a0385811691161491508280610f8a5750815b151561101c57604080517f08c379a0000000000000000000000000000000000000000000000000000000008152602060048201526024808201527f5369676e6572206d757374206265206120776f726b6572206f7220656d706c6f60448201527f7965652100000000000000000000000000000000000000000000000000000000606482015290519081900360840190fd5b6110246103d5565b9050821561103c576007805461ff0019166101001790555b8115611050576007805460ff191660011790555b8015801561106157506110616103d5565b156108185760025460035460408051600160a060020a03938416815292909116602083015280517f4cd361b37129a4a13dff2704ff3bc0261c22f688c60784c2849582de8b77f1f59281900390910190a150505050565b604080517f19457468657265756d205369676e6564204d6573736167653a0a333200000000602080830191909152603c80830185905283518084039091018152605c909201928390528151600093918291908401908083835b602083106111305780518252601f199092019160209182019101611111565b5181516020939093036101000a6000190180199091169216919091179052604051920182900390912095945050505050565b6000806000808451604114151561117c576000935061122e565b50505060208201516040830151606084015160001a601b60ff821610156111a157601b015b8060ff16601b141580156111b957508060ff16601c14155b156111c7576000935061122e565b60408051600080825260208083018085528a905260ff8516838501526060830187905260808301869052925160019360a0808501949193601f19840193928390039091019190865af1158015611221573d6000803e3d6000fd5b5050506020604051035193505b50505092915050565b8181018281101561124457fe5b92915050565b60008282111561125657fe5b509003905600a165627a7a7230582060f137710f0d985889d6af5b6976af79b19ed62eca4665a44ab892bed1e6d2f60029",
  "source": "pragma solidity ^0.4.24;\n\nimport { NoiaJobPostV1} from \"./NoiaJobPostV1.sol\";\nimport { ERC223ReceivingContract } from \"../../abstracts/ERC223ReceivingContract.sol\";\nimport { ERC223Interface } from \"../../abstracts/ERC223Interface.sol\";\nimport { ECRecovery } from \"../../lib/ECRecovery.sol\";\nimport { SafeMath } from \"openzeppelin-solidity/contracts/math/SafeMath.sol\";\nimport { Owned } from \"../../abstracts/Owned.sol\";\n\ncontract NoiaWorkOrderV1 is ERC223ReceivingContract {\n    using SafeMath for uint256;\n    using ECRecovery for bytes32;\n\n    enum Initiator { Employer, Worker  }\n\n    address public jobPost;\n    Initiator initiator;\n    ERC223Interface token;\n    Owned public employer;\n    Owned public worker;\n    mapping(bytes => bool) private signatures;\n\n    struct Timelock {\n        uint256 until;\n        uint256 amount;\n    }\n    Timelock[] timelocks;\n    uint256 public totalVested;\n\n    // contract status\n    bool public acceptedByEmployer = false;\n    bool public acceptedByWorker = false;\n\n    constructor(NoiaJobPostV1 _jobPost, Initiator _initiator, address _worker) public {\n        require(msg.sender == address(_jobPost)); // can be created by a job post only\n        require(_worker != address(0));\n        token = ERC223Interface(address(_jobPost.marketplace().tokenContract()));\n        initiator = _initiator;\n        employer = _jobPost.employer();\n        worker = Owned(_worker);\n        jobPost = address(_jobPost);\n    }\n\n    function accept() public {\n        doAccept(msg.sender);\n    }\n\n    function delegatedAccept(uint256 _nonce, bytes _sig) public {\n        require(signatures[_sig] == false, \"Signature already exists!\");\n        signatures[_sig] = true;\n\n        bytes memory msgPacked = abi.encodePacked(address(this), \"accept\", _nonce);\n        address signer = keccak256(msgPacked).toEthSignedMessageHash().recover(_sig);\n        require(signer != address(0), \"Signer not recognized!\");\n\n        doAccept(signer);\n    }\n\n    function doAccept(address signer) private {\n        bool isWorker = signer == worker.owner();\n        bool isEmployer = signer == employer.owner();\n        require(isWorker || isEmployer, \"Signer must be a worker or employee!\");\n\n        // mark the status\n        bool oldStatus = isAccepted();\n        if (isWorker) {\n            acceptedByWorker = true;\n        }\n        if (isEmployer) {\n            acceptedByEmployer = true;\n        }\n        if (oldStatus == false && isAccepted()) {\n            emit Accepted(employer, worker);\n        }\n    }\n\n    function isAccepted() public view returns (bool) {\n        return acceptedByWorker && acceptedByEmployer;\n    }\n\n    function totalFunds() public view returns (uint256) {\n        return token.balanceOf(address(this));\n    }\n\n    function timelock(uint256 _amount, uint256 _lockUntil) public {\n        require(msg.sender == employer.owner()); // allow only employer to timelock the funds\n        require(_lockUntil > now);\n        require(token.balanceOf(address(this)) >= totalVested.add(_amount));\n        totalVested = totalVested.add(_amount);\n\n        timelocks.push(Timelock({until: _lockUntil, amount: _amount}));\n    }\n\n    function getTimelocks() public view returns(uint256[], uint256[]) {\n        uint256[] memory amounts = new uint256[](timelocks.length);\n        uint256[] memory untils = new uint256[](timelocks.length);\n\n        for (uint256 i = 0; i < timelocks.length; i++) {\n            Timelock storage tl = timelocks[i];\n            amounts[i] = tl.amount;\n            untils[i] = tl.until;\n        }\n\n        return (amounts, untils);\n    }\n\n    // have a signature (from a worker wallet) and saying there to release funds to this beneficiary address\n    function delegatedRelease(address beneficiary, uint256 _nonce, bytes _sig) public {\n        require(isAccepted());\n        require(beneficiary != address(0));\n\n        require(signatures[_sig] == false);\n        signatures[_sig] = true;\n\n        bytes memory msgPacked = abi.encodePacked(address(this), \"release\", beneficiary, _nonce);\n        address signer = keccak256(msgPacked).toEthSignedMessageHash().recover(_sig);\n        require(signer != address(0));\n        require(signer == worker.owner()); // we only allow the signer to be a worker owner\n\n        // release the ones that can be released\n        address to = beneficiary;\n        uint256 tokens = 0;\n        uint256 until;\n        uint256 n = timelocks.length;\n        uint256 timestamp = now;\n        for (uint256 i = 0; i < n; i++) {\n            Timelock storage tl = timelocks[i];\n            until = tl.until;\n            if (until > 0 && until < timestamp) {\n                tokens = tokens.add(tl.amount);\n                tl.amount = 0;\n                tl.until = 0;\n            }\n        }\n        if (tokens > 0) {\n            totalVested = totalVested.sub(tokens);\n            token.transfer(to, tokens);\n            emit Released(to, tokens);\n        }\n    }\n\n    function tokenFallback(address /*_from*/, uint /*_value*/, bytes /*_data*/) public {\n        require(msg.sender == address(token));\n    }\n\n    event Accepted(address employer, address worker);\n    event Released(address to, uint256 amount);\n}\n",
  "sourcePath": "/srv/work/projects/noia-network/noia-governance/contracts/noia/v1/NoiaWorkOrderV1.sol",
  "compiler": {
    "name": "solc",
    "version": "0.4.24+commit.e67f0147.Emscripten.clang"
  },
  "schemaVersion": "2.0.0",
  "updatedAt": "2018-08-28T09:15:40.640Z"
}