{
  "contractName": "NoiaWorkOrderV1",
  "abi": [
    {
      "constant": true,
      "inputs": [],
      "name": "totalVested",
      "outputs": [
        {
          "name": "",
          "type": "uint256"
        }
      ],
      "payable": false,
      "stateMutability": "view",
      "type": "function"
    },
    {
      "constant": true,
      "inputs": [],
      "name": "workerOwner",
      "outputs": [
        {
          "name": "",
          "type": "address"
        }
      ],
      "payable": false,
      "stateMutability": "view",
      "type": "function"
    },
    {
      "constant": true,
      "inputs": [],
      "name": "jobPost",
      "outputs": [
        {
          "name": "",
          "type": "address"
        }
      ],
      "payable": false,
      "stateMutability": "view",
      "type": "function"
    },
    {
      "constant": true,
      "inputs": [],
      "name": "employer",
      "outputs": [
        {
          "name": "",
          "type": "address"
        }
      ],
      "payable": false,
      "stateMutability": "view",
      "type": "function"
    },
    {
      "constant": true,
      "inputs": [],
      "name": "acceptedByWorker",
      "outputs": [
        {
          "name": "",
          "type": "bool"
        }
      ],
      "payable": false,
      "stateMutability": "view",
      "type": "function"
    },
    {
      "constant": true,
      "inputs": [],
      "name": "acceptedByEmployer",
      "outputs": [
        {
          "name": "",
          "type": "bool"
        }
      ],
      "payable": false,
      "stateMutability": "view",
      "type": "function"
    },
    {
      "inputs": [
        {
          "name": "_jobPost",
          "type": "address"
        },
        {
          "name": "_initiator",
          "type": "uint8"
        },
        {
          "name": "_workerOwner",
          "type": "address"
        }
      ],
      "payable": false,
      "stateMutability": "nonpayable",
      "type": "constructor"
    },
    {
      "anonymous": false,
      "inputs": [
        {
          "indexed": false,
          "name": "employer",
          "type": "address"
        },
        {
          "indexed": false,
          "name": "worker",
          "type": "address"
        }
      ],
      "name": "Accepted",
      "type": "event"
    },
    {
      "anonymous": false,
      "inputs": [
        {
          "indexed": false,
          "name": "to",
          "type": "address"
        },
        {
          "indexed": false,
          "name": "amount",
          "type": "uint256"
        }
      ],
      "name": "Released",
      "type": "event"
    },
    {
      "constant": false,
      "inputs": [],
      "name": "accept",
      "outputs": [],
      "payable": false,
      "stateMutability": "nonpayable",
      "type": "function"
    },
    {
      "constant": false,
      "inputs": [
        {
          "name": "_nonce",
          "type": "uint256"
        },
        {
          "name": "_sig",
          "type": "bytes"
        }
      ],
      "name": "delegatedAccept",
      "outputs": [],
      "payable": false,
      "stateMutability": "nonpayable",
      "type": "function"
    },
    {
      "constant": true,
      "inputs": [],
      "name": "isAccepted",
      "outputs": [
        {
          "name": "",
          "type": "bool"
        }
      ],
      "payable": false,
      "stateMutability": "view",
      "type": "function"
    },
    {
      "constant": true,
      "inputs": [],
      "name": "totalFunds",
      "outputs": [
        {
          "name": "",
          "type": "uint256"
        }
      ],
      "payable": false,
      "stateMutability": "view",
      "type": "function"
    },
    {
      "constant": false,
      "inputs": [
        {
          "name": "_amount",
          "type": "uint256"
        },
        {
          "name": "_lockUntil",
          "type": "uint256"
        }
      ],
      "name": "timelock",
      "outputs": [],
      "payable": false,
      "stateMutability": "nonpayable",
      "type": "function"
    },
    {
      "constant": true,
      "inputs": [],
      "name": "getTimelocks",
      "outputs": [
        {
          "name": "",
          "type": "uint256[]"
        },
        {
          "name": "",
          "type": "uint256[]"
        }
      ],
      "payable": false,
      "stateMutability": "view",
      "type": "function"
    },
    {
      "constant": false,
      "inputs": [
        {
          "name": "beneficiary",
          "type": "address"
        },
        {
          "name": "_nonce",
          "type": "uint256"
        },
        {
          "name": "_sig",
          "type": "bytes"
        }
      ],
      "name": "delegatedRelease",
      "outputs": [],
      "payable": false,
      "stateMutability": "nonpayable",
      "type": "function"
    },
    {
      "constant": false,
      "inputs": [
        {
          "name": "",
          "type": "address"
        },
        {
          "name": "",
          "type": "address"
        },
        {
          "name": "",
          "type": "address"
        },
        {
          "name": "",
          "type": "uint256"
        },
        {
          "name": "",
          "type": "bytes"
        },
        {
          "name": "",
          "type": "bytes"
        }
      ],
      "name": "tokensReceived",
      "outputs": [],
      "payable": false,
      "stateMutability": "nonpayable",
      "type": "function"
    }
  ],
  "bytecode": "0x608060405260008054600160a060020a03191673991a1bcb077599290d7305493c9a630c20f8b7981790556008805461ffff191690553480156200004257600080fd5b5060405160608062001d01833981016040908152815160208301519190920151600033600160a060020a038516146200010257604080517f08c379a000000000000000000000000000000000000000000000000000000000815260206004820152602760248201527f4f6e6c792061206a6f6220706f73742063616e20637265617465206120776f7260448201527f6b206f7264657200000000000000000000000000000000000000000000000000606482015290519081900360840190fd5b600160a060020a03821615156200017a57604080517f08c379a000000000000000000000000000000000000000000000000000000000815260206004820152601360248201527f576f726b65722061646472657373206973203000000000000000000000000000604482015290519081900360640190fd5b60408051808201909152601581527f455243373737546f6b656e73526563697069656e7400000000000000000000006020820152620001c39030640100000000620004dc810204565b6200031c84600160a060020a031663abc8c7af6040518163ffffffff167c0100000000000000000000000000000000000000000000000000000000028152600401602060405180830381600087803b1580156200021f57600080fd5b505af115801562000234573d6000803e3d6000fd5b505050506040513d60208110156200024b57600080fd5b5051604080517f55a373d60000000000000000000000000000000000000000000000000000000081529051600160a060020a03909216916355a373d6916004808201926020929091908290030181600087803b158015620002ab57600080fd5b505af1158015620002c0573d6000803e3d6000fd5b505050506040513d6020811015620002d757600080fd5b505160408051808201909152600b81527f455243373737546f6b656e000000000000000000000000000000000000000000602082015264010000000062000637810204565b9050600160a060020a0381161515620003bc57604080517f08c379a000000000000000000000000000000000000000000000000000000000815260206004820152602760248201527f4d61726b6574706c61636520546f6b656e206973206e6f7420616e204552433760448201527f3737546f6b656e00000000000000000000000000000000000000000000000000606482015290519081900360840190fd5b60028054600160a060020a031916600160a060020a0383161790556001805484919060a060020a60ff0219167401000000000000000000000000000000000000000083838111156200040a57fe5b021790555083600160a060020a031663ae200e796040518163ffffffff167c0100000000000000000000000000000000000000000000000000000000028152600401602060405180830381600087803b1580156200046757600080fd5b505af11580156200047c573d6000803e3d6000fd5b505050506040513d60208110156200049357600080fd5b505160038054600160a060020a0319908116600160a060020a03938416179091556004805482169483169490941790935560018054909316941693909317905550620007a39050565b6000826040516020018082805190602001908083835b60208310620005135780518252601f199092019160209182019101620004f2565b6001836020036101000a0380198251168184511680821785525050505050509050019150506040516020818303038152906040526040518082805190602001908083835b60208310620005785780518252601f19909201916020918201910162000557565b5181516020939093036101000a600019018019909116921691909117905260408051919093018190038120600080547f29965a1d00000000000000000000000000000000000000000000000000000000845230600485015260248401839052600160a060020a038a8116604486015295519298509490941695506329965a1d94506064808301949350909182900301818387803b1580156200061957600080fd5b505af11580156200062e573d6000803e3d6000fd5b50505050505050565b600080826040516020018082805190602001908083835b602083106200066f5780518252601f1990920191602091820191016200064e565b6001836020036101000a0380198251168184511680821785525050505050509050019150506040516020818303038152906040526040518082805190602001908083835b60208310620006d45780518252601f199092019160209182019101620006b3565b51815160209384036101000a600019018019909216911617905260408051929094018290038220600080547faabbb8ca000000000000000000000000000000000000000000000000000000008552600160a060020a038d8116600487015260248601849052965192995095909516965063aabbb8ca955060448084019592945090928390030190829087803b1580156200076d57600080fd5b505af115801562000782573d6000803e3d6000fd5b505050506040513d60208110156200079957600080fd5b5051949350505050565b61154e80620007b36000396000f3006080604052600436106100ce5763ffffffff7c010000000000000000000000000000000000000000000000000000000060003504166223de2981146100d3578063199cbc541461018e5780632852b71c146101b55780635051a5ec146101ca578063595b1872146101f357806390380dcf1461022457806394566d25146102d2578063968ed600146102e7578063a9ae2512146102fc578063ae200e791461035a578063ba3e095c1461036f578063bd980f4b1461038a578063c56a1a2b1461039f578063d9e84016146103b4575b600080fd5b3480156100df57600080fd5b50604080516020601f60843560048181013592830184900484028501840190955281845261018c94600160a060020a03813581169560248035831696604435909316956064359536959460a49493919091019190819084018382808284375050604080516020601f89358b018035918201839004830284018301909452808352979a99988101979196509182019450925082915084018382808284375094975061041d9650505050505050565b005b34801561019a57600080fd5b506101a36104ad565b60408051918252519081900360200190f35b3480156101c157600080fd5b5061018c6104b3565b3480156101d657600080fd5b506101df6104be565b604080519115158252519081900360200190f35b3480156101ff57600080fd5b506102086104df565b60408051600160a060020a039092168252519081900360200190f35b34801561023057600080fd5b506102396104ee565b604051808060200180602001838103835285818151815260200191508051906020019060200280838360005b8381101561027d578181015183820152602001610265565b50505050905001838103825284818151815260200191508051906020019060200280838360005b838110156102bc5781810151838201526020016102a4565b5050505090500194505050505060405180910390f35b3480156102de57600080fd5b506102086105d2565b3480156102f357600080fd5b506101a36105e1565b34801561030857600080fd5b5060408051602060046024803582810135601f810185900485028601850190965285855261018c9583359536956044949193909101919081908401838280828437509497506106779650505050505050565b34801561036657600080fd5b506102086108e8565b34801561037b57600080fd5b5061018c6004356024356108f7565b34801561039657600080fd5b506101df610bc4565b3480156103ab57600080fd5b506101df610bd2565b3480156103c057600080fd5b50604080516020600460443581810135601f810184900484028501840190955284845261018c948235600160a060020a0316946024803595369594606494920191908190840183828082843750949750610bdb9650505050505050565b600254600160a060020a031633146104a5576040805160e560020a62461bcd02815260206004820152603660248201527f5765206f6e6c792061636365707420746f6b656e207472616e7366657273206660448201527f726f6d206f757220746f6b656e20636f6e747261637400000000000000000000606482015290519081900360840190fd5b505050505050565b60075481565b6104bc336111b9565b565b600854600090610100900460ff1680156104da575060085460ff165b905090565b600454600160a060020a031681565b606080606080600080600680549050604051908082528060200260200182016040528015610526578160200160208202803883390190505b506006546040805182815260208084028201019091529195508015610555578160200160208202803883390190505b509250600091505b6006548210156105c757600680548390811061057557fe5b906000526020600020906002020190508060010154848381518110151561059857fe5b60209081029091010152805483518490849081106105b257fe5b6020908102909101015260019091019061055d565b509194909350915050565b600154600160a060020a031681565b600254604080517f70a082310000000000000000000000000000000000000000000000000000000081523060048201529051600092600160a060020a0316916370a0823191602480830192602092919082900301818787803b15801561064657600080fd5b505af115801561065a573d6000803e3d6000fd5b505050506040513d602081101561067057600080fd5b5051905090565b606060006005836040518082805190602001908083835b602083106106ad5780518252601f19909201916020918201910161068e565b51815160209384036101000a600019018019909216911617905292019485525060405193849003019092205460ff161591506107359050576040805160e560020a62461bcd02815260206004820152601960248201527f5369676e617475726520616c7265616479206578697374732100000000000000604482015290519081900360640190fd5b60016005846040518082805190602001908083835b602083106107695780518252601f19909201916020918201910161074a565b51815160209384036101000a6000190180199092169116179052920194855250604080519485900382018520805460ff191696151596909617909555306c0100000000000000000000000002848201527f61636365707400000000000000000000000000000000000000000000000000006034850152603a8085018a905285518086039091018152605a90940194859052835193965061087794889461086b945088935090918291908401908083835b602083106108385780518252601f199092019160209182019101610819565b5181516020939093036101000a60001901801990911692169190911790526040519201829003909120925061137e915050565b9063ffffffff61142816565b9050600160a060020a03811615156108d9576040805160e560020a62461bcd02815260206004820152601660248201527f5369676e6572206e6f74207265636f676e697a65642100000000000000000000604482015290519081900360640190fd5b6108e2816111b9565b50505050565b600354600160a060020a031681565b600360009054906101000a9004600160a060020a0316600160a060020a0316638da5cb5b6040518163ffffffff167c0100000000000000000000000000000000000000000000000000000000028152600401602060405180830381600087803b15801561096357600080fd5b505af1158015610977573d6000803e3d6000fd5b505050506040513d602081101561098d57600080fd5b5051600160a060020a03163314610a14576040805160e560020a62461bcd02815260206004820152602760248201527f4f6e6c7920616e20656d706c6f7965722063616e2074696d656c6f636b20746860448201527f652066756e647300000000000000000000000000000000000000000000000000606482015290519081900360840190fd5b600754610a27908363ffffffff6114fd16565b600254604080517f70a082310000000000000000000000000000000000000000000000000000000081523060048201529051600160a060020a03909216916370a08231916024808201926020929091908290030181600087803b158015610a8d57600080fd5b505af1158015610aa1573d6000803e3d6000fd5b505050506040513d6020811015610ab757600080fd5b50511015610b35576040805160e560020a62461bcd02815260206004820152603b60248201527f546f74616c207665737465642063616e6e6f74206265206c6f7765722074686160448201527f6e20746f74616c2066756e647320696e20776f726b206f726465720000000000606482015290519081900360840190fd5b600754610b48908363ffffffff6114fd16565b60075560408051808201909152908152602081019182526006805460018101825560009190915290517ff652222313e28459528d920b65115c16c04f3efc82aaedc97be59f3f377c0d3f60029092029182015590517ff652222313e28459528d920b65115c16c04f3efc82aaedc97be59f3f377c0d4090910155565b600854610100900460ff1681565b60085460ff1681565b6060600080600080600080600080610bf16104be565b1515610c6d576040805160e560020a62461bcd02815260206004820152603260248201527f43616e6e6f742072656c656173652066756e6473206265666f726520776f726b60448201527f206f726465722069732061636365707465640000000000000000000000000000606482015290519081900360840190fd5b600160a060020a038c161515610ccd576040805160e560020a62461bcd02815260206004820152601860248201527f42656e6566696369617279206164647265737320697320300000000000000000604482015290519081900360640190fd5b60058a6040518082805190602001908083835b60208310610cff5780518252601f199092019160209182019101610ce0565b51815160209384036101000a600019018019909216911617905292019485525060405193849003019092205460ff16159150610dad9050576040805160e560020a62461bcd02815260206004820152603960248201527f4d756c7469706c6520757365206f66207468652073616d652064656c6567617460448201527f6564206d657373616765206973206e6f7420616c6c6f77656400000000000000606482015290519081900360840190fd5b600160058b6040518082805190602001908083835b60208310610de15780518252601f199092019160209182019101610dc2565b6001836020036101000a038019825116818451168082178552505050505050905001915050908152602001604051809103902060006101000a81548160ff021916908315150217905550308c8c6040516020018084600160a060020a0316600160a060020a03166c01000000000000000000000000028152601401807f72656c656173650000000000000000000000000000000000000000000000000081525060070183600160a060020a0316600160a060020a03166c0100000000000000000000000002815260140182815260200193505050506040516020818303038152906040529850610efd8a61086b8b604051808280519060200190808383602083106108385780518252601f199092019160209182019101610819565b9750600160a060020a0388161515610f85576040805160e560020a62461bcd02815260206004820152603260248201527f44656c6567617465642072656c65617365206d657373616765207369676e657260448201527f206973206e6f74207265636f676e697a65640000000000000000000000000000606482015290519081900360840190fd5b600454600160a060020a03898116911614611036576040805160e560020a62461bcd02815260206004820152604360248201527f44656c6567617465642072656c65617365206d657373616765207369676e657260448201527f206d757374206265206120776f726b6572206f662074686520776f726b206f7260648201527f6465720000000000000000000000000000000000000000000000000000000000608482015290519081900360a40190fd5b6006548c97506000965093504292508591505b838210156110b557600680548390811061105f57fe5b6000918252602082206002909102018054965091508511801561108157508285105b156110aa57600181015461109c90879063ffffffff6114fd16565b600060018301819055825595505b600190910190611049565b60008611156111ab576007546110d1908763ffffffff61151016565b600755600254604080517f9bd9bbc6000000000000000000000000000000000000000000000000000000008152600160a060020a038a81166004830152602482018a9052606060448301526000606483018190529251931692639bd9bbc69260a48084019391929182900301818387803b15801561114e57600080fd5b505af1158015611162573d6000803e3d6000fd5b505060408051600160a060020a038b168152602081018a905281517fb21fb52d5749b80f3182f8c6992236b5e5576681880914484d7f4c9b062e619e9450908190039091019150a15b505050505050505050505050565b60048054600354604080517f8da5cb5b0000000000000000000000000000000000000000000000000000000081529051600160a060020a03938416868516149460009485941692638da5cb5b928183019260209282900301818787803b15801561122257600080fd5b505af1158015611236573d6000803e3d6000fd5b505050506040513d602081101561124c57600080fd5b5051600160a060020a03858116911614915082806112675750815b15156112e2576040805160e560020a62461bcd028152602060048201526024808201527f5369676e6572206d757374206265206120776f726b6572206f7220656d706c6f60448201527f7965652100000000000000000000000000000000000000000000000000000000606482015290519081900360840190fd5b6112ea6104be565b90508215611302576008805461ff0019166101001790555b8115611316576008805460ff191660011790555b8015801561132757506113276104be565b156108e25760035460045460408051600160a060020a03938416815292909116602083015280517f4cd361b37129a4a13dff2704ff3bc0261c22f688c60784c2849582de8b77f1f59281900390910190a150505050565b604080517f19457468657265756d205369676e6564204d6573736167653a0a333200000000602080830191909152603c80830185905283518084039091018152605c909201928390528151600093918291908401908083835b602083106113f65780518252601f1990920191602091820191016113d7565b5181516020939093036101000a6000190180199091169216919091179052604051920182900390912095945050505050565b6000806000808451604114151561144257600093506114f4565b50505060208201516040830151606084015160001a601b60ff8216101561146757601b015b8060ff16601b1415801561147f57508060ff16601c14155b1561148d57600093506114f4565b60408051600080825260208083018085528a905260ff8516838501526060830187905260808301869052925160019360a0808501949193601f19840193928390039091019190865af11580156114e7573d6000803e3d6000fd5b5050506020604051035193505b50505092915050565b8181018281101561150a57fe5b92915050565b60008282111561151c57fe5b509003905600a165627a7a72305820108df908369d76db980da04ab52e34f10bfc80041763124cfff1c4c44481b7090029",
  "source": "pragma solidity ^0.4.24;\n\nimport { NoiaJobPostV1} from \"./NoiaJobPostV1.sol\";\nimport { ERC777Token } from \"noia-token/contracts/erc777/contracts/ERC777Token.sol\";\nimport { ERC777TokensRecipient } from \"noia-token/contracts/erc777/contracts/ERC777TokensRecipient.sol\";\nimport { ERC820Implementer } from \"noia-token/contracts/eip820/contracts/ERC820Implementer.sol\";\nimport { ECRecovery } from \"../../lib/ECRecovery.sol\";\nimport { SafeMath } from \"openzeppelin-solidity/contracts/math/SafeMath.sol\";\nimport { Owned } from \"../../abstracts/Owned.sol\";\n\ncontract NoiaWorkOrderV1 is ERC820Implementer, ERC777TokensRecipient {\n    using SafeMath for uint256;\n    using ECRecovery for bytes32;\n\n    enum Initiator { Employer, Worker  }\n\n    address public jobPost;\n    Initiator initiator;\n    ERC777Token token;\n    Owned public employer;\n    address public workerOwner;\n    mapping(bytes => bool) private signatures;\n\n    struct Timelock {\n        uint256 until;\n        uint256 amount;\n    }\n    Timelock[] timelocks;\n    uint256 public totalVested;\n\n    // contract status\n    bool public acceptedByEmployer = false;\n    bool public acceptedByWorker = false;\n\n    constructor(NoiaJobPostV1 _jobPost, Initiator _initiator, address _workerOwner) public {\n        require(msg.sender == address(_jobPost), \"Only a job post can create a work order\");\n        require(_workerOwner != address(0), \"Worker address is 0\");\n\n        setInterfaceImplementation(\"ERC777TokensRecipient\", this);\n        address tokenAddress = interfaceAddr(address(_jobPost.marketplace().tokenContract()), \"ERC777Token\");\n        require(tokenAddress != address(0), \"Marketplace Token is not an ERC777Token\");\n        token = ERC777Token(tokenAddress);\n\n        initiator = _initiator;\n        employer = _jobPost.employer();\n        workerOwner = _workerOwner;\n        jobPost = address(_jobPost);\n    }\n\n    function accept() public {\n        doAccept(msg.sender);\n    }\n\n    function delegatedAccept(uint256 _nonce, bytes _sig) public {\n        require(signatures[_sig] == false, \"Signature already exists!\");\n        signatures[_sig] = true;\n\n        bytes memory msgPacked = abi.encodePacked(address(this), \"accept\", _nonce);\n        address signer = keccak256(msgPacked).toEthSignedMessageHash().recover(_sig);\n        require(signer != address(0), \"Signer not recognized!\");\n\n        doAccept(signer);\n    }\n\n    function doAccept(address signer) private {\n        bool isWorker = signer == workerOwner;\n        bool isEmployer = signer == employer.owner();\n        require(isWorker || isEmployer, \"Signer must be a worker or employee!\");\n\n        // mark the status\n        bool oldStatus = isAccepted();\n        if (isWorker) {\n            acceptedByWorker = true;\n        }\n        if (isEmployer) {\n            acceptedByEmployer = true;\n        }\n        if (oldStatus == false && isAccepted()) {\n            emit Accepted(employer, workerOwner);\n        }\n    }\n\n    function isAccepted() public view returns (bool) {\n        return acceptedByWorker && acceptedByEmployer;\n    }\n\n    function totalFunds() public view returns (uint256) {\n        return token.balanceOf(address(this));\n    }\n\n    function timelock(uint256 _amount, uint256 _lockUntil) public {\n        require(msg.sender == employer.owner(), \"Only an employer can timelock the funds\");\n//        require(_lockUntil > now);\n        require(token.balanceOf(address(this)) >= totalVested.add(_amount), \"Total vested cannot be lower than total funds in work order\");\n        totalVested = totalVested.add(_amount);\n\n        timelocks.push(Timelock({until: _lockUntil, amount: _amount}));\n    }\n\n    function getTimelocks() public view returns(uint256[], uint256[]) {\n        uint256[] memory amounts = new uint256[](timelocks.length);\n        uint256[] memory untils = new uint256[](timelocks.length);\n\n        for (uint256 i = 0; i < timelocks.length; i++) {\n            Timelock storage tl = timelocks[i];\n            amounts[i] = tl.amount;\n            untils[i] = tl.until;\n        }\n\n        return (amounts, untils);\n    }\n\n    // have a signature (from a worker wallet) and saying there to release funds to this beneficiary address\n    function delegatedRelease(address beneficiary, uint256 _nonce, bytes _sig) public {\n        require(isAccepted(), \"Cannot release funds before work order is accepted\");\n        require(beneficiary != address(0), \"Beneficiary address is 0\");\n\n        require(signatures[_sig] == false, \"Multiple use of the same delegated message is not allowed\");\n        signatures[_sig] = true;\n\n        bytes memory msgPacked = abi.encodePacked(address(this), \"release\", beneficiary, _nonce);\n        address signer = keccak256(msgPacked).toEthSignedMessageHash().recover(_sig);\n        require(signer != address(0), \"Delegated release message signer is not recognized\");\n        require(signer == workerOwner, \"Delegated release message signer must be a worker of the work order\");\n\n        // release the ones that can be released\n        address to = beneficiary;\n        uint256 tokens = 0;\n        uint256 until;\n        uint256 n = timelocks.length;\n        uint256 timestamp = block.timestamp;\n        for (uint256 i = 0; i < n; i++) {\n            Timelock storage tl = timelocks[i];\n            until = tl.until;\n            if (until > 0 && until < timestamp) {\n                tokens = tokens.add(tl.amount);\n                tl.amount = 0;\n                tl.until = 0;\n            }\n        }\n        if (tokens > 0) {\n            totalVested = totalVested.sub(tokens);\n            token.send(to, tokens, \"\");\n            emit Released(to, tokens);\n        }\n    }\n\n    function tokensReceived(address /*operator*/, address /*from*/, address /*to*/, uint /*amount*/, bytes /*userData*/, bytes /*operatorData*/)\n        public {\n        require(msg.sender == address(token), \"We only accept token transfers from our token contract\");\n    }\n\n    event Accepted(address employer, address worker);\n    event Released(address to, uint256 amount);\n}\n",
  "sourcePath": "/srv/work/projects/noia-network/noia-governance/contracts/noia/v1/NoiaWorkOrderV1.sol",
  "compiler": {
    "name": "solc",
    "version": "0.4.24+commit.e67f0147.Emscripten.clang"
  },
  "schemaVersion": "2.0.1",
  "updatedAt": "2018-09-26T12:07:32.921Z"
}