{
  "contractName": "NoiaMarketplace",
  "abi": [
    {
      "anonymous": false,
      "inputs": [
        {
          "indexed": false,
          "name": "nodeAddress",
          "type": "address"
        }
      ],
      "name": "NodeRegistered",
      "type": "event"
    },
    {
      "anonymous": false,
      "inputs": [
        {
          "indexed": false,
          "name": "businessAddress",
          "type": "address"
        }
      ],
      "name": "BusinessRegistered",
      "type": "event"
    },
    {
      "anonymous": false,
      "inputs": [
        {
          "indexed": true,
          "name": "issuer",
          "type": "address"
        },
        {
          "indexed": true,
          "name": "recipient",
          "type": "address"
        },
        {
          "indexed": false,
          "name": "certificate",
          "type": "address"
        }
      ],
      "name": "CertificateRegistered",
      "type": "event"
    },
    {
      "constant": false,
      "inputs": [
        {
          "name": "node",
          "type": "address"
        }
      ],
      "name": "registerNode",
      "outputs": [],
      "payable": false,
      "stateMutability": "nonpayable",
      "type": "function"
    },
    {
      "constant": true,
      "inputs": [
        {
          "name": "nodeAddress",
          "type": "address"
        }
      ],
      "name": "getNodeRegistryVersion",
      "outputs": [
        {
          "name": "",
          "type": "uint16"
        }
      ],
      "payable": false,
      "stateMutability": "view",
      "type": "function"
    },
    {
      "constant": true,
      "inputs": [
        {
          "name": "nodeAddress",
          "type": "address"
        }
      ],
      "name": "getNodeContractVersion",
      "outputs": [
        {
          "name": "",
          "type": "uint16"
        }
      ],
      "payable": false,
      "stateMutability": "view",
      "type": "function"
    },
    {
      "constant": false,
      "inputs": [
        {
          "name": "business",
          "type": "address"
        }
      ],
      "name": "registerBusiness",
      "outputs": [],
      "payable": false,
      "stateMutability": "nonpayable",
      "type": "function"
    },
    {
      "constant": true,
      "inputs": [
        {
          "name": "businessAddress",
          "type": "address"
        }
      ],
      "name": "getBusinessRegistryVersion",
      "outputs": [
        {
          "name": "",
          "type": "uint16"
        }
      ],
      "payable": false,
      "stateMutability": "view",
      "type": "function"
    },
    {
      "constant": true,
      "inputs": [
        {
          "name": "businessAddress",
          "type": "address"
        }
      ],
      "name": "getBusinessContractVersion",
      "outputs": [
        {
          "name": "",
          "type": "uint16"
        }
      ],
      "payable": false,
      "stateMutability": "view",
      "type": "function"
    },
    {
      "constant": false,
      "inputs": [
        {
          "name": "certificate",
          "type": "address"
        }
      ],
      "name": "registerCertificate",
      "outputs": [],
      "payable": false,
      "stateMutability": "nonpayable",
      "type": "function"
    },
    {
      "constant": true,
      "inputs": [
        {
          "name": "certificateAddress",
          "type": "address"
        }
      ],
      "name": "getCertificateRegistryVersion",
      "outputs": [
        {
          "name": "",
          "type": "uint16"
        }
      ],
      "payable": false,
      "stateMutability": "view",
      "type": "function"
    },
    {
      "constant": true,
      "inputs": [
        {
          "name": "certificateAddress",
          "type": "address"
        }
      ],
      "name": "getCertificateContractVersion",
      "outputs": [
        {
          "name": "",
          "type": "uint16"
        }
      ],
      "payable": false,
      "stateMutability": "view",
      "type": "function"
    }
  ],
  "bytecode": "0x6060604052341561000f57600080fd5b610cb78061001e6000396000f300606060405260043610610099576000357c0100000000000000000000000000000000000000000000000000000000900463ffffffff1680634c7742d21461009e578063672d7a0d146100f35780636f7ea10a1461012c57806377bdbccc14610165578063a249f89f1461019e578063b15b9360146101f3578063cb46b99714610248578063d5414c8e1461029d578063d960a14d146102f2575b600080fd5b34156100a957600080fd5b6100d5600480803573ffffffffffffffffffffffffffffffffffffffff16906020019091905050610347565b604051808261ffff1661ffff16815260200191505060405180910390f35b34156100fe57600080fd5b61012a600480803573ffffffffffffffffffffffffffffffffffffffff169060200190919050506103a0565b005b341561013757600080fd5b610163600480803573ffffffffffffffffffffffffffffffffffffffff1690602001909190505061052a565b005b341561017057600080fd5b61019c600480803573ffffffffffffffffffffffffffffffffffffffff169060200190919050506106b5565b005b34156101a957600080fd5b6101d5600480803573ffffffffffffffffffffffffffffffffffffffff16906020019091905050610a79565b604051808261ffff1661ffff16815260200191505060405180910390f35b34156101fe57600080fd5b61022a600480803573ffffffffffffffffffffffffffffffffffffffff16906020019091905050610ad3565b604051808261ffff1661ffff16815260200191505060405180910390f35b341561025357600080fd5b61027f600480803573ffffffffffffffffffffffffffffffffffffffff16906020019091905050610b2d565b604051808261ffff1661ffff16815260200191505060405180910390f35b34156102a857600080fd5b6102d4600480803573ffffffffffffffffffffffffffffffffffffffff16906020019091905050610b87565b604051808261ffff1661ffff16815260200191505060405180910390f35b34156102fd57600080fd5b610329600480803573ffffffffffffffffffffffffffffffffffffffff16906020019091905050610be0565b604051808261ffff1661ffff16815260200191505060405180910390f35b60008060008373ffffffffffffffffffffffffffffffffffffffff1673ffffffffffffffffffffffffffffffffffffffff16815260200190815260200160002060000160029054906101000a900461ffff169050919050565b60008190506040805190810160405280600161ffff1681526020018373ffffffffffffffffffffffffffffffffffffffff166354fd4d506040518163ffffffff167c0100000000000000000000000000000000000000000000000000000000028152600401602060405180830381600087803b151561041e57600080fd5b5af1151561042b57600080fd5b5050506040518051905061ffff168152506000808373ffffffffffffffffffffffffffffffffffffffff1673ffffffffffffffffffffffffffffffffffffffff16815260200190815260200160002060008201518160000160006101000a81548161ffff021916908361ffff16021790555060208201518160000160026101000a81548161ffff021916908361ffff1602179055509050507f564728e6a7c8edd446557d94e0339d5e6ca2e05f42188914efdbdc87bcbbabf681604051808273ffffffffffffffffffffffffffffffffffffffff1673ffffffffffffffffffffffffffffffffffffffff16815260200191505060405180910390a15050565b60008190506040805190810160405280600161ffff1681526020018373ffffffffffffffffffffffffffffffffffffffff166354fd4d506040518163ffffffff167c0100000000000000000000000000000000000000000000000000000000028152600401602060405180830381600087803b15156105a857600080fd5b5af115156105b557600080fd5b5050506040518051905061ffff16815250600160008373ffffffffffffffffffffffffffffffffffffffff1673ffffffffffffffffffffffffffffffffffffffff16815260200190815260200160002060008201518160000160006101000a81548161ffff021916908361ffff16021790555060208201518160000160026101000a81548161ffff021916908361ffff1602179055509050507ffee635715ff735ecc04676edce1c3572810b100a274b1886e1e07ac54c3bde2981604051808273ffffffffffffffffffffffffffffffffffffffff1673ffffffffffffffffffffffffffffffffffffffff16815260200191505060405180910390a15050565b60008190506040805190810160405280600161ffff1681526020018373ffffffffffffffffffffffffffffffffffffffff166354fd4d506040518163ffffffff167c0100000000000000000000000000000000000000000000000000000000028152600401602060405180830381600087803b151561073357600080fd5b5af1151561074057600080fd5b5050506040518051905061ffff16815250600260008373ffffffffffffffffffffffffffffffffffffffff1673ffffffffffffffffffffffffffffffffffffffff16815260200190815260200160002060008201518160000160006101000a81548161ffff021916908361ffff16021790555060208201518160000160026101000a81548161ffff021916908361ffff160217905550905050600360008373ffffffffffffffffffffffffffffffffffffffff166366d003ac6040518163ffffffff167c0100000000000000000000000000000000000000000000000000000000028152600401602060405180830381600087803b151561084057600080fd5b5af1151561084d57600080fd5b5050506040518051905073ffffffffffffffffffffffffffffffffffffffff1673ffffffffffffffffffffffffffffffffffffffff16815260200190815260200160002080548060010182816108a39190610c3a565b9160005260206000209001600083909190916101000a81548173ffffffffffffffffffffffffffffffffffffffff021916908373ffffffffffffffffffffffffffffffffffffffff160217905550508173ffffffffffffffffffffffffffffffffffffffff166366d003ac6040518163ffffffff167c0100000000000000000000000000000000000000000000000000000000028152600401602060405180830381600087803b151561095557600080fd5b5af1151561096257600080fd5b5050506040518051905073ffffffffffffffffffffffffffffffffffffffff168273ffffffffffffffffffffffffffffffffffffffff16631d1438486040518163ffffffff167c0100000000000000000000000000000000000000000000000000000000028152600401602060405180830381600087803b15156109e557600080fd5b5af115156109f257600080fd5b5050506040518051905073ffffffffffffffffffffffffffffffffffffffff167f97bb69219af61c414a378eb9f598ed6b9ef2b66106605ba13cc2acf0687546cb83604051808273ffffffffffffffffffffffffffffffffffffffff1673ffffffffffffffffffffffffffffffffffffffff16815260200191505060405180910390a35050565b6000600260008373ffffffffffffffffffffffffffffffffffffffff1673ffffffffffffffffffffffffffffffffffffffff16815260200190815260200160002060000160009054906101000a900461ffff169050919050565b6000600160008373ffffffffffffffffffffffffffffffffffffffff1673ffffffffffffffffffffffffffffffffffffffff16815260200190815260200160002060000160009054906101000a900461ffff169050919050565b6000600260008373ffffffffffffffffffffffffffffffffffffffff1673ffffffffffffffffffffffffffffffffffffffff16815260200190815260200160002060000160029054906101000a900461ffff169050919050565b60008060008373ffffffffffffffffffffffffffffffffffffffff1673ffffffffffffffffffffffffffffffffffffffff16815260200190815260200160002060000160009054906101000a900461ffff169050919050565b6000600160008373ffffffffffffffffffffffffffffffffffffffff1673ffffffffffffffffffffffffffffffffffffffff16815260200190815260200160002060000160029054906101000a900461ffff169050919050565b815481835581811511610c6157818360005260206000209182019101610c609190610c66565b5b505050565b610c8891905b80821115610c84576000816000905550600101610c6c565b5090565b905600a165627a7a723058205f197903c336f1f71bc0383f32ce2fb9347f7e32d192caa29c115d4db160e2f80029",
  "source": "pragma solidity ^0.4.11;\n\nimport './NoiaNode.sol';\nimport './NoiaBusiness.sol';\nimport './NoiaCertificate.sol';\n\ncontract NoiaMarketplace {\n    uint16 constant CURRENT_REGISTRY_VERSION = 1;\n\n    struct RegistryEntry {\n        uint16 registryVersion;\n        uint16 contractVersion;\n    }\n\n    //\n    // Node Registry\n    //\n    mapping(address => RegistryEntry) nodes;\n\n    function registerNode(NoiaNode node) public {\n        address nodeAddress = address(node);\n        nodes[nodeAddress]  = RegistryEntry({\n            registryVersion: CURRENT_REGISTRY_VERSION,\n            contractVersion: node.version()\n        });\n        emit NodeRegistered(nodeAddress);\n    }\n\n    function getNodeRegistryVersion(address nodeAddress) public view returns (uint16) {\n        return nodes[nodeAddress].registryVersion;\n    }\n\n    function getNodeContractVersion(address nodeAddress) public view returns (uint16) {\n        return nodes[nodeAddress].contractVersion;\n    }\n\n    event NodeRegistered(address nodeAddress);\n\n    //\n    // Business Registry\n    //\n    mapping(address => RegistryEntry) businesses;\n\n    function registerBusiness(NoiaBusiness business) public {\n        address businessAddress = address(business);\n        businesses[businessAddress]  = RegistryEntry({\n            registryVersion: CURRENT_REGISTRY_VERSION,\n            contractVersion: business.version()\n        });\n        emit BusinessRegistered(businessAddress);\n    }\n\n    function getBusinessRegistryVersion(address businessAddress) public view returns (uint16) {\n        return businesses[businessAddress].registryVersion;\n    }\n\n    function getBusinessContractVersion(address businessAddress) public view returns (uint16) {\n        return businesses[businessAddress].contractVersion;\n    }\n\n    event BusinessRegistered(address businessAddress);\n\n    //\n    // Certificate Registry\n    //\n    mapping(address => RegistryEntry) certificates;\n    mapping(address => address[]) nodeCertificates;\n\n    function registerCertificate(NoiaCertificate certificate) public {\n        address certificateAddress = address(certificate);\n        certificates[certificateAddress]  = RegistryEntry({\n            registryVersion: CURRENT_REGISTRY_VERSION,\n            contractVersion: certificate.version()\n        });\n        nodeCertificates[certificate.recipient()].push(certificateAddress);\n        emit CertificateRegistered(\n            certificate.issuer(),\n            certificate.recipient(),\n            certificateAddress);\n    }\n\n    function getCertificateRegistryVersion(address certificateAddress) public view returns (uint16) {\n        return certificates[certificateAddress].registryVersion;\n    }\n\n    function getCertificateContractVersion(address certificateAddress) public view returns (uint16) {\n        return certificates[certificateAddress].contractVersion;\n    }\n\n    event CertificateRegistered(address indexed issuer, address indexed recipient, address certificate);\n}\n",
  "sourcePath": "/home/hellwolf/Projects/noia/noia-governance/contracts/NoiaMarketplace.sol",
  "compiler": {
    "name": "solc",
    "version": "0.4.21+commit.dfe3193c.Emscripten.clang"
  },
  "schemaVersion": "2.0.0",
  "updatedAt": "2018-04-14T21:34:04.648Z"
}