{
  "contractName": "NoiaJobPostV1",
  "abi": [
    {
      "constant": true,
      "inputs": [],
      "name": "creator",
      "outputs": [
        {
          "name": "",
          "type": "address"
        }
      ],
      "payable": false,
      "stateMutability": "view",
      "type": "function"
    },
    {
      "constant": true,
      "inputs": [],
      "name": "employerAddress",
      "outputs": [
        {
          "name": "",
          "type": "address"
        }
      ],
      "payable": false,
      "stateMutability": "view",
      "type": "function"
    },
    {
      "constant": true,
      "inputs": [],
      "name": "version",
      "outputs": [
        {
          "name": "",
          "type": "uint16"
        }
      ],
      "payable": false,
      "stateMutability": "view",
      "type": "function"
    },
    {
      "constant": true,
      "inputs": [],
      "name": "tokenContract",
      "outputs": [
        {
          "name": "",
          "type": "address"
        }
      ],
      "payable": false,
      "stateMutability": "view",
      "type": "function"
    },
    {
      "constant": true,
      "inputs": [],
      "name": "owner",
      "outputs": [
        {
          "name": "",
          "type": "address"
        }
      ],
      "payable": false,
      "stateMutability": "view",
      "type": "function"
    },
    {
      "constant": false,
      "inputs": [
        {
          "name": "_newOwner",
          "type": "address"
        }
      ],
      "name": "changeOwner",
      "outputs": [],
      "payable": false,
      "stateMutability": "nonpayable",
      "type": "function"
    },
    {
      "inputs": [
        {
          "name": "tokenContract_",
          "type": "address"
        }
      ],
      "payable": false,
      "stateMutability": "nonpayable",
      "type": "constructor"
    },
    {
      "anonymous": false,
      "inputs": [
        {
          "indexed": true,
          "name": "jobPostAddress",
          "type": "address"
        },
        {
          "indexed": true,
          "name": "workerAddress",
          "type": "address"
        },
        {
          "indexed": false,
          "name": "workContractAddress",
          "type": "address"
        }
      ],
      "name": "NoiaContractProposedV1",
      "type": "event"
    },
    {
      "constant": false,
      "inputs": [
        {
          "name": "workerAddress",
          "type": "address"
        }
      ],
      "name": "createContract",
      "outputs": [],
      "payable": false,
      "stateMutability": "nonpayable",
      "type": "function"
    },
    {
      "constant": false,
      "inputs": [
        {
          "name": "workerAddress",
          "type": "address"
        }
      ],
      "name": "proposeContract",
      "outputs": [],
      "payable": false,
      "stateMutability": "nonpayable",
      "type": "function"
    },
    {
      "constant": true,
      "inputs": [
        {
          "name": "workerAddress",
          "type": "address"
        }
      ],
      "name": "getProposedContracts",
      "outputs": [
        {
          "name": "proposals",
          "type": "address[2]"
        }
      ],
      "payable": false,
      "stateMutability": "view",
      "type": "function"
    }
  ],
  "bytecode": "0x6060604052341561000f57600080fd5b60405160208061146e83398101604052808051906020019091905050600133600160006101000a81548173ffffffffffffffffffffffffffffffffffffffff021916908373ffffffffffffffffffffffffffffffffffffffff16021790556000806101000a81548173ffffffffffffffffffffffffffffffffffffffff021916908373ffffffffffffffffffffffffffffffffffffffff16021790555080600160146101000a81548161ffff021916908361ffff1602179055505080600260006101000a81548173ffffffffffffffffffffffffffffffffffffffff021916908373ffffffffffffffffffffffffffffffffffffffff160217905550506113538061011b6000396000f300606060405260043610610099576000357c0100000000000000000000000000000000000000000000000000000000900463ffffffff16806302d05d3f1461009e5780630d0175a9146100f357806354fd4d501461014857806355a373d614610179578063691f9f22146101ce5780638da5cb5b14610243578063a6f9dae114610298578063e2d73ccd146102d1578063f88df7301461030a575b600080fd5b34156100a957600080fd5b6100b1610343565b604051808273ffffffffffffffffffffffffffffffffffffffff1673ffffffffffffffffffffffffffffffffffffffff16815260200191505060405180910390f35b34156100fe57600080fd5b610106610368565b604051808273ffffffffffffffffffffffffffffffffffffffff1673ffffffffffffffffffffffffffffffffffffffff16815260200191505060405180910390f35b341561015357600080fd5b61015b61038e565b604051808261ffff1661ffff16815260200191505060405180910390f35b341561018457600080fd5b61018c6103a2565b604051808273ffffffffffffffffffffffffffffffffffffffff1673ffffffffffffffffffffffffffffffffffffffff16815260200191505060405180910390f35b34156101d957600080fd5b610205600480803573ffffffffffffffffffffffffffffffffffffffff169060200190919050506103c8565b6040518082600260200280838360005b83811015610230578082015181840152602081019050610215565b5050505090500191505060405180910390f35b341561024e57600080fd5b610256610521565b604051808273ffffffffffffffffffffffffffffffffffffffff1673ffffffffffffffffffffffffffffffffffffffff16815260200191505060405180910390f35b34156102a357600080fd5b6102cf600480803573ffffffffffffffffffffffffffffffffffffffff16906020019091905050610547565b005b34156102dc57600080fd5b610308600480803573ffffffffffffffffffffffffffffffffffffffff169060200190919050506105e7565b005b341561031557600080fd5b610341600480803573ffffffffffffffffffffffffffffffffffffffff169060200190919050506108d8565b005b6000809054906101000a900473ffffffffffffffffffffffffffffffffffffffff1681565b600360009054906101000a900473ffffffffffffffffffffffffffffffffffffffff1681565b600160149054906101000a900461ffff1681565b600260009054906101000a900473ffffffffffffffffffffffffffffffffffffffff1681565b6103d0610ad6565b600460008373ffffffffffffffffffffffffffffffffffffffff1673ffffffffffffffffffffffffffffffffffffffff16815260200190815260200160002060009054906101000a900473ffffffffffffffffffffffffffffffffffffffff1681600060028110151561043f57fe5b602002019073ffffffffffffffffffffffffffffffffffffffff16908173ffffffffffffffffffffffffffffffffffffffff1681525050600460008373ffffffffffffffffffffffffffffffffffffffff1673ffffffffffffffffffffffffffffffffffffffff16815260200190815260200160002060009054906101000a900473ffffffffffffffffffffffffffffffffffffffff168160016002811015156104e557fe5b602002019073ffffffffffffffffffffffffffffffffffffffff16908173ffffffffffffffffffffffffffffffffffffffff1681525050919050565b600160009054906101000a900473ffffffffffffffffffffffffffffffffffffffff1681565b600160009054906101000a900473ffffffffffffffffffffffffffffffffffffffff1673ffffffffffffffffffffffffffffffffffffffff163373ffffffffffffffffffffffffffffffffffffffff161415156105a357600080fd5b80600160006101000a81548173ffffffffffffffffffffffffffffffffffffffff021916908373ffffffffffffffffffffffffffffffffffffffff16021790555050565b600080600360009054906101000a900473ffffffffffffffffffffffffffffffffffffffff1673ffffffffffffffffffffffffffffffffffffffff163373ffffffffffffffffffffffffffffffffffffffff161415610768576000915030828461064f610b13565b808473ffffffffffffffffffffffffffffffffffffffff1673ffffffffffffffffffffffffffffffffffffffff16815260200183600181111561068e57fe5b60ff1681526020018273ffffffffffffffffffffffffffffffffffffffff1673ffffffffffffffffffffffffffffffffffffffff1681526020019350505050604051809103906000f08015156106e357600080fd5b905080600460008573ffffffffffffffffffffffffffffffffffffffff1673ffffffffffffffffffffffffffffffffffffffff16815260200190815260200160002060006101000a81548173ffffffffffffffffffffffffffffffffffffffff021916908373ffffffffffffffffffffffffffffffffffffffff1602179055506108d3565b8273ffffffffffffffffffffffffffffffffffffffff163373ffffffffffffffffffffffffffffffffffffffff1614156108c457600191503082846107ab610b13565b808473ffffffffffffffffffffffffffffffffffffffff1673ffffffffffffffffffffffffffffffffffffffff1681526020018360018111156107ea57fe5b60ff1681526020018273ffffffffffffffffffffffffffffffffffffffff1673ffffffffffffffffffffffffffffffffffffffff1681526020019350505050604051809103906000f080151561083f57600080fd5b905080600560008573ffffffffffffffffffffffffffffffffffffffff1673ffffffffffffffffffffffffffffffffffffffff16815260200190815260200160002060006101000a81548173ffffffffffffffffffffffffffffffffffffffff021916908373ffffffffffffffffffffffffffffffffffffffff1602179055506108d2565b600015156108d157600080fd5b5b5b505050565b6000600360009054906101000a900473ffffffffffffffffffffffffffffffffffffffff1673ffffffffffffffffffffffffffffffffffffffff163373ffffffffffffffffffffffffffffffffffffffff16141561099757600460008373ffffffffffffffffffffffffffffffffffffffff1673ffffffffffffffffffffffffffffffffffffffff16815260200190815260200160002060009054906101000a900473ffffffffffffffffffffffffffffffffffffffff169050610a41565b8173ffffffffffffffffffffffffffffffffffffffff163373ffffffffffffffffffffffffffffffffffffffff161415610a3257600560008373ffffffffffffffffffffffffffffffffffffffff1673ffffffffffffffffffffffffffffffffffffffff16815260200190815260200160002060009054906101000a900473ffffffffffffffffffffffffffffffffffffffff169050610a40565b60001515610a3f57600080fd5b5b5b8173ffffffffffffffffffffffffffffffffffffffff163073ffffffffffffffffffffffffffffffffffffffff167f92fadbadb77c63cf091995b5e09c2bf4f49fd55484b9faa61b6d6701baff848083604051808273ffffffffffffffffffffffffffffffffffffffff1673ffffffffffffffffffffffffffffffffffffffff16815260200191505060405180910390a35050565b60408051908101604052806002905b600073ffffffffffffffffffffffffffffffffffffffff16815260200190600190039081610ae55790505090565b60405161080480610b2483390190560060606040526000600660006101000a81548160ff0219169083151502179055506000600660016101000a81548160ff0219169083151502179055506000600755341561004a57600080fd5b604051606080610804833981016040528080519060200190919080519060200190919080519060200190919050508273ffffffffffffffffffffffffffffffffffffffff163373ffffffffffffffffffffffffffffffffffffffff161415156100b257600080fd5b82600160006101000a81548173ffffffffffffffffffffffffffffffffffffffff021916908373ffffffffffffffffffffffffffffffffffffffff16021790555081600160146101000a81548160ff0219169083600181111561011157fe5b021790555080600260006101000a81548173ffffffffffffffffffffffffffffffffffffffff021916908373ffffffffffffffffffffffffffffffffffffffff16021790555050505061069b806101696000396000f3006060604052600436106100af576000357c0100000000000000000000000000000000000000000000000000000000900463ffffffff16806336f152a3146100b45780633c206412146100c957806355a373d6146100de5780637c6543031461013357806394566d2514610160578063b146e129146101b5578063c0ee0b8a146101e2578063cbd88f4814610267578063e66a6b22146102bc578063eae19df4146102e9578063f26ef65f14610312575b600080fd5b34156100bf57600080fd5b6100c761033f565b005b34156100d457600080fd5b6100dc610431565b005b34156100e957600080fd5b6100f16104aa565b604051808273ffffffffffffffffffffffffffffffffffffffff1673ffffffffffffffffffffffffffffffffffffffff16815260200191505060405180910390f35b341561013e57600080fd5b6101466104cf565b604051808215151515815260200191505060405180910390f35b341561016b57600080fd5b6101736104de565b604051808273ffffffffffffffffffffffffffffffffffffffff1673ffffffffffffffffffffffffffffffffffffffff16815260200191505060405180910390f35b34156101c057600080fd5b6101c8610504565b604051808215151515815260200191505060405180910390f35b34156101ed57600080fd5b610265600480803573ffffffffffffffffffffffffffffffffffffffff1690602001909190803590602001909190803590602001908201803590602001908080601f01602080910402602001604051908101604052809392919081815260200183838082843782019150505050505091905050610517565b005b341561027257600080fd5b61027a610601565b604051808273ffffffffffffffffffffffffffffffffffffffff1673ffffffffffffffffffffffffffffffffffffffff16815260200191505060405180910390f35b34156102c757600080fd5b6102cf610627565b604051808215151515815260200191505060405180910390f35b34156102f457600080fd5b6102fc610656565b6040518082815260200191505060405180910390f35b341561031d57600080fd5b61032561065c565b604051808215151515815260200191505060405180910390f35b3373ffffffffffffffffffffffffffffffffffffffff16600160009054906101000a900473ffffffffffffffffffffffffffffffffffffffff1673ffffffffffffffffffffffffffffffffffffffff16630d0175a96040518163ffffffff167c0100000000000000000000000000000000000000000000000000000000028152600401602060405180830381600087803b15156103db57600080fd5b5af115156103e857600080fd5b5050506040518051905073ffffffffffffffffffffffffffffffffffffffff1614151561041457600080fd5b6001600660006101000a81548160ff021916908315150217905550565b3373ffffffffffffffffffffffffffffffffffffffff16600260009054906101000a900473ffffffffffffffffffffffffffffffffffffffff1673ffffffffffffffffffffffffffffffffffffffff1614151561048d57600080fd5b6001600660016101000a81548160ff021916908315150217905550565b6000809054906101000a900473ffffffffffffffffffffffffffffffffffffffff1681565b60006004546007541015905090565b600160009054906101000a900473ffffffffffffffffffffffffffffffffffffffff1681565b600660009054906101000a900460ff1681565b600160009054906101000a900473ffffffffffffffffffffffffffffffffffffffff1673ffffffffffffffffffffffffffffffffffffffff166355a373d66040518163ffffffff167c0100000000000000000000000000000000000000000000000000000000028152600401602060405180830381600087803b151561059c57600080fd5b5af115156105a957600080fd5b5050506040518051905073ffffffffffffffffffffffffffffffffffffffff163373ffffffffffffffffffffffffffffffffffffffff161415156105ec57600080fd5b81600760008282540192505081905550505050565b600260009054906101000a900473ffffffffffffffffffffffffffffffffffffffff1681565b6000600660009054906101000a900460ff1680156106515750600660019054906101000a900460ff165b905090565b60075481565b600660019054906101000a900460ff16815600a165627a7a72305820b5ad02b75b23d6a9743361405092e6472c033b687cd09447afce04ecdee7f5650029a165627a7a72305820a38bcb632667cc054c6ea211b7f30a09f4823139bec877ffb89460d64b00e0ca0029",
  "source": "pragma solidity ^0.4.11;\n\nimport './NoiaBaseContractV1.sol';\nimport './NoiaNodeV1.sol';\nimport './NoiaWorkContractV1.sol';\n\n/**\n * Standard Noia Job Post Contract V1 (Draft)\n *\n */\ncontract NoiaJobPostV1\n    is NoiaBaseContractV1 {\n    ERC223Interface public tokenContract;\n    address public employerAddress;\n\n    mapping(address => NoiaWorkContractV1) employerCreatedContracts;\n    mapping(address => NoiaWorkContractV1) workerCreatedContracts;\n\n    function NoiaJobPostV1(ERC223Interface tokenContract_) public {\n        tokenContract = tokenContract_;\n    }\n\n    function createContract(address workerAddress) public {\n        NoiaWorkContractV1.Initiator initiator;\n        NoiaWorkContractV1 workContract;\n        if (msg.sender == employerAddress) {\n            initiator = NoiaWorkContractV1.Initiator.Employer;\n            workContract = new NoiaWorkContractV1(this, initiator, workerAddress);\n            employerCreatedContracts[workerAddress] = workContract;\n        } else if (msg.sender == workerAddress) {\n            initiator = NoiaWorkContractV1.Initiator.Worker;\n            workContract = new NoiaWorkContractV1(this, initiator, workerAddress);\n            workerCreatedContracts[workerAddress] = workContract;\n        } else {\n            require(false);\n        }\n    }\n\n    function proposeContract(address workerAddress) public {\n        address workContractAddress;\n        if (msg.sender == employerAddress) {\n            workContractAddress = employerCreatedContracts[workerAddress];\n        } else if (msg.sender == workerAddress) {\n            workContractAddress = workerCreatedContracts[workerAddress];\n        } else {\n            require(false);\n        }\n        emit NoiaContractProposedV1(this, workerAddress, workContractAddress);\n    }\n\n    /**\n     * Get proposed contracts from employer and worker\n     *\n     * [0] - contract proposal from employer\n     * [1] - contract proposal from worker\n     */\n    function getProposedContracts(address workerAddress) public view returns (address[2] proposals) {\n        proposals[0] = employerCreatedContracts[workerAddress];\n        proposals[1] = employerCreatedContracts[workerAddress];\n    }\n\n    event NoiaContractProposedV1(\n        address indexed jobPostAddress,\n        address indexed workerAddress,\n        address workContractAddress);\n}\n",
  "sourcePath": "/home/hellwolf/Projects/noia/noia-governance/contracts/noia/v1/NoiaJobPostV1.sol",
  "compiler": {
    "name": "solc",
    "version": "0.4.21+commit.dfe3193c.Emscripten.clang"
  },
  "schemaVersion": "2.0.0",
  "updatedAt": "2018-04-18T01:25:36.181Z"
}