{
  "contractName": "Owned",
  "abi": [
    {
      "constant": true,
      "inputs": [],
      "name": "owner",
      "outputs": [
        {
          "name": "",
          "type": "address"
        }
      ],
      "payable": false,
      "stateMutability": "view",
      "type": "function"
    },
    {
      "inputs": [],
      "payable": false,
      "stateMutability": "nonpayable",
      "type": "constructor"
    },
    {
      "constant": false,
      "inputs": [
        {
          "name": "_newOwner",
          "type": "address"
        }
      ],
      "name": "changeOwner",
      "outputs": [],
      "payable": false,
      "stateMutability": "nonpayable",
      "type": "function"
    }
  ],
  "bytecode": "0x608060405234801561001057600080fd5b5060008054600160a060020a03191633179055610166806100326000396000f30060806040526004361061004b5763ffffffff7c01000000000000000000000000000000000000000000000000000000006000350416638da5cb5b8114610050578063a6f9dae11461008e575b600080fd5b34801561005c57600080fd5b506100656100be565b6040805173ffffffffffffffffffffffffffffffffffffffff9092168252519081900360200190f35b34801561009a57600080fd5b506100bc73ffffffffffffffffffffffffffffffffffffffff600435166100da565b005b60005473ffffffffffffffffffffffffffffffffffffffff1681565b60005473ffffffffffffffffffffffffffffffffffffffff1633146100fe57600080fd5b6000805473ffffffffffffffffffffffffffffffffffffffff191673ffffffffffffffffffffffffffffffffffffffff929092169190911790555600a165627a7a723058201a918cc53fdec944d53ef4950d2f00321824d564c015614a21afaaabe90eaddd0029",
  "source": "pragma solidity ^0.4.0;\n\ncontract Owned {\n    /// Allows only the owner to call a function\n    modifier onlyOwner {\n        require (msg.sender == owner);\n        _;\n    }\n\n    address public owner;\n\n    constructor() public { owner = msg.sender;}\n\n    function changeOwner(address _newOwner) onlyOwner public {\n        owner = _newOwner;\n    }\n}\n",
  "sourcePath": "/srv/work/projects/noia-network/noia-governance/contracts/abstracts/Owned.sol",
  "compiler": {
    "name": "solc",
    "version": "0.4.24+commit.e67f0147.Emscripten.clang"
  },
  "schemaVersion": "2.0.1",
  "updatedAt": "2018-08-26T12:23:56.167Z"
}