{
  "contractName": "ERC223WithFallback",
  "abi": [
    {
      "constant": true,
      "inputs": [],
      "name": "tokenReceived",
      "outputs": [
        {
          "name": "",
          "type": "uint256"
        }
      ],
      "payable": false,
      "stateMutability": "view",
      "type": "function"
    },
    {
      "constant": false,
      "inputs": [
        {
          "name": "",
          "type": "address"
        },
        {
          "name": "_value",
          "type": "uint256"
        },
        {
          "name": "",
          "type": "bytes"
        }
      ],
      "name": "tokenFallback",
      "outputs": [],
      "payable": false,
      "stateMutability": "nonpayable",
      "type": "function"
    }
  ],
  "bytecode": "0x606060405260008055341561001357600080fd5b610145806100226000396000f30060606040526004361061004c576000357c0100000000000000000000000000000000000000000000000000000000900463ffffffff168063c0ee0b8a14610051578063eae19df4146100d6575b600080fd5b341561005c57600080fd5b6100d4600480803573ffffffffffffffffffffffffffffffffffffffff1690602001909190803590602001909190803590602001908201803590602001908080601f016020809104026020016040519081016040528093929190818152602001838380828437820191505050505050919050506100ff565b005b34156100e157600080fd5b6100e9610113565b6040518082815260200191505060405180910390f35b816000808282540192505081905550505050565b600054815600a165627a7a723058207098f728c8243d81445e1f6aa9e91b48aacd4710a5adc0ca69b04d32172bf9860029",
  "source": "pragma solidity ^0.4.11;\n\ncontract ERC223NoFallback {\n}\n\ncontract ERC223WithFallback {\n    uint public tokenReceived = 0;\n\n    function tokenFallback(address /*_from*/, uint _value, bytes /*_data*/) public {\n        tokenReceived += _value;\n    }\n}\n",
  "sourcePath": "/home/hellwolf/Projects/noia/noia-governance/contracts/test/ERC223TestContracts.sol",
  "compiler": {
    "name": "solc",
    "version": "0.4.19+commit.c4cbbb05.Emscripten.clang"
  },
  "schemaVersion": "2.0.0",
  "updatedAt": "2018-04-05T07:13:53.251Z"
}