{
  "contractName": "NOIATestToken",
  "abi": [
    {
      "constant": true,
      "inputs": [],
      "name": "totalSupply",
      "outputs": [
        {
          "name": "",
          "type": "uint256"
        }
      ],
      "payable": false,
      "stateMutability": "view",
      "type": "function"
    },
    {
      "anonymous": false,
      "inputs": [
        {
          "indexed": true,
          "name": "from",
          "type": "address"
        },
        {
          "indexed": true,
          "name": "to",
          "type": "address"
        },
        {
          "indexed": false,
          "name": "value",
          "type": "uint256"
        },
        {
          "indexed": false,
          "name": "data",
          "type": "bytes"
        }
      ],
      "name": "Transfer",
      "type": "event"
    },
    {
      "anonymous": false,
      "inputs": [
        {
          "indexed": true,
          "name": "from",
          "type": "address"
        },
        {
          "indexed": true,
          "name": "to",
          "type": "address"
        },
        {
          "indexed": false,
          "name": "value",
          "type": "uint256"
        }
      ],
      "name": "Transfer",
      "type": "event"
    },
    {
      "constant": true,
      "inputs": [],
      "name": "name",
      "outputs": [
        {
          "name": "",
          "type": "string"
        }
      ],
      "payable": false,
      "stateMutability": "view",
      "type": "function"
    },
    {
      "constant": true,
      "inputs": [],
      "name": "symbol",
      "outputs": [
        {
          "name": "",
          "type": "string"
        }
      ],
      "payable": false,
      "stateMutability": "view",
      "type": "function"
    },
    {
      "constant": true,
      "inputs": [],
      "name": "decimals",
      "outputs": [
        {
          "name": "",
          "type": "uint256"
        }
      ],
      "payable": false,
      "stateMutability": "view",
      "type": "function"
    },
    {
      "constant": false,
      "inputs": [
        {
          "name": "_to",
          "type": "address"
        },
        {
          "name": "_value",
          "type": "uint256"
        }
      ],
      "name": "transfer",
      "outputs": [],
      "payable": false,
      "stateMutability": "nonpayable",
      "type": "function"
    },
    {
      "constant": false,
      "inputs": [
        {
          "name": "_to",
          "type": "address"
        },
        {
          "name": "_value",
          "type": "uint256"
        },
        {
          "name": "_data",
          "type": "bytes"
        }
      ],
      "name": "transfer",
      "outputs": [],
      "payable": false,
      "stateMutability": "nonpayable",
      "type": "function"
    },
    {
      "constant": true,
      "inputs": [
        {
          "name": "_owner",
          "type": "address"
        }
      ],
      "name": "balanceOf",
      "outputs": [
        {
          "name": "balance",
          "type": "uint256"
        }
      ],
      "payable": false,
      "stateMutability": "view",
      "type": "function"
    },
    {
      "constant": false,
      "inputs": [
        {
          "name": "beneficiary",
          "type": "address"
        },
        {
          "name": "amount",
          "type": "uint256"
        }
      ],
      "name": "createTokens",
      "outputs": [],
      "payable": false,
      "stateMutability": "nonpayable",
      "type": "function"
    }
  ],
  "bytecode": "0x6060604052341561000f57600080fd5b6109fe8061001e6000396000f30060606040526004361061008e576000357c0100000000000000000000000000000000000000000000000000000000900463ffffffff16806306fdde031461009357806318160ddd14610121578063313ce5671461014a57806370a082311461017357806395d89b41146101c0578063a69e894e1461024e578063a9059cbb14610290578063be45fd62146102d2575b600080fd5b341561009e57600080fd5b6100a6610357565b6040518080602001828103825283818151815260200191508051906020019080838360005b838110156100e65780820151818401526020810190506100cb565b50505050905090810190601f1680156101135780820380516001836020036101000a031916815260200191505b509250505060405180910390f35b341561012c57600080fd5b61013461039a565b6040518082815260200191505060405180910390f35b341561015557600080fd5b61015d6103a0565b6040518082815260200191505060405180910390f35b341561017e57600080fd5b6101aa600480803573ffffffffffffffffffffffffffffffffffffffff169060200190919050506103a8565b6040518082815260200191505060405180910390f35b34156101cb57600080fd5b6101d36103f1565b6040518080602001828103825283818151815260200191508051906020019080838360005b838110156102135780820151818401526020810190506101f8565b50505050905090810190601f1680156102405780820380516001836020036101000a031916815260200191505b509250505060405180910390f35b341561025957600080fd5b61028e600480803573ffffffffffffffffffffffffffffffffffffffff16906020019091908035906020019091905050610434565b005b341561029b57600080fd5b6102d0600480803573ffffffffffffffffffffffffffffffffffffffff169060200190919080359060200190919050506105aa565b005b34156102dd57600080fd5b610355600480803573ffffffffffffffffffffffffffffffffffffffff1690602001909190803590602001909190803590602001908201803590602001908080601f016020809104026020016040519081016040528093929190818152602001838380828437820191505050505050919050506105c2565b005b61035f6109aa565b6040805190810160405280600f81526020017f4e4f4941205465737420546f6b656e0000000000000000000000000000000000815250905090565b60005481565b600080905090565b6000600160008373ffffffffffffffffffffffffffffffffffffffff1673ffffffffffffffffffffffffffffffffffffffff168152602001908152602001600020549050919050565b6103f96109aa565b6040805190810160405280600981526020017f4e4f49415f544553540000000000000000000000000000000000000000000000815250905090565b61043c6109be565b81600160008573ffffffffffffffffffffffffffffffffffffffff1673ffffffffffffffffffffffffffffffffffffffff168152602001908152602001600020600082825401925050819055508160008082825401925050819055508273ffffffffffffffffffffffffffffffffffffffff1660007fddf252ad1be2c89b69c2b068fc378daa952ba7f163c4a11628f55a4df523b3ef846040518082815260200191505060405180910390a38273ffffffffffffffffffffffffffffffffffffffff1660007fe19260aff97b920c7df27010903aeb9c8d2be5d310a2c67824cf3f15396e4c1684846040518083815260200180602001828103825283818151815260200191508051906020019080838360005b8381101561056a57808201518184015260208101905061054f565b50505050905090810190601f1680156105975780820380516001836020036101000a031916815260200191505b50935050505060405180910390a3505050565b6105b26109be565b6105bd8383836105c2565b505050565b600061061683600160003373ffffffffffffffffffffffffffffffffffffffff1673ffffffffffffffffffffffffffffffffffffffff1681526020019081526020016000205461096090919063ffffffff16565b600160003373ffffffffffffffffffffffffffffffffffffffff1673ffffffffffffffffffffffffffffffffffffffff168152602001908152602001600020819055506106ab83600160008773ffffffffffffffffffffffffffffffffffffffff1673ffffffffffffffffffffffffffffffffffffffff1681526020019081526020016000205461097990919063ffffffff16565b600160008673ffffffffffffffffffffffffffffffffffffffff1673ffffffffffffffffffffffffffffffffffffffff168152602001908152602001600020819055506106f784610997565b15610823578390508073ffffffffffffffffffffffffffffffffffffffff1663c0ee0b8a3385856040518463ffffffff167c0100000000000000000000000000000000000000000000000000000000028152600401808473ffffffffffffffffffffffffffffffffffffffff1673ffffffffffffffffffffffffffffffffffffffff16815260200183815260200180602001828103825283818151815260200191508051906020019080838360005b838110156107c15780820151818401526020810190506107a6565b50505050905090810190601f1680156107ee5780820380516001836020036101000a031916815260200191505b50945050505050600060405180830381600087803b151561080e57600080fd5b6102c65a03f1151561081f57600080fd5b5050505b8373ffffffffffffffffffffffffffffffffffffffff163373ffffffffffffffffffffffffffffffffffffffff167fddf252ad1be2c89b69c2b068fc378daa952ba7f163c4a11628f55a4df523b3ef856040518082815260200191505060405180910390a38373ffffffffffffffffffffffffffffffffffffffff163373ffffffffffffffffffffffffffffffffffffffff167fe19260aff97b920c7df27010903aeb9c8d2be5d310a2c67824cf3f15396e4c1685856040518083815260200180602001828103825283818151815260200191508051906020019080838360005b8381101561091f578082015181840152602081019050610904565b50505050905090810190601f16801561094c5780820380516001836020036101000a031916815260200191505b50935050505060405180910390a350505050565b600082821115151561096e57fe5b818303905092915050565b600080828401905083811015151561098d57fe5b8091505092915050565b600080823b905060008111915050919050565b602060405190810160405280600081525090565b6020604051908101604052806000815250905600a165627a7a72305820e44e6a71ef39221253d52cf181f5e03d59355e46676ae97aface619abedc0f3c0029",
  "source": "pragma solidity ^0.4.11;\n\nimport \"./abstracts/ERC223_interface.sol\";\nimport \"./abstracts/ERC223_receiving_contract.sol\";\nimport \"./lib/SafeMath.sol\";\n\ncontract NOIATestToken is ERC223Interface {\n    using SafeMath for uint;\n\n    mapping(address => uint) balances; // List of user balances.\n\n    function name() constant public returns (string) { return \"NOIA Test Token\"; }\n    function symbol() constant public returns (string) { return \"NOIA_TEST\"; }\n    function decimals() constant public returns (uint) { return 0; }\n\n    /**\n    * @dev Transfer the specified amount of tokens to the specified address.\n    *      Invokes the `tokenFallback` function if the recipient is a contract.\n    *      The token transfer fails if the recipient is a contract\n    *      but does not implement the `tokenFallback` function\n    *      or the fallback function to receive funds.\n    *\n    * @param _to    Receiver address.\n    * @param _value Amount of tokens that will be transferred.\n    * @param _data  Transaction metadata.\n    */\n    function transfer(address _to, uint _value, bytes _data) public {\n        balances[msg.sender] = balances[msg.sender].sub(_value);\n        balances[_to] = balances[_to].add(_value);\n        if (isContract(_to)) {\n            ERC223ReceivingContract receiver = ERC223ReceivingContract(_to);\n            receiver.tokenFallback(msg.sender, _value, _data);\n        }\n        Transfer(msg.sender, _to, _value);\n        Transfer(msg.sender, _to, _value, _data);\n    }\n\n    /**\n    * @dev Transfer the specified amount of tokens to the specified address.\n    *      This function works the same with the previous one\n    *      but doesn't contain `_data` param.\n    *      Added due to backwards compatibility reasons.\n    *\n    * @param _to    Receiver address.\n    * @param _value Amount of tokens that will be transferred.\n    */\n    function transfer(address _to, uint _value) public {\n        bytes memory empty;\n        transfer(_to, _value, empty);\n    }\n\n    /**\n    * @dev Returns balance of the `_owner`.\n    *\n    * @param _owner   The address whose balance will be returned.\n    * @return balance Balance of the `_owner`.\n    */\n    function balanceOf(address _owner) constant public returns (uint balance) {\n        return balances[_owner];\n    }\n\n    // create test tokens\n    function createTokens(address beneficiary, uint amount) public {\n        bytes memory empty;\n        balances[beneficiary] += amount;               // Give the creator all initial tokens\n        totalSupply += amount;                        // Update total supply\n        Transfer(0, beneficiary, amount);\n        Transfer(0, beneficiary, amount, empty);\n    }\n\n    function isContract(address _to) private view returns (bool) {\n        uint codeLength;\n        assembly {\n            // Retrieve the size of the code on target address, this needs assembly .\n            codeLength := extcodesize(_to)\n        }\n        return codeLength > 0;\n    }\n}\n",
  "sourcePath": "/home/hellwolf/Projects/noia/noia-governance/contracts/NOIATestToken.sol",
  "compiler": {
    "name": "solc",
    "version": "0.4.19+commit.c4cbbb05.Emscripten.clang"
  },
  "schemaVersion": "2.0.0",
  "updatedAt": "2018-04-05T07:27:39.951Z"
}